{
  "_format": "hh-sol-artifact-1",
  "contractName": "NFTMarketplace",
  "sourceName": "contracts/NFTMarketplace.sol",
  "abi": [
    {
      "inputs": [],
      "stateMutability": "nonpayable",
      "type": "constructor"
    },
    {
      "anonymous": false,
      "inputs": [
        {
          "indexed": true,
          "internalType": "address",
          "name": "owner",
          "type": "address"
        },
        {
          "indexed": true,
          "internalType": "address",
          "name": "approved",
          "type": "address"
        },
        {
          "indexed": true,
          "internalType": "uint256",
          "name": "tokenId",
          "type": "uint256"
        }
      ],
      "name": "Approval",
      "type": "event"
    },
    {
      "anonymous": false,
      "inputs": [
        {
          "indexed": true,
          "internalType": "address",
          "name": "owner",
          "type": "address"
        },
        {
          "indexed": true,
          "internalType": "address",
          "name": "operator",
          "type": "address"
        },
        {
          "indexed": false,
          "internalType": "bool",
          "name": "approved",
          "type": "bool"
        }
      ],
      "name": "ApprovalForAll",
      "type": "event"
    },
    {
      "anonymous": false,
      "inputs": [
        {
          "indexed": true,
          "internalType": "uint256",
          "name": "tokenId",
          "type": "uint256"
        },
        {
          "indexed": false,
          "internalType": "address",
          "name": "seller",
          "type": "address"
        },
        {
          "indexed": false,
          "internalType": "uint256",
          "name": "price",
          "type": "uint256"
        },
        {
          "indexed": false,
          "internalType": "bool",
          "name": "forSale",
          "type": "bool"
        }
      ],
      "name": "NFTListedSuccess",
      "type": "event"
    },
    {
      "anonymous": false,
      "inputs": [
        {
          "indexed": true,
          "internalType": "address",
          "name": "from",
          "type": "address"
        },
        {
          "indexed": true,
          "internalType": "address",
          "name": "to",
          "type": "address"
        },
        {
          "indexed": true,
          "internalType": "uint256",
          "name": "tokenId",
          "type": "uint256"
        }
      ],
      "name": "Transfer",
      "type": "event"
    },
    {
      "inputs": [
        {
          "internalType": "address",
          "name": "to",
          "type": "address"
        },
        {
          "internalType": "uint256",
          "name": "tokenId",
          "type": "uint256"
        }
      ],
      "name": "approve",
      "outputs": [],
      "stateMutability": "nonpayable",
      "type": "function"
    },
    {
      "inputs": [
        {
          "internalType": "address",
          "name": "owner",
          "type": "address"
        }
      ],
      "name": "balanceOf",
      "outputs": [
        {
          "internalType": "uint256",
          "name": "",
          "type": "uint256"
        }
      ],
      "stateMutability": "view",
      "type": "function"
    },
    {
      "inputs": [
        {
          "internalType": "uint256",
          "name": "tokenId",
          "type": "uint256"
        }
      ],
      "name": "buyNFT",
      "outputs": [],
      "stateMutability": "payable",
      "type": "function"
    },
    {
      "inputs": [
        {
          "internalType": "uint256",
          "name": "tokenId",
          "type": "uint256"
        }
      ],
      "name": "cancel",
      "outputs": [],
      "stateMutability": "nonpayable",
      "type": "function"
    },
    {
      "inputs": [
        {
          "internalType": "string",
          "name": "NFTURI",
          "type": "string"
        },
        {
          "internalType": "uint256",
          "name": "price",
          "type": "uint256"
        }
      ],
      "name": "createNFT",
      "outputs": [
        {
          "internalType": "uint256",
          "name": "",
          "type": "uint256"
        }
      ],
      "stateMutability": "payable",
      "type": "function"
    },
    {
      "inputs": [
        {
          "internalType": "uint256",
          "name": "tokenId",
          "type": "uint256"
        }
      ],
      "name": "getApproved",
      "outputs": [
        {
          "internalType": "address",
          "name": "",
          "type": "address"
        }
      ],
      "stateMutability": "view",
      "type": "function"
    },
    {
      "inputs": [],
      "name": "getListPrice",
      "outputs": [
        {
          "internalType": "uint256",
          "name": "",
          "type": "uint256"
        }
      ],
      "stateMutability": "view",
      "type": "function"
    },
    {
      "inputs": [
        {
          "internalType": "uint256",
          "name": "_index",
          "type": "uint256"
        },
        {
          "internalType": "address",
          "name": "_callerAddress",
          "type": "address"
        }
      ],
      "name": "getMyNFTs",
      "outputs": [
        {
          "internalType": "uint256",
          "name": "_NFTId",
          "type": "uint256"
        },
        {
          "internalType": "address",
          "name": "_seller",
          "type": "address"
        },
        {
          "internalType": "uint256",
          "name": "_price",
          "type": "uint256"
        },
        {
          "internalType": "bool",
          "name": "_forSale",
          "type": "bool"
        }
      ],
      "stateMutability": "view",
      "type": "function"
    },
    {
      "inputs": [
        {
          "internalType": "uint256",
          "name": "NFTId",
          "type": "uint256"
        }
      ],
      "name": "getNFT",
      "outputs": [
        {
          "internalType": "uint256",
          "name": "_NFTId",
          "type": "uint256"
        },
        {
          "internalType": "address",
          "name": "_seller",
          "type": "address"
        },
        {
          "internalType": "uint256",
          "name": "_price",
          "type": "uint256"
        },
        {
          "internalType": "bool",
          "name": "_forSale",
          "type": "bool"
        },
        {
          "internalType": "uint256",
          "name": "_sales",
          "type": "uint256"
        },
        {
          "internalType": "uint256",
          "name": "_earnings",
          "type": "uint256"
        }
      ],
      "stateMutability": "view",
      "type": "function"
    },
    {
      "inputs": [],
      "name": "getNFTCount",
      "outputs": [
        {
          "internalType": "uint256",
          "name": "",
          "type": "uint256"
        }
      ],
      "stateMutability": "view",
      "type": "function"
    },
    {
      "inputs": [
        {
          "internalType": "address",
          "name": "owner",
          "type": "address"
        },
        {
          "internalType": "address",
          "name": "operator",
          "type": "address"
        }
      ],
      "name": "isApprovedForAll",
      "outputs": [
        {
          "internalType": "bool",
          "name": "",
          "type": "bool"
        }
      ],
      "stateMutability": "view",
      "type": "function"
    },
    {
      "inputs": [],
      "name": "name",
      "outputs": [
        {
          "internalType": "string",
          "name": "",
          "type": "string"
        }
      ],
      "stateMutability": "view",
      "type": "function"
    },
    {
      "inputs": [
        {
          "internalType": "uint256",
          "name": "tokenId",
          "type": "uint256"
        }
      ],
      "name": "ownerOf",
      "outputs": [
        {
          "internalType": "address",
          "name": "",
          "type": "address"
        }
      ],
      "stateMutability": "view",
      "type": "function"
    },
    {
      "inputs": [
        {
          "internalType": "address",
          "name": "from",
          "type": "address"
        },
        {
          "internalType": "address",
          "name": "to",
          "type": "address"
        },
        {
          "internalType": "uint256",
          "name": "tokenId",
          "type": "uint256"
        }
      ],
      "name": "safeTransferFrom",
      "outputs": [],
      "stateMutability": "nonpayable",
      "type": "function"
    },
    {
      "inputs": [
        {
          "internalType": "address",
          "name": "from",
          "type": "address"
        },
        {
          "internalType": "address",
          "name": "to",
          "type": "address"
        },
        {
          "internalType": "uint256",
          "name": "tokenId",
          "type": "uint256"
        },
        {
          "internalType": "bytes",
          "name": "data",
          "type": "bytes"
        }
      ],
      "name": "safeTransferFrom",
      "outputs": [],
      "stateMutability": "nonpayable",
      "type": "function"
    },
    {
      "inputs": [
        {
          "internalType": "uint256",
          "name": "tokenId",
          "type": "uint256"
        }
      ],
      "name": "sellNFT",
      "outputs": [],
      "stateMutability": "payable",
      "type": "function"
    },
    {
      "inputs": [
        {
          "internalType": "address",
          "name": "",
          "type": "address"
        }
      ],
      "name": "sellerExist",
      "outputs": [
        {
          "internalType": "bool",
          "name": "",
          "type": "bool"
        }
      ],
      "stateMutability": "view",
      "type": "function"
    },
    {
      "inputs": [
        {
          "internalType": "address",
          "name": "operator",
          "type": "address"
        },
        {
          "internalType": "bool",
          "name": "approved",
          "type": "bool"
        }
      ],
      "name": "setApprovalForAll",
      "outputs": [],
      "stateMutability": "nonpayable",
      "type": "function"
    },
    {
      "inputs": [
        {
          "internalType": "bytes4",
          "name": "interfaceId",
          "type": "bytes4"
        }
      ],
      "name": "supportsInterface",
      "outputs": [
        {
          "internalType": "bool",
          "name": "",
          "type": "bool"
        }
      ],
      "stateMutability": "view",
      "type": "function"
    },
    {
      "inputs": [],
      "name": "symbol",
      "outputs": [
        {
          "internalType": "string",
          "name": "",
          "type": "string"
        }
      ],
      "stateMutability": "view",
      "type": "function"
    },
    {
      "inputs": [
        {
          "internalType": "uint256",
          "name": "index",
          "type": "uint256"
        }
      ],
      "name": "tokenByIndex",
      "outputs": [
        {
          "internalType": "uint256",
          "name": "",
          "type": "uint256"
        }
      ],
      "stateMutability": "view",
      "type": "function"
    },
    {
      "inputs": [
        {
          "internalType": "address",
          "name": "owner",
          "type": "address"
        },
        {
          "internalType": "uint256",
          "name": "index",
          "type": "uint256"
        }
      ],
      "name": "tokenOfOwnerByIndex",
      "outputs": [
        {
          "internalType": "uint256",
          "name": "",
          "type": "uint256"
        }
      ],
      "stateMutability": "view",
      "type": "function"
    },
    {
      "inputs": [
        {
          "internalType": "uint256",
          "name": "tokenId",
          "type": "uint256"
        }
      ],
      "name": "tokenURI",
      "outputs": [
        {
          "internalType": "string",
          "name": "",
          "type": "string"
        }
      ],
      "stateMutability": "view",
      "type": "function"
    },
    {
      "inputs": [],
      "name": "totalSupply",
      "outputs": [
        {
          "internalType": "uint256",
          "name": "",
          "type": "uint256"
        }
      ],
      "stateMutability": "view",
      "type": "function"
    },
    {
      "inputs": [
        {
          "internalType": "address",
          "name": "from",
          "type": "address"
        },
        {
          "internalType": "address",
          "name": "to",
          "type": "address"
        },
        {
          "internalType": "uint256",
          "name": "tokenId",
          "type": "uint256"
        }
      ],
      "name": "transferFrom",
      "outputs": [],
      "stateMutability": "nonpayable",
      "type": "function"
    },
    {
      "inputs": [
        {
          "internalType": "uint256",
          "name": "_listPrice",
          "type": "uint256"
        }
      ],
      "name": "updateListPrice",
      "outputs": [],
      "stateMutability": "payable",
      "type": "function"
    }
  ],
  "bytecode": "0x6080604052662386f26fc10000600e553480156200001c57600080fd5b506040518060400160405280601681526020017f4172746973616e734e46544d61726b6574706c616365000000000000000000008152506040518060400160405280600681526020017f414e544d4b54000000000000000000000000000000000000000000000000000081525081600090816200009a919062000370565b508060019081620000ac919062000370565b50505033600d60006101000a81548173ffffffffffffffffffffffffffffffffffffffff021916908373ffffffffffffffffffffffffffffffffffffffff16021790555062000457565b600081519050919050565b7f4e487b7100000000000000000000000000000000000000000000000000000000600052604160045260246000fd5b7f4e487b7100000000000000000000000000000000000000000000000000000000600052602260045260246000fd5b600060028204905060018216806200017857607f821691505b6020821081036200018e576200018d62000130565b5b50919050565b60008190508160005260206000209050919050565b60006020601f8301049050919050565b600082821b905092915050565b600060088302620001f87fffffffffffffffffffffffffffffffffffffffffffffffffffffffffffffffff82620001b9565b620002048683620001b9565b95508019841693508086168417925050509392505050565b6000819050919050565b6000819050919050565b6000620002516200024b62000245846200021c565b62000226565b6200021c565b9050919050565b6000819050919050565b6200026d8362000230565b620002856200027c8262000258565b848454620001c6565b825550505050565b600090565b6200029c6200028d565b620002a981848462000262565b505050565b5b81811015620002d157620002c560008262000292565b600181019050620002af565b5050565b601f8211156200032057620002ea8162000194565b620002f584620001a9565b8101602085101562000305578190505b6200031d6200031485620001a9565b830182620002ae565b50505b505050565b600082821c905092915050565b6000620003456000198460080262000325565b1980831691505092915050565b600062000360838362000332565b9150826002028217905092915050565b6200037b82620000f6565b67ffffffffffffffff81111562000397576200039662000101565b5b620003a382546200015f565b620003b0828285620002d5565b600060209050601f831160018114620003e85760008415620003d3578287015190505b620003df858262000352565b8655506200044f565b601f198416620003f88662000194565b60005b828110156200042257848901518255600182019150602085019450602081019050620003fb565b868310156200044257848901516200043e601f89168262000332565b8355505b6001600288020188555050505b505050505050565b61478280620004676000396000f3fe6080604052600436106101815760003560e01c8063576f7ea7116100d1578063a55ed1731161008a578063c87b56dd11610064578063c87b56dd146105a8578063cf390232146105e5578063e985e9c514610625578063ee9cdfb31461066257610181565b8063a55ed17314610526578063b88d4fde14610563578063c322579c1461058c57610181565b8063576f7ea7146103eb5780636352211e1461042d57806368f1945f1461046a57806370a082311461049557806395d89b41146104d2578063a22cb465146104fd57610181565b8063268291551161013e57806342842e0e1161011857806342842e0e1461033e5780634f6ccce71461036757806351ed8288146103a457806354279637146103c057610181565b806326829155146102a85780632f745c59146102d857806340e58ee51461031557610181565b806301ffc9a71461018657806306fdde03146101c3578063081812fc146101ee578063095ea7b31461022b57806318160ddd1461025457806323b872dd1461027f575b600080fd5b34801561019257600080fd5b506101ad60048036038101906101a89190612eaf565b61067e565b6040516101ba9190612ef7565b60405180910390f35b3480156101cf57600080fd5b506101d8610690565b6040516101e59190612fa2565b60405180910390f35b3480156101fa57600080fd5b5061021560048036038101906102109190612ffa565b610722565b6040516102229190613068565b60405180910390f35b34801561023757600080fd5b50610252600480360381019061024d91906130af565b610768565b005b34801561026057600080fd5b5061026961087f565b60405161027691906130fe565b60405180910390f35b34801561028b57600080fd5b506102a660048036038101906102a19190613119565b61088c565b005b6102c260048036038101906102bd91906132a1565b6108ec565b6040516102cf91906130fe565b60405180910390f35b3480156102e457600080fd5b506102ff60048036038101906102fa91906130af565b6109ef565b60405161030c91906130fe565b60405180910390f35b34801561032157600080fd5b5061033c60048036038101906103379190612ffa565b610a94565b005b34801561034a57600080fd5b5061036560048036038101906103609190613119565b610bc1565b005b34801561037357600080fd5b5061038e60048036038101906103899190612ffa565b610be1565b60405161039b91906130fe565b60405180910390f35b6103be60048036038101906103b99190612ffa565b610c52565b005b3480156103cc57600080fd5b506103d5610f4b565b6040516103e291906130fe565b60405180910390f35b3480156103f757600080fd5b50610412600480360381019061040d9190612ffa565b610f5c565b604051610424969594939291906132fd565b60405180910390f35b34801561043957600080fd5b50610454600480360381019061044f9190612ffa565b6110a7565b6040516104619190613068565b60405180910390f35b34801561047657600080fd5b5061047f61112d565b60405161048c91906130fe565b60405180910390f35b3480156104a157600080fd5b506104bc60048036038101906104b7919061335e565b611137565b6040516104c991906130fe565b60405180910390f35b3480156104de57600080fd5b506104e76111ee565b6040516104f49190612fa2565b60405180910390f35b34801561050957600080fd5b50610524600480360381019061051f91906133b7565b611280565b005b34801561053257600080fd5b5061054d6004803603810190610548919061335e565b611296565b60405161055a9190612ef7565b60405180910390f35b34801561056f57600080fd5b5061058a60048036038101906105859190613498565b6112b6565b005b6105a660048036038101906105a19190612ffa565b611318565b005b3480156105b457600080fd5b506105cf60048036038101906105ca9190612ffa565b6113b2565b6040516105dc9190612fa2565b60405180910390f35b3480156105f157600080fd5b5061060c6004803603810190610607919061351b565b6113c4565b60405161061c949392919061355b565b60405180910390f35b34801561063157600080fd5b5061064c600480360381019061064791906135a0565b611480565b6040516106599190612ef7565b60405180910390f35b61067c60048036038101906106779190612ffa565b611514565b005b600061068982611778565b9050919050565b60606000805461069f9061360f565b80601f01602080910402602001604051908101604052809291908181526020018280546106cb9061360f565b80156107185780601f106106ed57610100808354040283529160200191610718565b820191906000526020600020905b8154815290600101906020018083116106fb57829003601f168201915b5050505050905090565b600061072d826117f2565b6004600083815260200190815260200160002060009054906101000a900473ffffffffffffffffffffffffffffffffffffffff169050919050565b6000610773826110a7565b90508073ffffffffffffffffffffffffffffffffffffffff168373ffffffffffffffffffffffffffffffffffffffff16036107e3576040517f08c379a00000000000000000000000000000000000000000000000000000000081526004016107da906136b2565b60405180910390fd5b8073ffffffffffffffffffffffffffffffffffffffff1661080261183d565b73ffffffffffffffffffffffffffffffffffffffff16148061083157506108308161082b61183d565b611480565b5b610870576040517f08c379a000000000000000000000000000000000000000000000000000000000815260040161086790613744565b60405180910390fd5b61087a8383611845565b505050565b6000600880549050905090565b61089d61089761183d565b826118fe565b6108dc576040517f08c379a00000000000000000000000000000000000000000000000000000000081526004016108d3906137d6565b60405180910390fd5b6108e7838383611993565b505050565b60006108f8600b611c8c565b6000610904600b611ca2565b90506109103382611cb0565b61091a8185611cce565b60405180608001604052808281526020013373ffffffffffffffffffffffffffffffffffffffff16815260200184815260200160001515815250600f60008381526020019081526020016000206000820151816000015560208201518160010160006101000a81548173ffffffffffffffffffffffffffffffffffffffff021916908373ffffffffffffffffffffffffffffffffffffffff1602179055506040820151816002015560608201518160030160006101000a81548160ff0219169083151502179055509050508091505092915050565b60006109fa83611137565b8210610a3b576040517f08c379a0000000000000000000000000000000000000000000000000000000008152600401610a3290613868565b60405180910390fd5b600660008473ffffffffffffffffffffffffffffffffffffffff1673ffffffffffffffffffffffffffffffffffffffff168152602001908152602001600020600083815260200190815260200160002054905092915050565b6000600f600083815260200190815260200160002090503373ffffffffffffffffffffffffffffffffffffffff168160010160009054906101000a900473ffffffffffffffffffffffffffffffffffffffff1673ffffffffffffffffffffffffffffffffffffffff1614610b3d576040517f08c379a0000000000000000000000000000000000000000000000000000000008152600401610b34906138fa565b60405180910390fd5b600115158160030160009054906101000a900460ff16151514610b95576040517f08c379a0000000000000000000000000000000000000000000000000000000008152600401610b8c90613966565b60405180910390fd5b610ba0303384611993565b60008160030160006101000a81548160ff0219169083151502179055505050565b610bdc838383604051806020016040528060008152506112b6565b505050565b6000610beb61087f565b8210610c2c576040517f08c379a0000000000000000000000000000000000000000000000000000000008152600401610c23906139f8565b60405180910390fd5b60088281548110610c4057610c3f613a18565b5b90600052602060002001549050919050565b6000600f600083815260200190815260200160002090506000600f600084815260200190815260200160002060010160009054906101000a900473ffffffffffffffffffffffffffffffffffffffff16905081600201543414610cea576040517f08c379a0000000000000000000000000000000000000000000000000000000008152600401610ce190613ab9565b60405180910390fd5b60008260030160006101000a81548160ff021916908315150217905550338260010160006101000a81548173ffffffffffffffffffffffffffffffffffffffff021916908373ffffffffffffffffffffffffffffffffffffffff160217905550610d54600c611c8c565b610d5f303385611993565b8073ffffffffffffffffffffffffffffffffffffffff166108fc349081150290604051600060405180830381858888f19350505050158015610da5573d6000803e3d6000fd5b50601060003373ffffffffffffffffffffffffffffffffffffffff1673ffffffffffffffffffffffffffffffffffffffff16815260200190815260200160002060405180608001604052808581526020013373ffffffffffffffffffffffffffffffffffffffff168152602001846002015481526020016000151581525090806001815401808255809150506001900390600052602060002090600402016000909190919091506000820151816000015560208201518160010160006101000a81548173ffffffffffffffffffffffffffffffffffffffff021916908373ffffffffffffffffffffffffffffffffffffffff1602179055506040820151816002015560608201518160030160006101000a81548160ff02191690831515021790555050506000601160008373ffffffffffffffffffffffffffffffffffffffff1673ffffffffffffffffffffffffffffffffffffffff1681526020019081526020016000209050806000016000815480929190610f2190613b08565b91905055508260020154816001016000828254610f3e9190613b50565b9250508190555050505050565b6000610f57600b611ca2565b905090565b6000806000806000806000600f6000898152602001908152602001600020604051806080016040529081600082015481526020016001820160009054906101000a900473ffffffffffffffffffffffffffffffffffffffff1673ffffffffffffffffffffffffffffffffffffffff1673ffffffffffffffffffffffffffffffffffffffff168152602001600282015481526020016003820160009054906101000a900460ff1615151515815250509050600060116000836020015173ffffffffffffffffffffffffffffffffffffffff1673ffffffffffffffffffffffffffffffffffffffff168152602001908152602001600020604051806040016040529081600082015481526020016001820154815250509050816000015182602001518360400151846060015184600001518560200151975097509750975097509750505091939550919395565b6000806110b383611d3b565b9050600073ffffffffffffffffffffffffffffffffffffffff168173ffffffffffffffffffffffffffffffffffffffff1603611124576040517f08c379a000000000000000000000000000000000000000000000000000000000815260040161111b90613bd0565b60405180910390fd5b80915050919050565b6000600e54905090565b60008073ffffffffffffffffffffffffffffffffffffffff168273ffffffffffffffffffffffffffffffffffffffff16036111a7576040517f08c379a000000000000000000000000000000000000000000000000000000000815260040161119e90613c62565b60405180910390fd5b600360008373ffffffffffffffffffffffffffffffffffffffff1673ffffffffffffffffffffffffffffffffffffffff168152602001908152602001600020549050919050565b6060600180546111fd9061360f565b80601f01602080910402602001604051908101604052809291908181526020018280546112299061360f565b80156112765780601f1061124b57610100808354040283529160200191611276565b820191906000526020600020905b81548152906001019060200180831161125957829003601f168201915b5050505050905090565b61129261128b61183d565b8383611d78565b5050565b60126020528060005260406000206000915054906101000a900460ff1681565b6112c76112c161183d565b836118fe565b611306576040517f08c379a00000000000000000000000000000000000000000000000000000000081526004016112fd906137d6565b60405180910390fd5b61131284848484611ee4565b50505050565b3373ffffffffffffffffffffffffffffffffffffffff16600d60009054906101000a900473ffffffffffffffffffffffffffffffffffffffff1673ffffffffffffffffffffffffffffffffffffffff16146113a8576040517f08c379a000000000000000000000000000000000000000000000000000000000815260040161139f90613cf4565b60405180910390fd5b80600e8190555050565b60606113bd82611f40565b9050919050565b6000806000806000601060008773ffffffffffffffffffffffffffffffffffffffff1673ffffffffffffffffffffffffffffffffffffffff168152602001908152602001600020878154811061141d5761141c613a18565b5b9060005260206000209060040201905080600001548160010160009054906101000a900473ffffffffffffffffffffffffffffffffffffffff1682600201548360030160009054906101000a900460ff1694509450945094505092959194509250565b6000600560008473ffffffffffffffffffffffffffffffffffffffff1673ffffffffffffffffffffffffffffffffffffffff16815260200190815260200160002060008373ffffffffffffffffffffffffffffffffffffffff1673ffffffffffffffffffffffffffffffffffffffff16815260200190815260200160002060009054906101000a900460ff16905092915050565b6000600f600083815260200190815260200160002090506000816002015411611572576040517f08c379a000000000000000000000000000000000000000000000000000000000815260040161156990613d86565b60405180910390fd5b600e5434146115b6576040517f08c379a00000000000000000000000000000000000000000000000000000000081526004016115ad90613e18565b60405180910390fd5b3373ffffffffffffffffffffffffffffffffffffffff168160010160009054906101000a900473ffffffffffffffffffffffffffffffffffffffff1673ffffffffffffffffffffffffffffffffffffffff1614611648576040517f08c379a000000000000000000000000000000000000000000000000000000000815260040161163f906138fa565b60405180910390fd5b600015158160030160009054906101000a900460ff161515146116a0576040517f08c379a000000000000000000000000000000000000000000000000000000000815260040161169790613e84565b60405180910390fd5b600d60009054906101000a900473ffffffffffffffffffffffffffffffffffffffff1673ffffffffffffffffffffffffffffffffffffffff166108fc600e549081150290604051600060405180830381858888f1935050505015801561170a573d6000803e3d6000fd5b50611716333084611993565b60018160030160006101000a81548160ff021916908315150217905550817ff227ab9acf6995a490e2e05cb846b1598ea2eeedcdcf5d7aa02ba0e15f67ace4338360020154600160405161176c93929190613ea4565b60405180910390a25050565b60007f780e9d63000000000000000000000000000000000000000000000000000000007bffffffffffffffffffffffffffffffffffffffffffffffffffffffff1916827bffffffffffffffffffffffffffffffffffffffffffffffffffffffff191614806117eb57506117ea82612052565b5b9050919050565b6117fb81612134565b61183a576040517f08c379a000000000000000000000000000000000000000000000000000000000815260040161183190613bd0565b60405180910390fd5b50565b600033905090565b816004600083815260200190815260200160002060006101000a81548173ffffffffffffffffffffffffffffffffffffffff021916908373ffffffffffffffffffffffffffffffffffffffff160217905550808273ffffffffffffffffffffffffffffffffffffffff166118b8836110a7565b73ffffffffffffffffffffffffffffffffffffffff167f8c5be1e5ebec7d5bd14f71427d1e84f3dd0314c0f7b2291e5b200ac8c7c3b92560405160405180910390a45050565b60008061190a836110a7565b90508073ffffffffffffffffffffffffffffffffffffffff168473ffffffffffffffffffffffffffffffffffffffff16148061194c575061194b8185611480565b5b8061198a57508373ffffffffffffffffffffffffffffffffffffffff1661197284610722565b73ffffffffffffffffffffffffffffffffffffffff16145b91505092915050565b8273ffffffffffffffffffffffffffffffffffffffff166119b3826110a7565b73ffffffffffffffffffffffffffffffffffffffff1614611a09576040517f08c379a0000000000000000000000000000000000000000000000000000000008152600401611a0090613f4d565b60405180910390fd5b600073ffffffffffffffffffffffffffffffffffffffff168273ffffffffffffffffffffffffffffffffffffffff1603611a78576040517f08c379a0000000000000000000000000000000000000000000000000000000008152600401611a6f90613fdf565b60405180910390fd5b611a858383836001612175565b8273ffffffffffffffffffffffffffffffffffffffff16611aa5826110a7565b73ffffffffffffffffffffffffffffffffffffffff1614611afb576040517f08c379a0000000000000000000000000000000000000000000000000000000008152600401611af290613f4d565b60405180910390fd5b6004600082815260200190815260200160002060006101000a81549073ffffffffffffffffffffffffffffffffffffffff02191690556001600360008573ffffffffffffffffffffffffffffffffffffffff1673ffffffffffffffffffffffffffffffffffffffff168152602001908152602001600020600082825403925050819055506001600360008473ffffffffffffffffffffffffffffffffffffffff1673ffffffffffffffffffffffffffffffffffffffff16815260200190815260200160002060008282540192505081905550816002600083815260200190815260200160002060006101000a81548173ffffffffffffffffffffffffffffffffffffffff021916908373ffffffffffffffffffffffffffffffffffffffff160217905550808273ffffffffffffffffffffffffffffffffffffffff168473ffffffffffffffffffffffffffffffffffffffff167fddf252ad1be2c89b69c2b068fc378daa952ba7f163c4a11628f55a4df523b3ef60405160405180910390a4611c878383836001612187565b505050565b6001816000016000828254019250508190555050565b600081600001549050919050565b611cca82826040518060200160405280600081525061218d565b5050565b611cd782612134565b611d16576040517f08c379a0000000000000000000000000000000000000000000000000000000008152600401611d0d90614071565b60405180910390fd5b80600a60008481526020019081526020016000209081611d36919061423d565b505050565b60006002600083815260200190815260200160002060009054906101000a900473ffffffffffffffffffffffffffffffffffffffff169050919050565b8173ffffffffffffffffffffffffffffffffffffffff168373ffffffffffffffffffffffffffffffffffffffff1603611de6576040517f08c379a0000000000000000000000000000000000000000000000000000000008152600401611ddd9061435b565b60405180910390fd5b80600560008573ffffffffffffffffffffffffffffffffffffffff1673ffffffffffffffffffffffffffffffffffffffff16815260200190815260200160002060008473ffffffffffffffffffffffffffffffffffffffff1673ffffffffffffffffffffffffffffffffffffffff16815260200190815260200160002060006101000a81548160ff0219169083151502179055508173ffffffffffffffffffffffffffffffffffffffff168373ffffffffffffffffffffffffffffffffffffffff167f17307eab39ab6107e8899845ad3d59bd9653f200f220920489ca2b5937696c3183604051611ed79190612ef7565b60405180910390a3505050565b611eef848484611993565b611efb848484846121e8565b611f3a576040517f08c379a0000000000000000000000000000000000000000000000000000000008152600401611f31906143ed565b60405180910390fd5b50505050565b6060611f4b826117f2565b6000600a60008481526020019081526020016000208054611f6b9061360f565b80601f0160208091040260200160405190810160405280929190818152602001828054611f979061360f565b8015611fe45780601f10611fb957610100808354040283529160200191611fe4565b820191906000526020600020905b815481529060010190602001808311611fc757829003601f168201915b505050505090506000611ff561236f565b9050600081510361200a57819250505061204d565b60008251111561203f578082604051602001612027929190614449565b6040516020818303038152906040529250505061204d565b61204884612386565b925050505b919050565b60007f80ac58cd000000000000000000000000000000000000000000000000000000007bffffffffffffffffffffffffffffffffffffffffffffffffffffffff1916827bffffffffffffffffffffffffffffffffffffffffffffffffffffffff1916148061211d57507f5b5e139f000000000000000000000000000000000000000000000000000000007bffffffffffffffffffffffffffffffffffffffffffffffffffffffff1916827bffffffffffffffffffffffffffffffffffffffffffffffffffffffff1916145b8061212d575061212c826123ee565b5b9050919050565b60008073ffffffffffffffffffffffffffffffffffffffff1661215683611d3b565b73ffffffffffffffffffffffffffffffffffffffff1614159050919050565b61218184848484612458565b50505050565b50505050565b61219783836125b6565b6121a460008484846121e8565b6121e3576040517f08c379a00000000000000000000000000000000000000000000000000000000081526004016121da906143ed565b60405180910390fd5b505050565b60006122098473ffffffffffffffffffffffffffffffffffffffff166127d3565b15612362578373ffffffffffffffffffffffffffffffffffffffff1663150b7a0261223261183d565b8786866040518563ffffffff1660e01b815260040161225494939291906144c2565b6020604051808303816000875af192505050801561229057506040513d601f19601f8201168201806040525081019061228d9190614523565b60015b612312573d80600081146122c0576040519150601f19603f3d011682016040523d82523d6000602084013e6122c5565b606091505b50600081510361230a576040517f08c379a0000000000000000000000000000000000000000000000000000000008152600401612301906143ed565b60405180910390fd5b805181602001fd5b63150b7a0260e01b7bffffffffffffffffffffffffffffffffffffffffffffffffffffffff1916817bffffffffffffffffffffffffffffffffffffffffffffffffffffffff191614915050612367565b600190505b949350505050565b606060405180602001604052806000815250905090565b6060612391826117f2565b600061239b61236f565b905060008151116123bb57604051806020016040528060008152506123e6565b806123c5846127f6565b6040516020016123d6929190614449565b6040516020818303038152906040525b915050919050565b60007f01ffc9a7000000000000000000000000000000000000000000000000000000007bffffffffffffffffffffffffffffffffffffffffffffffffffffffff1916827bffffffffffffffffffffffffffffffffffffffffffffffffffffffff1916149050919050565b612464848484846128c4565b60018111156124a8576040517f08c379a000000000000000000000000000000000000000000000000000000000815260040161249f906145c2565b60405180910390fd5b6000829050600073ffffffffffffffffffffffffffffffffffffffff168573ffffffffffffffffffffffffffffffffffffffff16036124ef576124ea816129ea565b61252e565b8373ffffffffffffffffffffffffffffffffffffffff168573ffffffffffffffffffffffffffffffffffffffff161461252d5761252c8582612a33565b5b5b600073ffffffffffffffffffffffffffffffffffffffff168473ffffffffffffffffffffffffffffffffffffffff16036125705761256b81612ba0565b6125af565b8473ffffffffffffffffffffffffffffffffffffffff168473ffffffffffffffffffffffffffffffffffffffff16146125ae576125ad8482612c71565b5b5b5050505050565b600073ffffffffffffffffffffffffffffffffffffffff168273ffffffffffffffffffffffffffffffffffffffff1603612625576040517f08c379a000000000000000000000000000000000000000000000000000000000815260040161261c9061462e565b60405180910390fd5b61262e81612134565b1561266e576040517f08c379a00000000000000000000000000000000000000000000000000000000081526004016126659061469a565b60405180910390fd5b61267c600083836001612175565b61268581612134565b156126c5576040517f08c379a00000000000000000000000000000000000000000000000000000000081526004016126bc9061469a565b60405180910390fd5b6001600360008473ffffffffffffffffffffffffffffffffffffffff1673ffffffffffffffffffffffffffffffffffffffff16815260200190815260200160002060008282540192505081905550816002600083815260200190815260200160002060006101000a81548173ffffffffffffffffffffffffffffffffffffffff021916908373ffffffffffffffffffffffffffffffffffffffff160217905550808273ffffffffffffffffffffffffffffffffffffffff16600073ffffffffffffffffffffffffffffffffffffffff167fddf252ad1be2c89b69c2b068fc378daa952ba7f163c4a11628f55a4df523b3ef60405160405180910390a46127cf600083836001612187565b5050565b6000808273ffffffffffffffffffffffffffffffffffffffff163b119050919050565b60606000600161280584612cf0565b01905060008167ffffffffffffffff81111561282457612823613176565b5b6040519080825280601f01601f1916602001820160405280156128565781602001600182028036833780820191505090505b509050600082602001820190505b6001156128b9578080600190039150507f3031323334353637383961626364656600000000000000000000000000000000600a86061a8153600a85816128ad576128ac6146ba565b5b04945060008503612864575b819350505050919050565b60018111156129e457600073ffffffffffffffffffffffffffffffffffffffff168473ffffffffffffffffffffffffffffffffffffffff16146129585780600360008673ffffffffffffffffffffffffffffffffffffffff1673ffffffffffffffffffffffffffffffffffffffff168152602001908152602001600020600082825461295091906146e9565b925050819055505b600073ffffffffffffffffffffffffffffffffffffffff168373ffffffffffffffffffffffffffffffffffffffff16146129e35780600360008573ffffffffffffffffffffffffffffffffffffffff1673ffffffffffffffffffffffffffffffffffffffff16815260200190815260200160002060008282546129db9190613b50565b925050819055505b5b50505050565b6008805490506009600083815260200190815260200160002081905550600881908060018154018082558091505060019003906000526020600020016000909190919091505550565b60006001612a4084611137565b612a4a91906146e9565b9050600060076000848152602001908152602001600020549050818114612b2f576000600660008673ffffffffffffffffffffffffffffffffffffffff1673ffffffffffffffffffffffffffffffffffffffff168152602001908152602001600020600084815260200190815260200160002054905080600660008773ffffffffffffffffffffffffffffffffffffffff1673ffffffffffffffffffffffffffffffffffffffff168152602001908152602001600020600084815260200190815260200160002081905550816007600083815260200190815260200160002081905550505b6007600084815260200190815260200160002060009055600660008573ffffffffffffffffffffffffffffffffffffffff1673ffffffffffffffffffffffffffffffffffffffff16815260200190815260200160002060008381526020019081526020016000206000905550505050565b60006001600880549050612bb491906146e9565b9050600060096000848152602001908152602001600020549050600060088381548110612be457612be3613a18565b5b906000526020600020015490508060088381548110612c0657612c05613a18565b5b906000526020600020018190555081600960008381526020019081526020016000208190555060096000858152602001908152602001600020600090556008805480612c5557612c5461471d565b5b6001900381819060005260206000200160009055905550505050565b6000612c7c83611137565b905081600660008573ffffffffffffffffffffffffffffffffffffffff1673ffffffffffffffffffffffffffffffffffffffff168152602001908152602001600020600083815260200190815260200160002081905550806007600084815260200190815260200160002081905550505050565b600080600090507a184f03e93ff9f4daa797ed6e38ed64bf6a1f0100000000000000008310612d4e577a184f03e93ff9f4daa797ed6e38ed64bf6a1f0100000000000000008381612d4457612d436146ba565b5b0492506040810190505b6d04ee2d6d415b85acef81000000008310612d8b576d04ee2d6d415b85acef81000000008381612d8157612d806146ba565b5b0492506020810190505b662386f26fc100008310612dba57662386f26fc100008381612db057612daf6146ba565b5b0492506010810190505b6305f5e1008310612de3576305f5e1008381612dd957612dd86146ba565b5b0492506008810190505b6127108310612e08576127108381612dfe57612dfd6146ba565b5b0492506004810190505b60648310612e2b5760648381612e2157612e206146ba565b5b0492506002810190505b600a8310612e3a576001810190505b80915050919050565b6000604051905090565b600080fd5b600080fd5b60007fffffffff0000000000000000000000000000000000000000000000000000000082169050919050565b612e8c81612e57565b8114612e9757600080fd5b50565b600081359050612ea981612e83565b92915050565b600060208284031215612ec557612ec4612e4d565b5b6000612ed384828501612e9a565b91505092915050565b60008115159050919050565b612ef181612edc565b82525050565b6000602082019050612f0c6000830184612ee8565b92915050565b600081519050919050565b600082825260208201905092915050565b60005b83811015612f4c578082015181840152602081019050612f31565b60008484015250505050565b6000601f19601f8301169050919050565b6000612f7482612f12565b612f7e8185612f1d565b9350612f8e818560208601612f2e565b612f9781612f58565b840191505092915050565b60006020820190508181036000830152612fbc8184612f69565b905092915050565b6000819050919050565b612fd781612fc4565b8114612fe257600080fd5b50565b600081359050612ff481612fce565b92915050565b6000602082840312156130105761300f612e4d565b5b600061301e84828501612fe5565b91505092915050565b600073ffffffffffffffffffffffffffffffffffffffff82169050919050565b600061305282613027565b9050919050565b61306281613047565b82525050565b600060208201905061307d6000830184613059565b92915050565b61308c81613047565b811461309757600080fd5b50565b6000813590506130a981613083565b92915050565b600080604083850312156130c6576130c5612e4d565b5b60006130d48582860161309a565b92505060206130e585828601612fe5565b9150509250929050565b6130f881612fc4565b82525050565b600060208201905061311360008301846130ef565b92915050565b60008060006060848603121561313257613131612e4d565b5b60006131408682870161309a565b93505060206131518682870161309a565b925050604061316286828701612fe5565b9150509250925092565b600080fd5b600080fd5b7f4e487b7100000000000000000000000000000000000000000000000000000000600052604160045260246000fd5b6131ae82612f58565b810181811067ffffffffffffffff821117156131cd576131cc613176565b5b80604052505050565b60006131e0612e43565b90506131ec82826131a5565b919050565b600067ffffffffffffffff82111561320c5761320b613176565b5b61321582612f58565b9050602081019050919050565b82818337600083830152505050565b600061324461323f846131f1565b6131d6565b9050828152602081018484840111156132605761325f613171565b5b61326b848285613222565b509392505050565b600082601f8301126132885761328761316c565b5b8135613298848260208601613231565b91505092915050565b600080604083850312156132b8576132b7612e4d565b5b600083013567ffffffffffffffff8111156132d6576132d5612e52565b5b6132e285828601613273565b92505060206132f385828601612fe5565b9150509250929050565b600060c08201905061331260008301896130ef565b61331f6020830188613059565b61332c60408301876130ef565b6133396060830186612ee8565b61334660808301856130ef565b61335360a08301846130ef565b979650505050505050565b60006020828403121561337457613373612e4d565b5b60006133828482850161309a565b91505092915050565b61339481612edc565b811461339f57600080fd5b50565b6000813590506133b18161338b565b92915050565b600080604083850312156133ce576133cd612e4d565b5b60006133dc8582860161309a565b92505060206133ed858286016133a2565b9150509250929050565b600067ffffffffffffffff82111561341257613411613176565b5b61341b82612f58565b9050602081019050919050565b600061343b613436846133f7565b6131d6565b90508281526020810184848401111561345757613456613171565b5b613462848285613222565b509392505050565b600082601f83011261347f5761347e61316c565b5b813561348f848260208601613428565b91505092915050565b600080600080608085870312156134b2576134b1612e4d565b5b60006134c08782880161309a565b94505060206134d18782880161309a565b93505060406134e287828801612fe5565b925050606085013567ffffffffffffffff81111561350357613502612e52565b5b61350f8782880161346a565b91505092959194509250565b6000806040838503121561353257613531612e4d565b5b600061354085828601612fe5565b92505060206135518582860161309a565b9150509250929050565b600060808201905061357060008301876130ef565b61357d6020830186613059565b61358a60408301856130ef565b6135976060830184612ee8565b95945050505050565b600080604083850312156135b7576135b6612e4d565b5b60006135c58582860161309a565b92505060206135d68582860161309a565b9150509250929050565b7f4e487b7100000000000000000000000000000000000000000000000000000000600052602260045260246000fd5b6000600282049050600182168061362757607f821691505b60208210810361363a576136396135e0565b5b50919050565b7f4552433732313a20617070726f76616c20746f2063757272656e74206f776e6560008201527f7200000000000000000000000000000000000000000000000000000000000000602082015250565b600061369c602183612f1d565b91506136a782613640565b604082019050919050565b600060208201905081810360008301526136cb8161368f565b9050919050565b7f4552433732313a20617070726f76652063616c6c6572206973206e6f7420746f60008201527f6b656e206f776e6572206f7220617070726f76656420666f7220616c6c000000602082015250565b600061372e603d83612f1d565b9150613739826136d2565b604082019050919050565b6000602082019050818103600083015261375d81613721565b9050919050565b7f4552433732313a2063616c6c6572206973206e6f7420746f6b656e206f776e6560008201527f72206f7220617070726f76656400000000000000000000000000000000000000602082015250565b60006137c0602d83612f1d565b91506137cb82613764565b604082019050919050565b600060208201905081810360008301526137ef816137b3565b9050919050565b7f455243373231456e756d657261626c653a206f776e657220696e646578206f7560008201527f74206f6620626f756e6473000000000000000000000000000000000000000000602082015250565b6000613852602b83612f1d565b915061385d826137f6565b604082019050919050565b6000602082019050818103600083015261388181613845565b9050919050565b7f4f6e6c79204e4654206f776e6572732063616e20706572666f726d207468697360008201527f206f7065726174696f6e00000000000000000000000000000000000000000000602082015250565b60006138e4602a83612f1d565b91506138ef82613888565b604082019050919050565b60006020820190508181036000830152613913816138d7565b9050919050565b7f4974656d206e6f74206c697374656420666f722073616c650000000000000000600082015250565b6000613950601883612f1d565b915061395b8261391a565b602082019050919050565b6000602082019050818103600083015261397f81613943565b9050919050565b7f455243373231456e756d657261626c653a20676c6f62616c20696e646578206f60008201527f7574206f6620626f756e64730000000000000000000000000000000000000000602082015250565b60006139e2602c83612f1d565b91506139ed82613986565b604082019050919050565b60006020820190508181036000830152613a11816139d5565b9050919050565b7f4e487b7100000000000000000000000000000000000000000000000000000000600052603260045260246000fd5b7f506c65617365207375626d6974207468652061736b696e67207072696365206960008201527f6e206f7264657220746f20636f6d706c65746520746865207075726368617365602082015250565b6000613aa3604083612f1d565b9150613aae82613a47565b604082019050919050565b60006020820190508181036000830152613ad281613a96565b9050919050565b7f4e487b7100000000000000000000000000000000000000000000000000000000600052601160045260246000fd5b6000613b1382612fc4565b91507fffffffffffffffffffffffffffffffffffffffffffffffffffffffffffffffff8203613b4557613b44613ad9565b5b600182019050919050565b6000613b5b82612fc4565b9150613b6683612fc4565b9250828201905080821115613b7e57613b7d613ad9565b5b92915050565b7f4552433732313a20696e76616c696420746f6b656e2049440000000000000000600082015250565b6000613bba601883612f1d565b9150613bc582613b84565b602082019050919050565b60006020820190508181036000830152613be981613bad565b9050919050565b7f4552433732313a2061646472657373207a65726f206973206e6f74206120766160008201527f6c6964206f776e65720000000000000000000000000000000000000000000000602082015250565b6000613c4c602983612f1d565b9150613c5782613bf0565b604082019050919050565b60006020820190508181036000830152613c7b81613c3f565b9050919050565b7f4f6e6c79206f776e65722063616e20757064617465206c697374696e6720707260008201527f6963650000000000000000000000000000000000000000000000000000000000602082015250565b6000613cde602383612f1d565b9150613ce982613c82565b604082019050919050565b60006020820190508181036000830152613d0d81613cd1565b9050919050565b7f4d616b652073757265207468652070726963652069736e2774206e656761746960008201527f7665000000000000000000000000000000000000000000000000000000000000602082015250565b6000613d70602283612f1d565b9150613d7b82613d14565b604082019050919050565b60006020820190508181036000830152613d9f81613d63565b9050919050565b7f486f706566756c6c792073656e64696e672074686520636f727265637420707260008201527f6963650000000000000000000000000000000000000000000000000000000000602082015250565b6000613e02602383612f1d565b9150613e0d82613da6565b604082019050919050565b60006020820190508181036000830152613e3181613df5565b9050919050565b7f4974656d20616c7265616479206c697374656420666f722073616c6500000000600082015250565b6000613e6e601c83612f1d565b9150613e7982613e38565b602082019050919050565b60006020820190508181036000830152613e9d81613e61565b9050919050565b6000606082019050613eb96000830186613059565b613ec660208301856130ef565b613ed36040830184612ee8565b949350505050565b7f4552433732313a207472616e736665722066726f6d20696e636f72726563742060008201527f6f776e6572000000000000000000000000000000000000000000000000000000602082015250565b6000613f37602583612f1d565b9150613f4282613edb565b604082019050919050565b60006020820190508181036000830152613f6681613f2a565b9050919050565b7f4552433732313a207472616e7366657220746f20746865207a65726f2061646460008201527f7265737300000000000000000000000000000000000000000000000000000000602082015250565b6000613fc9602483612f1d565b9150613fd482613f6d565b604082019050919050565b60006020820190508181036000830152613ff881613fbc565b9050919050565b7f45524337323155524953746f726167653a2055524920736574206f66206e6f6e60008201527f6578697374656e7420746f6b656e000000000000000000000000000000000000602082015250565b600061405b602e83612f1d565b915061406682613fff565b604082019050919050565b6000602082019050818103600083015261408a8161404e565b9050919050565b60008190508160005260206000209050919050565b60006020601f8301049050919050565b600082821b905092915050565b6000600883026140f37fffffffffffffffffffffffffffffffffffffffffffffffffffffffffffffffff826140b6565b6140fd86836140b6565b95508019841693508086168417925050509392505050565b6000819050919050565b600061413a61413561413084612fc4565b614115565b612fc4565b9050919050565b6000819050919050565b6141548361411f565b61416861416082614141565b8484546140c3565b825550505050565b600090565b61417d614170565b61418881848461414b565b505050565b5b818110156141ac576141a1600082614175565b60018101905061418e565b5050565b601f8211156141f1576141c281614091565b6141cb846140a6565b810160208510156141da578190505b6141ee6141e6856140a6565b83018261418d565b50505b505050565b600082821c905092915050565b6000614214600019846008026141f6565b1980831691505092915050565b600061422d8383614203565b9150826002028217905092915050565b61424682612f12565b67ffffffffffffffff81111561425f5761425e613176565b5b614269825461360f565b6142748282856141b0565b600060209050601f8311600181146142a75760008415614295578287015190505b61429f8582614221565b865550614307565b601f1984166142b586614091565b60005b828110156142dd578489015182556001820191506020850194506020810190506142b8565b868310156142fa57848901516142f6601f891682614203565b8355505b6001600288020188555050505b505050505050565b7f4552433732313a20617070726f766520746f2063616c6c657200000000000000600082015250565b6000614345601983612f1d565b91506143508261430f565b602082019050919050565b6000602082019050818103600083015261437481614338565b9050919050565b7f4552433732313a207472616e7366657220746f206e6f6e20455243373231526560008201527f63656976657220696d706c656d656e7465720000000000000000000000000000602082015250565b60006143d7603283612f1d565b91506143e28261437b565b604082019050919050565b60006020820190508181036000830152614406816143ca565b9050919050565b600081905092915050565b600061442382612f12565b61442d818561440d565b935061443d818560208601612f2e565b80840191505092915050565b60006144558285614418565b91506144618284614418565b91508190509392505050565b600081519050919050565b600082825260208201905092915050565b60006144948261446d565b61449e8185614478565b93506144ae818560208601612f2e565b6144b781612f58565b840191505092915050565b60006080820190506144d76000830187613059565b6144e46020830186613059565b6144f160408301856130ef565b81810360608301526145038184614489565b905095945050505050565b60008151905061451d81612e83565b92915050565b60006020828403121561453957614538612e4d565b5b60006145478482850161450e565b91505092915050565b7f455243373231456e756d657261626c653a20636f6e736563757469766520747260008201527f616e7366657273206e6f7420737570706f727465640000000000000000000000602082015250565b60006145ac603583612f1d565b91506145b782614550565b604082019050919050565b600060208201905081810360008301526145db8161459f565b9050919050565b7f4552433732313a206d696e7420746f20746865207a65726f2061646472657373600082015250565b6000614618602083612f1d565b9150614623826145e2565b602082019050919050565b600060208201905081810360008301526146478161460b565b9050919050565b7f4552433732313a20746f6b656e20616c7265616479206d696e74656400000000600082015250565b6000614684601c83612f1d565b915061468f8261464e565b602082019050919050565b600060208201905081810360008301526146b381614677565b9050919050565b7f4e487b7100000000000000000000000000000000000000000000000000000000600052601260045260246000fd5b60006146f482612fc4565b91506146ff83612fc4565b925082820390508181111561471757614716613ad9565b5b92915050565b7f4e487b7100000000000000000000000000000000000000000000000000000000600052603160045260246000fdfea2646970667358221220f6f18b0162441e1493185d03d2f24c024384ecf0cd1caccd3b5ce4bcf845087a64736f6c63430008110033",
  "linkReferences": {},
  "deployedLinkReferences": {}
}