{
  "_format": "hh-sol-artifact-1",
  "contractName": "NFTMarketplace",
  "sourceName": "contracts/NFTMarketplace.sol",
  "abi": [
    {
      "inputs": [],
      "stateMutability": "nonpayable",
      "type": "constructor"
    },
    {
      "anonymous": false,
      "inputs": [
        {
          "indexed": true,
          "internalType": "address",
          "name": "owner",
          "type": "address"
        },
        {
          "indexed": true,
          "internalType": "address",
          "name": "approved",
          "type": "address"
        },
        {
          "indexed": true,
          "internalType": "uint256",
          "name": "tokenId",
          "type": "uint256"
        }
      ],
      "name": "Approval",
      "type": "event"
    },
    {
      "anonymous": false,
      "inputs": [
        {
          "indexed": true,
          "internalType": "address",
          "name": "owner",
          "type": "address"
        },
        {
          "indexed": true,
          "internalType": "address",
          "name": "operator",
          "type": "address"
        },
        {
          "indexed": false,
          "internalType": "bool",
          "name": "approved",
          "type": "bool"
        }
      ],
      "name": "ApprovalForAll",
      "type": "event"
    },
    {
      "anonymous": false,
      "inputs": [
        {
          "indexed": true,
          "internalType": "uint256",
          "name": "tokenId",
          "type": "uint256"
        },
        {
          "indexed": false,
          "internalType": "address",
          "name": "seller",
          "type": "address"
        },
        {
          "indexed": false,
          "internalType": "uint256",
          "name": "price",
          "type": "uint256"
        },
        {
          "indexed": false,
          "internalType": "bool",
          "name": "forSale",
          "type": "bool"
        }
      ],
      "name": "NFTListedSuccess",
      "type": "event"
    },
    {
      "anonymous": false,
      "inputs": [
        {
          "indexed": true,
          "internalType": "address",
          "name": "from",
          "type": "address"
        },
        {
          "indexed": true,
          "internalType": "address",
          "name": "to",
          "type": "address"
        },
        {
          "indexed": true,
          "internalType": "uint256",
          "name": "tokenId",
          "type": "uint256"
        }
      ],
      "name": "Transfer",
      "type": "event"
    },
    {
      "inputs": [
        {
          "internalType": "address",
          "name": "to",
          "type": "address"
        },
        {
          "internalType": "uint256",
          "name": "tokenId",
          "type": "uint256"
        }
      ],
      "name": "approve",
      "outputs": [],
      "stateMutability": "nonpayable",
      "type": "function"
    },
    {
      "inputs": [
        {
          "internalType": "address",
          "name": "owner",
          "type": "address"
        }
      ],
      "name": "balanceOf",
      "outputs": [
        {
          "internalType": "uint256",
          "name": "",
          "type": "uint256"
        }
      ],
      "stateMutability": "view",
      "type": "function"
    },
    {
      "inputs": [
        {
          "internalType": "uint256",
          "name": "tokenId",
          "type": "uint256"
        }
      ],
      "name": "buyNFT",
      "outputs": [],
      "stateMutability": "payable",
      "type": "function"
    },
    {
      "inputs": [
        {
          "internalType": "uint256",
          "name": "tokenId",
          "type": "uint256"
        }
      ],
      "name": "cancel",
      "outputs": [],
      "stateMutability": "nonpayable",
      "type": "function"
    },
    {
      "inputs": [
        {
          "internalType": "string",
          "name": "NFTURI",
          "type": "string"
        },
        {
          "internalType": "uint256",
          "name": "price",
          "type": "uint256"
        }
      ],
      "name": "createNFT",
      "outputs": [
        {
          "internalType": "uint256",
          "name": "",
          "type": "uint256"
        }
      ],
      "stateMutability": "payable",
      "type": "function"
    },
    {
      "inputs": [
        {
          "internalType": "uint256",
          "name": "tokenId",
          "type": "uint256"
        }
      ],
      "name": "getApproved",
      "outputs": [
        {
          "internalType": "address",
          "name": "",
          "type": "address"
        }
      ],
      "stateMutability": "view",
      "type": "function"
    },
    {
      "inputs": [],
      "name": "getListPrice",
      "outputs": [
        {
          "internalType": "uint256",
          "name": "",
          "type": "uint256"
        }
      ],
      "stateMutability": "view",
      "type": "function"
    },
    {
      "inputs": [
        {
          "internalType": "address",
          "name": "_address",
          "type": "address"
        }
      ],
      "name": "getMyNFTCount",
      "outputs": [
        {
          "internalType": "uint256",
          "name": "",
          "type": "uint256"
        }
      ],
      "stateMutability": "view",
      "type": "function"
    },
    {
      "inputs": [
        {
          "internalType": "uint256",
          "name": "_index",
          "type": "uint256"
        },
        {
          "internalType": "address",
          "name": "_callerAddress",
          "type": "address"
        }
      ],
      "name": "getMyNFTs",
      "outputs": [
        {
          "internalType": "uint256",
          "name": "_NFTId",
          "type": "uint256"
        },
        {
          "internalType": "address",
          "name": "_seller",
          "type": "address"
        },
        {
          "internalType": "uint256",
          "name": "_price",
          "type": "uint256"
        },
        {
          "internalType": "bool",
          "name": "_forSale",
          "type": "bool"
        },
        {
          "internalType": "uint256",
          "name": "_sales",
          "type": "uint256"
        },
        {
          "internalType": "uint256",
          "name": "_earnings",
          "type": "uint256"
        }
      ],
      "stateMutability": "view",
      "type": "function"
    },
    {
      "inputs": [
        {
          "internalType": "uint256",
          "name": "NFTId",
          "type": "uint256"
        }
      ],
      "name": "getNFT",
      "outputs": [
        {
          "internalType": "uint256",
          "name": "_NFTId",
          "type": "uint256"
        },
        {
          "internalType": "address",
          "name": "_seller",
          "type": "address"
        },
        {
          "internalType": "uint256",
          "name": "_price",
          "type": "uint256"
        },
        {
          "internalType": "bool",
          "name": "_forSale",
          "type": "bool"
        },
        {
          "internalType": "uint256",
          "name": "_sales",
          "type": "uint256"
        },
        {
          "internalType": "uint256",
          "name": "_earnings",
          "type": "uint256"
        }
      ],
      "stateMutability": "view",
      "type": "function"
    },
    {
      "inputs": [],
      "name": "getNFTCount",
      "outputs": [
        {
          "internalType": "uint256",
          "name": "",
          "type": "uint256"
        }
      ],
      "stateMutability": "view",
      "type": "function"
    },
    {
      "inputs": [
        {
          "internalType": "address",
          "name": "owner",
          "type": "address"
        },
        {
          "internalType": "address",
          "name": "operator",
          "type": "address"
        }
      ],
      "name": "isApprovedForAll",
      "outputs": [
        {
          "internalType": "bool",
          "name": "",
          "type": "bool"
        }
      ],
      "stateMutability": "view",
      "type": "function"
    },
    {
      "inputs": [
        {
          "internalType": "address",
          "name": "",
          "type": "address"
        },
        {
          "internalType": "uint256",
          "name": "",
          "type": "uint256"
        }
      ],
      "name": "myNFTs",
      "outputs": [
        {
          "internalType": "uint256",
          "name": "NFTId",
          "type": "uint256"
        },
        {
          "internalType": "address payable",
          "name": "seller",
          "type": "address"
        },
        {
          "internalType": "uint256",
          "name": "price",
          "type": "uint256"
        },
        {
          "internalType": "bool",
          "name": "forSale",
          "type": "bool"
        }
      ],
      "stateMutability": "view",
      "type": "function"
    },
    {
      "inputs": [],
      "name": "name",
      "outputs": [
        {
          "internalType": "string",
          "name": "",
          "type": "string"
        }
      ],
      "stateMutability": "view",
      "type": "function"
    },
    {
      "inputs": [
        {
          "internalType": "uint256",
          "name": "tokenId",
          "type": "uint256"
        }
      ],
      "name": "ownerOf",
      "outputs": [
        {
          "internalType": "address",
          "name": "",
          "type": "address"
        }
      ],
      "stateMutability": "view",
      "type": "function"
    },
    {
      "inputs": [
        {
          "internalType": "address",
          "name": "from",
          "type": "address"
        },
        {
          "internalType": "address",
          "name": "to",
          "type": "address"
        },
        {
          "internalType": "uint256",
          "name": "tokenId",
          "type": "uint256"
        }
      ],
      "name": "safeTransferFrom",
      "outputs": [],
      "stateMutability": "nonpayable",
      "type": "function"
    },
    {
      "inputs": [
        {
          "internalType": "address",
          "name": "from",
          "type": "address"
        },
        {
          "internalType": "address",
          "name": "to",
          "type": "address"
        },
        {
          "internalType": "uint256",
          "name": "tokenId",
          "type": "uint256"
        },
        {
          "internalType": "bytes",
          "name": "data",
          "type": "bytes"
        }
      ],
      "name": "safeTransferFrom",
      "outputs": [],
      "stateMutability": "nonpayable",
      "type": "function"
    },
    {
      "inputs": [
        {
          "internalType": "uint256",
          "name": "tokenId",
          "type": "uint256"
        }
      ],
      "name": "sellNFT",
      "outputs": [],
      "stateMutability": "payable",
      "type": "function"
    },
    {
      "inputs": [
        {
          "internalType": "address",
          "name": "",
          "type": "address"
        }
      ],
      "name": "sellerExist",
      "outputs": [
        {
          "internalType": "bool",
          "name": "",
          "type": "bool"
        }
      ],
      "stateMutability": "view",
      "type": "function"
    },
    {
      "inputs": [
        {
          "internalType": "address",
          "name": "operator",
          "type": "address"
        },
        {
          "internalType": "bool",
          "name": "approved",
          "type": "bool"
        }
      ],
      "name": "setApprovalForAll",
      "outputs": [],
      "stateMutability": "nonpayable",
      "type": "function"
    },
    {
      "inputs": [
        {
          "internalType": "bytes4",
          "name": "interfaceId",
          "type": "bytes4"
        }
      ],
      "name": "supportsInterface",
      "outputs": [
        {
          "internalType": "bool",
          "name": "",
          "type": "bool"
        }
      ],
      "stateMutability": "view",
      "type": "function"
    },
    {
      "inputs": [],
      "name": "symbol",
      "outputs": [
        {
          "internalType": "string",
          "name": "",
          "type": "string"
        }
      ],
      "stateMutability": "view",
      "type": "function"
    },
    {
      "inputs": [
        {
          "internalType": "uint256",
          "name": "index",
          "type": "uint256"
        }
      ],
      "name": "tokenByIndex",
      "outputs": [
        {
          "internalType": "uint256",
          "name": "",
          "type": "uint256"
        }
      ],
      "stateMutability": "view",
      "type": "function"
    },
    {
      "inputs": [
        {
          "internalType": "address",
          "name": "owner",
          "type": "address"
        },
        {
          "internalType": "uint256",
          "name": "index",
          "type": "uint256"
        }
      ],
      "name": "tokenOfOwnerByIndex",
      "outputs": [
        {
          "internalType": "uint256",
          "name": "",
          "type": "uint256"
        }
      ],
      "stateMutability": "view",
      "type": "function"
    },
    {
      "inputs": [
        {
          "internalType": "uint256",
          "name": "tokenId",
          "type": "uint256"
        }
      ],
      "name": "tokenURI",
      "outputs": [
        {
          "internalType": "string",
          "name": "",
          "type": "string"
        }
      ],
      "stateMutability": "view",
      "type": "function"
    },
    {
      "inputs": [],
      "name": "totalSupply",
      "outputs": [
        {
          "internalType": "uint256",
          "name": "",
          "type": "uint256"
        }
      ],
      "stateMutability": "view",
      "type": "function"
    },
    {
      "inputs": [
        {
          "internalType": "address",
          "name": "from",
          "type": "address"
        },
        {
          "internalType": "address",
          "name": "to",
          "type": "address"
        },
        {
          "internalType": "uint256",
          "name": "tokenId",
          "type": "uint256"
        }
      ],
      "name": "transferFrom",
      "outputs": [],
      "stateMutability": "nonpayable",
      "type": "function"
    },
    {
      "inputs": [
        {
          "internalType": "uint256",
          "name": "_listPrice",
          "type": "uint256"
        }
      ],
      "name": "updateListPrice",
      "outputs": [],
      "stateMutability": "payable",
      "type": "function"
    }
  ],
  "bytecode": "0x6080604052662386f26fc10000600e553480156200001c57600080fd5b506040518060400160405280601681526020017f4172746973616e734e46544d61726b6574706c616365000000000000000000008152506040518060400160405280600681526020017f414e544d4b54000000000000000000000000000000000000000000000000000081525081600090816200009a919062000370565b508060019081620000ac919062000370565b50505033600d60006101000a81548173ffffffffffffffffffffffffffffffffffffffff021916908373ffffffffffffffffffffffffffffffffffffffff16021790555062000457565b600081519050919050565b7f4e487b7100000000000000000000000000000000000000000000000000000000600052604160045260246000fd5b7f4e487b7100000000000000000000000000000000000000000000000000000000600052602260045260246000fd5b600060028204905060018216806200017857607f821691505b6020821081036200018e576200018d62000130565b5b50919050565b60008190508160005260206000209050919050565b60006020601f8301049050919050565b600082821b905092915050565b600060088302620001f87fffffffffffffffffffffffffffffffffffffffffffffffffffffffffffffffff82620001b9565b620002048683620001b9565b95508019841693508086168417925050509392505050565b6000819050919050565b6000819050919050565b6000620002516200024b62000245846200021c565b62000226565b6200021c565b9050919050565b6000819050919050565b6200026d8362000230565b620002856200027c8262000258565b848454620001c6565b825550505050565b600090565b6200029c6200028d565b620002a981848462000262565b505050565b5b81811015620002d157620002c560008262000292565b600181019050620002af565b5050565b601f8211156200032057620002ea8162000194565b620002f584620001a9565b8101602085101562000305578190505b6200031d6200031485620001a9565b830182620002ae565b50505b505050565b600082821c905092915050565b6000620003456000198460080262000325565b1980831691505092915050565b600062000360838362000332565b9150826002028217905092915050565b6200037b82620000f6565b67ffffffffffffffff81111562000397576200039662000101565b5b620003a382546200015f565b620003b0828285620002d5565b600060209050601f831160018114620003e85760008415620003d3578287015190505b620003df858262000352565b8655506200044f565b601f198416620003f88662000194565b60005b828110156200042257848901518255600182019150602085019450602081019050620003fb565b868310156200044257848901516200043e601f89168262000332565b8355505b6001600288020188555050505b505050505050565b614c9380620004676000396000f3fe6080604052600436106101b75760003560e01c80636352211e116100ec578063b88d4fde1161008a578063cf39023211610064578063cf3902321461065b578063e222d6d61461069d578063e985e9c5146106da578063ee9cdfb314610717576101b7565b8063b88d4fde146105d9578063c322579c14610602578063c87b56dd1461061e576101b7565b806386001cd1116100c657806386001cd11461050857806395d89b4114610548578063a22cb46514610573578063a55ed1731461059c576101b7565b80636352211e1461046357806368f1945f146104a057806370a08231146104cb576101b7565b80632f745c59116101595780634f6ccce7116101335780634f6ccce71461039d57806351ed8288146103da57806354279637146103f6578063576f7ea714610421576101b7565b80632f745c591461030e57806340e58ee51461034b57806342842e0e14610374576101b7565b8063095ea7b311610195578063095ea7b31461026157806318160ddd1461028a57806323b872dd146102b557806326829155146102de576101b7565b806301ffc9a7146101bc57806306fdde03146101f9578063081812fc14610224575b600080fd5b3480156101c857600080fd5b506101e360048036038101906101de919061339f565b610733565b6040516101f091906133e7565b60405180910390f35b34801561020557600080fd5b5061020e610745565b60405161021b9190613492565b60405180910390f35b34801561023057600080fd5b5061024b600480360381019061024691906134ea565b6107d7565b6040516102589190613558565b60405180910390f35b34801561026d57600080fd5b506102886004803603810190610283919061359f565b61081d565b005b34801561029657600080fd5b5061029f610934565b6040516102ac91906135ee565b60405180910390f35b3480156102c157600080fd5b506102dc60048036038101906102d79190613609565b610941565b005b6102f860048036038101906102f39190613791565b6109a1565b60405161030591906135ee565b60405180910390f35b34801561031a57600080fd5b506103356004803603810190610330919061359f565b610c0a565b60405161034291906135ee565b60405180910390f35b34801561035757600080fd5b50610372600480360381019061036d91906134ea565b610caf565b005b34801561038057600080fd5b5061039b60048036038101906103969190613609565b610e4e565b005b3480156103a957600080fd5b506103c460048036038101906103bf91906134ea565b610e6e565b6040516103d191906135ee565b60405180910390f35b6103f460048036038101906103ef91906134ea565b610edf565b005b34801561040257600080fd5b5061040b6112bd565b60405161041891906135ee565b60405180910390f35b34801561042d57600080fd5b50610448600480360381019061044391906134ea565b6112ce565b60405161045a969594939291906137ed565b60405180910390f35b34801561046f57600080fd5b5061048a600480360381019061048591906134ea565b611423565b6040516104979190613558565b60405180910390f35b3480156104ac57600080fd5b506104b56114a9565b6040516104c291906135ee565b60405180910390f35b3480156104d757600080fd5b506104f260048036038101906104ed919061384e565b6114b3565b6040516104ff91906135ee565b60405180910390f35b34801561051457600080fd5b5061052f600480360381019061052a919061359f565b61156a565b60405161053f949392919061389c565b60405180910390f35b34801561055457600080fd5b5061055d6115d4565b60405161056a9190613492565b60405180910390f35b34801561057f57600080fd5b5061059a6004803603810190610595919061390d565b611666565b005b3480156105a857600080fd5b506105c360048036038101906105be919061384e565b61167c565b6040516105d091906133e7565b60405180910390f35b3480156105e557600080fd5b5061060060048036038101906105fb91906139ee565b61169c565b005b61061c600480360381019061061791906134ea565b6116fe565b005b34801561062a57600080fd5b50610645600480360381019061064091906134ea565b611798565b6040516106529190613492565b60405180910390f35b34801561066757600080fd5b50610682600480360381019061067d9190613a71565b6117aa565b604051610694969594939291906137ed565b60405180910390f35b3480156106a957600080fd5b506106c460048036038101906106bf919061384e565b6118ad565b6040516106d191906135ee565b60405180910390f35b3480156106e657600080fd5b5061070160048036038101906106fc9190613ab1565b6118fe565b60405161070e91906133e7565b60405180910390f35b610731600480360381019061072c91906134ea565b611992565b005b600061073e82611c68565b9050919050565b60606000805461075490613b20565b80601f016020809104026020016040519081016040528092919081815260200182805461078090613b20565b80156107cd5780601f106107a2576101008083540402835291602001916107cd565b820191906000526020600020905b8154815290600101906020018083116107b057829003601f168201915b5050505050905090565b60006107e282611ce2565b6004600083815260200190815260200160002060009054906101000a900473ffffffffffffffffffffffffffffffffffffffff169050919050565b600061082882611423565b90508073ffffffffffffffffffffffffffffffffffffffff168373ffffffffffffffffffffffffffffffffffffffff1603610898576040517f08c379a000000000000000000000000000000000000000000000000000000000815260040161088f90613bc3565b60405180910390fd5b8073ffffffffffffffffffffffffffffffffffffffff166108b7611d2d565b73ffffffffffffffffffffffffffffffffffffffff1614806108e657506108e5816108e0611d2d565b6118fe565b5b610925576040517f08c379a000000000000000000000000000000000000000000000000000000000815260040161091c90613c55565b60405180910390fd5b61092f8383611d35565b505050565b6000600880549050905090565b61095261094c611d2d565b82611dee565b610991576040517f08c379a000000000000000000000000000000000000000000000000000000000815260040161098890613ce7565b60405180910390fd5b61099c838383611e83565b505050565b60006109ad600b61217c565b60006109b9600b612192565b90506109c533826121a0565b6109cf81856121be565b60405180608001604052808281526020013373ffffffffffffffffffffffffffffffffffffffff16815260200184815260200160001515815250600f60008381526020019081526020016000206000820151816000015560208201518160010160006101000a81548173ffffffffffffffffffffffffffffffffffffffff021916908373ffffffffffffffffffffffffffffffffffffffff1602179055506040820151816002015560608201518160030160006101000a81548160ff02191690831515021790555090505060405180608001604052808281526020013373ffffffffffffffffffffffffffffffffffffffff16815260200184815260200160001515815250601060003373ffffffffffffffffffffffffffffffffffffffff1673ffffffffffffffffffffffffffffffffffffffff16815260200190815260200160002060008381526020019081526020016000206000820151816000015560208201518160010160006101000a81548173ffffffffffffffffffffffffffffffffffffffff021916908373ffffffffffffffffffffffffffffffffffffffff1602179055506040820151816002015560608201518160030160006101000a81548160ff0219169083151502179055509050506000601160003373ffffffffffffffffffffffffffffffffffffffff1673ffffffffffffffffffffffffffffffffffffffff1681526020019081526020016000209050806002016000815480929190610bfa90613d36565b9190505550819250505092915050565b6000610c15836114b3565b8210610c56576040517f08c379a0000000000000000000000000000000000000000000000000000000008152600401610c4d90613df0565b60405180910390fd5b600660008473ffffffffffffffffffffffffffffffffffffffff1673ffffffffffffffffffffffffffffffffffffffff168152602001908152602001600020600083815260200190815260200160002054905092915050565b6000600f600083815260200190815260200160002090503373ffffffffffffffffffffffffffffffffffffffff168160010160009054906101000a900473ffffffffffffffffffffffffffffffffffffffff1673ffffffffffffffffffffffffffffffffffffffff1614610d58576040517f08c379a0000000000000000000000000000000000000000000000000000000008152600401610d4f90613e82565b60405180910390fd5b600115158160030160009054906101000a900460ff16151514610db0576040517f08c379a0000000000000000000000000000000000000000000000000000000008152600401610da790613eee565b60405180910390fd5b6000601060003373ffffffffffffffffffffffffffffffffffffffff1673ffffffffffffffffffffffffffffffffffffffff16815260200190815260200160002060008481526020019081526020016000209050610e0f303385611e83565b60008260030160006101000a81548160ff02191690831515021790555060008160030160006101000a81548160ff021916908315150217905550505050565b610e698383836040518060200160405280600081525061169c565b505050565b6000610e78610934565b8210610eb9576040517f08c379a0000000000000000000000000000000000000000000000000000000008152600401610eb090613f80565b60405180910390fd5b60088281548110610ecd57610ecc613fa0565b5b90600052602060002001549050919050565b6000600f600083815260200190815260200160002090506000600f600084815260200190815260200160002060010160009054906101000a900473ffffffffffffffffffffffffffffffffffffffff16905081600201543414610f77576040517f08c379a0000000000000000000000000000000000000000000000000000000008152600401610f6e90614041565b60405180910390fd5b60008260030160006101000a81548160ff021916908315150217905550338260010160006101000a81548173ffffffffffffffffffffffffffffffffffffffff021916908373ffffffffffffffffffffffffffffffffffffffff160217905550610fe1600c61217c565b610fec303385611e83565b8073ffffffffffffffffffffffffffffffffffffffff166108fc349081150290604051600060405180830381858888f19350505050158015611032573d6000803e3d6000fd5b5060405180608001604052808481526020013373ffffffffffffffffffffffffffffffffffffffff1681526020018360020154815260200160001515815250601060003373ffffffffffffffffffffffffffffffffffffffff1673ffffffffffffffffffffffffffffffffffffffff16815260200190815260200160002060008581526020019081526020016000206000820151816000015560208201518160010160006101000a81548173ffffffffffffffffffffffffffffffffffffffff021916908373ffffffffffffffffffffffffffffffffffffffff1602179055506040820151816002015560608201518160030160006101000a81548160ff021916908315150217905550905050601060008273ffffffffffffffffffffffffffffffffffffffff1673ffffffffffffffffffffffffffffffffffffffff16815260200190815260200160002060008481526020019081526020016000206000808201600090556001820160006101000a81549073ffffffffffffffffffffffffffffffffffffffff021916905560028201600090556003820160006101000a81549060ff021916905550506000601160008373ffffffffffffffffffffffffffffffffffffffff1673ffffffffffffffffffffffffffffffffffffffff16815260200190815260200160002090506000601160003373ffffffffffffffffffffffffffffffffffffffff1673ffffffffffffffffffffffffffffffffffffffff168152602001908152602001600020905081600001600081548092919061127890613d36565b919050555083600201548260010160008282546112959190614061565b925050819055508060020160008154809291906112b190613d36565b91905055505050505050565b60006112c9600b612192565b905090565b6000806000806000806000600f6000898152602001908152602001600020604051806080016040529081600082015481526020016001820160009054906101000a900473ffffffffffffffffffffffffffffffffffffffff1673ffffffffffffffffffffffffffffffffffffffff1673ffffffffffffffffffffffffffffffffffffffff168152602001600282015481526020016003820160009054906101000a900460ff1615151515815250509050600060116000836020015173ffffffffffffffffffffffffffffffffffffffff1673ffffffffffffffffffffffffffffffffffffffff16815260200190815260200160002060405180606001604052908160008201548152602001600182015481526020016002820154815250509050816000015182602001518360400151846060015184600001518560200151975097509750975097509750505091939550919395565b60008061142f8361222b565b9050600073ffffffffffffffffffffffffffffffffffffffff168173ffffffffffffffffffffffffffffffffffffffff16036114a0576040517f08c379a0000000000000000000000000000000000000000000000000000000008152600401611497906140e1565b60405180910390fd5b80915050919050565b6000600e54905090565b60008073ffffffffffffffffffffffffffffffffffffffff168273ffffffffffffffffffffffffffffffffffffffff1603611523576040517f08c379a000000000000000000000000000000000000000000000000000000000815260040161151a90614173565b60405180910390fd5b600360008373ffffffffffffffffffffffffffffffffffffffff1673ffffffffffffffffffffffffffffffffffffffff168152602001908152602001600020549050919050565b6010602052816000526040600020602052806000526040600020600091509150508060000154908060010160009054906101000a900473ffffffffffffffffffffffffffffffffffffffff16908060020154908060030160009054906101000a900460ff16905084565b6060600180546115e390613b20565b80601f016020809104026020016040519081016040528092919081815260200182805461160f90613b20565b801561165c5780601f106116315761010080835404028352916020019161165c565b820191906000526020600020905b81548152906001019060200180831161163f57829003601f168201915b5050505050905090565b611678611671611d2d565b8383612268565b5050565b60126020528060005260406000206000915054906101000a900460ff1681565b6116ad6116a7611d2d565b83611dee565b6116ec576040517f08c379a00000000000000000000000000000000000000000000000000000000081526004016116e390613ce7565b60405180910390fd5b6116f8848484846123d4565b50505050565b3373ffffffffffffffffffffffffffffffffffffffff16600d60009054906101000a900473ffffffffffffffffffffffffffffffffffffffff1673ffffffffffffffffffffffffffffffffffffffff161461178e576040517f08c379a000000000000000000000000000000000000000000000000000000000815260040161178590614205565b60405180910390fd5b80600e8190555050565b60606117a382612430565b9050919050565b6000806000806000806000601160008973ffffffffffffffffffffffffffffffffffffffff1673ffffffffffffffffffffffffffffffffffffffff16815260200190815260200160002090506000601060008a73ffffffffffffffffffffffffffffffffffffffff1673ffffffffffffffffffffffffffffffffffffffff16815260200190815260200160002060008b8152602001908152602001600020905080600001548160010160009054906101000a900473ffffffffffffffffffffffffffffffffffffffff1682600201548360030160009054906101000a900460ff168560000154866001015497509750975097509750975050509295509295509295565b600080601160008473ffffffffffffffffffffffffffffffffffffffff1673ffffffffffffffffffffffffffffffffffffffff16815260200190815260200160002090508060020154915050919050565b6000600560008473ffffffffffffffffffffffffffffffffffffffff1673ffffffffffffffffffffffffffffffffffffffff16815260200190815260200160002060008373ffffffffffffffffffffffffffffffffffffffff1673ffffffffffffffffffffffffffffffffffffffff16815260200190815260200160002060009054906101000a900460ff16905092915050565b6000600f6000838152602001908152602001600020905060008160020154116119f0576040517f08c379a00000000000000000000000000000000000000000000000000000000081526004016119e790614297565b60405180910390fd5b600e543414611a34576040517f08c379a0000000000000000000000000000000000000000000000000000000008152600401611a2b90614329565b60405180910390fd5b3373ffffffffffffffffffffffffffffffffffffffff168160010160009054906101000a900473ffffffffffffffffffffffffffffffffffffffff1673ffffffffffffffffffffffffffffffffffffffff1614611ac6576040517f08c379a0000000000000000000000000000000000000000000000000000000008152600401611abd90613e82565b60405180910390fd5b600015158160030160009054906101000a900460ff16151514611b1e576040517f08c379a0000000000000000000000000000000000000000000000000000000008152600401611b1590614395565b60405180910390fd5b6000601060003373ffffffffffffffffffffffffffffffffffffffff1673ffffffffffffffffffffffffffffffffffffffff16815260200190815260200160002060008481526020019081526020016000209050600d60009054906101000a900473ffffffffffffffffffffffffffffffffffffffff1673ffffffffffffffffffffffffffffffffffffffff166108fc600e549081150290604051600060405180830381858888f19350505050158015611bdc573d6000803e3d6000fd5b50611be8333085611e83565b60018260030160006101000a81548160ff02191690831515021790555060018160030160006101000a81548160ff021916908315150217905550827ff227ab9acf6995a490e2e05cb846b1598ea2eeedcdcf5d7aa02ba0e15f67ace43384600201546001604051611c5b939291906143b5565b60405180910390a2505050565b60007f780e9d63000000000000000000000000000000000000000000000000000000007bffffffffffffffffffffffffffffffffffffffffffffffffffffffff1916827bffffffffffffffffffffffffffffffffffffffffffffffffffffffff19161480611cdb5750611cda82612542565b5b9050919050565b611ceb81612624565b611d2a576040517f08c379a0000000000000000000000000000000000000000000000000000000008152600401611d21906140e1565b60405180910390fd5b50565b600033905090565b816004600083815260200190815260200160002060006101000a81548173ffffffffffffffffffffffffffffffffffffffff021916908373ffffffffffffffffffffffffffffffffffffffff160217905550808273ffffffffffffffffffffffffffffffffffffffff16611da883611423565b73ffffffffffffffffffffffffffffffffffffffff167f8c5be1e5ebec7d5bd14f71427d1e84f3dd0314c0f7b2291e5b200ac8c7c3b92560405160405180910390a45050565b600080611dfa83611423565b90508073ffffffffffffffffffffffffffffffffffffffff168473ffffffffffffffffffffffffffffffffffffffff161480611e3c5750611e3b81856118fe565b5b80611e7a57508373ffffffffffffffffffffffffffffffffffffffff16611e62846107d7565b73ffffffffffffffffffffffffffffffffffffffff16145b91505092915050565b8273ffffffffffffffffffffffffffffffffffffffff16611ea382611423565b73ffffffffffffffffffffffffffffffffffffffff1614611ef9576040517f08c379a0000000000000000000000000000000000000000000000000000000008152600401611ef09061445e565b60405180910390fd5b600073ffffffffffffffffffffffffffffffffffffffff168273ffffffffffffffffffffffffffffffffffffffff1603611f68576040517f08c379a0000000000000000000000000000000000000000000000000000000008152600401611f5f906144f0565b60405180910390fd5b611f758383836001612665565b8273ffffffffffffffffffffffffffffffffffffffff16611f9582611423565b73ffffffffffffffffffffffffffffffffffffffff1614611feb576040517f08c379a0000000000000000000000000000000000000000000000000000000008152600401611fe29061445e565b60405180910390fd5b6004600082815260200190815260200160002060006101000a81549073ffffffffffffffffffffffffffffffffffffffff02191690556001600360008573ffffffffffffffffffffffffffffffffffffffff1673ffffffffffffffffffffffffffffffffffffffff168152602001908152602001600020600082825403925050819055506001600360008473ffffffffffffffffffffffffffffffffffffffff1673ffffffffffffffffffffffffffffffffffffffff16815260200190815260200160002060008282540192505081905550816002600083815260200190815260200160002060006101000a81548173ffffffffffffffffffffffffffffffffffffffff021916908373ffffffffffffffffffffffffffffffffffffffff160217905550808273ffffffffffffffffffffffffffffffffffffffff168473ffffffffffffffffffffffffffffffffffffffff167fddf252ad1be2c89b69c2b068fc378daa952ba7f163c4a11628f55a4df523b3ef60405160405180910390a46121778383836001612677565b505050565b6001816000016000828254019250508190555050565b600081600001549050919050565b6121ba82826040518060200160405280600081525061267d565b5050565b6121c782612624565b612206576040517f08c379a00000000000000000000000000000000000000000000000000000000081526004016121fd90614582565b60405180910390fd5b80600a60008481526020019081526020016000209081612226919061474e565b505050565b60006002600083815260200190815260200160002060009054906101000a900473ffffffffffffffffffffffffffffffffffffffff169050919050565b8173ffffffffffffffffffffffffffffffffffffffff168373ffffffffffffffffffffffffffffffffffffffff16036122d6576040517f08c379a00000000000000000000000000000000000000000000000000000000081526004016122cd9061486c565b60405180910390fd5b80600560008573ffffffffffffffffffffffffffffffffffffffff1673ffffffffffffffffffffffffffffffffffffffff16815260200190815260200160002060008473ffffffffffffffffffffffffffffffffffffffff1673ffffffffffffffffffffffffffffffffffffffff16815260200190815260200160002060006101000a81548160ff0219169083151502179055508173ffffffffffffffffffffffffffffffffffffffff168373ffffffffffffffffffffffffffffffffffffffff167f17307eab39ab6107e8899845ad3d59bd9653f200f220920489ca2b5937696c31836040516123c791906133e7565b60405180910390a3505050565b6123df848484611e83565b6123eb848484846126d8565b61242a576040517f08c379a0000000000000000000000000000000000000000000000000000000008152600401612421906148fe565b60405180910390fd5b50505050565b606061243b82611ce2565b6000600a6000848152602001908152602001600020805461245b90613b20565b80601f016020809104026020016040519081016040528092919081815260200182805461248790613b20565b80156124d45780601f106124a9576101008083540402835291602001916124d4565b820191906000526020600020905b8154815290600101906020018083116124b757829003601f168201915b5050505050905060006124e561285f565b905060008151036124fa57819250505061253d565b60008251111561252f57808260405160200161251792919061495a565b6040516020818303038152906040529250505061253d565b61253884612876565b925050505b919050565b60007f80ac58cd000000000000000000000000000000000000000000000000000000007bffffffffffffffffffffffffffffffffffffffffffffffffffffffff1916827bffffffffffffffffffffffffffffffffffffffffffffffffffffffff1916148061260d57507f5b5e139f000000000000000000000000000000000000000000000000000000007bffffffffffffffffffffffffffffffffffffffffffffffffffffffff1916827bffffffffffffffffffffffffffffffffffffffffffffffffffffffff1916145b8061261d575061261c826128de565b5b9050919050565b60008073ffffffffffffffffffffffffffffffffffffffff166126468361222b565b73ffffffffffffffffffffffffffffffffffffffff1614159050919050565b61267184848484612948565b50505050565b50505050565b6126878383612aa6565b61269460008484846126d8565b6126d3576040517f08c379a00000000000000000000000000000000000000000000000000000000081526004016126ca906148fe565b60405180910390fd5b505050565b60006126f98473ffffffffffffffffffffffffffffffffffffffff16612cc3565b15612852578373ffffffffffffffffffffffffffffffffffffffff1663150b7a02612722611d2d565b8786866040518563ffffffff1660e01b815260040161274494939291906149d3565b6020604051808303816000875af192505050801561278057506040513d601f19601f8201168201806040525081019061277d9190614a34565b60015b612802573d80600081146127b0576040519150601f19603f3d011682016040523d82523d6000602084013e6127b5565b606091505b5060008151036127fa576040517f08c379a00000000000000000000000000000000000000000000000000000000081526004016127f1906148fe565b60405180910390fd5b805181602001fd5b63150b7a0260e01b7bffffffffffffffffffffffffffffffffffffffffffffffffffffffff1916817bffffffffffffffffffffffffffffffffffffffffffffffffffffffff191614915050612857565b600190505b949350505050565b606060405180602001604052806000815250905090565b606061288182611ce2565b600061288b61285f565b905060008151116128ab57604051806020016040528060008152506128d6565b806128b584612ce6565b6040516020016128c692919061495a565b6040516020818303038152906040525b915050919050565b60007f01ffc9a7000000000000000000000000000000000000000000000000000000007bffffffffffffffffffffffffffffffffffffffffffffffffffffffff1916827bffffffffffffffffffffffffffffffffffffffffffffffffffffffff1916149050919050565b61295484848484612db4565b6001811115612998576040517f08c379a000000000000000000000000000000000000000000000000000000000815260040161298f90614ad3565b60405180910390fd5b6000829050600073ffffffffffffffffffffffffffffffffffffffff168573ffffffffffffffffffffffffffffffffffffffff16036129df576129da81612eda565b612a1e565b8373ffffffffffffffffffffffffffffffffffffffff168573ffffffffffffffffffffffffffffffffffffffff1614612a1d57612a1c8582612f23565b5b5b600073ffffffffffffffffffffffffffffffffffffffff168473ffffffffffffffffffffffffffffffffffffffff1603612a6057612a5b81613090565b612a9f565b8473ffffffffffffffffffffffffffffffffffffffff168473ffffffffffffffffffffffffffffffffffffffff1614612a9e57612a9d8482613161565b5b5b5050505050565b600073ffffffffffffffffffffffffffffffffffffffff168273ffffffffffffffffffffffffffffffffffffffff1603612b15576040517f08c379a0000000000000000000000000000000000000000000000000000000008152600401612b0c90614b3f565b60405180910390fd5b612b1e81612624565b15612b5e576040517f08c379a0000000000000000000000000000000000000000000000000000000008152600401612b5590614bab565b60405180910390fd5b612b6c600083836001612665565b612b7581612624565b15612bb5576040517f08c379a0000000000000000000000000000000000000000000000000000000008152600401612bac90614bab565b60405180910390fd5b6001600360008473ffffffffffffffffffffffffffffffffffffffff1673ffffffffffffffffffffffffffffffffffffffff16815260200190815260200160002060008282540192505081905550816002600083815260200190815260200160002060006101000a81548173ffffffffffffffffffffffffffffffffffffffff021916908373ffffffffffffffffffffffffffffffffffffffff160217905550808273ffffffffffffffffffffffffffffffffffffffff16600073ffffffffffffffffffffffffffffffffffffffff167fddf252ad1be2c89b69c2b068fc378daa952ba7f163c4a11628f55a4df523b3ef60405160405180910390a4612cbf600083836001612677565b5050565b6000808273ffffffffffffffffffffffffffffffffffffffff163b119050919050565b606060006001612cf5846131e0565b01905060008167ffffffffffffffff811115612d1457612d13613666565b5b6040519080825280601f01601f191660200182016040528015612d465781602001600182028036833780820191505090505b509050600082602001820190505b600115612da9578080600190039150507f3031323334353637383961626364656600000000000000000000000000000000600a86061a8153600a8581612d9d57612d9c614bcb565b5b04945060008503612d54575b819350505050919050565b6001811115612ed457600073ffffffffffffffffffffffffffffffffffffffff168473ffffffffffffffffffffffffffffffffffffffff1614612e485780600360008673ffffffffffffffffffffffffffffffffffffffff1673ffffffffffffffffffffffffffffffffffffffff1681526020019081526020016000206000828254612e409190614bfa565b925050819055505b600073ffffffffffffffffffffffffffffffffffffffff168373ffffffffffffffffffffffffffffffffffffffff1614612ed35780600360008573ffffffffffffffffffffffffffffffffffffffff1673ffffffffffffffffffffffffffffffffffffffff1681526020019081526020016000206000828254612ecb9190614061565b925050819055505b5b50505050565b6008805490506009600083815260200190815260200160002081905550600881908060018154018082558091505060019003906000526020600020016000909190919091505550565b60006001612f30846114b3565b612f3a9190614bfa565b905060006007600084815260200190815260200160002054905081811461301f576000600660008673ffffffffffffffffffffffffffffffffffffffff1673ffffffffffffffffffffffffffffffffffffffff168152602001908152602001600020600084815260200190815260200160002054905080600660008773ffffffffffffffffffffffffffffffffffffffff1673ffffffffffffffffffffffffffffffffffffffff168152602001908152602001600020600084815260200190815260200160002081905550816007600083815260200190815260200160002081905550505b6007600084815260200190815260200160002060009055600660008573ffffffffffffffffffffffffffffffffffffffff1673ffffffffffffffffffffffffffffffffffffffff16815260200190815260200160002060008381526020019081526020016000206000905550505050565b600060016008805490506130a49190614bfa565b90506000600960008481526020019081526020016000205490506000600883815481106130d4576130d3613fa0565b5b9060005260206000200154905080600883815481106130f6576130f5613fa0565b5b90600052602060002001819055508160096000838152602001908152602001600020819055506009600085815260200190815260200160002060009055600880548061314557613144614c2e565b5b6001900381819060005260206000200160009055905550505050565b600061316c836114b3565b905081600660008573ffffffffffffffffffffffffffffffffffffffff1673ffffffffffffffffffffffffffffffffffffffff168152602001908152602001600020600083815260200190815260200160002081905550806007600084815260200190815260200160002081905550505050565b600080600090507a184f03e93ff9f4daa797ed6e38ed64bf6a1f010000000000000000831061323e577a184f03e93ff9f4daa797ed6e38ed64bf6a1f010000000000000000838161323457613233614bcb565b5b0492506040810190505b6d04ee2d6d415b85acef8100000000831061327b576d04ee2d6d415b85acef8100000000838161327157613270614bcb565b5b0492506020810190505b662386f26fc1000083106132aa57662386f26fc1000083816132a05761329f614bcb565b5b0492506010810190505b6305f5e10083106132d3576305f5e10083816132c9576132c8614bcb565b5b0492506008810190505b61271083106132f85761271083816132ee576132ed614bcb565b5b0492506004810190505b6064831061331b576064838161331157613310614bcb565b5b0492506002810190505b600a831061332a576001810190505b80915050919050565b6000604051905090565b600080fd5b600080fd5b60007fffffffff0000000000000000000000000000000000000000000000000000000082169050919050565b61337c81613347565b811461338757600080fd5b50565b60008135905061339981613373565b92915050565b6000602082840312156133b5576133b461333d565b5b60006133c38482850161338a565b91505092915050565b60008115159050919050565b6133e1816133cc565b82525050565b60006020820190506133fc60008301846133d8565b92915050565b600081519050919050565b600082825260208201905092915050565b60005b8381101561343c578082015181840152602081019050613421565b60008484015250505050565b6000601f19601f8301169050919050565b600061346482613402565b61346e818561340d565b935061347e81856020860161341e565b61348781613448565b840191505092915050565b600060208201905081810360008301526134ac8184613459565b905092915050565b6000819050919050565b6134c7816134b4565b81146134d257600080fd5b50565b6000813590506134e4816134be565b92915050565b600060208284031215613500576134ff61333d565b5b600061350e848285016134d5565b91505092915050565b600073ffffffffffffffffffffffffffffffffffffffff82169050919050565b600061354282613517565b9050919050565b61355281613537565b82525050565b600060208201905061356d6000830184613549565b92915050565b61357c81613537565b811461358757600080fd5b50565b60008135905061359981613573565b92915050565b600080604083850312156135b6576135b561333d565b5b60006135c48582860161358a565b92505060206135d5858286016134d5565b9150509250929050565b6135e8816134b4565b82525050565b600060208201905061360360008301846135df565b92915050565b6000806000606084860312156136225761362161333d565b5b60006136308682870161358a565b93505060206136418682870161358a565b9250506040613652868287016134d5565b9150509250925092565b600080fd5b600080fd5b7f4e487b7100000000000000000000000000000000000000000000000000000000600052604160045260246000fd5b61369e82613448565b810181811067ffffffffffffffff821117156136bd576136bc613666565b5b80604052505050565b60006136d0613333565b90506136dc8282613695565b919050565b600067ffffffffffffffff8211156136fc576136fb613666565b5b61370582613448565b9050602081019050919050565b82818337600083830152505050565b600061373461372f846136e1565b6136c6565b9050828152602081018484840111156137505761374f613661565b5b61375b848285613712565b509392505050565b600082601f8301126137785761377761365c565b5b8135613788848260208601613721565b91505092915050565b600080604083850312156137a8576137a761333d565b5b600083013567ffffffffffffffff8111156137c6576137c5613342565b5b6137d285828601613763565b92505060206137e3858286016134d5565b9150509250929050565b600060c08201905061380260008301896135df565b61380f6020830188613549565b61381c60408301876135df565b61382960608301866133d8565b61383660808301856135df565b61384360a08301846135df565b979650505050505050565b6000602082840312156138645761386361333d565b5b60006138728482850161358a565b91505092915050565b600061388682613517565b9050919050565b6138968161387b565b82525050565b60006080820190506138b160008301876135df565b6138be602083018661388d565b6138cb60408301856135df565b6138d860608301846133d8565b95945050505050565b6138ea816133cc565b81146138f557600080fd5b50565b600081359050613907816138e1565b92915050565b600080604083850312156139245761392361333d565b5b60006139328582860161358a565b9250506020613943858286016138f8565b9150509250929050565b600067ffffffffffffffff82111561396857613967613666565b5b61397182613448565b9050602081019050919050565b600061399161398c8461394d565b6136c6565b9050828152602081018484840111156139ad576139ac613661565b5b6139b8848285613712565b509392505050565b600082601f8301126139d5576139d461365c565b5b81356139e584826020860161397e565b91505092915050565b60008060008060808587031215613a0857613a0761333d565b5b6000613a168782880161358a565b9450506020613a278782880161358a565b9350506040613a38878288016134d5565b925050606085013567ffffffffffffffff811115613a5957613a58613342565b5b613a65878288016139c0565b91505092959194509250565b60008060408385031215613a8857613a8761333d565b5b6000613a96858286016134d5565b9250506020613aa78582860161358a565b9150509250929050565b60008060408385031215613ac857613ac761333d565b5b6000613ad68582860161358a565b9250506020613ae78582860161358a565b9150509250929050565b7f4e487b7100000000000000000000000000000000000000000000000000000000600052602260045260246000fd5b60006002820490506001821680613b3857607f821691505b602082108103613b4b57613b4a613af1565b5b50919050565b7f4552433732313a20617070726f76616c20746f2063757272656e74206f776e6560008201527f7200000000000000000000000000000000000000000000000000000000000000602082015250565b6000613bad60218361340d565b9150613bb882613b51565b604082019050919050565b60006020820190508181036000830152613bdc81613ba0565b9050919050565b7f4552433732313a20617070726f76652063616c6c6572206973206e6f7420746f60008201527f6b656e206f776e6572206f7220617070726f76656420666f7220616c6c000000602082015250565b6000613c3f603d8361340d565b9150613c4a82613be3565b604082019050919050565b60006020820190508181036000830152613c6e81613c32565b9050919050565b7f4552433732313a2063616c6c6572206973206e6f7420746f6b656e206f776e6560008201527f72206f7220617070726f76656400000000000000000000000000000000000000602082015250565b6000613cd1602d8361340d565b9150613cdc82613c75565b604082019050919050565b60006020820190508181036000830152613d0081613cc4565b9050919050565b7f4e487b7100000000000000000000000000000000000000000000000000000000600052601160045260246000fd5b6000613d41826134b4565b91507fffffffffffffffffffffffffffffffffffffffffffffffffffffffffffffffff8203613d7357613d72613d07565b5b600182019050919050565b7f455243373231456e756d657261626c653a206f776e657220696e646578206f7560008201527f74206f6620626f756e6473000000000000000000000000000000000000000000602082015250565b6000613dda602b8361340d565b9150613de582613d7e565b604082019050919050565b60006020820190508181036000830152613e0981613dcd565b9050919050565b7f4f6e6c79204e4654206f776e6572732063616e20706572666f726d207468697360008201527f206f7065726174696f6e00000000000000000000000000000000000000000000602082015250565b6000613e6c602a8361340d565b9150613e7782613e10565b604082019050919050565b60006020820190508181036000830152613e9b81613e5f565b9050919050565b7f4974656d206e6f74206c697374656420666f722073616c650000000000000000600082015250565b6000613ed860188361340d565b9150613ee382613ea2565b602082019050919050565b60006020820190508181036000830152613f0781613ecb565b9050919050565b7f455243373231456e756d657261626c653a20676c6f62616c20696e646578206f60008201527f7574206f6620626f756e64730000000000000000000000000000000000000000602082015250565b6000613f6a602c8361340d565b9150613f7582613f0e565b604082019050919050565b60006020820190508181036000830152613f9981613f5d565b9050919050565b7f4e487b7100000000000000000000000000000000000000000000000000000000600052603260045260246000fd5b7f506c65617365207375626d6974207468652061736b696e67207072696365206960008201527f6e206f7264657220746f20636f6d706c65746520746865207075726368617365602082015250565b600061402b60408361340d565b915061403682613fcf565b604082019050919050565b6000602082019050818103600083015261405a8161401e565b9050919050565b600061406c826134b4565b9150614077836134b4565b925082820190508082111561408f5761408e613d07565b5b92915050565b7f4552433732313a20696e76616c696420746f6b656e2049440000000000000000600082015250565b60006140cb60188361340d565b91506140d682614095565b602082019050919050565b600060208201905081810360008301526140fa816140be565b9050919050565b7f4552433732313a2061646472657373207a65726f206973206e6f74206120766160008201527f6c6964206f776e65720000000000000000000000000000000000000000000000602082015250565b600061415d60298361340d565b915061416882614101565b604082019050919050565b6000602082019050818103600083015261418c81614150565b9050919050565b7f4f6e6c79206f776e65722063616e20757064617465206c697374696e6720707260008201527f6963650000000000000000000000000000000000000000000000000000000000602082015250565b60006141ef60238361340d565b91506141fa82614193565b604082019050919050565b6000602082019050818103600083015261421e816141e2565b9050919050565b7f4d616b652073757265207468652070726963652069736e2774206e656761746960008201527f7665000000000000000000000000000000000000000000000000000000000000602082015250565b600061428160228361340d565b915061428c82614225565b604082019050919050565b600060208201905081810360008301526142b081614274565b9050919050565b7f486f706566756c6c792073656e64696e672074686520636f727265637420707260008201527f6963650000000000000000000000000000000000000000000000000000000000602082015250565b600061431360238361340d565b915061431e826142b7565b604082019050919050565b6000602082019050818103600083015261434281614306565b9050919050565b7f4974656d20616c7265616479206c697374656420666f722073616c6500000000600082015250565b600061437f601c8361340d565b915061438a82614349565b602082019050919050565b600060208201905081810360008301526143ae81614372565b9050919050565b60006060820190506143ca6000830186613549565b6143d760208301856135df565b6143e460408301846133d8565b949350505050565b7f4552433732313a207472616e736665722066726f6d20696e636f72726563742060008201527f6f776e6572000000000000000000000000000000000000000000000000000000602082015250565b600061444860258361340d565b9150614453826143ec565b604082019050919050565b600060208201905081810360008301526144778161443b565b9050919050565b7f4552433732313a207472616e7366657220746f20746865207a65726f2061646460008201527f7265737300000000000000000000000000000000000000000000000000000000602082015250565b60006144da60248361340d565b91506144e58261447e565b604082019050919050565b60006020820190508181036000830152614509816144cd565b9050919050565b7f45524337323155524953746f726167653a2055524920736574206f66206e6f6e60008201527f6578697374656e7420746f6b656e000000000000000000000000000000000000602082015250565b600061456c602e8361340d565b915061457782614510565b604082019050919050565b6000602082019050818103600083015261459b8161455f565b9050919050565b60008190508160005260206000209050919050565b60006020601f8301049050919050565b600082821b905092915050565b6000600883026146047fffffffffffffffffffffffffffffffffffffffffffffffffffffffffffffffff826145c7565b61460e86836145c7565b95508019841693508086168417925050509392505050565b6000819050919050565b600061464b614646614641846134b4565b614626565b6134b4565b9050919050565b6000819050919050565b61466583614630565b61467961467182614652565b8484546145d4565b825550505050565b600090565b61468e614681565b61469981848461465c565b505050565b5b818110156146bd576146b2600082614686565b60018101905061469f565b5050565b601f821115614702576146d3816145a2565b6146dc846145b7565b810160208510156146eb578190505b6146ff6146f7856145b7565b83018261469e565b50505b505050565b600082821c905092915050565b600061472560001984600802614707565b1980831691505092915050565b600061473e8383614714565b9150826002028217905092915050565b61475782613402565b67ffffffffffffffff8111156147705761476f613666565b5b61477a8254613b20565b6147858282856146c1565b600060209050601f8311600181146147b857600084156147a6578287015190505b6147b08582614732565b865550614818565b601f1984166147c6866145a2565b60005b828110156147ee578489015182556001820191506020850194506020810190506147c9565b8683101561480b5784890151614807601f891682614714565b8355505b6001600288020188555050505b505050505050565b7f4552433732313a20617070726f766520746f2063616c6c657200000000000000600082015250565b600061485660198361340d565b915061486182614820565b602082019050919050565b6000602082019050818103600083015261488581614849565b9050919050565b7f4552433732313a207472616e7366657220746f206e6f6e20455243373231526560008201527f63656976657220696d706c656d656e7465720000000000000000000000000000602082015250565b60006148e860328361340d565b91506148f38261488c565b604082019050919050565b60006020820190508181036000830152614917816148db565b9050919050565b600081905092915050565b600061493482613402565b61493e818561491e565b935061494e81856020860161341e565b80840191505092915050565b60006149668285614929565b91506149728284614929565b91508190509392505050565b600081519050919050565b600082825260208201905092915050565b60006149a58261497e565b6149af8185614989565b93506149bf81856020860161341e565b6149c881613448565b840191505092915050565b60006080820190506149e86000830187613549565b6149f56020830186613549565b614a0260408301856135df565b8181036060830152614a14818461499a565b905095945050505050565b600081519050614a2e81613373565b92915050565b600060208284031215614a4a57614a4961333d565b5b6000614a5884828501614a1f565b91505092915050565b7f455243373231456e756d657261626c653a20636f6e736563757469766520747260008201527f616e7366657273206e6f7420737570706f727465640000000000000000000000602082015250565b6000614abd60358361340d565b9150614ac882614a61565b604082019050919050565b60006020820190508181036000830152614aec81614ab0565b9050919050565b7f4552433732313a206d696e7420746f20746865207a65726f2061646472657373600082015250565b6000614b2960208361340d565b9150614b3482614af3565b602082019050919050565b60006020820190508181036000830152614b5881614b1c565b9050919050565b7f4552433732313a20746f6b656e20616c7265616479206d696e74656400000000600082015250565b6000614b95601c8361340d565b9150614ba082614b5f565b602082019050919050565b60006020820190508181036000830152614bc481614b88565b9050919050565b7f4e487b7100000000000000000000000000000000000000000000000000000000600052601260045260246000fd5b6000614c05826134b4565b9150614c10836134b4565b9250828203905081811115614c2857614c27613d07565b5b92915050565b7f4e487b7100000000000000000000000000000000000000000000000000000000600052603160045260246000fdfea2646970667358221220bc6626291c26f19fd8243323f3d967b1738303db0c989660392b5d482806e35c64736f6c63430008110033",
  "linkReferences": {},
  "deployedLinkReferences": {}
}