{
  "_format": "hh-sol-artifact-1",
  "contractName": "NFTMarketplace",
  "sourceName": "contracts/NFTMarketplace.sol",
  "abi": [
    {
      "inputs": [],
      "stateMutability": "nonpayable",
      "type": "constructor"
    },
    {
      "anonymous": false,
      "inputs": [
        {
          "indexed": true,
          "internalType": "address",
          "name": "owner",
          "type": "address"
        },
        {
          "indexed": true,
          "internalType": "address",
          "name": "approved",
          "type": "address"
        },
        {
          "indexed": true,
          "internalType": "uint256",
          "name": "tokenId",
          "type": "uint256"
        }
      ],
      "name": "Approval",
      "type": "event"
    },
    {
      "anonymous": false,
      "inputs": [
        {
          "indexed": true,
          "internalType": "address",
          "name": "owner",
          "type": "address"
        },
        {
          "indexed": true,
          "internalType": "address",
          "name": "operator",
          "type": "address"
        },
        {
          "indexed": false,
          "internalType": "bool",
          "name": "approved",
          "type": "bool"
        }
      ],
      "name": "ApprovalForAll",
      "type": "event"
    },
    {
      "anonymous": false,
      "inputs": [
        {
          "indexed": true,
          "internalType": "uint256",
          "name": "tokenId",
          "type": "uint256"
        },
        {
          "indexed": false,
          "internalType": "address",
          "name": "seller",
          "type": "address"
        },
        {
          "indexed": false,
          "internalType": "uint256",
          "name": "price",
          "type": "uint256"
        },
        {
          "indexed": false,
          "internalType": "bool",
          "name": "forSale",
          "type": "bool"
        }
      ],
      "name": "NFTListedSuccess",
      "type": "event"
    },
    {
      "anonymous": false,
      "inputs": [
        {
          "indexed": true,
          "internalType": "address",
          "name": "from",
          "type": "address"
        },
        {
          "indexed": true,
          "internalType": "address",
          "name": "to",
          "type": "address"
        },
        {
          "indexed": true,
          "internalType": "uint256",
          "name": "tokenId",
          "type": "uint256"
        }
      ],
      "name": "Transfer",
      "type": "event"
    },
    {
      "inputs": [
        {
          "internalType": "address",
          "name": "to",
          "type": "address"
        },
        {
          "internalType": "uint256",
          "name": "tokenId",
          "type": "uint256"
        }
      ],
      "name": "approve",
      "outputs": [],
      "stateMutability": "nonpayable",
      "type": "function"
    },
    {
      "inputs": [
        {
          "internalType": "address",
          "name": "owner",
          "type": "address"
        }
      ],
      "name": "balanceOf",
      "outputs": [
        {
          "internalType": "uint256",
          "name": "",
          "type": "uint256"
        }
      ],
      "stateMutability": "view",
      "type": "function"
    },
    {
      "inputs": [
        {
          "internalType": "uint256",
          "name": "tokenId",
          "type": "uint256"
        }
      ],
      "name": "buyNFT",
      "outputs": [],
      "stateMutability": "payable",
      "type": "function"
    },
    {
      "inputs": [
        {
          "internalType": "uint256",
          "name": "tokenId",
          "type": "uint256"
        }
      ],
      "name": "cancel",
      "outputs": [],
      "stateMutability": "nonpayable",
      "type": "function"
    },
    {
      "inputs": [
        {
          "internalType": "string",
          "name": "NFTURI",
          "type": "string"
        },
        {
          "internalType": "uint256",
          "name": "price",
          "type": "uint256"
        }
      ],
      "name": "createNFT",
      "outputs": [
        {
          "internalType": "uint256",
          "name": "",
          "type": "uint256"
        }
      ],
      "stateMutability": "payable",
      "type": "function"
    },
    {
      "inputs": [
        {
          "internalType": "uint256",
          "name": "tokenId",
          "type": "uint256"
        }
      ],
      "name": "getApproved",
      "outputs": [
        {
          "internalType": "address",
          "name": "",
          "type": "address"
        }
      ],
      "stateMutability": "view",
      "type": "function"
    },
    {
      "inputs": [],
      "name": "getListPrice",
      "outputs": [
        {
          "internalType": "uint256",
          "name": "",
          "type": "uint256"
        }
      ],
      "stateMutability": "view",
      "type": "function"
    },
    {
      "inputs": [
        {
          "internalType": "address",
          "name": "_address",
          "type": "address"
        }
      ],
      "name": "getMyNFTCount",
      "outputs": [
        {
          "internalType": "uint256",
          "name": "",
          "type": "uint256"
        }
      ],
      "stateMutability": "view",
      "type": "function"
    },
    {
      "inputs": [
        {
          "internalType": "uint256",
          "name": "_index",
          "type": "uint256"
        },
        {
          "internalType": "address",
          "name": "_callerAddress",
          "type": "address"
        }
      ],
      "name": "getMyNFTs",
      "outputs": [
        {
          "internalType": "uint256",
          "name": "_NFTId",
          "type": "uint256"
        },
        {
          "internalType": "address",
          "name": "_seller",
          "type": "address"
        },
        {
          "internalType": "uint256",
          "name": "_price",
          "type": "uint256"
        },
        {
          "internalType": "bool",
          "name": "_forSale",
          "type": "bool"
        },
        {
          "internalType": "uint256",
          "name": "_sales",
          "type": "uint256"
        },
        {
          "internalType": "uint256",
          "name": "_earnings",
          "type": "uint256"
        }
      ],
      "stateMutability": "view",
      "type": "function"
    },
    {
      "inputs": [
        {
          "internalType": "uint256",
          "name": "NFTId",
          "type": "uint256"
        }
      ],
      "name": "getNFT",
      "outputs": [
        {
          "internalType": "uint256",
          "name": "_NFTId",
          "type": "uint256"
        },
        {
          "internalType": "address",
          "name": "_seller",
          "type": "address"
        },
        {
          "internalType": "uint256",
          "name": "_price",
          "type": "uint256"
        },
        {
          "internalType": "bool",
          "name": "_forSale",
          "type": "bool"
        },
        {
          "internalType": "uint256",
          "name": "_sales",
          "type": "uint256"
        },
        {
          "internalType": "uint256",
          "name": "_earnings",
          "type": "uint256"
        }
      ],
      "stateMutability": "view",
      "type": "function"
    },
    {
      "inputs": [],
      "name": "getNFTCount",
      "outputs": [
        {
          "internalType": "uint256",
          "name": "",
          "type": "uint256"
        }
      ],
      "stateMutability": "view",
      "type": "function"
    },
    {
      "inputs": [
        {
          "internalType": "address",
          "name": "owner",
          "type": "address"
        },
        {
          "internalType": "address",
          "name": "operator",
          "type": "address"
        }
      ],
      "name": "isApprovedForAll",
      "outputs": [
        {
          "internalType": "bool",
          "name": "",
          "type": "bool"
        }
      ],
      "stateMutability": "view",
      "type": "function"
    },
    {
      "inputs": [],
      "name": "name",
      "outputs": [
        {
          "internalType": "string",
          "name": "",
          "type": "string"
        }
      ],
      "stateMutability": "view",
      "type": "function"
    },
    {
      "inputs": [
        {
          "internalType": "uint256",
          "name": "tokenId",
          "type": "uint256"
        }
      ],
      "name": "ownerOf",
      "outputs": [
        {
          "internalType": "address",
          "name": "",
          "type": "address"
        }
      ],
      "stateMutability": "view",
      "type": "function"
    },
    {
      "inputs": [
        {
          "internalType": "address",
          "name": "from",
          "type": "address"
        },
        {
          "internalType": "address",
          "name": "to",
          "type": "address"
        },
        {
          "internalType": "uint256",
          "name": "tokenId",
          "type": "uint256"
        }
      ],
      "name": "safeTransferFrom",
      "outputs": [],
      "stateMutability": "nonpayable",
      "type": "function"
    },
    {
      "inputs": [
        {
          "internalType": "address",
          "name": "from",
          "type": "address"
        },
        {
          "internalType": "address",
          "name": "to",
          "type": "address"
        },
        {
          "internalType": "uint256",
          "name": "tokenId",
          "type": "uint256"
        },
        {
          "internalType": "bytes",
          "name": "data",
          "type": "bytes"
        }
      ],
      "name": "safeTransferFrom",
      "outputs": [],
      "stateMutability": "nonpayable",
      "type": "function"
    },
    {
      "inputs": [
        {
          "internalType": "uint256",
          "name": "tokenId",
          "type": "uint256"
        }
      ],
      "name": "sellNFT",
      "outputs": [],
      "stateMutability": "payable",
      "type": "function"
    },
    {
      "inputs": [
        {
          "internalType": "address",
          "name": "",
          "type": "address"
        }
      ],
      "name": "sellerExist",
      "outputs": [
        {
          "internalType": "bool",
          "name": "",
          "type": "bool"
        }
      ],
      "stateMutability": "view",
      "type": "function"
    },
    {
      "inputs": [
        {
          "internalType": "address",
          "name": "operator",
          "type": "address"
        },
        {
          "internalType": "bool",
          "name": "approved",
          "type": "bool"
        }
      ],
      "name": "setApprovalForAll",
      "outputs": [],
      "stateMutability": "nonpayable",
      "type": "function"
    },
    {
      "inputs": [
        {
          "internalType": "bytes4",
          "name": "interfaceId",
          "type": "bytes4"
        }
      ],
      "name": "supportsInterface",
      "outputs": [
        {
          "internalType": "bool",
          "name": "",
          "type": "bool"
        }
      ],
      "stateMutability": "view",
      "type": "function"
    },
    {
      "inputs": [],
      "name": "symbol",
      "outputs": [
        {
          "internalType": "string",
          "name": "",
          "type": "string"
        }
      ],
      "stateMutability": "view",
      "type": "function"
    },
    {
      "inputs": [
        {
          "internalType": "uint256",
          "name": "index",
          "type": "uint256"
        }
      ],
      "name": "tokenByIndex",
      "outputs": [
        {
          "internalType": "uint256",
          "name": "",
          "type": "uint256"
        }
      ],
      "stateMutability": "view",
      "type": "function"
    },
    {
      "inputs": [
        {
          "internalType": "address",
          "name": "owner",
          "type": "address"
        },
        {
          "internalType": "uint256",
          "name": "index",
          "type": "uint256"
        }
      ],
      "name": "tokenOfOwnerByIndex",
      "outputs": [
        {
          "internalType": "uint256",
          "name": "",
          "type": "uint256"
        }
      ],
      "stateMutability": "view",
      "type": "function"
    },
    {
      "inputs": [
        {
          "internalType": "uint256",
          "name": "tokenId",
          "type": "uint256"
        }
      ],
      "name": "tokenURI",
      "outputs": [
        {
          "internalType": "string",
          "name": "",
          "type": "string"
        }
      ],
      "stateMutability": "view",
      "type": "function"
    },
    {
      "inputs": [],
      "name": "totalSupply",
      "outputs": [
        {
          "internalType": "uint256",
          "name": "",
          "type": "uint256"
        }
      ],
      "stateMutability": "view",
      "type": "function"
    },
    {
      "inputs": [
        {
          "internalType": "address",
          "name": "from",
          "type": "address"
        },
        {
          "internalType": "address",
          "name": "to",
          "type": "address"
        },
        {
          "internalType": "uint256",
          "name": "tokenId",
          "type": "uint256"
        }
      ],
      "name": "transferFrom",
      "outputs": [],
      "stateMutability": "nonpayable",
      "type": "function"
    },
    {
      "inputs": [
        {
          "internalType": "uint256",
          "name": "_listPrice",
          "type": "uint256"
        }
      ],
      "name": "updateListPrice",
      "outputs": [],
      "stateMutability": "payable",
      "type": "function"
    }
  ],
  "bytecode": "0x6080604052662386f26fc10000600e553480156200001c57600080fd5b506040518060400160405280601681526020017f4172746973616e734e46544d61726b6574706c616365000000000000000000008152506040518060400160405280600681526020017f414e544d4b54000000000000000000000000000000000000000000000000000081525081600090816200009a919062000370565b508060019081620000ac919062000370565b50505033600d60006101000a81548173ffffffffffffffffffffffffffffffffffffffff021916908373ffffffffffffffffffffffffffffffffffffffff16021790555062000457565b600081519050919050565b7f4e487b7100000000000000000000000000000000000000000000000000000000600052604160045260246000fd5b7f4e487b7100000000000000000000000000000000000000000000000000000000600052602260045260246000fd5b600060028204905060018216806200017857607f821691505b6020821081036200018e576200018d62000130565b5b50919050565b60008190508160005260206000209050919050565b60006020601f8301049050919050565b600082821b905092915050565b600060088302620001f87fffffffffffffffffffffffffffffffffffffffffffffffffffffffffffffffff82620001b9565b620002048683620001b9565b95508019841693508086168417925050509392505050565b6000819050919050565b6000819050919050565b6000620002516200024b62000245846200021c565b62000226565b6200021c565b9050919050565b6000819050919050565b6200026d8362000230565b620002856200027c8262000258565b848454620001c6565b825550505050565b600090565b6200029c6200028d565b620002a981848462000262565b505050565b5b81811015620002d157620002c560008262000292565b600181019050620002af565b5050565b601f8211156200032057620002ea8162000194565b620002f584620001a9565b8101602085101562000305578190505b6200031d6200031485620001a9565b830182620002ae565b50505b505050565b600082821c905092915050565b6000620003456000198460080262000325565b1980831691505092915050565b600062000360838362000332565b9150826002028217905092915050565b6200037b82620000f6565b67ffffffffffffffff81111562000397576200039662000101565b5b620003a382546200015f565b620003b0828285620002d5565b600060209050601f831160018114620003e85760008415620003d3578287015190505b620003df858262000352565b8655506200044f565b601f198416620003f88662000194565b60005b828110156200042257848901518255600182019150602085019450602081019050620003fb565b868310156200044257848901516200043e601f89168262000332565b8355505b6001600288020188555050505b505050505050565b61495880620004676000396000f3fe60806040526004361061019c5760003560e01c8063576f7ea7116100ec578063b88d4fde1161008a578063cf39023211610064578063cf39023214610600578063e222d6d614610642578063e985e9c51461067f578063ee9cdfb3146106bc5761019c565b8063b88d4fde1461057e578063c322579c146105a7578063c87b56dd146105c35761019c565b806370a08231116100c657806370a08231146104b057806395d89b41146104ed578063a22cb46514610518578063a55ed173146105415761019c565b8063576f7ea7146104065780636352211e1461044857806368f1945f146104855761019c565b8063268291551161015957806342842e0e1161013357806342842e0e146103595780634f6ccce71461038257806351ed8288146103bf57806354279637146103db5761019c565b806326829155146102c35780632f745c59146102f357806340e58ee5146103305761019c565b806301ffc9a7146101a157806306fdde03146101de578063081812fc14610209578063095ea7b31461024657806318160ddd1461026f57806323b872dd1461029a575b600080fd5b3480156101ad57600080fd5b506101c860048036038101906101c391906130ca565b6106d8565b6040516101d59190613112565b60405180910390f35b3480156101ea57600080fd5b506101f36106ea565b60405161020091906131bd565b60405180910390f35b34801561021557600080fd5b50610230600480360381019061022b9190613215565b61077c565b60405161023d9190613283565b60405180910390f35b34801561025257600080fd5b5061026d600480360381019061026891906132ca565b6107c2565b005b34801561027b57600080fd5b506102846108d9565b6040516102919190613319565b60405180910390f35b3480156102a657600080fd5b506102c160048036038101906102bc9190613334565b6108e6565b005b6102dd60048036038101906102d891906134bc565b610946565b6040516102ea9190613319565b60405180910390f35b3480156102ff57600080fd5b5061031a600480360381019061031591906132ca565b610b68565b6040516103279190613319565b60405180910390f35b34801561033c57600080fd5b5061035760048036038101906103529190613215565b610c0d565b005b34801561036557600080fd5b50610380600480360381019061037b9190613334565b610d3a565b005b34801561038e57600080fd5b506103a960048036038101906103a49190613215565b610d5a565b6040516103b69190613319565b60405180910390f35b6103d960048036038101906103d49190613215565b610dcb565b005b3480156103e757600080fd5b506103f06110c4565b6040516103fd9190613319565b60405180910390f35b34801561041257600080fd5b5061042d60048036038101906104289190613215565b6110d5565b60405161043f96959493929190613518565b60405180910390f35b34801561045457600080fd5b5061046f600480360381019061046a9190613215565b611220565b60405161047c9190613283565b60405180910390f35b34801561049157600080fd5b5061049a6112a6565b6040516104a79190613319565b60405180910390f35b3480156104bc57600080fd5b506104d760048036038101906104d29190613579565b6112b0565b6040516104e49190613319565b60405180910390f35b3480156104f957600080fd5b50610502611367565b60405161050f91906131bd565b60405180910390f35b34801561052457600080fd5b5061053f600480360381019061053a91906135d2565b6113f9565b005b34801561054d57600080fd5b5061056860048036038101906105639190613579565b61140f565b6040516105759190613112565b60405180910390f35b34801561058a57600080fd5b506105a560048036038101906105a091906136b3565b61142f565b005b6105c160048036038101906105bc9190613215565b611491565b005b3480156105cf57600080fd5b506105ea60048036038101906105e59190613215565b61152b565b6040516105f791906131bd565b60405180910390f35b34801561060c57600080fd5b5061062760048036038101906106229190613736565b61153d565b60405161063996959493929190613518565b60405180910390f35b34801561064e57600080fd5b5061066960048036038101906106649190613579565b61164f565b6040516106769190613319565b60405180910390f35b34801561068b57600080fd5b506106a660048036038101906106a19190613776565b61169b565b6040516106b39190613112565b60405180910390f35b6106d660048036038101906106d19190613215565b61172f565b005b60006106e382611993565b9050919050565b6060600080546106f9906137e5565b80601f0160208091040260200160405190810160405280929190818152602001828054610725906137e5565b80156107725780601f1061074757610100808354040283529160200191610772565b820191906000526020600020905b81548152906001019060200180831161075557829003601f168201915b5050505050905090565b600061078782611a0d565b6004600083815260200190815260200160002060009054906101000a900473ffffffffffffffffffffffffffffffffffffffff169050919050565b60006107cd82611220565b90508073ffffffffffffffffffffffffffffffffffffffff168373ffffffffffffffffffffffffffffffffffffffff160361083d576040517f08c379a000000000000000000000000000000000000000000000000000000000815260040161083490613888565b60405180910390fd5b8073ffffffffffffffffffffffffffffffffffffffff1661085c611a58565b73ffffffffffffffffffffffffffffffffffffffff16148061088b575061088a81610885611a58565b61169b565b5b6108ca576040517f08c379a00000000000000000000000000000000000000000000000000000000081526004016108c19061391a565b60405180910390fd5b6108d48383611a60565b505050565b6000600880549050905090565b6108f76108f1611a58565b82611b19565b610936576040517f08c379a000000000000000000000000000000000000000000000000000000000815260040161092d906139ac565b60405180910390fd5b610941838383611bae565b505050565b6000610952600b611ea7565b600061095e600b611ebd565b905061096a3382611ecb565b6109748185611ee9565b60405180608001604052808281526020013373ffffffffffffffffffffffffffffffffffffffff16815260200184815260200160001515815250600f60008381526020019081526020016000206000820151816000015560208201518160010160006101000a81548173ffffffffffffffffffffffffffffffffffffffff021916908373ffffffffffffffffffffffffffffffffffffffff1602179055506040820151816002015560608201518160030160006101000a81548160ff021916908315150217905550905050601060003373ffffffffffffffffffffffffffffffffffffffff1673ffffffffffffffffffffffffffffffffffffffff16815260200190815260200160002060405180608001604052808381526020013373ffffffffffffffffffffffffffffffffffffffff1681526020018581526020016000151581525090806001815401808255809150506001900390600052602060002090600402016000909190919091506000820151816000015560208201518160010160006101000a81548173ffffffffffffffffffffffffffffffffffffffff021916908373ffffffffffffffffffffffffffffffffffffffff1602179055506040820151816002015560608201518160030160006101000a81548160ff02191690831515021790555050508091505092915050565b6000610b73836112b0565b8210610bb4576040517f08c379a0000000000000000000000000000000000000000000000000000000008152600401610bab90613a3e565b60405180910390fd5b600660008473ffffffffffffffffffffffffffffffffffffffff1673ffffffffffffffffffffffffffffffffffffffff168152602001908152602001600020600083815260200190815260200160002054905092915050565b6000600f600083815260200190815260200160002090503373ffffffffffffffffffffffffffffffffffffffff168160010160009054906101000a900473ffffffffffffffffffffffffffffffffffffffff1673ffffffffffffffffffffffffffffffffffffffff1614610cb6576040517f08c379a0000000000000000000000000000000000000000000000000000000008152600401610cad90613ad0565b60405180910390fd5b600115158160030160009054906101000a900460ff16151514610d0e576040517f08c379a0000000000000000000000000000000000000000000000000000000008152600401610d0590613b3c565b60405180910390fd5b610d19303384611bae565b60008160030160006101000a81548160ff0219169083151502179055505050565b610d558383836040518060200160405280600081525061142f565b505050565b6000610d646108d9565b8210610da5576040517f08c379a0000000000000000000000000000000000000000000000000000000008152600401610d9c90613bce565b60405180910390fd5b60088281548110610db957610db8613bee565b5b90600052602060002001549050919050565b6000600f600083815260200190815260200160002090506000600f600084815260200190815260200160002060010160009054906101000a900473ffffffffffffffffffffffffffffffffffffffff16905081600201543414610e63576040517f08c379a0000000000000000000000000000000000000000000000000000000008152600401610e5a90613c8f565b60405180910390fd5b60008260030160006101000a81548160ff021916908315150217905550338260010160006101000a81548173ffffffffffffffffffffffffffffffffffffffff021916908373ffffffffffffffffffffffffffffffffffffffff160217905550610ecd600c611ea7565b610ed8303385611bae565b8073ffffffffffffffffffffffffffffffffffffffff166108fc349081150290604051600060405180830381858888f19350505050158015610f1e573d6000803e3d6000fd5b50601060003373ffffffffffffffffffffffffffffffffffffffff1673ffffffffffffffffffffffffffffffffffffffff16815260200190815260200160002060405180608001604052808581526020013373ffffffffffffffffffffffffffffffffffffffff168152602001846002015481526020016000151581525090806001815401808255809150506001900390600052602060002090600402016000909190919091506000820151816000015560208201518160010160006101000a81548173ffffffffffffffffffffffffffffffffffffffff021916908373ffffffffffffffffffffffffffffffffffffffff1602179055506040820151816002015560608201518160030160006101000a81548160ff02191690831515021790555050506000601160008373ffffffffffffffffffffffffffffffffffffffff1673ffffffffffffffffffffffffffffffffffffffff168152602001908152602001600020905080600001600081548092919061109a90613cde565b919050555082600201548160010160008282546110b79190613d26565b9250508190555050505050565b60006110d0600b611ebd565b905090565b6000806000806000806000600f6000898152602001908152602001600020604051806080016040529081600082015481526020016001820160009054906101000a900473ffffffffffffffffffffffffffffffffffffffff1673ffffffffffffffffffffffffffffffffffffffff1673ffffffffffffffffffffffffffffffffffffffff168152602001600282015481526020016003820160009054906101000a900460ff1615151515815250509050600060116000836020015173ffffffffffffffffffffffffffffffffffffffff1673ffffffffffffffffffffffffffffffffffffffff168152602001908152602001600020604051806040016040529081600082015481526020016001820154815250509050816000015182602001518360400151846060015184600001518560200151975097509750975097509750505091939550919395565b60008061122c83611f56565b9050600073ffffffffffffffffffffffffffffffffffffffff168173ffffffffffffffffffffffffffffffffffffffff160361129d576040517f08c379a000000000000000000000000000000000000000000000000000000000815260040161129490613da6565b60405180910390fd5b80915050919050565b6000600e54905090565b60008073ffffffffffffffffffffffffffffffffffffffff168273ffffffffffffffffffffffffffffffffffffffff1603611320576040517f08c379a000000000000000000000000000000000000000000000000000000000815260040161131790613e38565b60405180910390fd5b600360008373ffffffffffffffffffffffffffffffffffffffff1673ffffffffffffffffffffffffffffffffffffffff168152602001908152602001600020549050919050565b606060018054611376906137e5565b80601f01602080910402602001604051908101604052809291908181526020018280546113a2906137e5565b80156113ef5780601f106113c4576101008083540402835291602001916113ef565b820191906000526020600020905b8154815290600101906020018083116113d257829003601f168201915b5050505050905090565b61140b611404611a58565b8383611f93565b5050565b60126020528060005260406000206000915054906101000a900460ff1681565b61144061143a611a58565b83611b19565b61147f576040517f08c379a0000000000000000000000000000000000000000000000000000000008152600401611476906139ac565b60405180910390fd5b61148b848484846120ff565b50505050565b3373ffffffffffffffffffffffffffffffffffffffff16600d60009054906101000a900473ffffffffffffffffffffffffffffffffffffffff1673ffffffffffffffffffffffffffffffffffffffff1614611521576040517f08c379a000000000000000000000000000000000000000000000000000000000815260040161151890613eca565b60405180910390fd5b80600e8190555050565b60606115368261215b565b9050919050565b6000806000806000806000601160008973ffffffffffffffffffffffffffffffffffffffff1673ffffffffffffffffffffffffffffffffffffffff16815260200190815260200160002090506000601060008a73ffffffffffffffffffffffffffffffffffffffff1673ffffffffffffffffffffffffffffffffffffffff1681526020019081526020016000208a815481106115dc576115db613bee565b5b9060005260206000209060040201905080600001548160010160009054906101000a900473ffffffffffffffffffffffffffffffffffffffff1682600201548360030160009054906101000a900460ff168560000154866001015497509750975097509750975050509295509295509295565b6000601060008373ffffffffffffffffffffffffffffffffffffffff1673ffffffffffffffffffffffffffffffffffffffff168152602001908152602001600020805490509050919050565b6000600560008473ffffffffffffffffffffffffffffffffffffffff1673ffffffffffffffffffffffffffffffffffffffff16815260200190815260200160002060008373ffffffffffffffffffffffffffffffffffffffff1673ffffffffffffffffffffffffffffffffffffffff16815260200190815260200160002060009054906101000a900460ff16905092915050565b6000600f60008381526020019081526020016000209050600081600201541161178d576040517f08c379a000000000000000000000000000000000000000000000000000000000815260040161178490613f5c565b60405180910390fd5b600e5434146117d1576040517f08c379a00000000000000000000000000000000000000000000000000000000081526004016117c890613fee565b60405180910390fd5b3373ffffffffffffffffffffffffffffffffffffffff168160010160009054906101000a900473ffffffffffffffffffffffffffffffffffffffff1673ffffffffffffffffffffffffffffffffffffffff1614611863576040517f08c379a000000000000000000000000000000000000000000000000000000000815260040161185a90613ad0565b60405180910390fd5b600015158160030160009054906101000a900460ff161515146118bb576040517f08c379a00000000000000000000000000000000000000000000000000000000081526004016118b29061405a565b60405180910390fd5b600d60009054906101000a900473ffffffffffffffffffffffffffffffffffffffff1673ffffffffffffffffffffffffffffffffffffffff166108fc600e549081150290604051600060405180830381858888f19350505050158015611925573d6000803e3d6000fd5b50611931333084611bae565b60018160030160006101000a81548160ff021916908315150217905550817ff227ab9acf6995a490e2e05cb846b1598ea2eeedcdcf5d7aa02ba0e15f67ace433836002015460016040516119879392919061407a565b60405180910390a25050565b60007f780e9d63000000000000000000000000000000000000000000000000000000007bffffffffffffffffffffffffffffffffffffffffffffffffffffffff1916827bffffffffffffffffffffffffffffffffffffffffffffffffffffffff19161480611a065750611a058261226d565b5b9050919050565b611a168161234f565b611a55576040517f08c379a0000000000000000000000000000000000000000000000000000000008152600401611a4c90613da6565b60405180910390fd5b50565b600033905090565b816004600083815260200190815260200160002060006101000a81548173ffffffffffffffffffffffffffffffffffffffff021916908373ffffffffffffffffffffffffffffffffffffffff160217905550808273ffffffffffffffffffffffffffffffffffffffff16611ad383611220565b73ffffffffffffffffffffffffffffffffffffffff167f8c5be1e5ebec7d5bd14f71427d1e84f3dd0314c0f7b2291e5b200ac8c7c3b92560405160405180910390a45050565b600080611b2583611220565b90508073ffffffffffffffffffffffffffffffffffffffff168473ffffffffffffffffffffffffffffffffffffffff161480611b675750611b66818561169b565b5b80611ba557508373ffffffffffffffffffffffffffffffffffffffff16611b8d8461077c565b73ffffffffffffffffffffffffffffffffffffffff16145b91505092915050565b8273ffffffffffffffffffffffffffffffffffffffff16611bce82611220565b73ffffffffffffffffffffffffffffffffffffffff1614611c24576040517f08c379a0000000000000000000000000000000000000000000000000000000008152600401611c1b90614123565b60405180910390fd5b600073ffffffffffffffffffffffffffffffffffffffff168273ffffffffffffffffffffffffffffffffffffffff1603611c93576040517f08c379a0000000000000000000000000000000000000000000000000000000008152600401611c8a906141b5565b60405180910390fd5b611ca08383836001612390565b8273ffffffffffffffffffffffffffffffffffffffff16611cc082611220565b73ffffffffffffffffffffffffffffffffffffffff1614611d16576040517f08c379a0000000000000000000000000000000000000000000000000000000008152600401611d0d90614123565b60405180910390fd5b6004600082815260200190815260200160002060006101000a81549073ffffffffffffffffffffffffffffffffffffffff02191690556001600360008573ffffffffffffffffffffffffffffffffffffffff1673ffffffffffffffffffffffffffffffffffffffff168152602001908152602001600020600082825403925050819055506001600360008473ffffffffffffffffffffffffffffffffffffffff1673ffffffffffffffffffffffffffffffffffffffff16815260200190815260200160002060008282540192505081905550816002600083815260200190815260200160002060006101000a81548173ffffffffffffffffffffffffffffffffffffffff021916908373ffffffffffffffffffffffffffffffffffffffff160217905550808273ffffffffffffffffffffffffffffffffffffffff168473ffffffffffffffffffffffffffffffffffffffff167fddf252ad1be2c89b69c2b068fc378daa952ba7f163c4a11628f55a4df523b3ef60405160405180910390a4611ea283838360016123a2565b505050565b6001816000016000828254019250508190555050565b600081600001549050919050565b611ee58282604051806020016040528060008152506123a8565b5050565b611ef28261234f565b611f31576040517f08c379a0000000000000000000000000000000000000000000000000000000008152600401611f2890614247565b60405180910390fd5b80600a60008481526020019081526020016000209081611f519190614413565b505050565b60006002600083815260200190815260200160002060009054906101000a900473ffffffffffffffffffffffffffffffffffffffff169050919050565b8173ffffffffffffffffffffffffffffffffffffffff168373ffffffffffffffffffffffffffffffffffffffff1603612001576040517f08c379a0000000000000000000000000000000000000000000000000000000008152600401611ff890614531565b60405180910390fd5b80600560008573ffffffffffffffffffffffffffffffffffffffff1673ffffffffffffffffffffffffffffffffffffffff16815260200190815260200160002060008473ffffffffffffffffffffffffffffffffffffffff1673ffffffffffffffffffffffffffffffffffffffff16815260200190815260200160002060006101000a81548160ff0219169083151502179055508173ffffffffffffffffffffffffffffffffffffffff168373ffffffffffffffffffffffffffffffffffffffff167f17307eab39ab6107e8899845ad3d59bd9653f200f220920489ca2b5937696c31836040516120f29190613112565b60405180910390a3505050565b61210a848484611bae565b61211684848484612403565b612155576040517f08c379a000000000000000000000000000000000000000000000000000000000815260040161214c906145c3565b60405180910390fd5b50505050565b606061216682611a0d565b6000600a60008481526020019081526020016000208054612186906137e5565b80601f01602080910402602001604051908101604052809291908181526020018280546121b2906137e5565b80156121ff5780601f106121d4576101008083540402835291602001916121ff565b820191906000526020600020905b8154815290600101906020018083116121e257829003601f168201915b50505050509050600061221061258a565b90506000815103612225578192505050612268565b60008251111561225a57808260405160200161224292919061461f565b60405160208183030381529060405292505050612268565b612263846125a1565b925050505b919050565b60007f80ac58cd000000000000000000000000000000000000000000000000000000007bffffffffffffffffffffffffffffffffffffffffffffffffffffffff1916827bffffffffffffffffffffffffffffffffffffffffffffffffffffffff1916148061233857507f5b5e139f000000000000000000000000000000000000000000000000000000007bffffffffffffffffffffffffffffffffffffffffffffffffffffffff1916827bffffffffffffffffffffffffffffffffffffffffffffffffffffffff1916145b80612348575061234782612609565b5b9050919050565b60008073ffffffffffffffffffffffffffffffffffffffff1661237183611f56565b73ffffffffffffffffffffffffffffffffffffffff1614159050919050565b61239c84848484612673565b50505050565b50505050565b6123b283836127d1565b6123bf6000848484612403565b6123fe576040517f08c379a00000000000000000000000000000000000000000000000000000000081526004016123f5906145c3565b60405180910390fd5b505050565b60006124248473ffffffffffffffffffffffffffffffffffffffff166129ee565b1561257d578373ffffffffffffffffffffffffffffffffffffffff1663150b7a0261244d611a58565b8786866040518563ffffffff1660e01b815260040161246f9493929190614698565b6020604051808303816000875af19250505080156124ab57506040513d601f19601f820116820180604052508101906124a891906146f9565b60015b61252d573d80600081146124db576040519150601f19603f3d011682016040523d82523d6000602084013e6124e0565b606091505b506000815103612525576040517f08c379a000000000000000000000000000000000000000000000000000000000815260040161251c906145c3565b60405180910390fd5b805181602001fd5b63150b7a0260e01b7bffffffffffffffffffffffffffffffffffffffffffffffffffffffff1916817bffffffffffffffffffffffffffffffffffffffffffffffffffffffff191614915050612582565b600190505b949350505050565b606060405180602001604052806000815250905090565b60606125ac82611a0d565b60006125b661258a565b905060008151116125d65760405180602001604052806000815250612601565b806125e084612a11565b6040516020016125f192919061461f565b6040516020818303038152906040525b915050919050565b60007f01ffc9a7000000000000000000000000000000000000000000000000000000007bffffffffffffffffffffffffffffffffffffffffffffffffffffffff1916827bffffffffffffffffffffffffffffffffffffffffffffffffffffffff1916149050919050565b61267f84848484612adf565b60018111156126c3576040517f08c379a00000000000000000000000000000000000000000000000000000000081526004016126ba90614798565b60405180910390fd5b6000829050600073ffffffffffffffffffffffffffffffffffffffff168573ffffffffffffffffffffffffffffffffffffffff160361270a5761270581612c05565b612749565b8373ffffffffffffffffffffffffffffffffffffffff168573ffffffffffffffffffffffffffffffffffffffff1614612748576127478582612c4e565b5b5b600073ffffffffffffffffffffffffffffffffffffffff168473ffffffffffffffffffffffffffffffffffffffff160361278b5761278681612dbb565b6127ca565b8473ffffffffffffffffffffffffffffffffffffffff168473ffffffffffffffffffffffffffffffffffffffff16146127c9576127c88482612e8c565b5b5b5050505050565b600073ffffffffffffffffffffffffffffffffffffffff168273ffffffffffffffffffffffffffffffffffffffff1603612840576040517f08c379a000000000000000000000000000000000000000000000000000000000815260040161283790614804565b60405180910390fd5b6128498161234f565b15612889576040517f08c379a000000000000000000000000000000000000000000000000000000000815260040161288090614870565b60405180910390fd5b612897600083836001612390565b6128a08161234f565b156128e0576040517f08c379a00000000000000000000000000000000000000000000000000000000081526004016128d790614870565b60405180910390fd5b6001600360008473ffffffffffffffffffffffffffffffffffffffff1673ffffffffffffffffffffffffffffffffffffffff16815260200190815260200160002060008282540192505081905550816002600083815260200190815260200160002060006101000a81548173ffffffffffffffffffffffffffffffffffffffff021916908373ffffffffffffffffffffffffffffffffffffffff160217905550808273ffffffffffffffffffffffffffffffffffffffff16600073ffffffffffffffffffffffffffffffffffffffff167fddf252ad1be2c89b69c2b068fc378daa952ba7f163c4a11628f55a4df523b3ef60405160405180910390a46129ea6000838360016123a2565b5050565b6000808273ffffffffffffffffffffffffffffffffffffffff163b119050919050565b606060006001612a2084612f0b565b01905060008167ffffffffffffffff811115612a3f57612a3e613391565b5b6040519080825280601f01601f191660200182016040528015612a715781602001600182028036833780820191505090505b509050600082602001820190505b600115612ad4578080600190039150507f3031323334353637383961626364656600000000000000000000000000000000600a86061a8153600a8581612ac857612ac7614890565b5b04945060008503612a7f575b819350505050919050565b6001811115612bff57600073ffffffffffffffffffffffffffffffffffffffff168473ffffffffffffffffffffffffffffffffffffffff1614612b735780600360008673ffffffffffffffffffffffffffffffffffffffff1673ffffffffffffffffffffffffffffffffffffffff1681526020019081526020016000206000828254612b6b91906148bf565b925050819055505b600073ffffffffffffffffffffffffffffffffffffffff168373ffffffffffffffffffffffffffffffffffffffff1614612bfe5780600360008573ffffffffffffffffffffffffffffffffffffffff1673ffffffffffffffffffffffffffffffffffffffff1681526020019081526020016000206000828254612bf69190613d26565b925050819055505b5b50505050565b6008805490506009600083815260200190815260200160002081905550600881908060018154018082558091505060019003906000526020600020016000909190919091505550565b60006001612c5b846112b0565b612c6591906148bf565b9050600060076000848152602001908152602001600020549050818114612d4a576000600660008673ffffffffffffffffffffffffffffffffffffffff1673ffffffffffffffffffffffffffffffffffffffff168152602001908152602001600020600084815260200190815260200160002054905080600660008773ffffffffffffffffffffffffffffffffffffffff1673ffffffffffffffffffffffffffffffffffffffff168152602001908152602001600020600084815260200190815260200160002081905550816007600083815260200190815260200160002081905550505b6007600084815260200190815260200160002060009055600660008573ffffffffffffffffffffffffffffffffffffffff1673ffffffffffffffffffffffffffffffffffffffff16815260200190815260200160002060008381526020019081526020016000206000905550505050565b60006001600880549050612dcf91906148bf565b9050600060096000848152602001908152602001600020549050600060088381548110612dff57612dfe613bee565b5b906000526020600020015490508060088381548110612e2157612e20613bee565b5b906000526020600020018190555081600960008381526020019081526020016000208190555060096000858152602001908152602001600020600090556008805480612e7057612e6f6148f3565b5b6001900381819060005260206000200160009055905550505050565b6000612e97836112b0565b905081600660008573ffffffffffffffffffffffffffffffffffffffff1673ffffffffffffffffffffffffffffffffffffffff168152602001908152602001600020600083815260200190815260200160002081905550806007600084815260200190815260200160002081905550505050565b600080600090507a184f03e93ff9f4daa797ed6e38ed64bf6a1f0100000000000000008310612f69577a184f03e93ff9f4daa797ed6e38ed64bf6a1f0100000000000000008381612f5f57612f5e614890565b5b0492506040810190505b6d04ee2d6d415b85acef81000000008310612fa6576d04ee2d6d415b85acef81000000008381612f9c57612f9b614890565b5b0492506020810190505b662386f26fc100008310612fd557662386f26fc100008381612fcb57612fca614890565b5b0492506010810190505b6305f5e1008310612ffe576305f5e1008381612ff457612ff3614890565b5b0492506008810190505b612710831061302357612710838161301957613018614890565b5b0492506004810190505b60648310613046576064838161303c5761303b614890565b5b0492506002810190505b600a8310613055576001810190505b80915050919050565b6000604051905090565b600080fd5b600080fd5b60007fffffffff0000000000000000000000000000000000000000000000000000000082169050919050565b6130a781613072565b81146130b257600080fd5b50565b6000813590506130c48161309e565b92915050565b6000602082840312156130e0576130df613068565b5b60006130ee848285016130b5565b91505092915050565b60008115159050919050565b61310c816130f7565b82525050565b60006020820190506131276000830184613103565b92915050565b600081519050919050565b600082825260208201905092915050565b60005b8381101561316757808201518184015260208101905061314c565b60008484015250505050565b6000601f19601f8301169050919050565b600061318f8261312d565b6131998185613138565b93506131a9818560208601613149565b6131b281613173565b840191505092915050565b600060208201905081810360008301526131d78184613184565b905092915050565b6000819050919050565b6131f2816131df565b81146131fd57600080fd5b50565b60008135905061320f816131e9565b92915050565b60006020828403121561322b5761322a613068565b5b600061323984828501613200565b91505092915050565b600073ffffffffffffffffffffffffffffffffffffffff82169050919050565b600061326d82613242565b9050919050565b61327d81613262565b82525050565b60006020820190506132986000830184613274565b92915050565b6132a781613262565b81146132b257600080fd5b50565b6000813590506132c48161329e565b92915050565b600080604083850312156132e1576132e0613068565b5b60006132ef858286016132b5565b925050602061330085828601613200565b9150509250929050565b613313816131df565b82525050565b600060208201905061332e600083018461330a565b92915050565b60008060006060848603121561334d5761334c613068565b5b600061335b868287016132b5565b935050602061336c868287016132b5565b925050604061337d86828701613200565b9150509250925092565b600080fd5b600080fd5b7f4e487b7100000000000000000000000000000000000000000000000000000000600052604160045260246000fd5b6133c982613173565b810181811067ffffffffffffffff821117156133e8576133e7613391565b5b80604052505050565b60006133fb61305e565b905061340782826133c0565b919050565b600067ffffffffffffffff82111561342757613426613391565b5b61343082613173565b9050602081019050919050565b82818337600083830152505050565b600061345f61345a8461340c565b6133f1565b90508281526020810184848401111561347b5761347a61338c565b5b61348684828561343d565b509392505050565b600082601f8301126134a3576134a2613387565b5b81356134b384826020860161344c565b91505092915050565b600080604083850312156134d3576134d2613068565b5b600083013567ffffffffffffffff8111156134f1576134f061306d565b5b6134fd8582860161348e565b925050602061350e85828601613200565b9150509250929050565b600060c08201905061352d600083018961330a565b61353a6020830188613274565b613547604083018761330a565b6135546060830186613103565b613561608083018561330a565b61356e60a083018461330a565b979650505050505050565b60006020828403121561358f5761358e613068565b5b600061359d848285016132b5565b91505092915050565b6135af816130f7565b81146135ba57600080fd5b50565b6000813590506135cc816135a6565b92915050565b600080604083850312156135e9576135e8613068565b5b60006135f7858286016132b5565b9250506020613608858286016135bd565b9150509250929050565b600067ffffffffffffffff82111561362d5761362c613391565b5b61363682613173565b9050602081019050919050565b600061365661365184613612565b6133f1565b9050828152602081018484840111156136725761367161338c565b5b61367d84828561343d565b509392505050565b600082601f83011261369a57613699613387565b5b81356136aa848260208601613643565b91505092915050565b600080600080608085870312156136cd576136cc613068565b5b60006136db878288016132b5565b94505060206136ec878288016132b5565b93505060406136fd87828801613200565b925050606085013567ffffffffffffffff81111561371e5761371d61306d565b5b61372a87828801613685565b91505092959194509250565b6000806040838503121561374d5761374c613068565b5b600061375b85828601613200565b925050602061376c858286016132b5565b9150509250929050565b6000806040838503121561378d5761378c613068565b5b600061379b858286016132b5565b92505060206137ac858286016132b5565b9150509250929050565b7f4e487b7100000000000000000000000000000000000000000000000000000000600052602260045260246000fd5b600060028204905060018216806137fd57607f821691505b6020821081036138105761380f6137b6565b5b50919050565b7f4552433732313a20617070726f76616c20746f2063757272656e74206f776e6560008201527f7200000000000000000000000000000000000000000000000000000000000000602082015250565b6000613872602183613138565b915061387d82613816565b604082019050919050565b600060208201905081810360008301526138a181613865565b9050919050565b7f4552433732313a20617070726f76652063616c6c6572206973206e6f7420746f60008201527f6b656e206f776e6572206f7220617070726f76656420666f7220616c6c000000602082015250565b6000613904603d83613138565b915061390f826138a8565b604082019050919050565b60006020820190508181036000830152613933816138f7565b9050919050565b7f4552433732313a2063616c6c6572206973206e6f7420746f6b656e206f776e6560008201527f72206f7220617070726f76656400000000000000000000000000000000000000602082015250565b6000613996602d83613138565b91506139a18261393a565b604082019050919050565b600060208201905081810360008301526139c581613989565b9050919050565b7f455243373231456e756d657261626c653a206f776e657220696e646578206f7560008201527f74206f6620626f756e6473000000000000000000000000000000000000000000602082015250565b6000613a28602b83613138565b9150613a33826139cc565b604082019050919050565b60006020820190508181036000830152613a5781613a1b565b9050919050565b7f4f6e6c79204e4654206f776e6572732063616e20706572666f726d207468697360008201527f206f7065726174696f6e00000000000000000000000000000000000000000000602082015250565b6000613aba602a83613138565b9150613ac582613a5e565b604082019050919050565b60006020820190508181036000830152613ae981613aad565b9050919050565b7f4974656d206e6f74206c697374656420666f722073616c650000000000000000600082015250565b6000613b26601883613138565b9150613b3182613af0565b602082019050919050565b60006020820190508181036000830152613b5581613b19565b9050919050565b7f455243373231456e756d657261626c653a20676c6f62616c20696e646578206f60008201527f7574206f6620626f756e64730000000000000000000000000000000000000000602082015250565b6000613bb8602c83613138565b9150613bc382613b5c565b604082019050919050565b60006020820190508181036000830152613be781613bab565b9050919050565b7f4e487b7100000000000000000000000000000000000000000000000000000000600052603260045260246000fd5b7f506c65617365207375626d6974207468652061736b696e67207072696365206960008201527f6e206f7264657220746f20636f6d706c65746520746865207075726368617365602082015250565b6000613c79604083613138565b9150613c8482613c1d565b604082019050919050565b60006020820190508181036000830152613ca881613c6c565b9050919050565b7f4e487b7100000000000000000000000000000000000000000000000000000000600052601160045260246000fd5b6000613ce9826131df565b91507fffffffffffffffffffffffffffffffffffffffffffffffffffffffffffffffff8203613d1b57613d1a613caf565b5b600182019050919050565b6000613d31826131df565b9150613d3c836131df565b9250828201905080821115613d5457613d53613caf565b5b92915050565b7f4552433732313a20696e76616c696420746f6b656e2049440000000000000000600082015250565b6000613d90601883613138565b9150613d9b82613d5a565b602082019050919050565b60006020820190508181036000830152613dbf81613d83565b9050919050565b7f4552433732313a2061646472657373207a65726f206973206e6f74206120766160008201527f6c6964206f776e65720000000000000000000000000000000000000000000000602082015250565b6000613e22602983613138565b9150613e2d82613dc6565b604082019050919050565b60006020820190508181036000830152613e5181613e15565b9050919050565b7f4f6e6c79206f776e65722063616e20757064617465206c697374696e6720707260008201527f6963650000000000000000000000000000000000000000000000000000000000602082015250565b6000613eb4602383613138565b9150613ebf82613e58565b604082019050919050565b60006020820190508181036000830152613ee381613ea7565b9050919050565b7f4d616b652073757265207468652070726963652069736e2774206e656761746960008201527f7665000000000000000000000000000000000000000000000000000000000000602082015250565b6000613f46602283613138565b9150613f5182613eea565b604082019050919050565b60006020820190508181036000830152613f7581613f39565b9050919050565b7f486f706566756c6c792073656e64696e672074686520636f727265637420707260008201527f6963650000000000000000000000000000000000000000000000000000000000602082015250565b6000613fd8602383613138565b9150613fe382613f7c565b604082019050919050565b6000602082019050818103600083015261400781613fcb565b9050919050565b7f4974656d20616c7265616479206c697374656420666f722073616c6500000000600082015250565b6000614044601c83613138565b915061404f8261400e565b602082019050919050565b6000602082019050818103600083015261407381614037565b9050919050565b600060608201905061408f6000830186613274565b61409c602083018561330a565b6140a96040830184613103565b949350505050565b7f4552433732313a207472616e736665722066726f6d20696e636f72726563742060008201527f6f776e6572000000000000000000000000000000000000000000000000000000602082015250565b600061410d602583613138565b9150614118826140b1565b604082019050919050565b6000602082019050818103600083015261413c81614100565b9050919050565b7f4552433732313a207472616e7366657220746f20746865207a65726f2061646460008201527f7265737300000000000000000000000000000000000000000000000000000000602082015250565b600061419f602483613138565b91506141aa82614143565b604082019050919050565b600060208201905081810360008301526141ce81614192565b9050919050565b7f45524337323155524953746f726167653a2055524920736574206f66206e6f6e60008201527f6578697374656e7420746f6b656e000000000000000000000000000000000000602082015250565b6000614231602e83613138565b915061423c826141d5565b604082019050919050565b6000602082019050818103600083015261426081614224565b9050919050565b60008190508160005260206000209050919050565b60006020601f8301049050919050565b600082821b905092915050565b6000600883026142c97fffffffffffffffffffffffffffffffffffffffffffffffffffffffffffffffff8261428c565b6142d3868361428c565b95508019841693508086168417925050509392505050565b6000819050919050565b600061431061430b614306846131df565b6142eb565b6131df565b9050919050565b6000819050919050565b61432a836142f5565b61433e61433682614317565b848454614299565b825550505050565b600090565b614353614346565b61435e818484614321565b505050565b5b818110156143825761437760008261434b565b600181019050614364565b5050565b601f8211156143c75761439881614267565b6143a18461427c565b810160208510156143b0578190505b6143c46143bc8561427c565b830182614363565b50505b505050565b600082821c905092915050565b60006143ea600019846008026143cc565b1980831691505092915050565b600061440383836143d9565b9150826002028217905092915050565b61441c8261312d565b67ffffffffffffffff81111561443557614434613391565b5b61443f82546137e5565b61444a828285614386565b600060209050601f83116001811461447d576000841561446b578287015190505b61447585826143f7565b8655506144dd565b601f19841661448b86614267565b60005b828110156144b35784890151825560018201915060208501945060208101905061448e565b868310156144d057848901516144cc601f8916826143d9565b8355505b6001600288020188555050505b505050505050565b7f4552433732313a20617070726f766520746f2063616c6c657200000000000000600082015250565b600061451b601983613138565b9150614526826144e5565b602082019050919050565b6000602082019050818103600083015261454a8161450e565b9050919050565b7f4552433732313a207472616e7366657220746f206e6f6e20455243373231526560008201527f63656976657220696d706c656d656e7465720000000000000000000000000000602082015250565b60006145ad603283613138565b91506145b882614551565b604082019050919050565b600060208201905081810360008301526145dc816145a0565b9050919050565b600081905092915050565b60006145f98261312d565b61460381856145e3565b9350614613818560208601613149565b80840191505092915050565b600061462b82856145ee565b915061463782846145ee565b91508190509392505050565b600081519050919050565b600082825260208201905092915050565b600061466a82614643565b614674818561464e565b9350614684818560208601613149565b61468d81613173565b840191505092915050565b60006080820190506146ad6000830187613274565b6146ba6020830186613274565b6146c7604083018561330a565b81810360608301526146d9818461465f565b905095945050505050565b6000815190506146f38161309e565b92915050565b60006020828403121561470f5761470e613068565b5b600061471d848285016146e4565b91505092915050565b7f455243373231456e756d657261626c653a20636f6e736563757469766520747260008201527f616e7366657273206e6f7420737570706f727465640000000000000000000000602082015250565b6000614782603583613138565b915061478d82614726565b604082019050919050565b600060208201905081810360008301526147b181614775565b9050919050565b7f4552433732313a206d696e7420746f20746865207a65726f2061646472657373600082015250565b60006147ee602083613138565b91506147f9826147b8565b602082019050919050565b6000602082019050818103600083015261481d816147e1565b9050919050565b7f4552433732313a20746f6b656e20616c7265616479206d696e74656400000000600082015250565b600061485a601c83613138565b915061486582614824565b602082019050919050565b600060208201905081810360008301526148898161484d565b9050919050565b7f4e487b7100000000000000000000000000000000000000000000000000000000600052601260045260246000fd5b60006148ca826131df565b91506148d5836131df565b92508282039050818111156148ed576148ec613caf565b5b92915050565b7f4e487b7100000000000000000000000000000000000000000000000000000000600052603160045260246000fdfea26469706673582212200824123181ccc9fceae49a1cfef12742a516bff22862ea88b6cf3bc6c9b24b9b64736f6c63430008110033",
  "linkReferences": {},
  "deployedLinkReferences": {}
}