{
  "_format": "hh-sol-artifact-1",
  "contractName": "NFTMarketplace",
  "sourceName": "contracts/NFTMarketplace.sol",
  "abi": [
    {
      "inputs": [],
      "stateMutability": "nonpayable",
      "type": "constructor"
    },
    {
      "anonymous": false,
      "inputs": [
        {
          "indexed": true,
          "internalType": "address",
          "name": "owner",
          "type": "address"
        },
        {
          "indexed": true,
          "internalType": "address",
          "name": "approved",
          "type": "address"
        },
        {
          "indexed": true,
          "internalType": "uint256",
          "name": "tokenId",
          "type": "uint256"
        }
      ],
      "name": "Approval",
      "type": "event"
    },
    {
      "anonymous": false,
      "inputs": [
        {
          "indexed": true,
          "internalType": "address",
          "name": "owner",
          "type": "address"
        },
        {
          "indexed": true,
          "internalType": "address",
          "name": "operator",
          "type": "address"
        },
        {
          "indexed": false,
          "internalType": "bool",
          "name": "approved",
          "type": "bool"
        }
      ],
      "name": "ApprovalForAll",
      "type": "event"
    },
    {
      "anonymous": false,
      "inputs": [
        {
          "indexed": true,
          "internalType": "uint256",
          "name": "tokenId",
          "type": "uint256"
        },
        {
          "indexed": false,
          "internalType": "address",
          "name": "owner",
          "type": "address"
        },
        {
          "indexed": false,
          "internalType": "address",
          "name": "seller",
          "type": "address"
        },
        {
          "indexed": false,
          "internalType": "uint256",
          "name": "price",
          "type": "uint256"
        },
        {
          "indexed": false,
          "internalType": "bool",
          "name": "forSale",
          "type": "bool"
        }
      ],
      "name": "NFTListedSuccess",
      "type": "event"
    },
    {
      "anonymous": false,
      "inputs": [
        {
          "indexed": true,
          "internalType": "address",
          "name": "from",
          "type": "address"
        },
        {
          "indexed": true,
          "internalType": "address",
          "name": "to",
          "type": "address"
        },
        {
          "indexed": true,
          "internalType": "uint256",
          "name": "tokenId",
          "type": "uint256"
        }
      ],
      "name": "Transfer",
      "type": "event"
    },
    {
      "inputs": [
        {
          "internalType": "address",
          "name": "to",
          "type": "address"
        },
        {
          "internalType": "uint256",
          "name": "tokenId",
          "type": "uint256"
        }
      ],
      "name": "approve",
      "outputs": [],
      "stateMutability": "nonpayable",
      "type": "function"
    },
    {
      "inputs": [
        {
          "internalType": "address",
          "name": "owner",
          "type": "address"
        }
      ],
      "name": "balanceOf",
      "outputs": [
        {
          "internalType": "uint256",
          "name": "",
          "type": "uint256"
        }
      ],
      "stateMutability": "view",
      "type": "function"
    },
    {
      "inputs": [
        {
          "internalType": "string",
          "name": "NFTURI",
          "type": "string"
        },
        {
          "internalType": "uint256",
          "name": "price",
          "type": "uint256"
        }
      ],
      "name": "createNFT",
      "outputs": [
        {
          "internalType": "uint256",
          "name": "",
          "type": "uint256"
        }
      ],
      "stateMutability": "payable",
      "type": "function"
    },
    {
      "inputs": [
        {
          "internalType": "uint256",
          "name": "tokenId",
          "type": "uint256"
        }
      ],
      "name": "getApproved",
      "outputs": [
        {
          "internalType": "address",
          "name": "",
          "type": "address"
        }
      ],
      "stateMutability": "view",
      "type": "function"
    },
    {
      "inputs": [],
      "name": "getLatestIdToListedNFT",
      "outputs": [
        {
          "components": [
            {
              "internalType": "uint256",
              "name": "NFTId",
              "type": "uint256"
            },
            {
              "internalType": "address payable",
              "name": "owner",
              "type": "address"
            },
            {
              "internalType": "address payable",
              "name": "seller",
              "type": "address"
            },
            {
              "internalType": "uint256",
              "name": "price",
              "type": "uint256"
            },
            {
              "internalType": "bool",
              "name": "forSale",
              "type": "bool"
            }
          ],
          "internalType": "struct NFTMarketplace.ListedNFT",
          "name": "",
          "type": "tuple"
        }
      ],
      "stateMutability": "view",
      "type": "function"
    },
    {
      "inputs": [],
      "name": "getListPrice",
      "outputs": [
        {
          "internalType": "uint256",
          "name": "",
          "type": "uint256"
        }
      ],
      "stateMutability": "view",
      "type": "function"
    },
    {
      "inputs": [
        {
          "internalType": "uint256",
          "name": "_index",
          "type": "uint256"
        },
        {
          "internalType": "address",
          "name": "_callerAddress",
          "type": "address"
        }
      ],
      "name": "getMyNFTs",
      "outputs": [
        {
          "internalType": "uint256",
          "name": "_NFTId",
          "type": "uint256"
        },
        {
          "internalType": "address",
          "name": "_owner",
          "type": "address"
        },
        {
          "internalType": "address",
          "name": "_seller",
          "type": "address"
        },
        {
          "internalType": "uint256",
          "name": "_price",
          "type": "uint256"
        },
        {
          "internalType": "bool",
          "name": "_forSale",
          "type": "bool"
        }
      ],
      "stateMutability": "view",
      "type": "function"
    },
    {
      "inputs": [
        {
          "internalType": "uint256",
          "name": "NFTId",
          "type": "uint256"
        }
      ],
      "name": "getNFT",
      "outputs": [
        {
          "components": [
            {
              "internalType": "uint256",
              "name": "NFTId",
              "type": "uint256"
            },
            {
              "internalType": "address payable",
              "name": "owner",
              "type": "address"
            },
            {
              "internalType": "address payable",
              "name": "seller",
              "type": "address"
            },
            {
              "internalType": "uint256",
              "name": "price",
              "type": "uint256"
            },
            {
              "internalType": "bool",
              "name": "forSale",
              "type": "bool"
            }
          ],
          "internalType": "struct NFTMarketplace.ListedNFT",
          "name": "",
          "type": "tuple"
        }
      ],
      "stateMutability": "view",
      "type": "function"
    },
    {
      "inputs": [],
      "name": "getNFTCount",
      "outputs": [
        {
          "internalType": "uint256",
          "name": "",
          "type": "uint256"
        }
      ],
      "stateMutability": "view",
      "type": "function"
    },
    {
      "inputs": [
        {
          "internalType": "address",
          "name": "owner",
          "type": "address"
        },
        {
          "internalType": "address",
          "name": "operator",
          "type": "address"
        }
      ],
      "name": "isApprovedForAll",
      "outputs": [
        {
          "internalType": "bool",
          "name": "",
          "type": "bool"
        }
      ],
      "stateMutability": "view",
      "type": "function"
    },
    {
      "inputs": [],
      "name": "name",
      "outputs": [
        {
          "internalType": "string",
          "name": "",
          "type": "string"
        }
      ],
      "stateMutability": "view",
      "type": "function"
    },
    {
      "inputs": [
        {
          "internalType": "uint256",
          "name": "tokenId",
          "type": "uint256"
        }
      ],
      "name": "ownerOf",
      "outputs": [
        {
          "internalType": "address",
          "name": "",
          "type": "address"
        }
      ],
      "stateMutability": "view",
      "type": "function"
    },
    {
      "inputs": [
        {
          "internalType": "address",
          "name": "from",
          "type": "address"
        },
        {
          "internalType": "address",
          "name": "to",
          "type": "address"
        },
        {
          "internalType": "uint256",
          "name": "tokenId",
          "type": "uint256"
        }
      ],
      "name": "safeTransferFrom",
      "outputs": [],
      "stateMutability": "nonpayable",
      "type": "function"
    },
    {
      "inputs": [
        {
          "internalType": "address",
          "name": "from",
          "type": "address"
        },
        {
          "internalType": "address",
          "name": "to",
          "type": "address"
        },
        {
          "internalType": "uint256",
          "name": "tokenId",
          "type": "uint256"
        },
        {
          "internalType": "bytes",
          "name": "data",
          "type": "bytes"
        }
      ],
      "name": "safeTransferFrom",
      "outputs": [],
      "stateMutability": "nonpayable",
      "type": "function"
    },
    {
      "inputs": [
        {
          "internalType": "address",
          "name": "",
          "type": "address"
        }
      ],
      "name": "sellerExist",
      "outputs": [
        {
          "internalType": "bool",
          "name": "",
          "type": "bool"
        }
      ],
      "stateMutability": "view",
      "type": "function"
    },
    {
      "inputs": [
        {
          "internalType": "address",
          "name": "operator",
          "type": "address"
        },
        {
          "internalType": "bool",
          "name": "approved",
          "type": "bool"
        }
      ],
      "name": "setApprovalForAll",
      "outputs": [],
      "stateMutability": "nonpayable",
      "type": "function"
    },
    {
      "inputs": [
        {
          "internalType": "bytes4",
          "name": "interfaceId",
          "type": "bytes4"
        }
      ],
      "name": "supportsInterface",
      "outputs": [
        {
          "internalType": "bool",
          "name": "",
          "type": "bool"
        }
      ],
      "stateMutability": "view",
      "type": "function"
    },
    {
      "inputs": [],
      "name": "symbol",
      "outputs": [
        {
          "internalType": "string",
          "name": "",
          "type": "string"
        }
      ],
      "stateMutability": "view",
      "type": "function"
    },
    {
      "inputs": [
        {
          "internalType": "uint256",
          "name": "index",
          "type": "uint256"
        }
      ],
      "name": "tokenByIndex",
      "outputs": [
        {
          "internalType": "uint256",
          "name": "",
          "type": "uint256"
        }
      ],
      "stateMutability": "view",
      "type": "function"
    },
    {
      "inputs": [
        {
          "internalType": "address",
          "name": "owner",
          "type": "address"
        },
        {
          "internalType": "uint256",
          "name": "index",
          "type": "uint256"
        }
      ],
      "name": "tokenOfOwnerByIndex",
      "outputs": [
        {
          "internalType": "uint256",
          "name": "",
          "type": "uint256"
        }
      ],
      "stateMutability": "view",
      "type": "function"
    },
    {
      "inputs": [
        {
          "internalType": "uint256",
          "name": "tokenId",
          "type": "uint256"
        }
      ],
      "name": "tokenURI",
      "outputs": [
        {
          "internalType": "string",
          "name": "",
          "type": "string"
        }
      ],
      "stateMutability": "view",
      "type": "function"
    },
    {
      "inputs": [],
      "name": "totalSupply",
      "outputs": [
        {
          "internalType": "uint256",
          "name": "",
          "type": "uint256"
        }
      ],
      "stateMutability": "view",
      "type": "function"
    },
    {
      "inputs": [
        {
          "internalType": "address",
          "name": "from",
          "type": "address"
        },
        {
          "internalType": "address",
          "name": "to",
          "type": "address"
        },
        {
          "internalType": "uint256",
          "name": "tokenId",
          "type": "uint256"
        }
      ],
      "name": "transferFrom",
      "outputs": [],
      "stateMutability": "nonpayable",
      "type": "function"
    },
    {
      "inputs": [
        {
          "internalType": "uint256",
          "name": "_listPrice",
          "type": "uint256"
        }
      ],
      "name": "updateListPrice",
      "outputs": [],
      "stateMutability": "payable",
      "type": "function"
    }
  ],
  "bytecode": "0x6080604052662386f26fc10000600e553480156200001c57600080fd5b506040518060400160405280601681526020017f4172746973616e734e46544d61726b6574706c616365000000000000000000008152506040518060400160405280600681526020017f414e544d4b54000000000000000000000000000000000000000000000000000081525081600090816200009a919062000370565b508060019081620000ac919062000370565b50505033600d60006101000a81548173ffffffffffffffffffffffffffffffffffffffff021916908373ffffffffffffffffffffffffffffffffffffffff16021790555062000457565b600081519050919050565b7f4e487b7100000000000000000000000000000000000000000000000000000000600052604160045260246000fd5b7f4e487b7100000000000000000000000000000000000000000000000000000000600052602260045260246000fd5b600060028204905060018216806200017857607f821691505b6020821081036200018e576200018d62000130565b5b50919050565b60008190508160005260206000209050919050565b60006020601f8301049050919050565b600082821b905092915050565b600060088302620001f87fffffffffffffffffffffffffffffffffffffffffffffffffffffffffffffffff82620001b9565b620002048683620001b9565b95508019841693508086168417925050509392505050565b6000819050919050565b6000819050919050565b6000620002516200024b62000245846200021c565b62000226565b6200021c565b9050919050565b6000819050919050565b6200026d8362000230565b620002856200027c8262000258565b848454620001c6565b825550505050565b600090565b6200029c6200028d565b620002a981848462000262565b505050565b5b81811015620002d157620002c560008262000292565b600181019050620002af565b5050565b601f8211156200032057620002ea8162000194565b620002f584620001a9565b8101602085101562000305578190505b6200031d6200031485620001a9565b830182620002ae565b50505b505050565b600082821c905092915050565b6000620003456000198460080262000325565b1980831691505092915050565b600062000360838362000332565b9150826002028217905092915050565b6200037b82620000f6565b67ffffffffffffffff81111562000397576200039662000101565b5b620003a382546200015f565b620003b0828285620002d5565b600060209050601f831160018114620003e85760008415620003d3578287015190505b620003df858262000352565b8655506200044f565b601f198416620003f88662000194565b60005b828110156200042257848901518255600182019150602085019450602081019050620003fb565b868310156200044257848901516200043e601f89168262000332565b8355505b6001600288020188555050505b505050505050565b6142dd80620004676000396000f3fe60806040526004361061014b5760003560e01c80636352211e116100b6578063a55ed1731161006f578063a55ed173146104d1578063b88d4fde1461050e578063c322579c14610537578063c87b56dd14610553578063cf39023214610590578063e985e9c5146105d15761014b565b80636352211e146103ad57806368f1945f146103ea57806370a08231146104155780637a1a52d71461045257806395d89b411461047d578063a22cb465146104a85761014b565b8063268291551161010857806326829155146102725780632f745c59146102a257806342842e0e146102df5780634f6ccce7146103085780635427963714610345578063576f7ea7146103705761014b565b806301ffc9a71461015057806306fdde031461018d578063081812fc146101b8578063095ea7b3146101f557806318160ddd1461021e57806323b872dd14610249575b600080fd5b34801561015c57600080fd5b5061017760048036038101906101729190612bd1565b61060e565b6040516101849190612c19565b60405180910390f35b34801561019957600080fd5b506101a2610620565b6040516101af9190612cc4565b60405180910390f35b3480156101c457600080fd5b506101df60048036038101906101da9190612d1c565b6106b2565b6040516101ec9190612d8a565b60405180910390f35b34801561020157600080fd5b5061021c60048036038101906102179190612dd1565b6106f8565b005b34801561022a57600080fd5b5061023361080f565b6040516102409190612e20565b60405180910390f35b34801561025557600080fd5b50610270600480360381019061026b9190612e3b565b61081c565b005b61028c60048036038101906102879190612fc3565b61087c565b6040516102999190612e20565b60405180910390f35b3480156102ae57600080fd5b506102c960048036038101906102c49190612dd1565b610a40565b6040516102d69190612e20565b60405180910390f35b3480156102eb57600080fd5b5061030660048036038101906103019190612e3b565b610ae5565b005b34801561031457600080fd5b5061032f600480360381019061032a9190612d1c565b610b05565b60405161033c9190612e20565b60405180910390f35b34801561035157600080fd5b5061035a610b76565b6040516103679190612e20565b60405180910390f35b34801561037c57600080fd5b5061039760048036038101906103929190612d1c565b610b87565b6040516103a491906130c6565b60405180910390f35b3480156103b957600080fd5b506103d460048036038101906103cf9190612d1c565b610c8f565b6040516103e19190612d8a565b60405180910390f35b3480156103f657600080fd5b506103ff610d15565b60405161040c9190612e20565b60405180910390f35b34801561042157600080fd5b5061043c600480360381019061043791906130e1565b610d1f565b6040516104499190612e20565b60405180910390f35b34801561045e57600080fd5b50610467610dd6565b60405161047491906130c6565b60405180910390f35b34801561048957600080fd5b50610492610eeb565b60405161049f9190612cc4565b60405180910390f35b3480156104b457600080fd5b506104cf60048036038101906104ca919061313a565b610f7d565b005b3480156104dd57600080fd5b506104f860048036038101906104f391906130e1565b610f93565b6040516105059190612c19565b60405180910390f35b34801561051a57600080fd5b506105356004803603810190610530919061321b565b610fb3565b005b610551600480360381019061054c9190612d1c565b611015565b005b34801561055f57600080fd5b5061057a60048036038101906105759190612d1c565b6110af565b6040516105879190612cc4565b60405180910390f35b34801561059c57600080fd5b506105b760048036038101906105b2919061329e565b6110c1565b6040516105c89594939291906132de565b60405180910390f35b3480156105dd57600080fd5b506105f860048036038101906105f39190613331565b6111a6565b6040516106059190612c19565b60405180910390f35b60006106198261123a565b9050919050565b60606000805461062f906133a0565b80601f016020809104026020016040519081016040528092919081815260200182805461065b906133a0565b80156106a85780601f1061067d576101008083540402835291602001916106a8565b820191906000526020600020905b81548152906001019060200180831161068b57829003601f168201915b5050505050905090565b60006106bd826112b4565b6004600083815260200190815260200160002060009054906101000a900473ffffffffffffffffffffffffffffffffffffffff169050919050565b600061070382610c8f565b90508073ffffffffffffffffffffffffffffffffffffffff168373ffffffffffffffffffffffffffffffffffffffff1603610773576040517f08c379a000000000000000000000000000000000000000000000000000000000815260040161076a90613443565b60405180910390fd5b8073ffffffffffffffffffffffffffffffffffffffff166107926112ff565b73ffffffffffffffffffffffffffffffffffffffff1614806107c157506107c0816107bb6112ff565b6111a6565b5b610800576040517f08c379a00000000000000000000000000000000000000000000000000000000081526004016107f7906134d5565b60405180910390fd5b61080a8383611307565b505050565b6000600880549050905090565b61082d6108276112ff565b826113c0565b61086c576040517f08c379a000000000000000000000000000000000000000000000000000000000815260040161086390613567565b60405180910390fd5b610877838383611455565b505050565b6000610888600b61174e565b6000610894600b611764565b90506108a03382611772565b6108aa8185611790565b6108b481846117fd565b601060003373ffffffffffffffffffffffffffffffffffffffff1673ffffffffffffffffffffffffffffffffffffffff1681526020019081526020016000206040518060a001604052808381526020013073ffffffffffffffffffffffffffffffffffffffff1681526020013373ffffffffffffffffffffffffffffffffffffffff1681526020018581526020016000151581525090806001815401808255809150506001900390600052602060002090600502016000909190919091506000820151816000015560208201518160010160006101000a81548173ffffffffffffffffffffffffffffffffffffffff021916908373ffffffffffffffffffffffffffffffffffffffff16021790555060408201518160020160006101000a81548173ffffffffffffffffffffffffffffffffffffffff021916908373ffffffffffffffffffffffffffffffffffffffff1602179055506060820151816003015560808201518160040160006101000a81548160ff02191690831515021790555050508091505092915050565b6000610a4b83610d1f565b8210610a8c576040517f08c379a0000000000000000000000000000000000000000000000000000000008152600401610a83906135f9565b60405180910390fd5b600660008473ffffffffffffffffffffffffffffffffffffffff1673ffffffffffffffffffffffffffffffffffffffff168152602001908152602001600020600083815260200190815260200160002054905092915050565b610b0083838360405180602001604052806000815250610fb3565b505050565b6000610b0f61080f565b8210610b50576040517f08c379a0000000000000000000000000000000000000000000000000000000008152600401610b479061368b565b60405180910390fd5b60088281548110610b6457610b636136ab565b5b90600052602060002001549050919050565b6000610b82600b611764565b905090565b610b8f612b08565b600f60008381526020019081526020016000206040518060a0016040529081600082015481526020016001820160009054906101000a900473ffffffffffffffffffffffffffffffffffffffff1673ffffffffffffffffffffffffffffffffffffffff1673ffffffffffffffffffffffffffffffffffffffff1681526020016002820160009054906101000a900473ffffffffffffffffffffffffffffffffffffffff1673ffffffffffffffffffffffffffffffffffffffff1673ffffffffffffffffffffffffffffffffffffffff168152602001600382015481526020016004820160009054906101000a900460ff1615151515815250509050919050565b600080610c9b83611a00565b9050600073ffffffffffffffffffffffffffffffffffffffff168173ffffffffffffffffffffffffffffffffffffffff1603610d0c576040517f08c379a0000000000000000000000000000000000000000000000000000000008152600401610d0390613726565b60405180910390fd5b80915050919050565b6000600e54905090565b60008073ffffffffffffffffffffffffffffffffffffffff168273ffffffffffffffffffffffffffffffffffffffff1603610d8f576040517f08c379a0000000000000000000000000000000000000000000000000000000008152600401610d86906137b8565b60405180910390fd5b600360008373ffffffffffffffffffffffffffffffffffffffff1673ffffffffffffffffffffffffffffffffffffffff168152602001908152602001600020549050919050565b610dde612b08565b6000610dea600b611764565b9050600f60008281526020019081526020016000206040518060a0016040529081600082015481526020016001820160009054906101000a900473ffffffffffffffffffffffffffffffffffffffff1673ffffffffffffffffffffffffffffffffffffffff1673ffffffffffffffffffffffffffffffffffffffff1681526020016002820160009054906101000a900473ffffffffffffffffffffffffffffffffffffffff1673ffffffffffffffffffffffffffffffffffffffff1673ffffffffffffffffffffffffffffffffffffffff168152602001600382015481526020016004820160009054906101000a900460ff16151515158152505091505090565b606060018054610efa906133a0565b80601f0160208091040260200160405190810160405280929190818152602001828054610f26906133a0565b8015610f735780601f10610f4857610100808354040283529160200191610f73565b820191906000526020600020905b815481529060010190602001808311610f5657829003601f168201915b5050505050905090565b610f8f610f886112ff565b8383611a3d565b5050565b60126020528060005260406000206000915054906101000a900460ff1681565b610fc4610fbe6112ff565b836113c0565b611003576040517f08c379a0000000000000000000000000000000000000000000000000000000008152600401610ffa90613567565b60405180910390fd5b61100f84848484611ba9565b50505050565b3373ffffffffffffffffffffffffffffffffffffffff16600d60009054906101000a900473ffffffffffffffffffffffffffffffffffffffff1673ffffffffffffffffffffffffffffffffffffffff16146110a5576040517f08c379a000000000000000000000000000000000000000000000000000000000815260040161109c9061384a565b60405180910390fd5b80600e8190555050565b60606110ba82611c05565b9050919050565b600080600080600080601060008873ffffffffffffffffffffffffffffffffffffffff1673ffffffffffffffffffffffffffffffffffffffff168152602001908152602001600020888154811061111b5761111a6136ab565b5b9060005260206000209060050201905080600001548160010160009054906101000a900473ffffffffffffffffffffffffffffffffffffffff168260020160009054906101000a900473ffffffffffffffffffffffffffffffffffffffff1683600301548460040160009054906101000a900460ff1695509550955095509550509295509295909350565b6000600560008473ffffffffffffffffffffffffffffffffffffffff1673ffffffffffffffffffffffffffffffffffffffff16815260200190815260200160002060008373ffffffffffffffffffffffffffffffffffffffff1673ffffffffffffffffffffffffffffffffffffffff16815260200190815260200160002060009054906101000a900460ff16905092915050565b60007f780e9d63000000000000000000000000000000000000000000000000000000007bffffffffffffffffffffffffffffffffffffffffffffffffffffffff1916827bffffffffffffffffffffffffffffffffffffffffffffffffffffffff191614806112ad57506112ac82611d17565b5b9050919050565b6112bd81611df9565b6112fc576040517f08c379a00000000000000000000000000000000000000000000000000000000081526004016112f390613726565b60405180910390fd5b50565b600033905090565b816004600083815260200190815260200160002060006101000a81548173ffffffffffffffffffffffffffffffffffffffff021916908373ffffffffffffffffffffffffffffffffffffffff160217905550808273ffffffffffffffffffffffffffffffffffffffff1661137a83610c8f565b73ffffffffffffffffffffffffffffffffffffffff167f8c5be1e5ebec7d5bd14f71427d1e84f3dd0314c0f7b2291e5b200ac8c7c3b92560405160405180910390a45050565b6000806113cc83610c8f565b90508073ffffffffffffffffffffffffffffffffffffffff168473ffffffffffffffffffffffffffffffffffffffff16148061140e575061140d81856111a6565b5b8061144c57508373ffffffffffffffffffffffffffffffffffffffff16611434846106b2565b73ffffffffffffffffffffffffffffffffffffffff16145b91505092915050565b8273ffffffffffffffffffffffffffffffffffffffff1661147582610c8f565b73ffffffffffffffffffffffffffffffffffffffff16146114cb576040517f08c379a00000000000000000000000000000000000000000000000000000000081526004016114c2906138dc565b60405180910390fd5b600073ffffffffffffffffffffffffffffffffffffffff168273ffffffffffffffffffffffffffffffffffffffff160361153a576040517f08c379a00000000000000000000000000000000000000000000000000000000081526004016115319061396e565b60405180910390fd5b6115478383836001611e3a565b8273ffffffffffffffffffffffffffffffffffffffff1661156782610c8f565b73ffffffffffffffffffffffffffffffffffffffff16146115bd576040517f08c379a00000000000000000000000000000000000000000000000000000000081526004016115b4906138dc565b60405180910390fd5b6004600082815260200190815260200160002060006101000a81549073ffffffffffffffffffffffffffffffffffffffff02191690556001600360008573ffffffffffffffffffffffffffffffffffffffff1673ffffffffffffffffffffffffffffffffffffffff168152602001908152602001600020600082825403925050819055506001600360008473ffffffffffffffffffffffffffffffffffffffff1673ffffffffffffffffffffffffffffffffffffffff16815260200190815260200160002060008282540192505081905550816002600083815260200190815260200160002060006101000a81548173ffffffffffffffffffffffffffffffffffffffff021916908373ffffffffffffffffffffffffffffffffffffffff160217905550808273ffffffffffffffffffffffffffffffffffffffff168473ffffffffffffffffffffffffffffffffffffffff167fddf252ad1be2c89b69c2b068fc378daa952ba7f163c4a11628f55a4df523b3ef60405160405180910390a46117498383836001611e4c565b505050565b6001816000016000828254019250508190555050565b600081600001549050919050565b61178c828260405180602001604052806000815250611e52565b5050565b61179982611df9565b6117d8576040517f08c379a00000000000000000000000000000000000000000000000000000000081526004016117cf90613a00565b60405180910390fd5b80600a600084815260200190815260200160002090816117f89190613bcc565b505050565b600e543414611841576040517f08c379a000000000000000000000000000000000000000000000000000000000815260040161183890613d10565b60405180910390fd5b60008111611884576040517f08c379a000000000000000000000000000000000000000000000000000000000815260040161187b90613da2565b60405180910390fd5b6040518060a001604052808381526020013073ffffffffffffffffffffffffffffffffffffffff1681526020013373ffffffffffffffffffffffffffffffffffffffff16815260200182815260200160011515815250600f60008481526020019081526020016000206000820151816000015560208201518160010160006101000a81548173ffffffffffffffffffffffffffffffffffffffff021916908373ffffffffffffffffffffffffffffffffffffffff16021790555060408201518160020160006101000a81548173ffffffffffffffffffffffffffffffffffffffff021916908373ffffffffffffffffffffffffffffffffffffffff1602179055506060820151816003015560808201518160040160006101000a81548160ff0219169083151502179055509050506119bd333084611455565b817faf3679aa048f33d719e7f919c27adf518151bd48166ce2531710cfe40bc7bb8630338460016040516119f49493929190613dc2565b60405180910390a25050565b60006002600083815260200190815260200160002060009054906101000a900473ffffffffffffffffffffffffffffffffffffffff169050919050565b8173ffffffffffffffffffffffffffffffffffffffff168373ffffffffffffffffffffffffffffffffffffffff1603611aab576040517f08c379a0000000000000000000000000000000000000000000000000000000008152600401611aa290613e53565b60405180910390fd5b80600560008573ffffffffffffffffffffffffffffffffffffffff1673ffffffffffffffffffffffffffffffffffffffff16815260200190815260200160002060008473ffffffffffffffffffffffffffffffffffffffff1673ffffffffffffffffffffffffffffffffffffffff16815260200190815260200160002060006101000a81548160ff0219169083151502179055508173ffffffffffffffffffffffffffffffffffffffff168373ffffffffffffffffffffffffffffffffffffffff167f17307eab39ab6107e8899845ad3d59bd9653f200f220920489ca2b5937696c3183604051611b9c9190612c19565b60405180910390a3505050565b611bb4848484611455565b611bc084848484611ead565b611bff576040517f08c379a0000000000000000000000000000000000000000000000000000000008152600401611bf690613ee5565b60405180910390fd5b50505050565b6060611c10826112b4565b6000600a60008481526020019081526020016000208054611c30906133a0565b80601f0160208091040260200160405190810160405280929190818152602001828054611c5c906133a0565b8015611ca95780601f10611c7e57610100808354040283529160200191611ca9565b820191906000526020600020905b815481529060010190602001808311611c8c57829003601f168201915b505050505090506000611cba612034565b90506000815103611ccf578192505050611d12565b600082511115611d04578082604051602001611cec929190613f41565b60405160208183030381529060405292505050611d12565b611d0d8461204b565b925050505b919050565b60007f80ac58cd000000000000000000000000000000000000000000000000000000007bffffffffffffffffffffffffffffffffffffffffffffffffffffffff1916827bffffffffffffffffffffffffffffffffffffffffffffffffffffffff19161480611de257507f5b5e139f000000000000000000000000000000000000000000000000000000007bffffffffffffffffffffffffffffffffffffffffffffffffffffffff1916827bffffffffffffffffffffffffffffffffffffffffffffffffffffffff1916145b80611df25750611df1826120b3565b5b9050919050565b60008073ffffffffffffffffffffffffffffffffffffffff16611e1b83611a00565b73ffffffffffffffffffffffffffffffffffffffff1614159050919050565b611e468484848461211d565b50505050565b50505050565b611e5c838361227b565b611e696000848484611ead565b611ea8576040517f08c379a0000000000000000000000000000000000000000000000000000000008152600401611e9f90613ee5565b60405180910390fd5b505050565b6000611ece8473ffffffffffffffffffffffffffffffffffffffff16612498565b15612027578373ffffffffffffffffffffffffffffffffffffffff1663150b7a02611ef76112ff565b8786866040518563ffffffff1660e01b8152600401611f199493929190613fba565b6020604051808303816000875af1925050508015611f5557506040513d601f19601f82011682018060405250810190611f52919061401b565b60015b611fd7573d8060008114611f85576040519150601f19603f3d011682016040523d82523d6000602084013e611f8a565b606091505b506000815103611fcf576040517f08c379a0000000000000000000000000000000000000000000000000000000008152600401611fc690613ee5565b60405180910390fd5b805181602001fd5b63150b7a0260e01b7bffffffffffffffffffffffffffffffffffffffffffffffffffffffff1916817bffffffffffffffffffffffffffffffffffffffffffffffffffffffff19161491505061202c565b600190505b949350505050565b606060405180602001604052806000815250905090565b6060612056826112b4565b6000612060612034565b9050600081511161208057604051806020016040528060008152506120ab565b8061208a846124bb565b60405160200161209b929190613f41565b6040516020818303038152906040525b915050919050565b60007f01ffc9a7000000000000000000000000000000000000000000000000000000007bffffffffffffffffffffffffffffffffffffffffffffffffffffffff1916827bffffffffffffffffffffffffffffffffffffffffffffffffffffffff1916149050919050565b61212984848484612589565b600181111561216d576040517f08c379a0000000000000000000000000000000000000000000000000000000008152600401612164906140ba565b60405180910390fd5b6000829050600073ffffffffffffffffffffffffffffffffffffffff168573ffffffffffffffffffffffffffffffffffffffff16036121b4576121af816126af565b6121f3565b8373ffffffffffffffffffffffffffffffffffffffff168573ffffffffffffffffffffffffffffffffffffffff16146121f2576121f185826126f8565b5b5b600073ffffffffffffffffffffffffffffffffffffffff168473ffffffffffffffffffffffffffffffffffffffff16036122355761223081612865565b612274565b8473ffffffffffffffffffffffffffffffffffffffff168473ffffffffffffffffffffffffffffffffffffffff1614612273576122728482612936565b5b5b5050505050565b600073ffffffffffffffffffffffffffffffffffffffff168273ffffffffffffffffffffffffffffffffffffffff16036122ea576040517f08c379a00000000000000000000000000000000000000000000000000000000081526004016122e190614126565b60405180910390fd5b6122f381611df9565b15612333576040517f08c379a000000000000000000000000000000000000000000000000000000000815260040161232a90614192565b60405180910390fd5b612341600083836001611e3a565b61234a81611df9565b1561238a576040517f08c379a000000000000000000000000000000000000000000000000000000000815260040161238190614192565b60405180910390fd5b6001600360008473ffffffffffffffffffffffffffffffffffffffff1673ffffffffffffffffffffffffffffffffffffffff16815260200190815260200160002060008282540192505081905550816002600083815260200190815260200160002060006101000a81548173ffffffffffffffffffffffffffffffffffffffff021916908373ffffffffffffffffffffffffffffffffffffffff160217905550808273ffffffffffffffffffffffffffffffffffffffff16600073ffffffffffffffffffffffffffffffffffffffff167fddf252ad1be2c89b69c2b068fc378daa952ba7f163c4a11628f55a4df523b3ef60405160405180910390a4612494600083836001611e4c565b5050565b6000808273ffffffffffffffffffffffffffffffffffffffff163b119050919050565b6060600060016124ca846129b5565b01905060008167ffffffffffffffff8111156124e9576124e8612e98565b5b6040519080825280601f01601f19166020018201604052801561251b5781602001600182028036833780820191505090505b509050600082602001820190505b60011561257e578080600190039150507f3031323334353637383961626364656600000000000000000000000000000000600a86061a8153600a8581612572576125716141b2565b5b04945060008503612529575b819350505050919050565b60018111156126a957600073ffffffffffffffffffffffffffffffffffffffff168473ffffffffffffffffffffffffffffffffffffffff161461261d5780600360008673ffffffffffffffffffffffffffffffffffffffff1673ffffffffffffffffffffffffffffffffffffffff16815260200190815260200160002060008282546126159190614210565b925050819055505b600073ffffffffffffffffffffffffffffffffffffffff168373ffffffffffffffffffffffffffffffffffffffff16146126a85780600360008573ffffffffffffffffffffffffffffffffffffffff1673ffffffffffffffffffffffffffffffffffffffff16815260200190815260200160002060008282546126a09190614244565b925050819055505b5b50505050565b6008805490506009600083815260200190815260200160002081905550600881908060018154018082558091505060019003906000526020600020016000909190919091505550565b6000600161270584610d1f565b61270f9190614210565b90506000600760008481526020019081526020016000205490508181146127f4576000600660008673ffffffffffffffffffffffffffffffffffffffff1673ffffffffffffffffffffffffffffffffffffffff168152602001908152602001600020600084815260200190815260200160002054905080600660008773ffffffffffffffffffffffffffffffffffffffff1673ffffffffffffffffffffffffffffffffffffffff168152602001908152602001600020600084815260200190815260200160002081905550816007600083815260200190815260200160002081905550505b6007600084815260200190815260200160002060009055600660008573ffffffffffffffffffffffffffffffffffffffff1673ffffffffffffffffffffffffffffffffffffffff16815260200190815260200160002060008381526020019081526020016000206000905550505050565b600060016008805490506128799190614210565b90506000600960008481526020019081526020016000205490506000600883815481106128a9576128a86136ab565b5b9060005260206000200154905080600883815481106128cb576128ca6136ab565b5b90600052602060002001819055508160096000838152602001908152602001600020819055506009600085815260200190815260200160002060009055600880548061291a57612919614278565b5b6001900381819060005260206000200160009055905550505050565b600061294183610d1f565b905081600660008573ffffffffffffffffffffffffffffffffffffffff1673ffffffffffffffffffffffffffffffffffffffff168152602001908152602001600020600083815260200190815260200160002081905550806007600084815260200190815260200160002081905550505050565b600080600090507a184f03e93ff9f4daa797ed6e38ed64bf6a1f0100000000000000008310612a13577a184f03e93ff9f4daa797ed6e38ed64bf6a1f0100000000000000008381612a0957612a086141b2565b5b0492506040810190505b6d04ee2d6d415b85acef81000000008310612a50576d04ee2d6d415b85acef81000000008381612a4657612a456141b2565b5b0492506020810190505b662386f26fc100008310612a7f57662386f26fc100008381612a7557612a746141b2565b5b0492506010810190505b6305f5e1008310612aa8576305f5e1008381612a9e57612a9d6141b2565b5b0492506008810190505b6127108310612acd576127108381612ac357612ac26141b2565b5b0492506004810190505b60648310612af05760648381612ae657612ae56141b2565b5b0492506002810190505b600a8310612aff576001810190505b80915050919050565b6040518060a0016040528060008152602001600073ffffffffffffffffffffffffffffffffffffffff168152602001600073ffffffffffffffffffffffffffffffffffffffff168152602001600081526020016000151581525090565b6000604051905090565b600080fd5b600080fd5b60007fffffffff0000000000000000000000000000000000000000000000000000000082169050919050565b612bae81612b79565b8114612bb957600080fd5b50565b600081359050612bcb81612ba5565b92915050565b600060208284031215612be757612be6612b6f565b5b6000612bf584828501612bbc565b91505092915050565b60008115159050919050565b612c1381612bfe565b82525050565b6000602082019050612c2e6000830184612c0a565b92915050565b600081519050919050565b600082825260208201905092915050565b60005b83811015612c6e578082015181840152602081019050612c53565b60008484015250505050565b6000601f19601f8301169050919050565b6000612c9682612c34565b612ca08185612c3f565b9350612cb0818560208601612c50565b612cb981612c7a565b840191505092915050565b60006020820190508181036000830152612cde8184612c8b565b905092915050565b6000819050919050565b612cf981612ce6565b8114612d0457600080fd5b50565b600081359050612d1681612cf0565b92915050565b600060208284031215612d3257612d31612b6f565b5b6000612d4084828501612d07565b91505092915050565b600073ffffffffffffffffffffffffffffffffffffffff82169050919050565b6000612d7482612d49565b9050919050565b612d8481612d69565b82525050565b6000602082019050612d9f6000830184612d7b565b92915050565b612dae81612d69565b8114612db957600080fd5b50565b600081359050612dcb81612da5565b92915050565b60008060408385031215612de857612de7612b6f565b5b6000612df685828601612dbc565b9250506020612e0785828601612d07565b9150509250929050565b612e1a81612ce6565b82525050565b6000602082019050612e356000830184612e11565b92915050565b600080600060608486031215612e5457612e53612b6f565b5b6000612e6286828701612dbc565b9350506020612e7386828701612dbc565b9250506040612e8486828701612d07565b9150509250925092565b600080fd5b600080fd5b7f4e487b7100000000000000000000000000000000000000000000000000000000600052604160045260246000fd5b612ed082612c7a565b810181811067ffffffffffffffff82111715612eef57612eee612e98565b5b80604052505050565b6000612f02612b65565b9050612f0e8282612ec7565b919050565b600067ffffffffffffffff821115612f2e57612f2d612e98565b5b612f3782612c7a565b9050602081019050919050565b82818337600083830152505050565b6000612f66612f6184612f13565b612ef8565b905082815260208101848484011115612f8257612f81612e93565b5b612f8d848285612f44565b509392505050565b600082601f830112612faa57612fa9612e8e565b5b8135612fba848260208601612f53565b91505092915050565b60008060408385031215612fda57612fd9612b6f565b5b600083013567ffffffffffffffff811115612ff857612ff7612b74565b5b61300485828601612f95565b925050602061301585828601612d07565b9150509250929050565b61302881612ce6565b82525050565b600061303982612d49565b9050919050565b6130498161302e565b82525050565b61305881612bfe565b82525050565b60a082016000820151613074600085018261301f565b5060208201516130876020850182613040565b50604082015161309a6040850182613040565b5060608201516130ad606085018261301f565b5060808201516130c0608085018261304f565b50505050565b600060a0820190506130db600083018461305e565b92915050565b6000602082840312156130f7576130f6612b6f565b5b600061310584828501612dbc565b91505092915050565b61311781612bfe565b811461312257600080fd5b50565b6000813590506131348161310e565b92915050565b6000806040838503121561315157613150612b6f565b5b600061315f85828601612dbc565b925050602061317085828601613125565b9150509250929050565b600067ffffffffffffffff82111561319557613194612e98565b5b61319e82612c7a565b9050602081019050919050565b60006131be6131b98461317a565b612ef8565b9050828152602081018484840111156131da576131d9612e93565b5b6131e5848285612f44565b509392505050565b600082601f83011261320257613201612e8e565b5b81356132128482602086016131ab565b91505092915050565b6000806000806080858703121561323557613234612b6f565b5b600061324387828801612dbc565b945050602061325487828801612dbc565b935050604061326587828801612d07565b925050606085013567ffffffffffffffff81111561328657613285612b74565b5b613292878288016131ed565b91505092959194509250565b600080604083850312156132b5576132b4612b6f565b5b60006132c385828601612d07565b92505060206132d485828601612dbc565b9150509250929050565b600060a0820190506132f36000830188612e11565b6133006020830187612d7b565b61330d6040830186612d7b565b61331a6060830185612e11565b6133276080830184612c0a565b9695505050505050565b6000806040838503121561334857613347612b6f565b5b600061335685828601612dbc565b925050602061336785828601612dbc565b9150509250929050565b7f4e487b7100000000000000000000000000000000000000000000000000000000600052602260045260246000fd5b600060028204905060018216806133b857607f821691505b6020821081036133cb576133ca613371565b5b50919050565b7f4552433732313a20617070726f76616c20746f2063757272656e74206f776e6560008201527f7200000000000000000000000000000000000000000000000000000000000000602082015250565b600061342d602183612c3f565b9150613438826133d1565b604082019050919050565b6000602082019050818103600083015261345c81613420565b9050919050565b7f4552433732313a20617070726f76652063616c6c6572206973206e6f7420746f60008201527f6b656e206f776e6572206f7220617070726f76656420666f7220616c6c000000602082015250565b60006134bf603d83612c3f565b91506134ca82613463565b604082019050919050565b600060208201905081810360008301526134ee816134b2565b9050919050565b7f4552433732313a2063616c6c6572206973206e6f7420746f6b656e206f776e6560008201527f72206f7220617070726f76656400000000000000000000000000000000000000602082015250565b6000613551602d83612c3f565b915061355c826134f5565b604082019050919050565b6000602082019050818103600083015261358081613544565b9050919050565b7f455243373231456e756d657261626c653a206f776e657220696e646578206f7560008201527f74206f6620626f756e6473000000000000000000000000000000000000000000602082015250565b60006135e3602b83612c3f565b91506135ee82613587565b604082019050919050565b60006020820190508181036000830152613612816135d6565b9050919050565b7f455243373231456e756d657261626c653a20676c6f62616c20696e646578206f60008201527f7574206f6620626f756e64730000000000000000000000000000000000000000602082015250565b6000613675602c83612c3f565b915061368082613619565b604082019050919050565b600060208201905081810360008301526136a481613668565b9050919050565b7f4e487b7100000000000000000000000000000000000000000000000000000000600052603260045260246000fd5b7f4552433732313a20696e76616c696420746f6b656e2049440000000000000000600082015250565b6000613710601883612c3f565b915061371b826136da565b602082019050919050565b6000602082019050818103600083015261373f81613703565b9050919050565b7f4552433732313a2061646472657373207a65726f206973206e6f74206120766160008201527f6c6964206f776e65720000000000000000000000000000000000000000000000602082015250565b60006137a2602983612c3f565b91506137ad82613746565b604082019050919050565b600060208201905081810360008301526137d181613795565b9050919050565b7f4f6e6c79206f776e65722063616e20757064617465206c697374696e6720707260008201527f6963650000000000000000000000000000000000000000000000000000000000602082015250565b6000613834602383612c3f565b915061383f826137d8565b604082019050919050565b6000602082019050818103600083015261386381613827565b9050919050565b7f4552433732313a207472616e736665722066726f6d20696e636f72726563742060008201527f6f776e6572000000000000000000000000000000000000000000000000000000602082015250565b60006138c6602583612c3f565b91506138d18261386a565b604082019050919050565b600060208201905081810360008301526138f5816138b9565b9050919050565b7f4552433732313a207472616e7366657220746f20746865207a65726f2061646460008201527f7265737300000000000000000000000000000000000000000000000000000000602082015250565b6000613958602483612c3f565b9150613963826138fc565b604082019050919050565b600060208201905081810360008301526139878161394b565b9050919050565b7f45524337323155524953746f726167653a2055524920736574206f66206e6f6e60008201527f6578697374656e7420746f6b656e000000000000000000000000000000000000602082015250565b60006139ea602e83612c3f565b91506139f58261398e565b604082019050919050565b60006020820190508181036000830152613a19816139dd565b9050919050565b60008190508160005260206000209050919050565b60006020601f8301049050919050565b600082821b905092915050565b600060088302613a827fffffffffffffffffffffffffffffffffffffffffffffffffffffffffffffffff82613a45565b613a8c8683613a45565b95508019841693508086168417925050509392505050565b6000819050919050565b6000613ac9613ac4613abf84612ce6565b613aa4565b612ce6565b9050919050565b6000819050919050565b613ae383613aae565b613af7613aef82613ad0565b848454613a52565b825550505050565b600090565b613b0c613aff565b613b17818484613ada565b505050565b5b81811015613b3b57613b30600082613b04565b600181019050613b1d565b5050565b601f821115613b8057613b5181613a20565b613b5a84613a35565b81016020851015613b69578190505b613b7d613b7585613a35565b830182613b1c565b50505b505050565b600082821c905092915050565b6000613ba360001984600802613b85565b1980831691505092915050565b6000613bbc8383613b92565b9150826002028217905092915050565b613bd582612c34565b67ffffffffffffffff811115613bee57613bed612e98565b5b613bf882546133a0565b613c03828285613b3f565b600060209050601f831160018114613c365760008415613c24578287015190505b613c2e8582613bb0565b865550613c96565b601f198416613c4486613a20565b60005b82811015613c6c57848901518255600182019150602085019450602081019050613c47565b86831015613c895784890151613c85601f891682613b92565b8355505b6001600288020188555050505b505050505050565b7f486f706566756c6c792073656e64696e672074686520636f727265637420707260008201527f6963650000000000000000000000000000000000000000000000000000000000602082015250565b6000613cfa602383612c3f565b9150613d0582613c9e565b604082019050919050565b60006020820190508181036000830152613d2981613ced565b9050919050565b7f4d616b652073757265207468652070726963652069736e2774206e656761746960008201527f7665000000000000000000000000000000000000000000000000000000000000602082015250565b6000613d8c602283612c3f565b9150613d9782613d30565b604082019050919050565b60006020820190508181036000830152613dbb81613d7f565b9050919050565b6000608082019050613dd76000830187612d7b565b613de46020830186612d7b565b613df16040830185612e11565b613dfe6060830184612c0a565b95945050505050565b7f4552433732313a20617070726f766520746f2063616c6c657200000000000000600082015250565b6000613e3d601983612c3f565b9150613e4882613e07565b602082019050919050565b60006020820190508181036000830152613e6c81613e30565b9050919050565b7f4552433732313a207472616e7366657220746f206e6f6e20455243373231526560008201527f63656976657220696d706c656d656e7465720000000000000000000000000000602082015250565b6000613ecf603283612c3f565b9150613eda82613e73565b604082019050919050565b60006020820190508181036000830152613efe81613ec2565b9050919050565b600081905092915050565b6000613f1b82612c34565b613f258185613f05565b9350613f35818560208601612c50565b80840191505092915050565b6000613f4d8285613f10565b9150613f598284613f10565b91508190509392505050565b600081519050919050565b600082825260208201905092915050565b6000613f8c82613f65565b613f968185613f70565b9350613fa6818560208601612c50565b613faf81612c7a565b840191505092915050565b6000608082019050613fcf6000830187612d7b565b613fdc6020830186612d7b565b613fe96040830185612e11565b8181036060830152613ffb8184613f81565b905095945050505050565b60008151905061401581612ba5565b92915050565b60006020828403121561403157614030612b6f565b5b600061403f84828501614006565b91505092915050565b7f455243373231456e756d657261626c653a20636f6e736563757469766520747260008201527f616e7366657273206e6f7420737570706f727465640000000000000000000000602082015250565b60006140a4603583612c3f565b91506140af82614048565b604082019050919050565b600060208201905081810360008301526140d381614097565b9050919050565b7f4552433732313a206d696e7420746f20746865207a65726f2061646472657373600082015250565b6000614110602083612c3f565b915061411b826140da565b602082019050919050565b6000602082019050818103600083015261413f81614103565b9050919050565b7f4552433732313a20746f6b656e20616c7265616479206d696e74656400000000600082015250565b600061417c601c83612c3f565b915061418782614146565b602082019050919050565b600060208201905081810360008301526141ab8161416f565b9050919050565b7f4e487b7100000000000000000000000000000000000000000000000000000000600052601260045260246000fd5b7f4e487b7100000000000000000000000000000000000000000000000000000000600052601160045260246000fd5b600061421b82612ce6565b915061422683612ce6565b925082820390508181111561423e5761423d6141e1565b5b92915050565b600061424f82612ce6565b915061425a83612ce6565b9250828201905080821115614272576142716141e1565b5b92915050565b7f4e487b7100000000000000000000000000000000000000000000000000000000600052603160045260246000fdfea26469706673582212200cb150c44d19c080761f461018c7e8b678327578d6137505d69d2ea0c059ee0964736f6c63430008110033",
  "linkReferences": {},
  "deployedLinkReferences": {}
}