{
  "_format": "hh-sol-artifact-1",
  "contractName": "NFTMarketplace",
  "sourceName": "contracts/NFTMarketplace.sol",
  "abi": [
    {
      "inputs": [],
      "stateMutability": "nonpayable",
      "type": "constructor"
    },
    {
      "anonymous": false,
      "inputs": [
        {
          "indexed": true,
          "internalType": "address",
          "name": "owner",
          "type": "address"
        },
        {
          "indexed": true,
          "internalType": "address",
          "name": "approved",
          "type": "address"
        },
        {
          "indexed": true,
          "internalType": "uint256",
          "name": "tokenId",
          "type": "uint256"
        }
      ],
      "name": "Approval",
      "type": "event"
    },
    {
      "anonymous": false,
      "inputs": [
        {
          "indexed": true,
          "internalType": "address",
          "name": "owner",
          "type": "address"
        },
        {
          "indexed": true,
          "internalType": "address",
          "name": "operator",
          "type": "address"
        },
        {
          "indexed": false,
          "internalType": "bool",
          "name": "approved",
          "type": "bool"
        }
      ],
      "name": "ApprovalForAll",
      "type": "event"
    },
    {
      "anonymous": false,
      "inputs": [
        {
          "indexed": true,
          "internalType": "uint256",
          "name": "tokenId",
          "type": "uint256"
        },
        {
          "indexed": false,
          "internalType": "address",
          "name": "seller",
          "type": "address"
        },
        {
          "indexed": false,
          "internalType": "uint256",
          "name": "price",
          "type": "uint256"
        },
        {
          "indexed": false,
          "internalType": "bool",
          "name": "forSale",
          "type": "bool"
        }
      ],
      "name": "NFTListedSuccess",
      "type": "event"
    },
    {
      "anonymous": false,
      "inputs": [
        {
          "indexed": true,
          "internalType": "address",
          "name": "from",
          "type": "address"
        },
        {
          "indexed": true,
          "internalType": "address",
          "name": "to",
          "type": "address"
        },
        {
          "indexed": true,
          "internalType": "uint256",
          "name": "tokenId",
          "type": "uint256"
        }
      ],
      "name": "Transfer",
      "type": "event"
    },
    {
      "inputs": [
        {
          "internalType": "address",
          "name": "to",
          "type": "address"
        },
        {
          "internalType": "uint256",
          "name": "tokenId",
          "type": "uint256"
        }
      ],
      "name": "approve",
      "outputs": [],
      "stateMutability": "nonpayable",
      "type": "function"
    },
    {
      "inputs": [
        {
          "internalType": "address",
          "name": "owner",
          "type": "address"
        }
      ],
      "name": "balanceOf",
      "outputs": [
        {
          "internalType": "uint256",
          "name": "",
          "type": "uint256"
        }
      ],
      "stateMutability": "view",
      "type": "function"
    },
    {
      "inputs": [
        {
          "internalType": "uint256",
          "name": "tokenId",
          "type": "uint256"
        }
      ],
      "name": "buyNFT",
      "outputs": [],
      "stateMutability": "payable",
      "type": "function"
    },
    {
      "inputs": [
        {
          "internalType": "uint256",
          "name": "tokenId",
          "type": "uint256"
        }
      ],
      "name": "cancel",
      "outputs": [],
      "stateMutability": "nonpayable",
      "type": "function"
    },
    {
      "inputs": [
        {
          "internalType": "string",
          "name": "NFTURI",
          "type": "string"
        },
        {
          "internalType": "uint256",
          "name": "price",
          "type": "uint256"
        }
      ],
      "name": "createNFT",
      "outputs": [
        {
          "internalType": "uint256",
          "name": "",
          "type": "uint256"
        }
      ],
      "stateMutability": "payable",
      "type": "function"
    },
    {
      "inputs": [
        {
          "internalType": "uint256",
          "name": "tokenId",
          "type": "uint256"
        }
      ],
      "name": "getApproved",
      "outputs": [
        {
          "internalType": "address",
          "name": "",
          "type": "address"
        }
      ],
      "stateMutability": "view",
      "type": "function"
    },
    {
      "inputs": [],
      "name": "getListPrice",
      "outputs": [
        {
          "internalType": "uint256",
          "name": "",
          "type": "uint256"
        }
      ],
      "stateMutability": "view",
      "type": "function"
    },
    {
      "inputs": [
        {
          "internalType": "address",
          "name": "_address",
          "type": "address"
        }
      ],
      "name": "getMyNFTCount",
      "outputs": [
        {
          "internalType": "uint256",
          "name": "",
          "type": "uint256"
        }
      ],
      "stateMutability": "view",
      "type": "function"
    },
    {
      "inputs": [
        {
          "internalType": "uint256",
          "name": "_index",
          "type": "uint256"
        },
        {
          "internalType": "address",
          "name": "_callerAddress",
          "type": "address"
        }
      ],
      "name": "getMyNFTs",
      "outputs": [
        {
          "internalType": "uint256",
          "name": "_NFTId",
          "type": "uint256"
        },
        {
          "internalType": "address",
          "name": "_seller",
          "type": "address"
        },
        {
          "internalType": "uint256",
          "name": "_price",
          "type": "uint256"
        },
        {
          "internalType": "bool",
          "name": "_forSale",
          "type": "bool"
        },
        {
          "internalType": "bool",
          "name": "_sold",
          "type": "bool"
        },
        {
          "internalType": "uint256",
          "name": "_sales",
          "type": "uint256"
        },
        {
          "internalType": "uint256",
          "name": "_earnings",
          "type": "uint256"
        }
      ],
      "stateMutability": "view",
      "type": "function"
    },
    {
      "inputs": [
        {
          "internalType": "uint256",
          "name": "NFTId",
          "type": "uint256"
        }
      ],
      "name": "getNFT",
      "outputs": [
        {
          "internalType": "uint256",
          "name": "_NFTId",
          "type": "uint256"
        },
        {
          "internalType": "address",
          "name": "_seller",
          "type": "address"
        },
        {
          "internalType": "uint256",
          "name": "_price",
          "type": "uint256"
        },
        {
          "internalType": "bool",
          "name": "_forSale",
          "type": "bool"
        },
        {
          "internalType": "uint256",
          "name": "_sales",
          "type": "uint256"
        },
        {
          "internalType": "uint256",
          "name": "_earnings",
          "type": "uint256"
        }
      ],
      "stateMutability": "view",
      "type": "function"
    },
    {
      "inputs": [],
      "name": "getNFTCount",
      "outputs": [
        {
          "internalType": "uint256",
          "name": "",
          "type": "uint256"
        }
      ],
      "stateMutability": "view",
      "type": "function"
    },
    {
      "inputs": [
        {
          "internalType": "address",
          "name": "_address",
          "type": "address"
        }
      ],
      "name": "getSellerStat",
      "outputs": [
        {
          "internalType": "uint256",
          "name": "_sales",
          "type": "uint256"
        },
        {
          "internalType": "uint256",
          "name": "_earnings",
          "type": "uint256"
        }
      ],
      "stateMutability": "view",
      "type": "function"
    },
    {
      "inputs": [
        {
          "internalType": "address",
          "name": "owner",
          "type": "address"
        },
        {
          "internalType": "address",
          "name": "operator",
          "type": "address"
        }
      ],
      "name": "isApprovedForAll",
      "outputs": [
        {
          "internalType": "bool",
          "name": "",
          "type": "bool"
        }
      ],
      "stateMutability": "view",
      "type": "function"
    },
    {
      "inputs": [
        {
          "internalType": "address",
          "name": "",
          "type": "address"
        },
        {
          "internalType": "uint256",
          "name": "",
          "type": "uint256"
        }
      ],
      "name": "myNFTs",
      "outputs": [
        {
          "internalType": "uint256",
          "name": "NFTId",
          "type": "uint256"
        },
        {
          "internalType": "address payable",
          "name": "seller",
          "type": "address"
        },
        {
          "internalType": "uint256",
          "name": "price",
          "type": "uint256"
        },
        {
          "internalType": "bool",
          "name": "forSale",
          "type": "bool"
        },
        {
          "internalType": "bool",
          "name": "sold",
          "type": "bool"
        }
      ],
      "stateMutability": "view",
      "type": "function"
    },
    {
      "inputs": [],
      "name": "name",
      "outputs": [
        {
          "internalType": "string",
          "name": "",
          "type": "string"
        }
      ],
      "stateMutability": "view",
      "type": "function"
    },
    {
      "inputs": [
        {
          "internalType": "uint256",
          "name": "tokenId",
          "type": "uint256"
        }
      ],
      "name": "ownerOf",
      "outputs": [
        {
          "internalType": "address",
          "name": "",
          "type": "address"
        }
      ],
      "stateMutability": "view",
      "type": "function"
    },
    {
      "inputs": [
        {
          "internalType": "address",
          "name": "from",
          "type": "address"
        },
        {
          "internalType": "address",
          "name": "to",
          "type": "address"
        },
        {
          "internalType": "uint256",
          "name": "tokenId",
          "type": "uint256"
        }
      ],
      "name": "safeTransferFrom",
      "outputs": [],
      "stateMutability": "nonpayable",
      "type": "function"
    },
    {
      "inputs": [
        {
          "internalType": "address",
          "name": "from",
          "type": "address"
        },
        {
          "internalType": "address",
          "name": "to",
          "type": "address"
        },
        {
          "internalType": "uint256",
          "name": "tokenId",
          "type": "uint256"
        },
        {
          "internalType": "bytes",
          "name": "data",
          "type": "bytes"
        }
      ],
      "name": "safeTransferFrom",
      "outputs": [],
      "stateMutability": "nonpayable",
      "type": "function"
    },
    {
      "inputs": [
        {
          "internalType": "uint256",
          "name": "tokenId",
          "type": "uint256"
        }
      ],
      "name": "sellNFT",
      "outputs": [],
      "stateMutability": "payable",
      "type": "function"
    },
    {
      "inputs": [
        {
          "internalType": "address",
          "name": "operator",
          "type": "address"
        },
        {
          "internalType": "bool",
          "name": "approved",
          "type": "bool"
        }
      ],
      "name": "setApprovalForAll",
      "outputs": [],
      "stateMutability": "nonpayable",
      "type": "function"
    },
    {
      "inputs": [
        {
          "internalType": "bytes4",
          "name": "interfaceId",
          "type": "bytes4"
        }
      ],
      "name": "supportsInterface",
      "outputs": [
        {
          "internalType": "bool",
          "name": "",
          "type": "bool"
        }
      ],
      "stateMutability": "view",
      "type": "function"
    },
    {
      "inputs": [],
      "name": "symbol",
      "outputs": [
        {
          "internalType": "string",
          "name": "",
          "type": "string"
        }
      ],
      "stateMutability": "view",
      "type": "function"
    },
    {
      "inputs": [
        {
          "internalType": "uint256",
          "name": "index",
          "type": "uint256"
        }
      ],
      "name": "tokenByIndex",
      "outputs": [
        {
          "internalType": "uint256",
          "name": "",
          "type": "uint256"
        }
      ],
      "stateMutability": "view",
      "type": "function"
    },
    {
      "inputs": [
        {
          "internalType": "address",
          "name": "owner",
          "type": "address"
        },
        {
          "internalType": "uint256",
          "name": "index",
          "type": "uint256"
        }
      ],
      "name": "tokenOfOwnerByIndex",
      "outputs": [
        {
          "internalType": "uint256",
          "name": "",
          "type": "uint256"
        }
      ],
      "stateMutability": "view",
      "type": "function"
    },
    {
      "inputs": [
        {
          "internalType": "uint256",
          "name": "tokenId",
          "type": "uint256"
        }
      ],
      "name": "tokenURI",
      "outputs": [
        {
          "internalType": "string",
          "name": "",
          "type": "string"
        }
      ],
      "stateMutability": "view",
      "type": "function"
    },
    {
      "inputs": [],
      "name": "totalSupply",
      "outputs": [
        {
          "internalType": "uint256",
          "name": "",
          "type": "uint256"
        }
      ],
      "stateMutability": "view",
      "type": "function"
    },
    {
      "inputs": [
        {
          "internalType": "address",
          "name": "from",
          "type": "address"
        },
        {
          "internalType": "address",
          "name": "to",
          "type": "address"
        },
        {
          "internalType": "uint256",
          "name": "tokenId",
          "type": "uint256"
        }
      ],
      "name": "transferFrom",
      "outputs": [],
      "stateMutability": "nonpayable",
      "type": "function"
    }
  ],
  "bytecode": "0x6080604052662386f26fc10000600e553480156200001c57600080fd5b506040518060400160405280601681526020017f4172746973616e734e46544d61726b6574706c616365000000000000000000008152506040518060400160405280600681526020017f414e544d4b54000000000000000000000000000000000000000000000000000081525081600090816200009a919062000370565b508060019081620000ac919062000370565b50505033600d60016101000a81548173ffffffffffffffffffffffffffffffffffffffff021916908373ffffffffffffffffffffffffffffffffffffffff16021790555062000457565b600081519050919050565b7f4e487b7100000000000000000000000000000000000000000000000000000000600052604160045260246000fd5b7f4e487b7100000000000000000000000000000000000000000000000000000000600052602260045260246000fd5b600060028204905060018216806200017857607f821691505b6020821081036200018e576200018d62000130565b5b50919050565b60008190508160005260206000209050919050565b60006020601f8301049050919050565b600082821b905092915050565b600060088302620001f87fffffffffffffffffffffffffffffffffffffffffffffffffffffffffffffffff82620001b9565b620002048683620001b9565b95508019841693508086168417925050509392505050565b6000819050919050565b6000819050919050565b6000620002516200024b62000245846200021c565b62000226565b6200021c565b9050919050565b6000819050919050565b6200026d8362000230565b620002856200027c8262000258565b848454620001c6565b825550505050565b600090565b6200029c6200028d565b620002a981848462000262565b505050565b5b81811015620002d157620002c560008262000292565b600181019050620002af565b5050565b601f8211156200032057620002ea8162000194565b620002f584620001a9565b8101602085101562000305578190505b6200031d6200031485620001a9565b830182620002ae565b50505b505050565b600082821c905092915050565b6000620003456000198460080262000325565b1980831691505092915050565b600062000360838362000332565b9150826002028217905092915050565b6200037b82620000f6565b67ffffffffffffffff81111562000397576200039662000101565b5b620003a382546200015f565b620003b0828285620002d5565b600060209050601f831160018114620003e85760008415620003d3578287015190505b620003df858262000352565b8655506200044f565b601f198416620003f88662000194565b60005b828110156200042257848901518255600182019150602085019450602081019050620003fb565b868310156200044257848901516200043e601f89168262000332565b8355505b6001600288020188555050505b505050505050565b614ec780620004676000396000f3fe60806040526004361061019c5760003560e01c8063576f7ea7116100ec578063acce2b721161008a578063cf39023211610064578063cf39023214610626578063e222d6d614610669578063e985e9c5146106a6578063ee9cdfb3146106e35761019c565b8063acce2b7214610582578063b88d4fde146105c0578063c87b56dd146105e95761019c565b806370a08231116100c657806370a08231146104b057806386001cd1146104ed57806395d89b411461052e578063a22cb465146105595761019c565b8063576f7ea7146104065780636352211e1461044857806368f1945f146104855761019c565b8063268291551161015957806342842e0e1161013357806342842e0e146103595780634f6ccce71461038257806351ed8288146103bf57806354279637146103db5761019c565b806326829155146102c35780632f745c59146102f357806340e58ee5146103305761019c565b806301ffc9a7146101a157806306fdde03146101de578063081812fc14610209578063095ea7b31461024657806318160ddd1461026f57806323b872dd1461029a575b600080fd5b3480156101ad57600080fd5b506101c860048036038101906101c39190613553565b6106ff565b6040516101d5919061359b565b60405180910390f35b3480156101ea57600080fd5b506101f3610711565b6040516102009190613646565b60405180910390f35b34801561021557600080fd5b50610230600480360381019061022b919061369e565b6107a3565b60405161023d919061370c565b60405180910390f35b34801561025257600080fd5b5061026d60048036038101906102689190613753565b6107e9565b005b34801561027b57600080fd5b50610284610900565b60405161029191906137a2565b60405180910390f35b3480156102a657600080fd5b506102c160048036038101906102bc91906137bd565b61090d565b005b6102dd60048036038101906102d89190613945565b61096d565b6040516102ea91906137a2565b60405180910390f35b3480156102ff57600080fd5b5061031a60048036038101906103159190613753565b610bff565b60405161032791906137a2565b60405180910390f35b34801561033c57600080fd5b506103576004803603810190610352919061369e565b610ca4565b005b34801561036557600080fd5b50610380600480360381019061037b91906137bd565b610e43565b005b34801561038e57600080fd5b506103a960048036038101906103a4919061369e565b610e63565b6040516103b691906137a2565b60405180910390f35b6103d960048036038101906103d4919061369e565b610ed4565b005b3480156103e757600080fd5b506103f06113f8565b6040516103fd91906137a2565b60405180910390f35b34801561041257600080fd5b5061042d6004803603810190610428919061369e565b611409565b60405161043f969594939291906139a1565b60405180910390f35b34801561045457600080fd5b5061046f600480360381019061046a919061369e565b61155e565b60405161047c919061370c565b60405180910390f35b34801561049157600080fd5b5061049a6115e4565b6040516104a791906137a2565b60405180910390f35b3480156104bc57600080fd5b506104d760048036038101906104d29190613a02565b6115ee565b6040516104e491906137a2565b60405180910390f35b3480156104f957600080fd5b50610514600480360381019061050f9190613753565b6116a5565b604051610525959493929190613a50565b60405180910390f35b34801561053a57600080fd5b50610543611722565b6040516105509190613646565b60405180910390f35b34801561056557600080fd5b50610580600480360381019061057b9190613acf565b6117b4565b005b34801561058e57600080fd5b506105a960048036038101906105a49190613a02565b6117ca565b6040516105b7929190613b0f565b60405180910390f35b3480156105cc57600080fd5b506105e760048036038101906105e29190613bd9565b61184d565b005b3480156105f557600080fd5b50610610600480360381019061060b919061369e565b6118af565b60405161061d9190613646565b60405180910390f35b34801561063257600080fd5b5061064d60048036038101906106489190613c5c565b6118c1565b6040516106609796959493929190613c9c565b60405180910390f35b34801561067557600080fd5b50610690600480360381019061068b9190613a02565b6119db565b60405161069d91906137a2565b60405180910390f35b3480156106b257600080fd5b506106cd60048036038101906106c89190613d0b565b611a2c565b6040516106da919061359b565b60405180910390f35b6106fd60048036038101906106f8919061369e565b611ac0565b005b600061070a82611e1c565b9050919050565b60606000805461072090613d7a565b80601f016020809104026020016040519081016040528092919081815260200182805461074c90613d7a565b80156107995780601f1061076e57610100808354040283529160200191610799565b820191906000526020600020905b81548152906001019060200180831161077c57829003601f168201915b5050505050905090565b60006107ae82611e96565b6004600083815260200190815260200160002060009054906101000a900473ffffffffffffffffffffffffffffffffffffffff169050919050565b60006107f48261155e565b90508073ffffffffffffffffffffffffffffffffffffffff168373ffffffffffffffffffffffffffffffffffffffff1603610864576040517f08c379a000000000000000000000000000000000000000000000000000000000815260040161085b90613e1d565b60405180910390fd5b8073ffffffffffffffffffffffffffffffffffffffff16610883611ee1565b73ffffffffffffffffffffffffffffffffffffffff1614806108b257506108b1816108ac611ee1565b611a2c565b5b6108f1576040517f08c379a00000000000000000000000000000000000000000000000000000000081526004016108e890613eaf565b60405180910390fd5b6108fb8383611ee9565b505050565b6000600880549050905090565b61091e610918611ee1565b82611fa2565b61095d576040517f08c379a000000000000000000000000000000000000000000000000000000000815260040161095490613f41565b60405180910390fd5b610968838383612037565b505050565b6000610979600b612330565b6000610985600b612346565b90506109913382612354565b61099b8185612372565b60405180608001604052808281526020013373ffffffffffffffffffffffffffffffffffffffff16815260200184815260200160001515815250600f60008381526020019081526020016000206000820151816000015560208201518160010160006101000a81548173ffffffffffffffffffffffffffffffffffffffff021916908373ffffffffffffffffffffffffffffffffffffffff1602179055506040820151816002015560608201518160030160006101000a81548160ff0219169083151502179055509050506040518060a001604052808281526020013373ffffffffffffffffffffffffffffffffffffffff16815260200184815260200160001515815260200160001515815250601060003373ffffffffffffffffffffffffffffffffffffffff1673ffffffffffffffffffffffffffffffffffffffff16815260200190815260200160002060008381526020019081526020016000206000820151816000015560208201518160010160006101000a81548173ffffffffffffffffffffffffffffffffffffffff021916908373ffffffffffffffffffffffffffffffffffffffff1602179055506040820151816002015560608201518160030160006101000a81548160ff02191690831515021790555060808201518160030160016101000a81548160ff0219169083151502179055509050506000601160003373ffffffffffffffffffffffffffffffffffffffff1673ffffffffffffffffffffffffffffffffffffffff1681526020019081526020016000209050806002016000815480929190610bef90613f90565b9190505550819250505092915050565b6000610c0a836115ee565b8210610c4b576040517f08c379a0000000000000000000000000000000000000000000000000000000008152600401610c429061404a565b60405180910390fd5b600660008473ffffffffffffffffffffffffffffffffffffffff1673ffffffffffffffffffffffffffffffffffffffff168152602001908152602001600020600083815260200190815260200160002054905092915050565b6000600f600083815260200190815260200160002090503373ffffffffffffffffffffffffffffffffffffffff168160010160009054906101000a900473ffffffffffffffffffffffffffffffffffffffff1673ffffffffffffffffffffffffffffffffffffffff1614610d4d576040517f08c379a0000000000000000000000000000000000000000000000000000000008152600401610d44906140dc565b60405180910390fd5b600115158160030160009054906101000a900460ff16151514610da5576040517f08c379a0000000000000000000000000000000000000000000000000000000008152600401610d9c90614148565b60405180910390fd5b6000601060003373ffffffffffffffffffffffffffffffffffffffff1673ffffffffffffffffffffffffffffffffffffffff16815260200190815260200160002060008481526020019081526020016000209050610e04303385612037565b60008260030160006101000a81548160ff02191690831515021790555060008160030160006101000a81548160ff021916908315150217905550505050565b610e5e8383836040518060200160405280600081525061184d565b505050565b6000610e6d610900565b8210610eae576040517f08c379a0000000000000000000000000000000000000000000000000000000008152600401610ea5906141da565b60405180910390fd5b60088281548110610ec257610ec16141fa565b5b90600052602060002001549050919050565b600d60009054906101000a900460ff1615610f24576040517f08c379a0000000000000000000000000000000000000000000000000000000008152600401610f1b90614275565b60405180910390fd5b6001600d60006101000a81548160ff0219169083151502179055506000600f600083815260200190815260200160002090506000600f600084815260200190815260200160002060010160009054906101000a900473ffffffffffffffffffffffffffffffffffffffff16905081600201543414610fd7576040517f08c379a0000000000000000000000000000000000000000000000000000000008152600401610fce90614307565b60405180910390fd5b60008260030160006101000a81548160ff021916908315150217905550338260010160006101000a81548173ffffffffffffffffffffffffffffffffffffffff021916908373ffffffffffffffffffffffffffffffffffffffff160217905550611041600c612330565b61104c303385612037565b8073ffffffffffffffffffffffffffffffffffffffff166108fc349081150290604051600060405180830381858888f19350505050158015611092573d6000803e3d6000fd5b506040518060a001604052808481526020013373ffffffffffffffffffffffffffffffffffffffff1681526020018360020154815260200160001515815260200160001515815250601060003373ffffffffffffffffffffffffffffffffffffffff1673ffffffffffffffffffffffffffffffffffffffff16815260200190815260200160002060008581526020019081526020016000206000820151816000015560208201518160010160006101000a81548173ffffffffffffffffffffffffffffffffffffffff021916908373ffffffffffffffffffffffffffffffffffffffff1602179055506040820151816002015560608201518160030160006101000a81548160ff02191690831515021790555060808201518160030160016101000a81548160ff0219169083151502179055509050506040518060a001604052808481526020018273ffffffffffffffffffffffffffffffffffffffff1681526020018360020154815260200160001515815260200160011515815250601060008373ffffffffffffffffffffffffffffffffffffffff1673ffffffffffffffffffffffffffffffffffffffff16815260200190815260200160002060008581526020019081526020016000206000820151816000015560208201518160010160006101000a81548173ffffffffffffffffffffffffffffffffffffffff021916908373ffffffffffffffffffffffffffffffffffffffff1602179055506040820151816002015560608201518160030160006101000a81548160ff02191690831515021790555060808201518160030160016101000a81548160ff0219169083151502179055509050506000601160008373ffffffffffffffffffffffffffffffffffffffff1673ffffffffffffffffffffffffffffffffffffffff16815260200190815260200160002090506000601160003373ffffffffffffffffffffffffffffffffffffffff1673ffffffffffffffffffffffffffffffffffffffff168152602001908152602001600020905081600001600081548092919061139890613f90565b919050555083600201548260010160008282546113b59190614327565b925050819055508060020160008154809291906113d190613f90565b9190505550505050506000600d60006101000a81548160ff02191690831515021790555050565b6000611404600b612346565b905090565b6000806000806000806000600f6000898152602001908152602001600020604051806080016040529081600082015481526020016001820160009054906101000a900473ffffffffffffffffffffffffffffffffffffffff1673ffffffffffffffffffffffffffffffffffffffff1673ffffffffffffffffffffffffffffffffffffffff168152602001600282015481526020016003820160009054906101000a900460ff1615151515815250509050600060116000836020015173ffffffffffffffffffffffffffffffffffffffff1673ffffffffffffffffffffffffffffffffffffffff16815260200190815260200160002060405180606001604052908160008201548152602001600182015481526020016002820154815250509050816000015182602001518360400151846060015184600001518560200151975097509750975097509750505091939550919395565b60008061156a836123df565b9050600073ffffffffffffffffffffffffffffffffffffffff168173ffffffffffffffffffffffffffffffffffffffff16036115db576040517f08c379a00000000000000000000000000000000000000000000000000000000081526004016115d2906143a7565b60405180910390fd5b80915050919050565b6000600e54905090565b60008073ffffffffffffffffffffffffffffffffffffffff168273ffffffffffffffffffffffffffffffffffffffff160361165e576040517f08c379a000000000000000000000000000000000000000000000000000000000815260040161165590614439565b60405180910390fd5b600360008373ffffffffffffffffffffffffffffffffffffffff1673ffffffffffffffffffffffffffffffffffffffff168152602001908152602001600020549050919050565b6010602052816000526040600020602052806000526040600020600091509150508060000154908060010160009054906101000a900473ffffffffffffffffffffffffffffffffffffffff16908060020154908060030160009054906101000a900460ff16908060030160019054906101000a900460ff16905085565b60606001805461173190613d7a565b80601f016020809104026020016040519081016040528092919081815260200182805461175d90613d7a565b80156117aa5780601f1061177f576101008083540402835291602001916117aa565b820191906000526020600020905b81548152906001019060200180831161178d57829003601f168201915b5050505050905090565b6117c66117bf611ee1565b838361241c565b5050565b6000806000601160008573ffffffffffffffffffffffffffffffffffffffff1673ffffffffffffffffffffffffffffffffffffffff16815260200190815260200160002060405180606001604052908160008201548152602001600182015481526020016002820154815250509050806000015181602001519250925050915091565b61185e611858611ee1565b83611fa2565b61189d576040517f08c379a000000000000000000000000000000000000000000000000000000000815260040161189490613f41565b60405180910390fd5b6118a984848484612588565b50505050565b60606118ba826125e4565b9050919050565b600080600080600080600080601160008a73ffffffffffffffffffffffffffffffffffffffff1673ffffffffffffffffffffffffffffffffffffffff16815260200190815260200160002090506000601060008b73ffffffffffffffffffffffffffffffffffffffff1673ffffffffffffffffffffffffffffffffffffffff16815260200190815260200160002060008c8152602001908152602001600020905080600001548160010160009054906101000a900473ffffffffffffffffffffffffffffffffffffffff1682600201548360030160009054906101000a900460ff168460030160019054906101000a900460ff16866000015487600101549850985098509850985098509850505092959891949750929550565b600080601160008473ffffffffffffffffffffffffffffffffffffffff1673ffffffffffffffffffffffffffffffffffffffff16815260200190815260200160002090508060020154915050919050565b6000600560008473ffffffffffffffffffffffffffffffffffffffff1673ffffffffffffffffffffffffffffffffffffffff16815260200190815260200160002060008373ffffffffffffffffffffffffffffffffffffffff1673ffffffffffffffffffffffffffffffffffffffff16815260200190815260200160002060009054906101000a900460ff16905092915050565b600d60009054906101000a900460ff1615611b10576040517f08c379a0000000000000000000000000000000000000000000000000000000008152600401611b0790614275565b60405180910390fd5b6001600d60006101000a81548160ff0219169083151502179055506000600f600083815260200190815260200160002090506000816002015411611b89576040517f08c379a0000000000000000000000000000000000000000000000000000000008152600401611b80906144cb565b60405180910390fd5b600e543414611bcd576040517f08c379a0000000000000000000000000000000000000000000000000000000008152600401611bc49061455d565b60405180910390fd5b3373ffffffffffffffffffffffffffffffffffffffff168160010160009054906101000a900473ffffffffffffffffffffffffffffffffffffffff1673ffffffffffffffffffffffffffffffffffffffff1614611c5f576040517f08c379a0000000000000000000000000000000000000000000000000000000008152600401611c56906140dc565b60405180910390fd5b600015158160030160009054906101000a900460ff16151514611cb7576040517f08c379a0000000000000000000000000000000000000000000000000000000008152600401611cae906145c9565b60405180910390fd5b6000601060003373ffffffffffffffffffffffffffffffffffffffff1673ffffffffffffffffffffffffffffffffffffffff16815260200190815260200160002060008481526020019081526020016000209050600d60019054906101000a900473ffffffffffffffffffffffffffffffffffffffff1673ffffffffffffffffffffffffffffffffffffffff166108fc600e549081150290604051600060405180830381858888f19350505050158015611d75573d6000803e3d6000fd5b50611d81333085612037565b60018260030160006101000a81548160ff02191690831515021790555060018160030160006101000a81548160ff021916908315150217905550827ff227ab9acf6995a490e2e05cb846b1598ea2eeedcdcf5d7aa02ba0e15f67ace43384600201546001604051611df4939291906145e9565b60405180910390a250506000600d60006101000a81548160ff02191690831515021790555050565b60007f780e9d63000000000000000000000000000000000000000000000000000000007bffffffffffffffffffffffffffffffffffffffffffffffffffffffff1916827bffffffffffffffffffffffffffffffffffffffffffffffffffffffff19161480611e8f5750611e8e826126f6565b5b9050919050565b611e9f816127d8565b611ede576040517f08c379a0000000000000000000000000000000000000000000000000000000008152600401611ed5906143a7565b60405180910390fd5b50565b600033905090565b816004600083815260200190815260200160002060006101000a81548173ffffffffffffffffffffffffffffffffffffffff021916908373ffffffffffffffffffffffffffffffffffffffff160217905550808273ffffffffffffffffffffffffffffffffffffffff16611f5c8361155e565b73ffffffffffffffffffffffffffffffffffffffff167f8c5be1e5ebec7d5bd14f71427d1e84f3dd0314c0f7b2291e5b200ac8c7c3b92560405160405180910390a45050565b600080611fae8361155e565b90508073ffffffffffffffffffffffffffffffffffffffff168473ffffffffffffffffffffffffffffffffffffffff161480611ff05750611fef8185611a2c565b5b8061202e57508373ffffffffffffffffffffffffffffffffffffffff16612016846107a3565b73ffffffffffffffffffffffffffffffffffffffff16145b91505092915050565b8273ffffffffffffffffffffffffffffffffffffffff166120578261155e565b73ffffffffffffffffffffffffffffffffffffffff16146120ad576040517f08c379a00000000000000000000000000000000000000000000000000000000081526004016120a490614692565b60405180910390fd5b600073ffffffffffffffffffffffffffffffffffffffff168273ffffffffffffffffffffffffffffffffffffffff160361211c576040517f08c379a000000000000000000000000000000000000000000000000000000000815260040161211390614724565b60405180910390fd5b6121298383836001612819565b8273ffffffffffffffffffffffffffffffffffffffff166121498261155e565b73ffffffffffffffffffffffffffffffffffffffff161461219f576040517f08c379a000000000000000000000000000000000000000000000000000000000815260040161219690614692565b60405180910390fd5b6004600082815260200190815260200160002060006101000a81549073ffffffffffffffffffffffffffffffffffffffff02191690556001600360008573ffffffffffffffffffffffffffffffffffffffff1673ffffffffffffffffffffffffffffffffffffffff168152602001908152602001600020600082825403925050819055506001600360008473ffffffffffffffffffffffffffffffffffffffff1673ffffffffffffffffffffffffffffffffffffffff16815260200190815260200160002060008282540192505081905550816002600083815260200190815260200160002060006101000a81548173ffffffffffffffffffffffffffffffffffffffff021916908373ffffffffffffffffffffffffffffffffffffffff160217905550808273ffffffffffffffffffffffffffffffffffffffff168473ffffffffffffffffffffffffffffffffffffffff167fddf252ad1be2c89b69c2b068fc378daa952ba7f163c4a11628f55a4df523b3ef60405160405180910390a461232b838383600161282b565b505050565b6001816000016000828254019250508190555050565b600081600001549050919050565b61236e828260405180602001604052806000815250612831565b5050565b61237b826127d8565b6123ba576040517f08c379a00000000000000000000000000000000000000000000000000000000081526004016123b1906147b6565b60405180910390fd5b80600a600084815260200190815260200160002090816123da9190614982565b505050565b60006002600083815260200190815260200160002060009054906101000a900473ffffffffffffffffffffffffffffffffffffffff169050919050565b8173ffffffffffffffffffffffffffffffffffffffff168373ffffffffffffffffffffffffffffffffffffffff160361248a576040517f08c379a000000000000000000000000000000000000000000000000000000000815260040161248190614aa0565b60405180910390fd5b80600560008573ffffffffffffffffffffffffffffffffffffffff1673ffffffffffffffffffffffffffffffffffffffff16815260200190815260200160002060008473ffffffffffffffffffffffffffffffffffffffff1673ffffffffffffffffffffffffffffffffffffffff16815260200190815260200160002060006101000a81548160ff0219169083151502179055508173ffffffffffffffffffffffffffffffffffffffff168373ffffffffffffffffffffffffffffffffffffffff167f17307eab39ab6107e8899845ad3d59bd9653f200f220920489ca2b5937696c318360405161257b919061359b565b60405180910390a3505050565b612593848484612037565b61259f8484848461288c565b6125de576040517f08c379a00000000000000000000000000000000000000000000000000000000081526004016125d590614b32565b60405180910390fd5b50505050565b60606125ef82611e96565b6000600a6000848152602001908152602001600020805461260f90613d7a565b80601f016020809104026020016040519081016040528092919081815260200182805461263b90613d7a565b80156126885780601f1061265d57610100808354040283529160200191612688565b820191906000526020600020905b81548152906001019060200180831161266b57829003601f168201915b505050505090506000612699612a13565b905060008151036126ae5781925050506126f1565b6000825111156126e35780826040516020016126cb929190614b8e565b604051602081830303815290604052925050506126f1565b6126ec84612a2a565b925050505b919050565b60007f80ac58cd000000000000000000000000000000000000000000000000000000007bffffffffffffffffffffffffffffffffffffffffffffffffffffffff1916827bffffffffffffffffffffffffffffffffffffffffffffffffffffffff191614806127c157507f5b5e139f000000000000000000000000000000000000000000000000000000007bffffffffffffffffffffffffffffffffffffffffffffffffffffffff1916827bffffffffffffffffffffffffffffffffffffffffffffffffffffffff1916145b806127d157506127d082612a92565b5b9050919050565b60008073ffffffffffffffffffffffffffffffffffffffff166127fa836123df565b73ffffffffffffffffffffffffffffffffffffffff1614159050919050565b61282584848484612afc565b50505050565b50505050565b61283b8383612c5a565b612848600084848461288c565b612887576040517f08c379a000000000000000000000000000000000000000000000000000000000815260040161287e90614b32565b60405180910390fd5b505050565b60006128ad8473ffffffffffffffffffffffffffffffffffffffff16612e77565b15612a06578373ffffffffffffffffffffffffffffffffffffffff1663150b7a026128d6611ee1565b8786866040518563ffffffff1660e01b81526004016128f89493929190614c07565b6020604051808303816000875af192505050801561293457506040513d601f19601f820116820180604052508101906129319190614c68565b60015b6129b6573d8060008114612964576040519150601f19603f3d011682016040523d82523d6000602084013e612969565b606091505b5060008151036129ae576040517f08c379a00000000000000000000000000000000000000000000000000000000081526004016129a590614b32565b60405180910390fd5b805181602001fd5b63150b7a0260e01b7bffffffffffffffffffffffffffffffffffffffffffffffffffffffff1916817bffffffffffffffffffffffffffffffffffffffffffffffffffffffff191614915050612a0b565b600190505b949350505050565b606060405180602001604052806000815250905090565b6060612a3582611e96565b6000612a3f612a13565b90506000815111612a5f5760405180602001604052806000815250612a8a565b80612a6984612e9a565b604051602001612a7a929190614b8e565b6040516020818303038152906040525b915050919050565b60007f01ffc9a7000000000000000000000000000000000000000000000000000000007bffffffffffffffffffffffffffffffffffffffffffffffffffffffff1916827bffffffffffffffffffffffffffffffffffffffffffffffffffffffff1916149050919050565b612b0884848484612f68565b6001811115612b4c576040517f08c379a0000000000000000000000000000000000000000000000000000000008152600401612b4390614d07565b60405180910390fd5b6000829050600073ffffffffffffffffffffffffffffffffffffffff168573ffffffffffffffffffffffffffffffffffffffff1603612b9357612b8e8161308e565b612bd2565b8373ffffffffffffffffffffffffffffffffffffffff168573ffffffffffffffffffffffffffffffffffffffff1614612bd157612bd085826130d7565b5b5b600073ffffffffffffffffffffffffffffffffffffffff168473ffffffffffffffffffffffffffffffffffffffff1603612c1457612c0f81613244565b612c53565b8473ffffffffffffffffffffffffffffffffffffffff168473ffffffffffffffffffffffffffffffffffffffff1614612c5257612c518482613315565b5b5b5050505050565b600073ffffffffffffffffffffffffffffffffffffffff168273ffffffffffffffffffffffffffffffffffffffff1603612cc9576040517f08c379a0000000000000000000000000000000000000000000000000000000008152600401612cc090614d73565b60405180910390fd5b612cd2816127d8565b15612d12576040517f08c379a0000000000000000000000000000000000000000000000000000000008152600401612d0990614ddf565b60405180910390fd5b612d20600083836001612819565b612d29816127d8565b15612d69576040517f08c379a0000000000000000000000000000000000000000000000000000000008152600401612d6090614ddf565b60405180910390fd5b6001600360008473ffffffffffffffffffffffffffffffffffffffff1673ffffffffffffffffffffffffffffffffffffffff16815260200190815260200160002060008282540192505081905550816002600083815260200190815260200160002060006101000a81548173ffffffffffffffffffffffffffffffffffffffff021916908373ffffffffffffffffffffffffffffffffffffffff160217905550808273ffffffffffffffffffffffffffffffffffffffff16600073ffffffffffffffffffffffffffffffffffffffff167fddf252ad1be2c89b69c2b068fc378daa952ba7f163c4a11628f55a4df523b3ef60405160405180910390a4612e7360008383600161282b565b5050565b6000808273ffffffffffffffffffffffffffffffffffffffff163b119050919050565b606060006001612ea984613394565b01905060008167ffffffffffffffff811115612ec857612ec761381a565b5b6040519080825280601f01601f191660200182016040528015612efa5781602001600182028036833780820191505090505b509050600082602001820190505b600115612f5d578080600190039150507f3031323334353637383961626364656600000000000000000000000000000000600a86061a8153600a8581612f5157612f50614dff565b5b04945060008503612f08575b819350505050919050565b600181111561308857600073ffffffffffffffffffffffffffffffffffffffff168473ffffffffffffffffffffffffffffffffffffffff1614612ffc5780600360008673ffffffffffffffffffffffffffffffffffffffff1673ffffffffffffffffffffffffffffffffffffffff1681526020019081526020016000206000828254612ff49190614e2e565b925050819055505b600073ffffffffffffffffffffffffffffffffffffffff168373ffffffffffffffffffffffffffffffffffffffff16146130875780600360008573ffffffffffffffffffffffffffffffffffffffff1673ffffffffffffffffffffffffffffffffffffffff168152602001908152602001600020600082825461307f9190614327565b925050819055505b5b50505050565b6008805490506009600083815260200190815260200160002081905550600881908060018154018082558091505060019003906000526020600020016000909190919091505550565b600060016130e4846115ee565b6130ee9190614e2e565b90506000600760008481526020019081526020016000205490508181146131d3576000600660008673ffffffffffffffffffffffffffffffffffffffff1673ffffffffffffffffffffffffffffffffffffffff168152602001908152602001600020600084815260200190815260200160002054905080600660008773ffffffffffffffffffffffffffffffffffffffff1673ffffffffffffffffffffffffffffffffffffffff168152602001908152602001600020600084815260200190815260200160002081905550816007600083815260200190815260200160002081905550505b6007600084815260200190815260200160002060009055600660008573ffffffffffffffffffffffffffffffffffffffff1673ffffffffffffffffffffffffffffffffffffffff16815260200190815260200160002060008381526020019081526020016000206000905550505050565b600060016008805490506132589190614e2e565b9050600060096000848152602001908152602001600020549050600060088381548110613288576132876141fa565b5b9060005260206000200154905080600883815481106132aa576132a96141fa565b5b9060005260206000200181905550816009600083815260200190815260200160002081905550600960008581526020019081526020016000206000905560088054806132f9576132f8614e62565b5b6001900381819060005260206000200160009055905550505050565b6000613320836115ee565b905081600660008573ffffffffffffffffffffffffffffffffffffffff1673ffffffffffffffffffffffffffffffffffffffff168152602001908152602001600020600083815260200190815260200160002081905550806007600084815260200190815260200160002081905550505050565b600080600090507a184f03e93ff9f4daa797ed6e38ed64bf6a1f01000000000000000083106133f2577a184f03e93ff9f4daa797ed6e38ed64bf6a1f01000000000000000083816133e8576133e7614dff565b5b0492506040810190505b6d04ee2d6d415b85acef8100000000831061342f576d04ee2d6d415b85acef8100000000838161342557613424614dff565b5b0492506020810190505b662386f26fc10000831061345e57662386f26fc10000838161345457613453614dff565b5b0492506010810190505b6305f5e1008310613487576305f5e100838161347d5761347c614dff565b5b0492506008810190505b61271083106134ac5761271083816134a2576134a1614dff565b5b0492506004810190505b606483106134cf57606483816134c5576134c4614dff565b5b0492506002810190505b600a83106134de576001810190505b80915050919050565b6000604051905090565b600080fd5b600080fd5b60007fffffffff0000000000000000000000000000000000000000000000000000000082169050919050565b613530816134fb565b811461353b57600080fd5b50565b60008135905061354d81613527565b92915050565b600060208284031215613569576135686134f1565b5b60006135778482850161353e565b91505092915050565b60008115159050919050565b61359581613580565b82525050565b60006020820190506135b0600083018461358c565b92915050565b600081519050919050565b600082825260208201905092915050565b60005b838110156135f05780820151818401526020810190506135d5565b60008484015250505050565b6000601f19601f8301169050919050565b6000613618826135b6565b61362281856135c1565b93506136328185602086016135d2565b61363b816135fc565b840191505092915050565b60006020820190508181036000830152613660818461360d565b905092915050565b6000819050919050565b61367b81613668565b811461368657600080fd5b50565b60008135905061369881613672565b92915050565b6000602082840312156136b4576136b36134f1565b5b60006136c284828501613689565b91505092915050565b600073ffffffffffffffffffffffffffffffffffffffff82169050919050565b60006136f6826136cb565b9050919050565b613706816136eb565b82525050565b600060208201905061372160008301846136fd565b92915050565b613730816136eb565b811461373b57600080fd5b50565b60008135905061374d81613727565b92915050565b6000806040838503121561376a576137696134f1565b5b60006137788582860161373e565b925050602061378985828601613689565b9150509250929050565b61379c81613668565b82525050565b60006020820190506137b76000830184613793565b92915050565b6000806000606084860312156137d6576137d56134f1565b5b60006137e48682870161373e565b93505060206137f58682870161373e565b925050604061380686828701613689565b9150509250925092565b600080fd5b600080fd5b7f4e487b7100000000000000000000000000000000000000000000000000000000600052604160045260246000fd5b613852826135fc565b810181811067ffffffffffffffff821117156138715761387061381a565b5b80604052505050565b60006138846134e7565b90506138908282613849565b919050565b600067ffffffffffffffff8211156138b0576138af61381a565b5b6138b9826135fc565b9050602081019050919050565b82818337600083830152505050565b60006138e86138e384613895565b61387a565b90508281526020810184848401111561390457613903613815565b5b61390f8482856138c6565b509392505050565b600082601f83011261392c5761392b613810565b5b813561393c8482602086016138d5565b91505092915050565b6000806040838503121561395c5761395b6134f1565b5b600083013567ffffffffffffffff81111561397a576139796134f6565b5b61398685828601613917565b925050602061399785828601613689565b9150509250929050565b600060c0820190506139b66000830189613793565b6139c360208301886136fd565b6139d06040830187613793565b6139dd606083018661358c565b6139ea6080830185613793565b6139f760a0830184613793565b979650505050505050565b600060208284031215613a1857613a176134f1565b5b6000613a268482850161373e565b91505092915050565b6000613a3a826136cb565b9050919050565b613a4a81613a2f565b82525050565b600060a082019050613a656000830188613793565b613a726020830187613a41565b613a7f6040830186613793565b613a8c606083018561358c565b613a99608083018461358c565b9695505050505050565b613aac81613580565b8114613ab757600080fd5b50565b600081359050613ac981613aa3565b92915050565b60008060408385031215613ae657613ae56134f1565b5b6000613af48582860161373e565b9250506020613b0585828601613aba565b9150509250929050565b6000604082019050613b246000830185613793565b613b316020830184613793565b9392505050565b600067ffffffffffffffff821115613b5357613b5261381a565b5b613b5c826135fc565b9050602081019050919050565b6000613b7c613b7784613b38565b61387a565b905082815260208101848484011115613b9857613b97613815565b5b613ba38482856138c6565b509392505050565b600082601f830112613bc057613bbf613810565b5b8135613bd0848260208601613b69565b91505092915050565b60008060008060808587031215613bf357613bf26134f1565b5b6000613c018782880161373e565b9450506020613c128782880161373e565b9350506040613c2387828801613689565b925050606085013567ffffffffffffffff811115613c4457613c436134f6565b5b613c5087828801613bab565b91505092959194509250565b60008060408385031215613c7357613c726134f1565b5b6000613c8185828601613689565b9250506020613c928582860161373e565b9150509250929050565b600060e082019050613cb1600083018a613793565b613cbe60208301896136fd565b613ccb6040830188613793565b613cd8606083018761358c565b613ce5608083018661358c565b613cf260a0830185613793565b613cff60c0830184613793565b98975050505050505050565b60008060408385031215613d2257613d216134f1565b5b6000613d308582860161373e565b9250506020613d418582860161373e565b9150509250929050565b7f4e487b7100000000000000000000000000000000000000000000000000000000600052602260045260246000fd5b60006002820490506001821680613d9257607f821691505b602082108103613da557613da4613d4b565b5b50919050565b7f4552433732313a20617070726f76616c20746f2063757272656e74206f776e6560008201527f7200000000000000000000000000000000000000000000000000000000000000602082015250565b6000613e076021836135c1565b9150613e1282613dab565b604082019050919050565b60006020820190508181036000830152613e3681613dfa565b9050919050565b7f4552433732313a20617070726f76652063616c6c6572206973206e6f7420746f60008201527f6b656e206f776e6572206f7220617070726f76656420666f7220616c6c000000602082015250565b6000613e99603d836135c1565b9150613ea482613e3d565b604082019050919050565b60006020820190508181036000830152613ec881613e8c565b9050919050565b7f4552433732313a2063616c6c6572206973206e6f7420746f6b656e206f776e6560008201527f72206f7220617070726f76656400000000000000000000000000000000000000602082015250565b6000613f2b602d836135c1565b9150613f3682613ecf565b604082019050919050565b60006020820190508181036000830152613f5a81613f1e565b9050919050565b7f4e487b7100000000000000000000000000000000000000000000000000000000600052601160045260246000fd5b6000613f9b82613668565b91507fffffffffffffffffffffffffffffffffffffffffffffffffffffffffffffffff8203613fcd57613fcc613f61565b5b600182019050919050565b7f455243373231456e756d657261626c653a206f776e657220696e646578206f7560008201527f74206f6620626f756e6473000000000000000000000000000000000000000000602082015250565b6000614034602b836135c1565b915061403f82613fd8565b604082019050919050565b6000602082019050818103600083015261406381614027565b9050919050565b7f4f6e6c79204e4654206f776e6572732063616e20706572666f726d207468697360008201527f206f7065726174696f6e00000000000000000000000000000000000000000000602082015250565b60006140c6602a836135c1565b91506140d18261406a565b604082019050919050565b600060208201905081810360008301526140f5816140b9565b9050919050565b7f4974656d206e6f74206c697374656420666f722073616c650000000000000000600082015250565b60006141326018836135c1565b915061413d826140fc565b602082019050919050565b6000602082019050818103600083015261416181614125565b9050919050565b7f455243373231456e756d657261626c653a20676c6f62616c20696e646578206f60008201527f7574206f6620626f756e64730000000000000000000000000000000000000000602082015250565b60006141c4602c836135c1565b91506141cf82614168565b604082019050919050565b600060208201905081810360008301526141f3816141b7565b9050919050565b7f4e487b7100000000000000000000000000000000000000000000000000000000600052603260045260246000fd5b7f4e6f2072652d656e7472616e6379000000000000000000000000000000000000600082015250565b600061425f600e836135c1565b915061426a82614229565b602082019050919050565b6000602082019050818103600083015261428e81614252565b9050919050565b7f506c65617365207375626d6974207468652061736b696e67207072696365206960008201527f6e206f7264657220746f20636f6d706c65746520746865207075726368617365602082015250565b60006142f16040836135c1565b91506142fc82614295565b604082019050919050565b60006020820190508181036000830152614320816142e4565b9050919050565b600061433282613668565b915061433d83613668565b925082820190508082111561435557614354613f61565b5b92915050565b7f4552433732313a20696e76616c696420746f6b656e2049440000000000000000600082015250565b60006143916018836135c1565b915061439c8261435b565b602082019050919050565b600060208201905081810360008301526143c081614384565b9050919050565b7f4552433732313a2061646472657373207a65726f206973206e6f74206120766160008201527f6c6964206f776e65720000000000000000000000000000000000000000000000602082015250565b60006144236029836135c1565b915061442e826143c7565b604082019050919050565b6000602082019050818103600083015261445281614416565b9050919050565b7f4d616b652073757265207468652070726963652069736e2774206e656761746960008201527f7665000000000000000000000000000000000000000000000000000000000000602082015250565b60006144b56022836135c1565b91506144c082614459565b604082019050919050565b600060208201905081810360008301526144e4816144a8565b9050919050565b7f486f706566756c6c792073656e64696e672074686520636f727265637420707260008201527f6963650000000000000000000000000000000000000000000000000000000000602082015250565b60006145476023836135c1565b9150614552826144eb565b604082019050919050565b600060208201905081810360008301526145768161453a565b9050919050565b7f4974656d20616c7265616479206c697374656420666f722073616c6500000000600082015250565b60006145b3601c836135c1565b91506145be8261457d565b602082019050919050565b600060208201905081810360008301526145e2816145a6565b9050919050565b60006060820190506145fe60008301866136fd565b61460b6020830185613793565b614618604083018461358c565b949350505050565b7f4552433732313a207472616e736665722066726f6d20696e636f72726563742060008201527f6f776e6572000000000000000000000000000000000000000000000000000000602082015250565b600061467c6025836135c1565b915061468782614620565b604082019050919050565b600060208201905081810360008301526146ab8161466f565b9050919050565b7f4552433732313a207472616e7366657220746f20746865207a65726f2061646460008201527f7265737300000000000000000000000000000000000000000000000000000000602082015250565b600061470e6024836135c1565b9150614719826146b2565b604082019050919050565b6000602082019050818103600083015261473d81614701565b9050919050565b7f45524337323155524953746f726167653a2055524920736574206f66206e6f6e60008201527f6578697374656e7420746f6b656e000000000000000000000000000000000000602082015250565b60006147a0602e836135c1565b91506147ab82614744565b604082019050919050565b600060208201905081810360008301526147cf81614793565b9050919050565b60008190508160005260206000209050919050565b60006020601f8301049050919050565b600082821b905092915050565b6000600883026148387fffffffffffffffffffffffffffffffffffffffffffffffffffffffffffffffff826147fb565b61484286836147fb565b95508019841693508086168417925050509392505050565b6000819050919050565b600061487f61487a61487584613668565b61485a565b613668565b9050919050565b6000819050919050565b61489983614864565b6148ad6148a582614886565b848454614808565b825550505050565b600090565b6148c26148b5565b6148cd818484614890565b505050565b5b818110156148f1576148e66000826148ba565b6001810190506148d3565b5050565b601f82111561493657614907816147d6565b614910846147eb565b8101602085101561491f578190505b61493361492b856147eb565b8301826148d2565b50505b505050565b600082821c905092915050565b60006149596000198460080261493b565b1980831691505092915050565b60006149728383614948565b9150826002028217905092915050565b61498b826135b6565b67ffffffffffffffff8111156149a4576149a361381a565b5b6149ae8254613d7a565b6149b98282856148f5565b600060209050601f8311600181146149ec57600084156149da578287015190505b6149e48582614966565b865550614a4c565b601f1984166149fa866147d6565b60005b82811015614a22578489015182556001820191506020850194506020810190506149fd565b86831015614a3f5784890151614a3b601f891682614948565b8355505b6001600288020188555050505b505050505050565b7f4552433732313a20617070726f766520746f2063616c6c657200000000000000600082015250565b6000614a8a6019836135c1565b9150614a9582614a54565b602082019050919050565b60006020820190508181036000830152614ab981614a7d565b9050919050565b7f4552433732313a207472616e7366657220746f206e6f6e20455243373231526560008201527f63656976657220696d706c656d656e7465720000000000000000000000000000602082015250565b6000614b1c6032836135c1565b9150614b2782614ac0565b604082019050919050565b60006020820190508181036000830152614b4b81614b0f565b9050919050565b600081905092915050565b6000614b68826135b6565b614b728185614b52565b9350614b828185602086016135d2565b80840191505092915050565b6000614b9a8285614b5d565b9150614ba68284614b5d565b91508190509392505050565b600081519050919050565b600082825260208201905092915050565b6000614bd982614bb2565b614be38185614bbd565b9350614bf38185602086016135d2565b614bfc816135fc565b840191505092915050565b6000608082019050614c1c60008301876136fd565b614c2960208301866136fd565b614c366040830185613793565b8181036060830152614c488184614bce565b905095945050505050565b600081519050614c6281613527565b92915050565b600060208284031215614c7e57614c7d6134f1565b5b6000614c8c84828501614c53565b91505092915050565b7f455243373231456e756d657261626c653a20636f6e736563757469766520747260008201527f616e7366657273206e6f7420737570706f727465640000000000000000000000602082015250565b6000614cf16035836135c1565b9150614cfc82614c95565b604082019050919050565b60006020820190508181036000830152614d2081614ce4565b9050919050565b7f4552433732313a206d696e7420746f20746865207a65726f2061646472657373600082015250565b6000614d5d6020836135c1565b9150614d6882614d27565b602082019050919050565b60006020820190508181036000830152614d8c81614d50565b9050919050565b7f4552433732313a20746f6b656e20616c7265616479206d696e74656400000000600082015250565b6000614dc9601c836135c1565b9150614dd482614d93565b602082019050919050565b60006020820190508181036000830152614df881614dbc565b9050919050565b7f4e487b7100000000000000000000000000000000000000000000000000000000600052601260045260246000fd5b6000614e3982613668565b9150614e4483613668565b9250828203905081811115614e5c57614e5b613f61565b5b92915050565b7f4e487b7100000000000000000000000000000000000000000000000000000000600052603160045260246000fdfea26469706673582212207c25808922627d1b93f9ecc3febdc5c574536ccedc5abcf5c0ba24507f87329164736f6c63430008110033",
  "linkReferences": {},
  "deployedLinkReferences": {}
}