{
  "_format": "hh-sol-artifact-1",
  "contractName": "NFTMarketplace",
  "sourceName": "contracts/NFTMarketplace.sol",
  "abi": [
    {
      "inputs": [],
      "stateMutability": "nonpayable",
      "type": "constructor"
    },
    {
      "anonymous": false,
      "inputs": [
        {
          "indexed": true,
          "internalType": "address",
          "name": "owner",
          "type": "address"
        },
        {
          "indexed": true,
          "internalType": "address",
          "name": "approved",
          "type": "address"
        },
        {
          "indexed": true,
          "internalType": "uint256",
          "name": "tokenId",
          "type": "uint256"
        }
      ],
      "name": "Approval",
      "type": "event"
    },
    {
      "anonymous": false,
      "inputs": [
        {
          "indexed": true,
          "internalType": "address",
          "name": "owner",
          "type": "address"
        },
        {
          "indexed": true,
          "internalType": "address",
          "name": "operator",
          "type": "address"
        },
        {
          "indexed": false,
          "internalType": "bool",
          "name": "approved",
          "type": "bool"
        }
      ],
      "name": "ApprovalForAll",
      "type": "event"
    },
    {
      "anonymous": false,
      "inputs": [
        {
          "indexed": true,
          "internalType": "uint256",
          "name": "tokenId",
          "type": "uint256"
        },
        {
          "indexed": false,
          "internalType": "address",
          "name": "owner",
          "type": "address"
        },
        {
          "indexed": false,
          "internalType": "address",
          "name": "seller",
          "type": "address"
        },
        {
          "indexed": false,
          "internalType": "uint256",
          "name": "price",
          "type": "uint256"
        },
        {
          "indexed": false,
          "internalType": "bool",
          "name": "forSale",
          "type": "bool"
        }
      ],
      "name": "NFTListedSuccess",
      "type": "event"
    },
    {
      "anonymous": false,
      "inputs": [
        {
          "indexed": true,
          "internalType": "address",
          "name": "from",
          "type": "address"
        },
        {
          "indexed": true,
          "internalType": "address",
          "name": "to",
          "type": "address"
        },
        {
          "indexed": true,
          "internalType": "uint256",
          "name": "tokenId",
          "type": "uint256"
        }
      ],
      "name": "Transfer",
      "type": "event"
    },
    {
      "inputs": [
        {
          "internalType": "address",
          "name": "to",
          "type": "address"
        },
        {
          "internalType": "uint256",
          "name": "tokenId",
          "type": "uint256"
        }
      ],
      "name": "approve",
      "outputs": [],
      "stateMutability": "nonpayable",
      "type": "function"
    },
    {
      "inputs": [
        {
          "internalType": "address",
          "name": "owner",
          "type": "address"
        }
      ],
      "name": "balanceOf",
      "outputs": [
        {
          "internalType": "uint256",
          "name": "",
          "type": "uint256"
        }
      ],
      "stateMutability": "view",
      "type": "function"
    },
    {
      "inputs": [
        {
          "internalType": "uint256",
          "name": "tokenId",
          "type": "uint256"
        }
      ],
      "name": "buyNFT",
      "outputs": [],
      "stateMutability": "payable",
      "type": "function"
    },
    {
      "inputs": [
        {
          "internalType": "uint256",
          "name": "tokenId",
          "type": "uint256"
        }
      ],
      "name": "cancel",
      "outputs": [],
      "stateMutability": "nonpayable",
      "type": "function"
    },
    {
      "inputs": [
        {
          "internalType": "string",
          "name": "NFTURI",
          "type": "string"
        },
        {
          "internalType": "uint256",
          "name": "price",
          "type": "uint256"
        }
      ],
      "name": "createNFT",
      "outputs": [
        {
          "internalType": "uint256",
          "name": "",
          "type": "uint256"
        }
      ],
      "stateMutability": "payable",
      "type": "function"
    },
    {
      "inputs": [
        {
          "internalType": "uint256",
          "name": "tokenId",
          "type": "uint256"
        }
      ],
      "name": "getApproved",
      "outputs": [
        {
          "internalType": "address",
          "name": "",
          "type": "address"
        }
      ],
      "stateMutability": "view",
      "type": "function"
    },
    {
      "inputs": [],
      "name": "getListPrice",
      "outputs": [
        {
          "internalType": "uint256",
          "name": "",
          "type": "uint256"
        }
      ],
      "stateMutability": "view",
      "type": "function"
    },
    {
      "inputs": [
        {
          "internalType": "uint256",
          "name": "_index",
          "type": "uint256"
        },
        {
          "internalType": "address",
          "name": "_callerAddress",
          "type": "address"
        }
      ],
      "name": "getMyNFTs",
      "outputs": [
        {
          "internalType": "uint256",
          "name": "_NFTId",
          "type": "uint256"
        },
        {
          "internalType": "address",
          "name": "_owner",
          "type": "address"
        },
        {
          "internalType": "address",
          "name": "_seller",
          "type": "address"
        },
        {
          "internalType": "uint256",
          "name": "_price",
          "type": "uint256"
        },
        {
          "internalType": "bool",
          "name": "_forSale",
          "type": "bool"
        }
      ],
      "stateMutability": "view",
      "type": "function"
    },
    {
      "inputs": [
        {
          "internalType": "uint256",
          "name": "NFTId",
          "type": "uint256"
        }
      ],
      "name": "getNFT",
      "outputs": [
        {
          "internalType": "uint256",
          "name": "_NFTId",
          "type": "uint256"
        },
        {
          "internalType": "address",
          "name": "_owner",
          "type": "address"
        },
        {
          "internalType": "address",
          "name": "_seller",
          "type": "address"
        },
        {
          "internalType": "uint256",
          "name": "_price",
          "type": "uint256"
        },
        {
          "internalType": "bool",
          "name": "_forSale",
          "type": "bool"
        },
        {
          "internalType": "uint256",
          "name": "_sales",
          "type": "uint256"
        },
        {
          "internalType": "uint256",
          "name": "_earnings",
          "type": "uint256"
        }
      ],
      "stateMutability": "view",
      "type": "function"
    },
    {
      "inputs": [],
      "name": "getNFTCount",
      "outputs": [
        {
          "internalType": "uint256",
          "name": "",
          "type": "uint256"
        }
      ],
      "stateMutability": "view",
      "type": "function"
    },
    {
      "inputs": [
        {
          "internalType": "address",
          "name": "owner",
          "type": "address"
        },
        {
          "internalType": "address",
          "name": "operator",
          "type": "address"
        }
      ],
      "name": "isApprovedForAll",
      "outputs": [
        {
          "internalType": "bool",
          "name": "",
          "type": "bool"
        }
      ],
      "stateMutability": "view",
      "type": "function"
    },
    {
      "inputs": [],
      "name": "name",
      "outputs": [
        {
          "internalType": "string",
          "name": "",
          "type": "string"
        }
      ],
      "stateMutability": "view",
      "type": "function"
    },
    {
      "inputs": [
        {
          "internalType": "uint256",
          "name": "tokenId",
          "type": "uint256"
        }
      ],
      "name": "ownerOf",
      "outputs": [
        {
          "internalType": "address",
          "name": "",
          "type": "address"
        }
      ],
      "stateMutability": "view",
      "type": "function"
    },
    {
      "inputs": [
        {
          "internalType": "address",
          "name": "from",
          "type": "address"
        },
        {
          "internalType": "address",
          "name": "to",
          "type": "address"
        },
        {
          "internalType": "uint256",
          "name": "tokenId",
          "type": "uint256"
        }
      ],
      "name": "safeTransferFrom",
      "outputs": [],
      "stateMutability": "nonpayable",
      "type": "function"
    },
    {
      "inputs": [
        {
          "internalType": "address",
          "name": "from",
          "type": "address"
        },
        {
          "internalType": "address",
          "name": "to",
          "type": "address"
        },
        {
          "internalType": "uint256",
          "name": "tokenId",
          "type": "uint256"
        },
        {
          "internalType": "bytes",
          "name": "data",
          "type": "bytes"
        }
      ],
      "name": "safeTransferFrom",
      "outputs": [],
      "stateMutability": "nonpayable",
      "type": "function"
    },
    {
      "inputs": [
        {
          "internalType": "uint256",
          "name": "tokenId",
          "type": "uint256"
        }
      ],
      "name": "saleNFT",
      "outputs": [],
      "stateMutability": "nonpayable",
      "type": "function"
    },
    {
      "inputs": [
        {
          "internalType": "address",
          "name": "",
          "type": "address"
        }
      ],
      "name": "sellerExist",
      "outputs": [
        {
          "internalType": "bool",
          "name": "",
          "type": "bool"
        }
      ],
      "stateMutability": "view",
      "type": "function"
    },
    {
      "inputs": [
        {
          "internalType": "address",
          "name": "operator",
          "type": "address"
        },
        {
          "internalType": "bool",
          "name": "approved",
          "type": "bool"
        }
      ],
      "name": "setApprovalForAll",
      "outputs": [],
      "stateMutability": "nonpayable",
      "type": "function"
    },
    {
      "inputs": [
        {
          "internalType": "bytes4",
          "name": "interfaceId",
          "type": "bytes4"
        }
      ],
      "name": "supportsInterface",
      "outputs": [
        {
          "internalType": "bool",
          "name": "",
          "type": "bool"
        }
      ],
      "stateMutability": "view",
      "type": "function"
    },
    {
      "inputs": [],
      "name": "symbol",
      "outputs": [
        {
          "internalType": "string",
          "name": "",
          "type": "string"
        }
      ],
      "stateMutability": "view",
      "type": "function"
    },
    {
      "inputs": [
        {
          "internalType": "uint256",
          "name": "index",
          "type": "uint256"
        }
      ],
      "name": "tokenByIndex",
      "outputs": [
        {
          "internalType": "uint256",
          "name": "",
          "type": "uint256"
        }
      ],
      "stateMutability": "view",
      "type": "function"
    },
    {
      "inputs": [
        {
          "internalType": "address",
          "name": "owner",
          "type": "address"
        },
        {
          "internalType": "uint256",
          "name": "index",
          "type": "uint256"
        }
      ],
      "name": "tokenOfOwnerByIndex",
      "outputs": [
        {
          "internalType": "uint256",
          "name": "",
          "type": "uint256"
        }
      ],
      "stateMutability": "view",
      "type": "function"
    },
    {
      "inputs": [
        {
          "internalType": "uint256",
          "name": "tokenId",
          "type": "uint256"
        }
      ],
      "name": "tokenURI",
      "outputs": [
        {
          "internalType": "string",
          "name": "",
          "type": "string"
        }
      ],
      "stateMutability": "view",
      "type": "function"
    },
    {
      "inputs": [],
      "name": "totalSupply",
      "outputs": [
        {
          "internalType": "uint256",
          "name": "",
          "type": "uint256"
        }
      ],
      "stateMutability": "view",
      "type": "function"
    },
    {
      "inputs": [
        {
          "internalType": "address",
          "name": "from",
          "type": "address"
        },
        {
          "internalType": "address",
          "name": "to",
          "type": "address"
        },
        {
          "internalType": "uint256",
          "name": "tokenId",
          "type": "uint256"
        }
      ],
      "name": "transferFrom",
      "outputs": [],
      "stateMutability": "nonpayable",
      "type": "function"
    },
    {
      "inputs": [
        {
          "internalType": "uint256",
          "name": "_listPrice",
          "type": "uint256"
        }
      ],
      "name": "updateListPrice",
      "outputs": [],
      "stateMutability": "payable",
      "type": "function"
    }
  ],
  "bytecode": "0x6080604052662386f26fc10000600e553480156200001c57600080fd5b506040518060400160405280601681526020017f4172746973616e734e46544d61726b6574706c616365000000000000000000008152506040518060400160405280600681526020017f414e544d4b54000000000000000000000000000000000000000000000000000081525081600090816200009a919062000370565b508060019081620000ac919062000370565b50505033600d60006101000a81548173ffffffffffffffffffffffffffffffffffffffff021916908373ffffffffffffffffffffffffffffffffffffffff16021790555062000457565b600081519050919050565b7f4e487b7100000000000000000000000000000000000000000000000000000000600052604160045260246000fd5b7f4e487b7100000000000000000000000000000000000000000000000000000000600052602260045260246000fd5b600060028204905060018216806200017857607f821691505b6020821081036200018e576200018d62000130565b5b50919050565b60008190508160005260206000209050919050565b60006020601f8301049050919050565b600082821b905092915050565b600060088302620001f87fffffffffffffffffffffffffffffffffffffffffffffffffffffffffffffffff82620001b9565b620002048683620001b9565b95508019841693508086168417925050509392505050565b6000819050919050565b6000819050919050565b6000620002516200024b62000245846200021c565b62000226565b6200021c565b9050919050565b6000819050919050565b6200026d8362000230565b620002856200027c8262000258565b848454620001c6565b825550505050565b600090565b6200029c6200028d565b620002a981848462000262565b505050565b5b81811015620002d157620002c560008262000292565b600181019050620002af565b5050565b601f8211156200032057620002ea8162000194565b620002f584620001a9565b8101602085101562000305578190505b6200031d6200031485620001a9565b830182620002ae565b50505b505050565b600082821c905092915050565b6000620003456000198460080262000325565b1980831691505092915050565b600062000360838362000332565b9150826002028217905092915050565b6200037b82620000f6565b67ffffffffffffffff81111562000397576200039662000101565b5b620003a382546200015f565b620003b0828285620002d5565b600060209050601f831160018114620003e85760008415620003d3578287015190505b620003df858262000352565b8655506200044f565b601f198416620003f88662000194565b60005b828110156200042257848901518255600182019150602085019450602081019050620003fb565b868310156200044257848901516200043e601f89168262000332565b8355505b6001600288020188555050505b505050505050565b61497480620004676000396000f3fe6080604052600436106101815760003560e01c8063576f7ea7116100d1578063a22cb4651161008a578063c322579c11610064578063c322579c146105b6578063c87b56dd146105d2578063cf3902321461060f578063e985e9c51461065057610181565b8063a22cb46514610527578063a55ed17314610550578063b88d4fde1461058d57610181565b8063576f7ea7146103eb5780636352211e1461042e57806368f1945f1461046b57806370a0823114610496578063848f37c6146104d357806395d89b41146104fc57610181565b8063268291551161013e57806342842e0e1161011857806342842e0e1461033e5780634f6ccce71461036757806351ed8288146103a457806354279637146103c057610181565b806326829155146102a85780632f745c59146102d857806340e58ee51461031557610181565b806301ffc9a71461018657806306fdde03146101c3578063081812fc146101ee578063095ea7b31461022b57806318160ddd1461025457806323b872dd1461027f575b600080fd5b34801561019257600080fd5b506101ad60048036038101906101a89190613077565b61068d565b6040516101ba91906130bf565b60405180910390f35b3480156101cf57600080fd5b506101d861069f565b6040516101e5919061316a565b60405180910390f35b3480156101fa57600080fd5b50610215600480360381019061021091906131c2565b610731565b6040516102229190613230565b60405180910390f35b34801561023757600080fd5b50610252600480360381019061024d9190613277565b610777565b005b34801561026057600080fd5b5061026961088e565b60405161027691906132c6565b60405180910390f35b34801561028b57600080fd5b506102a660048036038101906102a191906132e1565b61089b565b005b6102c260048036038101906102bd9190613469565b6108fb565b6040516102cf91906132c6565b60405180910390f35b3480156102e457600080fd5b506102ff60048036038101906102fa9190613277565b610abf565b60405161030c91906132c6565b60405180910390f35b34801561032157600080fd5b5061033c600480360381019061033791906131c2565b610b64565b005b34801561034a57600080fd5b50610365600480360381019061036091906132e1565b610c91565b005b34801561037357600080fd5b5061038e600480360381019061038991906131c2565b610cb1565b60405161039b91906132c6565b60405180910390f35b6103be60048036038101906103b991906131c2565b610d22565b005b3480156103cc57600080fd5b506103d5610f53565b6040516103e291906132c6565b60405180910390f35b3480156103f757600080fd5b50610412600480360381019061040d91906131c2565b610f64565b60405161042597969594939291906134c5565b60405180910390f35b34801561043a57600080fd5b50610455600480360381019061045091906131c2565b61110f565b6040516104629190613230565b60405180910390f35b34801561047757600080fd5b50610480611195565b60405161048d91906132c6565b60405180910390f35b3480156104a257600080fd5b506104bd60048036038101906104b89190613534565b61119f565b6040516104ca91906132c6565b60405180910390f35b3480156104df57600080fd5b506104fa60048036038101906104f591906131c2565b611256565b005b34801561050857600080fd5b506105116113ee565b60405161051e919061316a565b60405180910390f35b34801561053357600080fd5b5061054e6004803603810190610549919061358d565b611480565b005b34801561055c57600080fd5b5061057760048036038101906105729190613534565b611496565b60405161058491906130bf565b60405180910390f35b34801561059957600080fd5b506105b460048036038101906105af919061366e565b6114b6565b005b6105d060048036038101906105cb91906131c2565b611518565b005b3480156105de57600080fd5b506105f960048036038101906105f491906131c2565b6115b2565b604051610606919061316a565b60405180910390f35b34801561061b57600080fd5b50610636600480360381019061063191906136f1565b6115c4565b604051610647959493929190613731565b60405180910390f35b34801561065c57600080fd5b5061067760048036038101906106729190613784565b6116a9565b60405161068491906130bf565b60405180910390f35b60006106988261173d565b9050919050565b6060600080546106ae906137f3565b80601f01602080910402602001604051908101604052809291908181526020018280546106da906137f3565b80156107275780601f106106fc57610100808354040283529160200191610727565b820191906000526020600020905b81548152906001019060200180831161070a57829003601f168201915b5050505050905090565b600061073c826117b7565b6004600083815260200190815260200160002060009054906101000a900473ffffffffffffffffffffffffffffffffffffffff169050919050565b60006107828261110f565b90508073ffffffffffffffffffffffffffffffffffffffff168373ffffffffffffffffffffffffffffffffffffffff16036107f2576040517f08c379a00000000000000000000000000000000000000000000000000000000081526004016107e990613896565b60405180910390fd5b8073ffffffffffffffffffffffffffffffffffffffff16610811611802565b73ffffffffffffffffffffffffffffffffffffffff161480610840575061083f8161083a611802565b6116a9565b5b61087f576040517f08c379a000000000000000000000000000000000000000000000000000000000815260040161087690613928565b60405180910390fd5b610889838361180a565b505050565b6000600880549050905090565b6108ac6108a6611802565b826118c3565b6108eb576040517f08c379a00000000000000000000000000000000000000000000000000000000081526004016108e2906139ba565b60405180910390fd5b6108f6838383611958565b505050565b6000610907600b611c51565b6000610913600b611c67565b905061091f3382611c75565b6109298185611c93565b6109338184611d00565b601060003373ffffffffffffffffffffffffffffffffffffffff1673ffffffffffffffffffffffffffffffffffffffff1681526020019081526020016000206040518060a001604052808381526020013073ffffffffffffffffffffffffffffffffffffffff1681526020013373ffffffffffffffffffffffffffffffffffffffff1681526020018581526020016000151581525090806001815401808255809150506001900390600052602060002090600502016000909190919091506000820151816000015560208201518160010160006101000a81548173ffffffffffffffffffffffffffffffffffffffff021916908373ffffffffffffffffffffffffffffffffffffffff16021790555060408201518160020160006101000a81548173ffffffffffffffffffffffffffffffffffffffff021916908373ffffffffffffffffffffffffffffffffffffffff1602179055506060820151816003015560808201518160040160006101000a81548160ff02191690831515021790555050508091505092915050565b6000610aca8361119f565b8210610b0b576040517f08c379a0000000000000000000000000000000000000000000000000000000008152600401610b0290613a4c565b60405180910390fd5b600660008473ffffffffffffffffffffffffffffffffffffffff1673ffffffffffffffffffffffffffffffffffffffff168152602001908152602001600020600083815260200190815260200160002054905092915050565b6000600f600083815260200190815260200160002090503373ffffffffffffffffffffffffffffffffffffffff168160020160009054906101000a900473ffffffffffffffffffffffffffffffffffffffff1673ffffffffffffffffffffffffffffffffffffffff1614610c0d576040517f08c379a0000000000000000000000000000000000000000000000000000000008152600401610c0490613ade565b60405180910390fd5b600115158160040160009054906101000a900460ff16151514610c65576040517f08c379a0000000000000000000000000000000000000000000000000000000008152600401610c5c90613b4a565b60405180910390fd5b610c70303384611958565b60008160040160006101000a81548160ff0219169083151502179055505050565b610cac838383604051806020016040528060008152506114b6565b505050565b6000610cbb61088e565b8210610cfc576040517f08c379a0000000000000000000000000000000000000000000000000000000008152600401610cf390613bdc565b60405180910390fd5b60088281548110610d1057610d0f613bfc565b5b90600052602060002001549050919050565b6000600f60008381526020019081526020016000206003015490506000600f600084815260200190815260200160002060020160009054906101000a900473ffffffffffffffffffffffffffffffffffffffff169050813414610dba576040517f08c379a0000000000000000000000000000000000000000000000000000000008152600401610db190613c9d565b60405180910390fd5b33600f600085815260200190815260200160002060020160006101000a81548173ffffffffffffffffffffffffffffffffffffffff021916908373ffffffffffffffffffffffffffffffffffffffff160217905550610e19600c611c51565b610e233384610777565b600d60009054906101000a900473ffffffffffffffffffffffffffffffffffffffff1673ffffffffffffffffffffffffffffffffffffffff166108fc600e549081150290604051600060405180830381858888f19350505050158015610e8d573d6000803e3d6000fd5b508073ffffffffffffffffffffffffffffffffffffffff166108fc349081150290604051600060405180830381858888f19350505050158015610ed4573d6000803e3d6000fd5b506000601160008373ffffffffffffffffffffffffffffffffffffffff1673ffffffffffffffffffffffffffffffffffffffff1681526020019081526020016000209050806000016000815480929190610f2d90613cec565b919050555082816001016000828254610f469190613d34565b9250508190555050505050565b6000610f5f600b611c67565b905090565b600080600080600080600080600f60008a81526020019081526020016000206040518060a0016040529081600082015481526020016001820160009054906101000a900473ffffffffffffffffffffffffffffffffffffffff1673ffffffffffffffffffffffffffffffffffffffff1673ffffffffffffffffffffffffffffffffffffffff1681526020016002820160009054906101000a900473ffffffffffffffffffffffffffffffffffffffff1673ffffffffffffffffffffffffffffffffffffffff1673ffffffffffffffffffffffffffffffffffffffff168152602001600382015481526020016004820160009054906101000a900460ff1615151515815250509050600060116000836040015173ffffffffffffffffffffffffffffffffffffffff1673ffffffffffffffffffffffffffffffffffffffff168152602001908152602001600020604051806040016040529081600082015481526020016001820154815250509050816000015182602001518360400151846060015185608001518560000151866020015198509850985098509850985098505050919395979092949650565b60008061111b83611f03565b9050600073ffffffffffffffffffffffffffffffffffffffff168173ffffffffffffffffffffffffffffffffffffffff160361118c576040517f08c379a000000000000000000000000000000000000000000000000000000000815260040161118390613db4565b60405180910390fd5b80915050919050565b6000600e54905090565b60008073ffffffffffffffffffffffffffffffffffffffff168273ffffffffffffffffffffffffffffffffffffffff160361120f576040517f08c379a000000000000000000000000000000000000000000000000000000000815260040161120690613e46565b60405180910390fd5b600360008373ffffffffffffffffffffffffffffffffffffffff1673ffffffffffffffffffffffffffffffffffffffff168152602001908152602001600020549050919050565b6000600f600083815260200190815260200160002090503373ffffffffffffffffffffffffffffffffffffffff168160020160009054906101000a900473ffffffffffffffffffffffffffffffffffffffff1673ffffffffffffffffffffffffffffffffffffffff16146112ff576040517f08c379a00000000000000000000000000000000000000000000000000000000081526004016112f690613ade565b60405180910390fd5b600015158160040160009054906101000a900460ff16151514611357576040517f08c379a000000000000000000000000000000000000000000000000000000000815260040161134e90613eb2565b60405180910390fd5b600d60009054906101000a900473ffffffffffffffffffffffffffffffffffffffff1673ffffffffffffffffffffffffffffffffffffffff166108fc600e549081150290604051600060405180830381858888f193505050501580156113c1573d6000803e3d6000fd5b506113cd333084611958565b60018160040160006101000a81548160ff0219169083151502179055505050565b6060600180546113fd906137f3565b80601f0160208091040260200160405190810160405280929190818152602001828054611429906137f3565b80156114765780601f1061144b57610100808354040283529160200191611476565b820191906000526020600020905b81548152906001019060200180831161145957829003601f168201915b5050505050905090565b61149261148b611802565b8383611f40565b5050565b60126020528060005260406000206000915054906101000a900460ff1681565b6114c76114c1611802565b836118c3565b611506576040517f08c379a00000000000000000000000000000000000000000000000000000000081526004016114fd906139ba565b60405180910390fd5b611512848484846120ac565b50505050565b3373ffffffffffffffffffffffffffffffffffffffff16600d60009054906101000a900473ffffffffffffffffffffffffffffffffffffffff1673ffffffffffffffffffffffffffffffffffffffff16146115a8576040517f08c379a000000000000000000000000000000000000000000000000000000000815260040161159f90613f44565b60405180910390fd5b80600e8190555050565b60606115bd82612108565b9050919050565b600080600080600080601060008873ffffffffffffffffffffffffffffffffffffffff1673ffffffffffffffffffffffffffffffffffffffff168152602001908152602001600020888154811061161e5761161d613bfc565b5b9060005260206000209060050201905080600001548160010160009054906101000a900473ffffffffffffffffffffffffffffffffffffffff168260020160009054906101000a900473ffffffffffffffffffffffffffffffffffffffff1683600301548460040160009054906101000a900460ff1695509550955095509550509295509295909350565b6000600560008473ffffffffffffffffffffffffffffffffffffffff1673ffffffffffffffffffffffffffffffffffffffff16815260200190815260200160002060008373ffffffffffffffffffffffffffffffffffffffff1673ffffffffffffffffffffffffffffffffffffffff16815260200190815260200160002060009054906101000a900460ff16905092915050565b60007f780e9d63000000000000000000000000000000000000000000000000000000007bffffffffffffffffffffffffffffffffffffffffffffffffffffffff1916827bffffffffffffffffffffffffffffffffffffffffffffffffffffffff191614806117b057506117af8261221a565b5b9050919050565b6117c0816122fc565b6117ff576040517f08c379a00000000000000000000000000000000000000000000000000000000081526004016117f690613db4565b60405180910390fd5b50565b600033905090565b816004600083815260200190815260200160002060006101000a81548173ffffffffffffffffffffffffffffffffffffffff021916908373ffffffffffffffffffffffffffffffffffffffff160217905550808273ffffffffffffffffffffffffffffffffffffffff1661187d8361110f565b73ffffffffffffffffffffffffffffffffffffffff167f8c5be1e5ebec7d5bd14f71427d1e84f3dd0314c0f7b2291e5b200ac8c7c3b92560405160405180910390a45050565b6000806118cf8361110f565b90508073ffffffffffffffffffffffffffffffffffffffff168473ffffffffffffffffffffffffffffffffffffffff161480611911575061191081856116a9565b5b8061194f57508373ffffffffffffffffffffffffffffffffffffffff1661193784610731565b73ffffffffffffffffffffffffffffffffffffffff16145b91505092915050565b8273ffffffffffffffffffffffffffffffffffffffff166119788261110f565b73ffffffffffffffffffffffffffffffffffffffff16146119ce576040517f08c379a00000000000000000000000000000000000000000000000000000000081526004016119c590613fd6565b60405180910390fd5b600073ffffffffffffffffffffffffffffffffffffffff168273ffffffffffffffffffffffffffffffffffffffff1603611a3d576040517f08c379a0000000000000000000000000000000000000000000000000000000008152600401611a3490614068565b60405180910390fd5b611a4a838383600161233d565b8273ffffffffffffffffffffffffffffffffffffffff16611a6a8261110f565b73ffffffffffffffffffffffffffffffffffffffff1614611ac0576040517f08c379a0000000000000000000000000000000000000000000000000000000008152600401611ab790613fd6565b60405180910390fd5b6004600082815260200190815260200160002060006101000a81549073ffffffffffffffffffffffffffffffffffffffff02191690556001600360008573ffffffffffffffffffffffffffffffffffffffff1673ffffffffffffffffffffffffffffffffffffffff168152602001908152602001600020600082825403925050819055506001600360008473ffffffffffffffffffffffffffffffffffffffff1673ffffffffffffffffffffffffffffffffffffffff16815260200190815260200160002060008282540192505081905550816002600083815260200190815260200160002060006101000a81548173ffffffffffffffffffffffffffffffffffffffff021916908373ffffffffffffffffffffffffffffffffffffffff160217905550808273ffffffffffffffffffffffffffffffffffffffff168473ffffffffffffffffffffffffffffffffffffffff167fddf252ad1be2c89b69c2b068fc378daa952ba7f163c4a11628f55a4df523b3ef60405160405180910390a4611c4c838383600161234f565b505050565b6001816000016000828254019250508190555050565b600081600001549050919050565b611c8f828260405180602001604052806000815250612355565b5050565b611c9c826122fc565b611cdb576040517f08c379a0000000000000000000000000000000000000000000000000000000008152600401611cd2906140fa565b60405180910390fd5b80600a60008481526020019081526020016000209081611cfb91906142c6565b505050565b600e543414611d44576040517f08c379a0000000000000000000000000000000000000000000000000000000008152600401611d3b9061440a565b60405180910390fd5b60008111611d87576040517f08c379a0000000000000000000000000000000000000000000000000000000008152600401611d7e9061449c565b60405180910390fd5b6040518060a001604052808381526020013073ffffffffffffffffffffffffffffffffffffffff1681526020013373ffffffffffffffffffffffffffffffffffffffff16815260200182815260200160011515815250600f60008481526020019081526020016000206000820151816000015560208201518160010160006101000a81548173ffffffffffffffffffffffffffffffffffffffff021916908373ffffffffffffffffffffffffffffffffffffffff16021790555060408201518160020160006101000a81548173ffffffffffffffffffffffffffffffffffffffff021916908373ffffffffffffffffffffffffffffffffffffffff1602179055506060820151816003015560808201518160040160006101000a81548160ff021916908315150217905550905050611ec0333084611958565b817faf3679aa048f33d719e7f919c27adf518151bd48166ce2531710cfe40bc7bb863033846001604051611ef794939291906144bc565b60405180910390a25050565b60006002600083815260200190815260200160002060009054906101000a900473ffffffffffffffffffffffffffffffffffffffff169050919050565b8173ffffffffffffffffffffffffffffffffffffffff168373ffffffffffffffffffffffffffffffffffffffff1603611fae576040517f08c379a0000000000000000000000000000000000000000000000000000000008152600401611fa59061454d565b60405180910390fd5b80600560008573ffffffffffffffffffffffffffffffffffffffff1673ffffffffffffffffffffffffffffffffffffffff16815260200190815260200160002060008473ffffffffffffffffffffffffffffffffffffffff1673ffffffffffffffffffffffffffffffffffffffff16815260200190815260200160002060006101000a81548160ff0219169083151502179055508173ffffffffffffffffffffffffffffffffffffffff168373ffffffffffffffffffffffffffffffffffffffff167f17307eab39ab6107e8899845ad3d59bd9653f200f220920489ca2b5937696c318360405161209f91906130bf565b60405180910390a3505050565b6120b7848484611958565b6120c3848484846123b0565b612102576040517f08c379a00000000000000000000000000000000000000000000000000000000081526004016120f9906145df565b60405180910390fd5b50505050565b6060612113826117b7565b6000600a60008481526020019081526020016000208054612133906137f3565b80601f016020809104026020016040519081016040528092919081815260200182805461215f906137f3565b80156121ac5780601f10612181576101008083540402835291602001916121ac565b820191906000526020600020905b81548152906001019060200180831161218f57829003601f168201915b5050505050905060006121bd612537565b905060008151036121d2578192505050612215565b6000825111156122075780826040516020016121ef92919061463b565b60405160208183030381529060405292505050612215565b6122108461254e565b925050505b919050565b60007f80ac58cd000000000000000000000000000000000000000000000000000000007bffffffffffffffffffffffffffffffffffffffffffffffffffffffff1916827bffffffffffffffffffffffffffffffffffffffffffffffffffffffff191614806122e557507f5b5e139f000000000000000000000000000000000000000000000000000000007bffffffffffffffffffffffffffffffffffffffffffffffffffffffff1916827bffffffffffffffffffffffffffffffffffffffffffffffffffffffff1916145b806122f557506122f4826125b6565b5b9050919050565b60008073ffffffffffffffffffffffffffffffffffffffff1661231e83611f03565b73ffffffffffffffffffffffffffffffffffffffff1614159050919050565b61234984848484612620565b50505050565b50505050565b61235f838361277e565b61236c60008484846123b0565b6123ab576040517f08c379a00000000000000000000000000000000000000000000000000000000081526004016123a2906145df565b60405180910390fd5b505050565b60006123d18473ffffffffffffffffffffffffffffffffffffffff1661299b565b1561252a578373ffffffffffffffffffffffffffffffffffffffff1663150b7a026123fa611802565b8786866040518563ffffffff1660e01b815260040161241c94939291906146b4565b6020604051808303816000875af192505050801561245857506040513d601f19601f820116820180604052508101906124559190614715565b60015b6124da573d8060008114612488576040519150601f19603f3d011682016040523d82523d6000602084013e61248d565b606091505b5060008151036124d2576040517f08c379a00000000000000000000000000000000000000000000000000000000081526004016124c9906145df565b60405180910390fd5b805181602001fd5b63150b7a0260e01b7bffffffffffffffffffffffffffffffffffffffffffffffffffffffff1916817bffffffffffffffffffffffffffffffffffffffffffffffffffffffff19161491505061252f565b600190505b949350505050565b606060405180602001604052806000815250905090565b6060612559826117b7565b6000612563612537565b9050600081511161258357604051806020016040528060008152506125ae565b8061258d846129be565b60405160200161259e92919061463b565b6040516020818303038152906040525b915050919050565b60007f01ffc9a7000000000000000000000000000000000000000000000000000000007bffffffffffffffffffffffffffffffffffffffffffffffffffffffff1916827bffffffffffffffffffffffffffffffffffffffffffffffffffffffff1916149050919050565b61262c84848484612a8c565b6001811115612670576040517f08c379a0000000000000000000000000000000000000000000000000000000008152600401612667906147b4565b60405180910390fd5b6000829050600073ffffffffffffffffffffffffffffffffffffffff168573ffffffffffffffffffffffffffffffffffffffff16036126b7576126b281612bb2565b6126f6565b8373ffffffffffffffffffffffffffffffffffffffff168573ffffffffffffffffffffffffffffffffffffffff16146126f5576126f48582612bfb565b5b5b600073ffffffffffffffffffffffffffffffffffffffff168473ffffffffffffffffffffffffffffffffffffffff16036127385761273381612d68565b612777565b8473ffffffffffffffffffffffffffffffffffffffff168473ffffffffffffffffffffffffffffffffffffffff1614612776576127758482612e39565b5b5b5050505050565b600073ffffffffffffffffffffffffffffffffffffffff168273ffffffffffffffffffffffffffffffffffffffff16036127ed576040517f08c379a00000000000000000000000000000000000000000000000000000000081526004016127e490614820565b60405180910390fd5b6127f6816122fc565b15612836576040517f08c379a000000000000000000000000000000000000000000000000000000000815260040161282d9061488c565b60405180910390fd5b61284460008383600161233d565b61284d816122fc565b1561288d576040517f08c379a00000000000000000000000000000000000000000000000000000000081526004016128849061488c565b60405180910390fd5b6001600360008473ffffffffffffffffffffffffffffffffffffffff1673ffffffffffffffffffffffffffffffffffffffff16815260200190815260200160002060008282540192505081905550816002600083815260200190815260200160002060006101000a81548173ffffffffffffffffffffffffffffffffffffffff021916908373ffffffffffffffffffffffffffffffffffffffff160217905550808273ffffffffffffffffffffffffffffffffffffffff16600073ffffffffffffffffffffffffffffffffffffffff167fddf252ad1be2c89b69c2b068fc378daa952ba7f163c4a11628f55a4df523b3ef60405160405180910390a461299760008383600161234f565b5050565b6000808273ffffffffffffffffffffffffffffffffffffffff163b119050919050565b6060600060016129cd84612eb8565b01905060008167ffffffffffffffff8111156129ec576129eb61333e565b5b6040519080825280601f01601f191660200182016040528015612a1e5781602001600182028036833780820191505090505b509050600082602001820190505b600115612a81578080600190039150507f3031323334353637383961626364656600000000000000000000000000000000600a86061a8153600a8581612a7557612a746148ac565b5b04945060008503612a2c575b819350505050919050565b6001811115612bac57600073ffffffffffffffffffffffffffffffffffffffff168473ffffffffffffffffffffffffffffffffffffffff1614612b205780600360008673ffffffffffffffffffffffffffffffffffffffff1673ffffffffffffffffffffffffffffffffffffffff1681526020019081526020016000206000828254612b1891906148db565b925050819055505b600073ffffffffffffffffffffffffffffffffffffffff168373ffffffffffffffffffffffffffffffffffffffff1614612bab5780600360008573ffffffffffffffffffffffffffffffffffffffff1673ffffffffffffffffffffffffffffffffffffffff1681526020019081526020016000206000828254612ba39190613d34565b925050819055505b5b50505050565b6008805490506009600083815260200190815260200160002081905550600881908060018154018082558091505060019003906000526020600020016000909190919091505550565b60006001612c088461119f565b612c1291906148db565b9050600060076000848152602001908152602001600020549050818114612cf7576000600660008673ffffffffffffffffffffffffffffffffffffffff1673ffffffffffffffffffffffffffffffffffffffff168152602001908152602001600020600084815260200190815260200160002054905080600660008773ffffffffffffffffffffffffffffffffffffffff1673ffffffffffffffffffffffffffffffffffffffff168152602001908152602001600020600084815260200190815260200160002081905550816007600083815260200190815260200160002081905550505b6007600084815260200190815260200160002060009055600660008573ffffffffffffffffffffffffffffffffffffffff1673ffffffffffffffffffffffffffffffffffffffff16815260200190815260200160002060008381526020019081526020016000206000905550505050565b60006001600880549050612d7c91906148db565b9050600060096000848152602001908152602001600020549050600060088381548110612dac57612dab613bfc565b5b906000526020600020015490508060088381548110612dce57612dcd613bfc565b5b906000526020600020018190555081600960008381526020019081526020016000208190555060096000858152602001908152602001600020600090556008805480612e1d57612e1c61490f565b5b6001900381819060005260206000200160009055905550505050565b6000612e448361119f565b905081600660008573ffffffffffffffffffffffffffffffffffffffff1673ffffffffffffffffffffffffffffffffffffffff168152602001908152602001600020600083815260200190815260200160002081905550806007600084815260200190815260200160002081905550505050565b600080600090507a184f03e93ff9f4daa797ed6e38ed64bf6a1f0100000000000000008310612f16577a184f03e93ff9f4daa797ed6e38ed64bf6a1f0100000000000000008381612f0c57612f0b6148ac565b5b0492506040810190505b6d04ee2d6d415b85acef81000000008310612f53576d04ee2d6d415b85acef81000000008381612f4957612f486148ac565b5b0492506020810190505b662386f26fc100008310612f8257662386f26fc100008381612f7857612f776148ac565b5b0492506010810190505b6305f5e1008310612fab576305f5e1008381612fa157612fa06148ac565b5b0492506008810190505b6127108310612fd0576127108381612fc657612fc56148ac565b5b0492506004810190505b60648310612ff35760648381612fe957612fe86148ac565b5b0492506002810190505b600a8310613002576001810190505b80915050919050565b6000604051905090565b600080fd5b600080fd5b60007fffffffff0000000000000000000000000000000000000000000000000000000082169050919050565b6130548161301f565b811461305f57600080fd5b50565b6000813590506130718161304b565b92915050565b60006020828403121561308d5761308c613015565b5b600061309b84828501613062565b91505092915050565b60008115159050919050565b6130b9816130a4565b82525050565b60006020820190506130d460008301846130b0565b92915050565b600081519050919050565b600082825260208201905092915050565b60005b838110156131145780820151818401526020810190506130f9565b60008484015250505050565b6000601f19601f8301169050919050565b600061313c826130da565b61314681856130e5565b93506131568185602086016130f6565b61315f81613120565b840191505092915050565b600060208201905081810360008301526131848184613131565b905092915050565b6000819050919050565b61319f8161318c565b81146131aa57600080fd5b50565b6000813590506131bc81613196565b92915050565b6000602082840312156131d8576131d7613015565b5b60006131e6848285016131ad565b91505092915050565b600073ffffffffffffffffffffffffffffffffffffffff82169050919050565b600061321a826131ef565b9050919050565b61322a8161320f565b82525050565b60006020820190506132456000830184613221565b92915050565b6132548161320f565b811461325f57600080fd5b50565b6000813590506132718161324b565b92915050565b6000806040838503121561328e5761328d613015565b5b600061329c85828601613262565b92505060206132ad858286016131ad565b9150509250929050565b6132c08161318c565b82525050565b60006020820190506132db60008301846132b7565b92915050565b6000806000606084860312156132fa576132f9613015565b5b600061330886828701613262565b935050602061331986828701613262565b925050604061332a868287016131ad565b9150509250925092565b600080fd5b600080fd5b7f4e487b7100000000000000000000000000000000000000000000000000000000600052604160045260246000fd5b61337682613120565b810181811067ffffffffffffffff821117156133955761339461333e565b5b80604052505050565b60006133a861300b565b90506133b4828261336d565b919050565b600067ffffffffffffffff8211156133d4576133d361333e565b5b6133dd82613120565b9050602081019050919050565b82818337600083830152505050565b600061340c613407846133b9565b61339e565b90508281526020810184848401111561342857613427613339565b5b6134338482856133ea565b509392505050565b600082601f8301126134505761344f613334565b5b81356134608482602086016133f9565b91505092915050565b600080604083850312156134805761347f613015565b5b600083013567ffffffffffffffff81111561349e5761349d61301a565b5b6134aa8582860161343b565b92505060206134bb858286016131ad565b9150509250929050565b600060e0820190506134da600083018a6132b7565b6134e76020830189613221565b6134f46040830188613221565b61350160608301876132b7565b61350e60808301866130b0565b61351b60a08301856132b7565b61352860c08301846132b7565b98975050505050505050565b60006020828403121561354a57613549613015565b5b600061355884828501613262565b91505092915050565b61356a816130a4565b811461357557600080fd5b50565b60008135905061358781613561565b92915050565b600080604083850312156135a4576135a3613015565b5b60006135b285828601613262565b92505060206135c385828601613578565b9150509250929050565b600067ffffffffffffffff8211156135e8576135e761333e565b5b6135f182613120565b9050602081019050919050565b600061361161360c846135cd565b61339e565b90508281526020810184848401111561362d5761362c613339565b5b6136388482856133ea565b509392505050565b600082601f83011261365557613654613334565b5b81356136658482602086016135fe565b91505092915050565b6000806000806080858703121561368857613687613015565b5b600061369687828801613262565b94505060206136a787828801613262565b93505060406136b8878288016131ad565b925050606085013567ffffffffffffffff8111156136d9576136d861301a565b5b6136e587828801613640565b91505092959194509250565b6000806040838503121561370857613707613015565b5b6000613716858286016131ad565b925050602061372785828601613262565b9150509250929050565b600060a08201905061374660008301886132b7565b6137536020830187613221565b6137606040830186613221565b61376d60608301856132b7565b61377a60808301846130b0565b9695505050505050565b6000806040838503121561379b5761379a613015565b5b60006137a985828601613262565b92505060206137ba85828601613262565b9150509250929050565b7f4e487b7100000000000000000000000000000000000000000000000000000000600052602260045260246000fd5b6000600282049050600182168061380b57607f821691505b60208210810361381e5761381d6137c4565b5b50919050565b7f4552433732313a20617070726f76616c20746f2063757272656e74206f776e6560008201527f7200000000000000000000000000000000000000000000000000000000000000602082015250565b60006138806021836130e5565b915061388b82613824565b604082019050919050565b600060208201905081810360008301526138af81613873565b9050919050565b7f4552433732313a20617070726f76652063616c6c6572206973206e6f7420746f60008201527f6b656e206f776e6572206f7220617070726f76656420666f7220616c6c000000602082015250565b6000613912603d836130e5565b915061391d826138b6565b604082019050919050565b6000602082019050818103600083015261394181613905565b9050919050565b7f4552433732313a2063616c6c6572206973206e6f7420746f6b656e206f776e6560008201527f72206f7220617070726f76656400000000000000000000000000000000000000602082015250565b60006139a4602d836130e5565b91506139af82613948565b604082019050919050565b600060208201905081810360008301526139d381613997565b9050919050565b7f455243373231456e756d657261626c653a206f776e657220696e646578206f7560008201527f74206f6620626f756e6473000000000000000000000000000000000000000000602082015250565b6000613a36602b836130e5565b9150613a41826139da565b604082019050919050565b60006020820190508181036000830152613a6581613a29565b9050919050565b7f4f6e6c79204e4654206f776e6572732063616e20706572666f726d207468697360008201527f206f7065726174696f6e00000000000000000000000000000000000000000000602082015250565b6000613ac8602a836130e5565b9150613ad382613a6c565b604082019050919050565b60006020820190508181036000830152613af781613abb565b9050919050565b7f4974656d206e6f74206c697374656420666f722073616c650000000000000000600082015250565b6000613b346018836130e5565b9150613b3f82613afe565b602082019050919050565b60006020820190508181036000830152613b6381613b27565b9050919050565b7f455243373231456e756d657261626c653a20676c6f62616c20696e646578206f60008201527f7574206f6620626f756e64730000000000000000000000000000000000000000602082015250565b6000613bc6602c836130e5565b9150613bd182613b6a565b604082019050919050565b60006020820190508181036000830152613bf581613bb9565b9050919050565b7f4e487b7100000000000000000000000000000000000000000000000000000000600052603260045260246000fd5b7f506c65617365207375626d6974207468652061736b696e67207072696365206960008201527f6e206f7264657220746f20636f6d706c65746520746865207075726368617365602082015250565b6000613c876040836130e5565b9150613c9282613c2b565b604082019050919050565b60006020820190508181036000830152613cb681613c7a565b9050919050565b7f4e487b7100000000000000000000000000000000000000000000000000000000600052601160045260246000fd5b6000613cf78261318c565b91507fffffffffffffffffffffffffffffffffffffffffffffffffffffffffffffffff8203613d2957613d28613cbd565b5b600182019050919050565b6000613d3f8261318c565b9150613d4a8361318c565b9250828201905080821115613d6257613d61613cbd565b5b92915050565b7f4552433732313a20696e76616c696420746f6b656e2049440000000000000000600082015250565b6000613d9e6018836130e5565b9150613da982613d68565b602082019050919050565b60006020820190508181036000830152613dcd81613d91565b9050919050565b7f4552433732313a2061646472657373207a65726f206973206e6f74206120766160008201527f6c6964206f776e65720000000000000000000000000000000000000000000000602082015250565b6000613e306029836130e5565b9150613e3b82613dd4565b604082019050919050565b60006020820190508181036000830152613e5f81613e23565b9050919050565b7f4974656d20616c7265616479206c697374656420666f722073616c6500000000600082015250565b6000613e9c601c836130e5565b9150613ea782613e66565b602082019050919050565b60006020820190508181036000830152613ecb81613e8f565b9050919050565b7f4f6e6c79206f776e65722063616e20757064617465206c697374696e6720707260008201527f6963650000000000000000000000000000000000000000000000000000000000602082015250565b6000613f2e6023836130e5565b9150613f3982613ed2565b604082019050919050565b60006020820190508181036000830152613f5d81613f21565b9050919050565b7f4552433732313a207472616e736665722066726f6d20696e636f72726563742060008201527f6f776e6572000000000000000000000000000000000000000000000000000000602082015250565b6000613fc06025836130e5565b9150613fcb82613f64565b604082019050919050565b60006020820190508181036000830152613fef81613fb3565b9050919050565b7f4552433732313a207472616e7366657220746f20746865207a65726f2061646460008201527f7265737300000000000000000000000000000000000000000000000000000000602082015250565b60006140526024836130e5565b915061405d82613ff6565b604082019050919050565b6000602082019050818103600083015261408181614045565b9050919050565b7f45524337323155524953746f726167653a2055524920736574206f66206e6f6e60008201527f6578697374656e7420746f6b656e000000000000000000000000000000000000602082015250565b60006140e4602e836130e5565b91506140ef82614088565b604082019050919050565b60006020820190508181036000830152614113816140d7565b9050919050565b60008190508160005260206000209050919050565b60006020601f8301049050919050565b600082821b905092915050565b60006008830261417c7fffffffffffffffffffffffffffffffffffffffffffffffffffffffffffffffff8261413f565b614186868361413f565b95508019841693508086168417925050509392505050565b6000819050919050565b60006141c36141be6141b98461318c565b61419e565b61318c565b9050919050565b6000819050919050565b6141dd836141a8565b6141f16141e9826141ca565b84845461414c565b825550505050565b600090565b6142066141f9565b6142118184846141d4565b505050565b5b818110156142355761422a6000826141fe565b600181019050614217565b5050565b601f82111561427a5761424b8161411a565b6142548461412f565b81016020851015614263578190505b61427761426f8561412f565b830182614216565b50505b505050565b600082821c905092915050565b600061429d6000198460080261427f565b1980831691505092915050565b60006142b6838361428c565b9150826002028217905092915050565b6142cf826130da565b67ffffffffffffffff8111156142e8576142e761333e565b5b6142f282546137f3565b6142fd828285614239565b600060209050601f831160018114614330576000841561431e578287015190505b61432885826142aa565b865550614390565b601f19841661433e8661411a565b60005b8281101561436657848901518255600182019150602085019450602081019050614341565b86831015614383578489015161437f601f89168261428c565b8355505b6001600288020188555050505b505050505050565b7f486f706566756c6c792073656e64696e672074686520636f727265637420707260008201527f6963650000000000000000000000000000000000000000000000000000000000602082015250565b60006143f46023836130e5565b91506143ff82614398565b604082019050919050565b60006020820190508181036000830152614423816143e7565b9050919050565b7f4d616b652073757265207468652070726963652069736e2774206e656761746960008201527f7665000000000000000000000000000000000000000000000000000000000000602082015250565b60006144866022836130e5565b91506144918261442a565b604082019050919050565b600060208201905081810360008301526144b581614479565b9050919050565b60006080820190506144d16000830187613221565b6144de6020830186613221565b6144eb60408301856132b7565b6144f860608301846130b0565b95945050505050565b7f4552433732313a20617070726f766520746f2063616c6c657200000000000000600082015250565b60006145376019836130e5565b915061454282614501565b602082019050919050565b600060208201905081810360008301526145668161452a565b9050919050565b7f4552433732313a207472616e7366657220746f206e6f6e20455243373231526560008201527f63656976657220696d706c656d656e7465720000000000000000000000000000602082015250565b60006145c96032836130e5565b91506145d48261456d565b604082019050919050565b600060208201905081810360008301526145f8816145bc565b9050919050565b600081905092915050565b6000614615826130da565b61461f81856145ff565b935061462f8185602086016130f6565b80840191505092915050565b6000614647828561460a565b9150614653828461460a565b91508190509392505050565b600081519050919050565b600082825260208201905092915050565b60006146868261465f565b614690818561466a565b93506146a08185602086016130f6565b6146a981613120565b840191505092915050565b60006080820190506146c96000830187613221565b6146d66020830186613221565b6146e360408301856132b7565b81810360608301526146f5818461467b565b905095945050505050565b60008151905061470f8161304b565b92915050565b60006020828403121561472b5761472a613015565b5b600061473984828501614700565b91505092915050565b7f455243373231456e756d657261626c653a20636f6e736563757469766520747260008201527f616e7366657273206e6f7420737570706f727465640000000000000000000000602082015250565b600061479e6035836130e5565b91506147a982614742565b604082019050919050565b600060208201905081810360008301526147cd81614791565b9050919050565b7f4552433732313a206d696e7420746f20746865207a65726f2061646472657373600082015250565b600061480a6020836130e5565b9150614815826147d4565b602082019050919050565b60006020820190508181036000830152614839816147fd565b9050919050565b7f4552433732313a20746f6b656e20616c7265616479206d696e74656400000000600082015250565b6000614876601c836130e5565b915061488182614840565b602082019050919050565b600060208201905081810360008301526148a581614869565b9050919050565b7f4e487b7100000000000000000000000000000000000000000000000000000000600052601260045260246000fd5b60006148e68261318c565b91506148f18361318c565b925082820390508181111561490957614908613cbd565b5b92915050565b7f4e487b7100000000000000000000000000000000000000000000000000000000600052603160045260246000fdfea26469706673582212201be82d3845648481abbbe2c78bec8ecc96142d455f574f04a8b80e2eacab0c4d64736f6c63430008110033",
  "linkReferences": {},
  "deployedLinkReferences": {}
}