{
  "_format": "hh-sol-artifact-1",
  "contractName": "NFTMarketplace",
  "sourceName": "contracts/NFTMarketplace.sol",
  "abi": [
    {
      "inputs": [],
      "stateMutability": "nonpayable",
      "type": "constructor"
    },
    {
      "anonymous": false,
      "inputs": [
        {
          "indexed": true,
          "internalType": "address",
          "name": "owner",
          "type": "address"
        },
        {
          "indexed": true,
          "internalType": "address",
          "name": "approved",
          "type": "address"
        },
        {
          "indexed": true,
          "internalType": "uint256",
          "name": "tokenId",
          "type": "uint256"
        }
      ],
      "name": "Approval",
      "type": "event"
    },
    {
      "anonymous": false,
      "inputs": [
        {
          "indexed": true,
          "internalType": "address",
          "name": "owner",
          "type": "address"
        },
        {
          "indexed": true,
          "internalType": "address",
          "name": "operator",
          "type": "address"
        },
        {
          "indexed": false,
          "internalType": "bool",
          "name": "approved",
          "type": "bool"
        }
      ],
      "name": "ApprovalForAll",
      "type": "event"
    },
    {
      "anonymous": false,
      "inputs": [
        {
          "indexed": true,
          "internalType": "uint256",
          "name": "tokenId",
          "type": "uint256"
        },
        {
          "indexed": false,
          "internalType": "address",
          "name": "owner",
          "type": "address"
        },
        {
          "indexed": false,
          "internalType": "address",
          "name": "seller",
          "type": "address"
        },
        {
          "indexed": false,
          "internalType": "uint256",
          "name": "price",
          "type": "uint256"
        },
        {
          "indexed": false,
          "internalType": "bool",
          "name": "forSale",
          "type": "bool"
        }
      ],
      "name": "NFTListedSuccess",
      "type": "event"
    },
    {
      "anonymous": false,
      "inputs": [
        {
          "indexed": true,
          "internalType": "address",
          "name": "from",
          "type": "address"
        },
        {
          "indexed": true,
          "internalType": "address",
          "name": "to",
          "type": "address"
        },
        {
          "indexed": true,
          "internalType": "uint256",
          "name": "tokenId",
          "type": "uint256"
        }
      ],
      "name": "Transfer",
      "type": "event"
    },
    {
      "inputs": [
        {
          "internalType": "address",
          "name": "to",
          "type": "address"
        },
        {
          "internalType": "uint256",
          "name": "tokenId",
          "type": "uint256"
        }
      ],
      "name": "approve",
      "outputs": [],
      "stateMutability": "nonpayable",
      "type": "function"
    },
    {
      "inputs": [
        {
          "internalType": "address",
          "name": "owner",
          "type": "address"
        }
      ],
      "name": "balanceOf",
      "outputs": [
        {
          "internalType": "uint256",
          "name": "",
          "type": "uint256"
        }
      ],
      "stateMutability": "view",
      "type": "function"
    },
    {
      "inputs": [
        {
          "internalType": "uint256",
          "name": "tokenId",
          "type": "uint256"
        }
      ],
      "name": "cancel",
      "outputs": [],
      "stateMutability": "nonpayable",
      "type": "function"
    },
    {
      "inputs": [
        {
          "internalType": "string",
          "name": "NFTURI",
          "type": "string"
        },
        {
          "internalType": "uint256",
          "name": "price",
          "type": "uint256"
        }
      ],
      "name": "createNFT",
      "outputs": [
        {
          "internalType": "uint256",
          "name": "",
          "type": "uint256"
        }
      ],
      "stateMutability": "payable",
      "type": "function"
    },
    {
      "inputs": [
        {
          "internalType": "uint256",
          "name": "tokenId",
          "type": "uint256"
        }
      ],
      "name": "getApproved",
      "outputs": [
        {
          "internalType": "address",
          "name": "",
          "type": "address"
        }
      ],
      "stateMutability": "view",
      "type": "function"
    },
    {
      "inputs": [],
      "name": "getListPrice",
      "outputs": [
        {
          "internalType": "uint256",
          "name": "",
          "type": "uint256"
        }
      ],
      "stateMutability": "view",
      "type": "function"
    },
    {
      "inputs": [
        {
          "internalType": "uint256",
          "name": "_index",
          "type": "uint256"
        },
        {
          "internalType": "address",
          "name": "_callerAddress",
          "type": "address"
        }
      ],
      "name": "getMyNFTs",
      "outputs": [
        {
          "internalType": "uint256",
          "name": "_NFTId",
          "type": "uint256"
        },
        {
          "internalType": "address",
          "name": "_owner",
          "type": "address"
        },
        {
          "internalType": "address",
          "name": "_seller",
          "type": "address"
        },
        {
          "internalType": "uint256",
          "name": "_price",
          "type": "uint256"
        },
        {
          "internalType": "bool",
          "name": "_forSale",
          "type": "bool"
        }
      ],
      "stateMutability": "view",
      "type": "function"
    },
    {
      "inputs": [
        {
          "internalType": "uint256",
          "name": "NFTId",
          "type": "uint256"
        }
      ],
      "name": "getNFT",
      "outputs": [
        {
          "internalType": "uint256",
          "name": "_NFTId",
          "type": "uint256"
        },
        {
          "internalType": "address",
          "name": "_owner",
          "type": "address"
        },
        {
          "internalType": "address",
          "name": "_seller",
          "type": "address"
        },
        {
          "internalType": "uint256",
          "name": "_price",
          "type": "uint256"
        },
        {
          "internalType": "bool",
          "name": "_forSale",
          "type": "bool"
        },
        {
          "internalType": "uint256",
          "name": "_sales",
          "type": "uint256"
        },
        {
          "internalType": "uint256",
          "name": "_earnings",
          "type": "uint256"
        }
      ],
      "stateMutability": "view",
      "type": "function"
    },
    {
      "inputs": [],
      "name": "getNFTCount",
      "outputs": [
        {
          "internalType": "uint256",
          "name": "",
          "type": "uint256"
        }
      ],
      "stateMutability": "view",
      "type": "function"
    },
    {
      "inputs": [
        {
          "internalType": "address",
          "name": "owner",
          "type": "address"
        },
        {
          "internalType": "address",
          "name": "operator",
          "type": "address"
        }
      ],
      "name": "isApprovedForAll",
      "outputs": [
        {
          "internalType": "bool",
          "name": "",
          "type": "bool"
        }
      ],
      "stateMutability": "view",
      "type": "function"
    },
    {
      "inputs": [],
      "name": "name",
      "outputs": [
        {
          "internalType": "string",
          "name": "",
          "type": "string"
        }
      ],
      "stateMutability": "view",
      "type": "function"
    },
    {
      "inputs": [
        {
          "internalType": "uint256",
          "name": "tokenId",
          "type": "uint256"
        }
      ],
      "name": "ownerOf",
      "outputs": [
        {
          "internalType": "address",
          "name": "",
          "type": "address"
        }
      ],
      "stateMutability": "view",
      "type": "function"
    },
    {
      "inputs": [
        {
          "internalType": "address",
          "name": "from",
          "type": "address"
        },
        {
          "internalType": "address",
          "name": "to",
          "type": "address"
        },
        {
          "internalType": "uint256",
          "name": "tokenId",
          "type": "uint256"
        }
      ],
      "name": "safeTransferFrom",
      "outputs": [],
      "stateMutability": "nonpayable",
      "type": "function"
    },
    {
      "inputs": [
        {
          "internalType": "address",
          "name": "from",
          "type": "address"
        },
        {
          "internalType": "address",
          "name": "to",
          "type": "address"
        },
        {
          "internalType": "uint256",
          "name": "tokenId",
          "type": "uint256"
        },
        {
          "internalType": "bytes",
          "name": "data",
          "type": "bytes"
        }
      ],
      "name": "safeTransferFrom",
      "outputs": [],
      "stateMutability": "nonpayable",
      "type": "function"
    },
    {
      "inputs": [
        {
          "internalType": "uint256",
          "name": "tokenId",
          "type": "uint256"
        }
      ],
      "name": "saleNFT",
      "outputs": [],
      "stateMutability": "payable",
      "type": "function"
    },
    {
      "inputs": [
        {
          "internalType": "address",
          "name": "",
          "type": "address"
        }
      ],
      "name": "sellerExist",
      "outputs": [
        {
          "internalType": "bool",
          "name": "",
          "type": "bool"
        }
      ],
      "stateMutability": "view",
      "type": "function"
    },
    {
      "inputs": [
        {
          "internalType": "address",
          "name": "operator",
          "type": "address"
        },
        {
          "internalType": "bool",
          "name": "approved",
          "type": "bool"
        }
      ],
      "name": "setApprovalForAll",
      "outputs": [],
      "stateMutability": "nonpayable",
      "type": "function"
    },
    {
      "inputs": [
        {
          "internalType": "bytes4",
          "name": "interfaceId",
          "type": "bytes4"
        }
      ],
      "name": "supportsInterface",
      "outputs": [
        {
          "internalType": "bool",
          "name": "",
          "type": "bool"
        }
      ],
      "stateMutability": "view",
      "type": "function"
    },
    {
      "inputs": [],
      "name": "symbol",
      "outputs": [
        {
          "internalType": "string",
          "name": "",
          "type": "string"
        }
      ],
      "stateMutability": "view",
      "type": "function"
    },
    {
      "inputs": [
        {
          "internalType": "uint256",
          "name": "index",
          "type": "uint256"
        }
      ],
      "name": "tokenByIndex",
      "outputs": [
        {
          "internalType": "uint256",
          "name": "",
          "type": "uint256"
        }
      ],
      "stateMutability": "view",
      "type": "function"
    },
    {
      "inputs": [
        {
          "internalType": "address",
          "name": "owner",
          "type": "address"
        },
        {
          "internalType": "uint256",
          "name": "index",
          "type": "uint256"
        }
      ],
      "name": "tokenOfOwnerByIndex",
      "outputs": [
        {
          "internalType": "uint256",
          "name": "",
          "type": "uint256"
        }
      ],
      "stateMutability": "view",
      "type": "function"
    },
    {
      "inputs": [
        {
          "internalType": "uint256",
          "name": "tokenId",
          "type": "uint256"
        }
      ],
      "name": "tokenURI",
      "outputs": [
        {
          "internalType": "string",
          "name": "",
          "type": "string"
        }
      ],
      "stateMutability": "view",
      "type": "function"
    },
    {
      "inputs": [],
      "name": "totalSupply",
      "outputs": [
        {
          "internalType": "uint256",
          "name": "",
          "type": "uint256"
        }
      ],
      "stateMutability": "view",
      "type": "function"
    },
    {
      "inputs": [
        {
          "internalType": "address",
          "name": "from",
          "type": "address"
        },
        {
          "internalType": "address",
          "name": "to",
          "type": "address"
        },
        {
          "internalType": "uint256",
          "name": "tokenId",
          "type": "uint256"
        }
      ],
      "name": "transferFrom",
      "outputs": [],
      "stateMutability": "nonpayable",
      "type": "function"
    },
    {
      "inputs": [
        {
          "internalType": "uint256",
          "name": "_listPrice",
          "type": "uint256"
        }
      ],
      "name": "updateListPrice",
      "outputs": [],
      "stateMutability": "payable",
      "type": "function"
    }
  ],
  "bytecode": "0x6080604052662386f26fc10000600e553480156200001c57600080fd5b506040518060400160405280601681526020017f4172746973616e734e46544d61726b6574706c616365000000000000000000008152506040518060400160405280600681526020017f414e544d4b54000000000000000000000000000000000000000000000000000081525081600090816200009a919062000370565b508060019081620000ac919062000370565b50505033600d60006101000a81548173ffffffffffffffffffffffffffffffffffffffff021916908373ffffffffffffffffffffffffffffffffffffffff16021790555062000457565b600081519050919050565b7f4e487b7100000000000000000000000000000000000000000000000000000000600052604160045260246000fd5b7f4e487b7100000000000000000000000000000000000000000000000000000000600052602260045260246000fd5b600060028204905060018216806200017857607f821691505b6020821081036200018e576200018d62000130565b5b50919050565b60008190508160005260206000209050919050565b60006020601f8301049050919050565b600082821b905092915050565b600060088302620001f87fffffffffffffffffffffffffffffffffffffffffffffffffffffffffffffffff82620001b9565b620002048683620001b9565b95508019841693508086168417925050509392505050565b6000819050919050565b6000819050919050565b6000620002516200024b62000245846200021c565b62000226565b6200021c565b9050919050565b6000819050919050565b6200026d8362000230565b620002856200027c8262000258565b848454620001c6565b825550505050565b600090565b6200029c6200028d565b620002a981848462000262565b505050565b5b81811015620002d157620002c560008262000292565b600181019050620002af565b5050565b601f8211156200032057620002ea8162000194565b620002f584620001a9565b8101602085101562000305578190505b6200031d6200031485620001a9565b830182620002ae565b50505b505050565b600082821c905092915050565b6000620003456000198460080262000325565b1980831691505092915050565b600062000360838362000332565b9150826002028217905092915050565b6200037b82620000f6565b67ffffffffffffffff81111562000397576200039662000101565b5b620003a382546200015f565b620003b0828285620002d5565b600060209050601f831160018114620003e85760008415620003d3578287015190505b620003df858262000352565b8655506200044f565b601f198416620003f88662000194565b60005b828110156200042257848901518255600182019150602085019450602081019050620003fb565b868310156200044257848901516200043e601f89168262000332565b8355505b6001600288020188555050505b505050505050565b61476680620004676000396000f3fe6080604052600436106101665760003560e01c8063576f7ea7116100d1578063a22cb4651161008a578063c322579c11610064578063c322579c14610572578063c87b56dd1461058e578063cf390232146105cb578063e985e9c51461060c57610166565b8063a22cb465146104e3578063a55ed1731461050c578063b88d4fde1461054957610166565b8063576f7ea7146103b45780636352211e146103f757806368f1945f1461043457806370a082311461045f578063848f37c61461049c57806395d89b41146104b857610166565b80632682915511610123578063268291551461028d5780632f745c59146102bd57806340e58ee5146102fa57806342842e0e146103235780634f6ccce71461034c578063542796371461038957610166565b806301ffc9a71461016b57806306fdde03146101a8578063081812fc146101d3578063095ea7b31461021057806318160ddd1461023957806323b872dd14610264575b600080fd5b34801561017757600080fd5b50610192600480360381019061018d9190612ed5565b610649565b60405161019f9190612f1d565b60405180910390f35b3480156101b457600080fd5b506101bd61065b565b6040516101ca9190612fc8565b60405180910390f35b3480156101df57600080fd5b506101fa60048036038101906101f59190613020565b6106ed565b604051610207919061308e565b60405180910390f35b34801561021c57600080fd5b50610237600480360381019061023291906130d5565b610733565b005b34801561024557600080fd5b5061024e61084a565b60405161025b9190613124565b60405180910390f35b34801561027057600080fd5b5061028b6004803603810190610286919061313f565b610857565b005b6102a760048036038101906102a291906132c7565b6108b7565b6040516102b49190613124565b60405180910390f35b3480156102c957600080fd5b506102e460048036038101906102df91906130d5565b610a7b565b6040516102f19190613124565b60405180910390f35b34801561030657600080fd5b50610321600480360381019061031c9190613020565b610b20565b005b34801561032f57600080fd5b5061034a6004803603810190610345919061313f565b610c4d565b005b34801561035857600080fd5b50610373600480360381019061036e9190613020565b610c6d565b6040516103809190613124565b60405180910390f35b34801561039557600080fd5b5061039e610cde565b6040516103ab9190613124565b60405180910390f35b3480156103c057600080fd5b506103db60048036038101906103d69190613020565b610cef565b6040516103ee9796959493929190613323565b60405180910390f35b34801561040357600080fd5b5061041e60048036038101906104199190613020565b610e9a565b60405161042b919061308e565b60405180910390f35b34801561044057600080fd5b50610449610f20565b6040516104569190613124565b60405180910390f35b34801561046b57600080fd5b5061048660048036038101906104819190613392565b610f2a565b6040516104939190613124565b60405180910390f35b6104b660048036038101906104b19190613020565b610fe1565b005b3480156104c457600080fd5b506104cd61124c565b6040516104da9190612fc8565b60405180910390f35b3480156104ef57600080fd5b5061050a600480360381019061050591906133eb565b6112de565b005b34801561051857600080fd5b50610533600480360381019061052e9190613392565b6112f4565b6040516105409190612f1d565b60405180910390f35b34801561055557600080fd5b50610570600480360381019061056b91906134cc565b611314565b005b61058c60048036038101906105879190613020565b611376565b005b34801561059a57600080fd5b506105b560048036038101906105b09190613020565b611410565b6040516105c29190612fc8565b60405180910390f35b3480156105d757600080fd5b506105f260048036038101906105ed919061354f565b611422565b60405161060395949392919061358f565b60405180910390f35b34801561061857600080fd5b50610633600480360381019061062e91906135e2565b611507565b6040516106409190612f1d565b60405180910390f35b60006106548261159b565b9050919050565b60606000805461066a90613651565b80601f016020809104026020016040519081016040528092919081815260200182805461069690613651565b80156106e35780601f106106b8576101008083540402835291602001916106e3565b820191906000526020600020905b8154815290600101906020018083116106c657829003601f168201915b5050505050905090565b60006106f882611615565b6004600083815260200190815260200160002060009054906101000a900473ffffffffffffffffffffffffffffffffffffffff169050919050565b600061073e82610e9a565b90508073ffffffffffffffffffffffffffffffffffffffff168373ffffffffffffffffffffffffffffffffffffffff16036107ae576040517f08c379a00000000000000000000000000000000000000000000000000000000081526004016107a5906136f4565b60405180910390fd5b8073ffffffffffffffffffffffffffffffffffffffff166107cd611660565b73ffffffffffffffffffffffffffffffffffffffff1614806107fc57506107fb816107f6611660565b611507565b5b61083b576040517f08c379a000000000000000000000000000000000000000000000000000000000815260040161083290613786565b60405180910390fd5b6108458383611668565b505050565b6000600880549050905090565b610868610862611660565b82611721565b6108a7576040517f08c379a000000000000000000000000000000000000000000000000000000000815260040161089e90613818565b60405180910390fd5b6108b28383836117b6565b505050565b60006108c3600b611aaf565b60006108cf600b611ac5565b90506108db3382611ad3565b6108e58185611af1565b6108ef8184611b5e565b601060003373ffffffffffffffffffffffffffffffffffffffff1673ffffffffffffffffffffffffffffffffffffffff1681526020019081526020016000206040518060a001604052808381526020013073ffffffffffffffffffffffffffffffffffffffff1681526020013373ffffffffffffffffffffffffffffffffffffffff1681526020018581526020016000151581525090806001815401808255809150506001900390600052602060002090600502016000909190919091506000820151816000015560208201518160010160006101000a81548173ffffffffffffffffffffffffffffffffffffffff021916908373ffffffffffffffffffffffffffffffffffffffff16021790555060408201518160020160006101000a81548173ffffffffffffffffffffffffffffffffffffffff021916908373ffffffffffffffffffffffffffffffffffffffff1602179055506060820151816003015560808201518160040160006101000a81548160ff02191690831515021790555050508091505092915050565b6000610a8683610f2a565b8210610ac7576040517f08c379a0000000000000000000000000000000000000000000000000000000008152600401610abe906138aa565b60405180910390fd5b600660008473ffffffffffffffffffffffffffffffffffffffff1673ffffffffffffffffffffffffffffffffffffffff168152602001908152602001600020600083815260200190815260200160002054905092915050565b6000600f600083815260200190815260200160002090503373ffffffffffffffffffffffffffffffffffffffff168160020160009054906101000a900473ffffffffffffffffffffffffffffffffffffffff1673ffffffffffffffffffffffffffffffffffffffff1614610bc9576040517f08c379a0000000000000000000000000000000000000000000000000000000008152600401610bc09061393c565b60405180910390fd5b600115158160040160009054906101000a900460ff16151514610c21576040517f08c379a0000000000000000000000000000000000000000000000000000000008152600401610c18906139a8565b60405180910390fd5b610c2c3033846117b6565b60008160040160006101000a81548160ff0219169083151502179055505050565b610c6883838360405180602001604052806000815250611314565b505050565b6000610c7761084a565b8210610cb8576040517f08c379a0000000000000000000000000000000000000000000000000000000008152600401610caf90613a3a565b60405180910390fd5b60088281548110610ccc57610ccb613a5a565b5b90600052602060002001549050919050565b6000610cea600b611ac5565b905090565b600080600080600080600080600f60008a81526020019081526020016000206040518060a0016040529081600082015481526020016001820160009054906101000a900473ffffffffffffffffffffffffffffffffffffffff1673ffffffffffffffffffffffffffffffffffffffff1673ffffffffffffffffffffffffffffffffffffffff1681526020016002820160009054906101000a900473ffffffffffffffffffffffffffffffffffffffff1673ffffffffffffffffffffffffffffffffffffffff1673ffffffffffffffffffffffffffffffffffffffff168152602001600382015481526020016004820160009054906101000a900460ff1615151515815250509050600060116000836040015173ffffffffffffffffffffffffffffffffffffffff1673ffffffffffffffffffffffffffffffffffffffff168152602001908152602001600020604051806040016040529081600082015481526020016001820154815250509050816000015182602001518360400151846060015185608001518560000151866020015198509850985098509850985098505050919395979092949650565b600080610ea683611d61565b9050600073ffffffffffffffffffffffffffffffffffffffff168173ffffffffffffffffffffffffffffffffffffffff1603610f17576040517f08c379a0000000000000000000000000000000000000000000000000000000008152600401610f0e90613ad5565b60405180910390fd5b80915050919050565b6000600e54905090565b60008073ffffffffffffffffffffffffffffffffffffffff168273ffffffffffffffffffffffffffffffffffffffff1603610f9a576040517f08c379a0000000000000000000000000000000000000000000000000000000008152600401610f9190613b67565b60405180910390fd5b600360008373ffffffffffffffffffffffffffffffffffffffff1673ffffffffffffffffffffffffffffffffffffffff168152602001908152602001600020549050919050565b6000600f60008381526020019081526020016000206003015490506000600f600084815260200190815260200160002060020160009054906101000a900473ffffffffffffffffffffffffffffffffffffffff169050813414611079576040517f08c379a000000000000000000000000000000000000000000000000000000000815260040161107090613bf9565b60405180910390fd5b6001600f600085815260200190815260200160002060040160006101000a81548160ff02191690831515021790555033600f600085815260200190815260200160002060020160006101000a81548173ffffffffffffffffffffffffffffffffffffffff021916908373ffffffffffffffffffffffffffffffffffffffff160217905550611107600c611aaf565b6111123033856117b6565b61111c3084610733565b600d60009054906101000a900473ffffffffffffffffffffffffffffffffffffffff1673ffffffffffffffffffffffffffffffffffffffff166108fc600e549081150290604051600060405180830381858888f19350505050158015611186573d6000803e3d6000fd5b508073ffffffffffffffffffffffffffffffffffffffff166108fc349081150290604051600060405180830381858888f193505050501580156111cd573d6000803e3d6000fd5b506000601160008373ffffffffffffffffffffffffffffffffffffffff1673ffffffffffffffffffffffffffffffffffffffff168152602001908152602001600020905080600001600081548092919061122690613c48565b91905055508281600101600082825461123f9190613c90565b9250508190555050505050565b60606001805461125b90613651565b80601f016020809104026020016040519081016040528092919081815260200182805461128790613651565b80156112d45780601f106112a9576101008083540402835291602001916112d4565b820191906000526020600020905b8154815290600101906020018083116112b757829003601f168201915b5050505050905090565b6112f06112e9611660565b8383611d9e565b5050565b60126020528060005260406000206000915054906101000a900460ff1681565b61132561131f611660565b83611721565b611364576040517f08c379a000000000000000000000000000000000000000000000000000000000815260040161135b90613818565b60405180910390fd5b61137084848484611f0a565b50505050565b3373ffffffffffffffffffffffffffffffffffffffff16600d60009054906101000a900473ffffffffffffffffffffffffffffffffffffffff1673ffffffffffffffffffffffffffffffffffffffff1614611406576040517f08c379a00000000000000000000000000000000000000000000000000000000081526004016113fd90613d36565b60405180910390fd5b80600e8190555050565b606061141b82611f66565b9050919050565b600080600080600080601060008873ffffffffffffffffffffffffffffffffffffffff1673ffffffffffffffffffffffffffffffffffffffff168152602001908152602001600020888154811061147c5761147b613a5a565b5b9060005260206000209060050201905080600001548160010160009054906101000a900473ffffffffffffffffffffffffffffffffffffffff168260020160009054906101000a900473ffffffffffffffffffffffffffffffffffffffff1683600301548460040160009054906101000a900460ff1695509550955095509550509295509295909350565b6000600560008473ffffffffffffffffffffffffffffffffffffffff1673ffffffffffffffffffffffffffffffffffffffff16815260200190815260200160002060008373ffffffffffffffffffffffffffffffffffffffff1673ffffffffffffffffffffffffffffffffffffffff16815260200190815260200160002060009054906101000a900460ff16905092915050565b60007f780e9d63000000000000000000000000000000000000000000000000000000007bffffffffffffffffffffffffffffffffffffffffffffffffffffffff1916827bffffffffffffffffffffffffffffffffffffffffffffffffffffffff1916148061160e575061160d82612078565b5b9050919050565b61161e8161215a565b61165d576040517f08c379a000000000000000000000000000000000000000000000000000000000815260040161165490613ad5565b60405180910390fd5b50565b600033905090565b816004600083815260200190815260200160002060006101000a81548173ffffffffffffffffffffffffffffffffffffffff021916908373ffffffffffffffffffffffffffffffffffffffff160217905550808273ffffffffffffffffffffffffffffffffffffffff166116db83610e9a565b73ffffffffffffffffffffffffffffffffffffffff167f8c5be1e5ebec7d5bd14f71427d1e84f3dd0314c0f7b2291e5b200ac8c7c3b92560405160405180910390a45050565b60008061172d83610e9a565b90508073ffffffffffffffffffffffffffffffffffffffff168473ffffffffffffffffffffffffffffffffffffffff16148061176f575061176e8185611507565b5b806117ad57508373ffffffffffffffffffffffffffffffffffffffff16611795846106ed565b73ffffffffffffffffffffffffffffffffffffffff16145b91505092915050565b8273ffffffffffffffffffffffffffffffffffffffff166117d682610e9a565b73ffffffffffffffffffffffffffffffffffffffff161461182c576040517f08c379a000000000000000000000000000000000000000000000000000000000815260040161182390613dc8565b60405180910390fd5b600073ffffffffffffffffffffffffffffffffffffffff168273ffffffffffffffffffffffffffffffffffffffff160361189b576040517f08c379a000000000000000000000000000000000000000000000000000000000815260040161189290613e5a565b60405180910390fd5b6118a8838383600161219b565b8273ffffffffffffffffffffffffffffffffffffffff166118c882610e9a565b73ffffffffffffffffffffffffffffffffffffffff161461191e576040517f08c379a000000000000000000000000000000000000000000000000000000000815260040161191590613dc8565b60405180910390fd5b6004600082815260200190815260200160002060006101000a81549073ffffffffffffffffffffffffffffffffffffffff02191690556001600360008573ffffffffffffffffffffffffffffffffffffffff1673ffffffffffffffffffffffffffffffffffffffff168152602001908152602001600020600082825403925050819055506001600360008473ffffffffffffffffffffffffffffffffffffffff1673ffffffffffffffffffffffffffffffffffffffff16815260200190815260200160002060008282540192505081905550816002600083815260200190815260200160002060006101000a81548173ffffffffffffffffffffffffffffffffffffffff021916908373ffffffffffffffffffffffffffffffffffffffff160217905550808273ffffffffffffffffffffffffffffffffffffffff168473ffffffffffffffffffffffffffffffffffffffff167fddf252ad1be2c89b69c2b068fc378daa952ba7f163c4a11628f55a4df523b3ef60405160405180910390a4611aaa83838360016121ad565b505050565b6001816000016000828254019250508190555050565b600081600001549050919050565b611aed8282604051806020016040528060008152506121b3565b5050565b611afa8261215a565b611b39576040517f08c379a0000000000000000000000000000000000000000000000000000000008152600401611b3090613eec565b60405180910390fd5b80600a60008481526020019081526020016000209081611b5991906140b8565b505050565b600e543414611ba2576040517f08c379a0000000000000000000000000000000000000000000000000000000008152600401611b99906141fc565b60405180910390fd5b60008111611be5576040517f08c379a0000000000000000000000000000000000000000000000000000000008152600401611bdc9061428e565b60405180910390fd5b6040518060a001604052808381526020013073ffffffffffffffffffffffffffffffffffffffff1681526020013373ffffffffffffffffffffffffffffffffffffffff16815260200182815260200160011515815250600f60008481526020019081526020016000206000820151816000015560208201518160010160006101000a81548173ffffffffffffffffffffffffffffffffffffffff021916908373ffffffffffffffffffffffffffffffffffffffff16021790555060408201518160020160006101000a81548173ffffffffffffffffffffffffffffffffffffffff021916908373ffffffffffffffffffffffffffffffffffffffff1602179055506060820151816003015560808201518160040160006101000a81548160ff021916908315150217905550905050611d1e3330846117b6565b817faf3679aa048f33d719e7f919c27adf518151bd48166ce2531710cfe40bc7bb863033846001604051611d5594939291906142ae565b60405180910390a25050565b60006002600083815260200190815260200160002060009054906101000a900473ffffffffffffffffffffffffffffffffffffffff169050919050565b8173ffffffffffffffffffffffffffffffffffffffff168373ffffffffffffffffffffffffffffffffffffffff1603611e0c576040517f08c379a0000000000000000000000000000000000000000000000000000000008152600401611e039061433f565b60405180910390fd5b80600560008573ffffffffffffffffffffffffffffffffffffffff1673ffffffffffffffffffffffffffffffffffffffff16815260200190815260200160002060008473ffffffffffffffffffffffffffffffffffffffff1673ffffffffffffffffffffffffffffffffffffffff16815260200190815260200160002060006101000a81548160ff0219169083151502179055508173ffffffffffffffffffffffffffffffffffffffff168373ffffffffffffffffffffffffffffffffffffffff167f17307eab39ab6107e8899845ad3d59bd9653f200f220920489ca2b5937696c3183604051611efd9190612f1d565b60405180910390a3505050565b611f158484846117b6565b611f218484848461220e565b611f60576040517f08c379a0000000000000000000000000000000000000000000000000000000008152600401611f57906143d1565b60405180910390fd5b50505050565b6060611f7182611615565b6000600a60008481526020019081526020016000208054611f9190613651565b80601f0160208091040260200160405190810160405280929190818152602001828054611fbd90613651565b801561200a5780601f10611fdf5761010080835404028352916020019161200a565b820191906000526020600020905b815481529060010190602001808311611fed57829003601f168201915b50505050509050600061201b612395565b90506000815103612030578192505050612073565b60008251111561206557808260405160200161204d92919061442d565b60405160208183030381529060405292505050612073565b61206e846123ac565b925050505b919050565b60007f80ac58cd000000000000000000000000000000000000000000000000000000007bffffffffffffffffffffffffffffffffffffffffffffffffffffffff1916827bffffffffffffffffffffffffffffffffffffffffffffffffffffffff1916148061214357507f5b5e139f000000000000000000000000000000000000000000000000000000007bffffffffffffffffffffffffffffffffffffffffffffffffffffffff1916827bffffffffffffffffffffffffffffffffffffffffffffffffffffffff1916145b80612153575061215282612414565b5b9050919050565b60008073ffffffffffffffffffffffffffffffffffffffff1661217c83611d61565b73ffffffffffffffffffffffffffffffffffffffff1614159050919050565b6121a78484848461247e565b50505050565b50505050565b6121bd83836125dc565b6121ca600084848461220e565b612209576040517f08c379a0000000000000000000000000000000000000000000000000000000008152600401612200906143d1565b60405180910390fd5b505050565b600061222f8473ffffffffffffffffffffffffffffffffffffffff166127f9565b15612388578373ffffffffffffffffffffffffffffffffffffffff1663150b7a02612258611660565b8786866040518563ffffffff1660e01b815260040161227a94939291906144a6565b6020604051808303816000875af19250505080156122b657506040513d601f19601f820116820180604052508101906122b39190614507565b60015b612338573d80600081146122e6576040519150601f19603f3d011682016040523d82523d6000602084013e6122eb565b606091505b506000815103612330576040517f08c379a0000000000000000000000000000000000000000000000000000000008152600401612327906143d1565b60405180910390fd5b805181602001fd5b63150b7a0260e01b7bffffffffffffffffffffffffffffffffffffffffffffffffffffffff1916817bffffffffffffffffffffffffffffffffffffffffffffffffffffffff19161491505061238d565b600190505b949350505050565b606060405180602001604052806000815250905090565b60606123b782611615565b60006123c1612395565b905060008151116123e1576040518060200160405280600081525061240c565b806123eb8461281c565b6040516020016123fc92919061442d565b6040516020818303038152906040525b915050919050565b60007f01ffc9a7000000000000000000000000000000000000000000000000000000007bffffffffffffffffffffffffffffffffffffffffffffffffffffffff1916827bffffffffffffffffffffffffffffffffffffffffffffffffffffffff1916149050919050565b61248a848484846128ea565b60018111156124ce576040517f08c379a00000000000000000000000000000000000000000000000000000000081526004016124c5906145a6565b60405180910390fd5b6000829050600073ffffffffffffffffffffffffffffffffffffffff168573ffffffffffffffffffffffffffffffffffffffff16036125155761251081612a10565b612554565b8373ffffffffffffffffffffffffffffffffffffffff168573ffffffffffffffffffffffffffffffffffffffff1614612553576125528582612a59565b5b5b600073ffffffffffffffffffffffffffffffffffffffff168473ffffffffffffffffffffffffffffffffffffffff16036125965761259181612bc6565b6125d5565b8473ffffffffffffffffffffffffffffffffffffffff168473ffffffffffffffffffffffffffffffffffffffff16146125d4576125d38482612c97565b5b5b5050505050565b600073ffffffffffffffffffffffffffffffffffffffff168273ffffffffffffffffffffffffffffffffffffffff160361264b576040517f08c379a000000000000000000000000000000000000000000000000000000000815260040161264290614612565b60405180910390fd5b6126548161215a565b15612694576040517f08c379a000000000000000000000000000000000000000000000000000000000815260040161268b9061467e565b60405180910390fd5b6126a260008383600161219b565b6126ab8161215a565b156126eb576040517f08c379a00000000000000000000000000000000000000000000000000000000081526004016126e29061467e565b60405180910390fd5b6001600360008473ffffffffffffffffffffffffffffffffffffffff1673ffffffffffffffffffffffffffffffffffffffff16815260200190815260200160002060008282540192505081905550816002600083815260200190815260200160002060006101000a81548173ffffffffffffffffffffffffffffffffffffffff021916908373ffffffffffffffffffffffffffffffffffffffff160217905550808273ffffffffffffffffffffffffffffffffffffffff16600073ffffffffffffffffffffffffffffffffffffffff167fddf252ad1be2c89b69c2b068fc378daa952ba7f163c4a11628f55a4df523b3ef60405160405180910390a46127f56000838360016121ad565b5050565b6000808273ffffffffffffffffffffffffffffffffffffffff163b119050919050565b60606000600161282b84612d16565b01905060008167ffffffffffffffff81111561284a5761284961319c565b5b6040519080825280601f01601f19166020018201604052801561287c5781602001600182028036833780820191505090505b509050600082602001820190505b6001156128df578080600190039150507f3031323334353637383961626364656600000000000000000000000000000000600a86061a8153600a85816128d3576128d261469e565b5b0494506000850361288a575b819350505050919050565b6001811115612a0a57600073ffffffffffffffffffffffffffffffffffffffff168473ffffffffffffffffffffffffffffffffffffffff161461297e5780600360008673ffffffffffffffffffffffffffffffffffffffff1673ffffffffffffffffffffffffffffffffffffffff168152602001908152602001600020600082825461297691906146cd565b925050819055505b600073ffffffffffffffffffffffffffffffffffffffff168373ffffffffffffffffffffffffffffffffffffffff1614612a095780600360008573ffffffffffffffffffffffffffffffffffffffff1673ffffffffffffffffffffffffffffffffffffffff1681526020019081526020016000206000828254612a019190613c90565b925050819055505b5b50505050565b6008805490506009600083815260200190815260200160002081905550600881908060018154018082558091505060019003906000526020600020016000909190919091505550565b60006001612a6684610f2a565b612a7091906146cd565b9050600060076000848152602001908152602001600020549050818114612b55576000600660008673ffffffffffffffffffffffffffffffffffffffff1673ffffffffffffffffffffffffffffffffffffffff168152602001908152602001600020600084815260200190815260200160002054905080600660008773ffffffffffffffffffffffffffffffffffffffff1673ffffffffffffffffffffffffffffffffffffffff168152602001908152602001600020600084815260200190815260200160002081905550816007600083815260200190815260200160002081905550505b6007600084815260200190815260200160002060009055600660008573ffffffffffffffffffffffffffffffffffffffff1673ffffffffffffffffffffffffffffffffffffffff16815260200190815260200160002060008381526020019081526020016000206000905550505050565b60006001600880549050612bda91906146cd565b9050600060096000848152602001908152602001600020549050600060088381548110612c0a57612c09613a5a565b5b906000526020600020015490508060088381548110612c2c57612c2b613a5a565b5b906000526020600020018190555081600960008381526020019081526020016000208190555060096000858152602001908152602001600020600090556008805480612c7b57612c7a614701565b5b6001900381819060005260206000200160009055905550505050565b6000612ca283610f2a565b905081600660008573ffffffffffffffffffffffffffffffffffffffff1673ffffffffffffffffffffffffffffffffffffffff168152602001908152602001600020600083815260200190815260200160002081905550806007600084815260200190815260200160002081905550505050565b600080600090507a184f03e93ff9f4daa797ed6e38ed64bf6a1f0100000000000000008310612d74577a184f03e93ff9f4daa797ed6e38ed64bf6a1f0100000000000000008381612d6a57612d6961469e565b5b0492506040810190505b6d04ee2d6d415b85acef81000000008310612db1576d04ee2d6d415b85acef81000000008381612da757612da661469e565b5b0492506020810190505b662386f26fc100008310612de057662386f26fc100008381612dd657612dd561469e565b5b0492506010810190505b6305f5e1008310612e09576305f5e1008381612dff57612dfe61469e565b5b0492506008810190505b6127108310612e2e576127108381612e2457612e2361469e565b5b0492506004810190505b60648310612e515760648381612e4757612e4661469e565b5b0492506002810190505b600a8310612e60576001810190505b80915050919050565b6000604051905090565b600080fd5b600080fd5b60007fffffffff0000000000000000000000000000000000000000000000000000000082169050919050565b612eb281612e7d565b8114612ebd57600080fd5b50565b600081359050612ecf81612ea9565b92915050565b600060208284031215612eeb57612eea612e73565b5b6000612ef984828501612ec0565b91505092915050565b60008115159050919050565b612f1781612f02565b82525050565b6000602082019050612f326000830184612f0e565b92915050565b600081519050919050565b600082825260208201905092915050565b60005b83811015612f72578082015181840152602081019050612f57565b60008484015250505050565b6000601f19601f8301169050919050565b6000612f9a82612f38565b612fa48185612f43565b9350612fb4818560208601612f54565b612fbd81612f7e565b840191505092915050565b60006020820190508181036000830152612fe28184612f8f565b905092915050565b6000819050919050565b612ffd81612fea565b811461300857600080fd5b50565b60008135905061301a81612ff4565b92915050565b60006020828403121561303657613035612e73565b5b60006130448482850161300b565b91505092915050565b600073ffffffffffffffffffffffffffffffffffffffff82169050919050565b60006130788261304d565b9050919050565b6130888161306d565b82525050565b60006020820190506130a3600083018461307f565b92915050565b6130b28161306d565b81146130bd57600080fd5b50565b6000813590506130cf816130a9565b92915050565b600080604083850312156130ec576130eb612e73565b5b60006130fa858286016130c0565b925050602061310b8582860161300b565b9150509250929050565b61311e81612fea565b82525050565b60006020820190506131396000830184613115565b92915050565b60008060006060848603121561315857613157612e73565b5b6000613166868287016130c0565b9350506020613177868287016130c0565b92505060406131888682870161300b565b9150509250925092565b600080fd5b600080fd5b7f4e487b7100000000000000000000000000000000000000000000000000000000600052604160045260246000fd5b6131d482612f7e565b810181811067ffffffffffffffff821117156131f3576131f261319c565b5b80604052505050565b6000613206612e69565b905061321282826131cb565b919050565b600067ffffffffffffffff8211156132325761323161319c565b5b61323b82612f7e565b9050602081019050919050565b82818337600083830152505050565b600061326a61326584613217565b6131fc565b90508281526020810184848401111561328657613285613197565b5b613291848285613248565b509392505050565b600082601f8301126132ae576132ad613192565b5b81356132be848260208601613257565b91505092915050565b600080604083850312156132de576132dd612e73565b5b600083013567ffffffffffffffff8111156132fc576132fb612e78565b5b61330885828601613299565b92505060206133198582860161300b565b9150509250929050565b600060e082019050613338600083018a613115565b613345602083018961307f565b613352604083018861307f565b61335f6060830187613115565b61336c6080830186612f0e565b61337960a0830185613115565b61338660c0830184613115565b98975050505050505050565b6000602082840312156133a8576133a7612e73565b5b60006133b6848285016130c0565b91505092915050565b6133c881612f02565b81146133d357600080fd5b50565b6000813590506133e5816133bf565b92915050565b6000806040838503121561340257613401612e73565b5b6000613410858286016130c0565b9250506020613421858286016133d6565b9150509250929050565b600067ffffffffffffffff8211156134465761344561319c565b5b61344f82612f7e565b9050602081019050919050565b600061346f61346a8461342b565b6131fc565b90508281526020810184848401111561348b5761348a613197565b5b613496848285613248565b509392505050565b600082601f8301126134b3576134b2613192565b5b81356134c384826020860161345c565b91505092915050565b600080600080608085870312156134e6576134e5612e73565b5b60006134f4878288016130c0565b9450506020613505878288016130c0565b93505060406135168782880161300b565b925050606085013567ffffffffffffffff81111561353757613536612e78565b5b6135438782880161349e565b91505092959194509250565b6000806040838503121561356657613565612e73565b5b60006135748582860161300b565b9250506020613585858286016130c0565b9150509250929050565b600060a0820190506135a46000830188613115565b6135b1602083018761307f565b6135be604083018661307f565b6135cb6060830185613115565b6135d86080830184612f0e565b9695505050505050565b600080604083850312156135f9576135f8612e73565b5b6000613607858286016130c0565b9250506020613618858286016130c0565b9150509250929050565b7f4e487b7100000000000000000000000000000000000000000000000000000000600052602260045260246000fd5b6000600282049050600182168061366957607f821691505b60208210810361367c5761367b613622565b5b50919050565b7f4552433732313a20617070726f76616c20746f2063757272656e74206f776e6560008201527f7200000000000000000000000000000000000000000000000000000000000000602082015250565b60006136de602183612f43565b91506136e982613682565b604082019050919050565b6000602082019050818103600083015261370d816136d1565b9050919050565b7f4552433732313a20617070726f76652063616c6c6572206973206e6f7420746f60008201527f6b656e206f776e6572206f7220617070726f76656420666f7220616c6c000000602082015250565b6000613770603d83612f43565b915061377b82613714565b604082019050919050565b6000602082019050818103600083015261379f81613763565b9050919050565b7f4552433732313a2063616c6c6572206973206e6f7420746f6b656e206f776e6560008201527f72206f7220617070726f76656400000000000000000000000000000000000000602082015250565b6000613802602d83612f43565b915061380d826137a6565b604082019050919050565b60006020820190508181036000830152613831816137f5565b9050919050565b7f455243373231456e756d657261626c653a206f776e657220696e646578206f7560008201527f74206f6620626f756e6473000000000000000000000000000000000000000000602082015250565b6000613894602b83612f43565b915061389f82613838565b604082019050919050565b600060208201905081810360008301526138c381613887565b9050919050565b7f4f6e6c79204e4654206f776e6572732063616e20706572666f726d207468697360008201527f206f7065726174696f6e00000000000000000000000000000000000000000000602082015250565b6000613926602a83612f43565b9150613931826138ca565b604082019050919050565b6000602082019050818103600083015261395581613919565b9050919050565b7f4974656d206e6f74206c697374656420666f722073616c650000000000000000600082015250565b6000613992601883612f43565b915061399d8261395c565b602082019050919050565b600060208201905081810360008301526139c181613985565b9050919050565b7f455243373231456e756d657261626c653a20676c6f62616c20696e646578206f60008201527f7574206f6620626f756e64730000000000000000000000000000000000000000602082015250565b6000613a24602c83612f43565b9150613a2f826139c8565b604082019050919050565b60006020820190508181036000830152613a5381613a17565b9050919050565b7f4e487b7100000000000000000000000000000000000000000000000000000000600052603260045260246000fd5b7f4552433732313a20696e76616c696420746f6b656e2049440000000000000000600082015250565b6000613abf601883612f43565b9150613aca82613a89565b602082019050919050565b60006020820190508181036000830152613aee81613ab2565b9050919050565b7f4552433732313a2061646472657373207a65726f206973206e6f74206120766160008201527f6c6964206f776e65720000000000000000000000000000000000000000000000602082015250565b6000613b51602983612f43565b9150613b5c82613af5565b604082019050919050565b60006020820190508181036000830152613b8081613b44565b9050919050565b7f506c65617365207375626d6974207468652061736b696e67207072696365206960008201527f6e206f7264657220746f20636f6d706c65746520746865207075726368617365602082015250565b6000613be3604083612f43565b9150613bee82613b87565b604082019050919050565b60006020820190508181036000830152613c1281613bd6565b9050919050565b7f4e487b7100000000000000000000000000000000000000000000000000000000600052601160045260246000fd5b6000613c5382612fea565b91507fffffffffffffffffffffffffffffffffffffffffffffffffffffffffffffffff8203613c8557613c84613c19565b5b600182019050919050565b6000613c9b82612fea565b9150613ca683612fea565b9250828201905080821115613cbe57613cbd613c19565b5b92915050565b7f4f6e6c79206f776e65722063616e20757064617465206c697374696e6720707260008201527f6963650000000000000000000000000000000000000000000000000000000000602082015250565b6000613d20602383612f43565b9150613d2b82613cc4565b604082019050919050565b60006020820190508181036000830152613d4f81613d13565b9050919050565b7f4552433732313a207472616e736665722066726f6d20696e636f72726563742060008201527f6f776e6572000000000000000000000000000000000000000000000000000000602082015250565b6000613db2602583612f43565b9150613dbd82613d56565b604082019050919050565b60006020820190508181036000830152613de181613da5565b9050919050565b7f4552433732313a207472616e7366657220746f20746865207a65726f2061646460008201527f7265737300000000000000000000000000000000000000000000000000000000602082015250565b6000613e44602483612f43565b9150613e4f82613de8565b604082019050919050565b60006020820190508181036000830152613e7381613e37565b9050919050565b7f45524337323155524953746f726167653a2055524920736574206f66206e6f6e60008201527f6578697374656e7420746f6b656e000000000000000000000000000000000000602082015250565b6000613ed6602e83612f43565b9150613ee182613e7a565b604082019050919050565b60006020820190508181036000830152613f0581613ec9565b9050919050565b60008190508160005260206000209050919050565b60006020601f8301049050919050565b600082821b905092915050565b600060088302613f6e7fffffffffffffffffffffffffffffffffffffffffffffffffffffffffffffffff82613f31565b613f788683613f31565b95508019841693508086168417925050509392505050565b6000819050919050565b6000613fb5613fb0613fab84612fea565b613f90565b612fea565b9050919050565b6000819050919050565b613fcf83613f9a565b613fe3613fdb82613fbc565b848454613f3e565b825550505050565b600090565b613ff8613feb565b614003818484613fc6565b505050565b5b818110156140275761401c600082613ff0565b600181019050614009565b5050565b601f82111561406c5761403d81613f0c565b61404684613f21565b81016020851015614055578190505b61406961406185613f21565b830182614008565b50505b505050565b600082821c905092915050565b600061408f60001984600802614071565b1980831691505092915050565b60006140a8838361407e565b9150826002028217905092915050565b6140c182612f38565b67ffffffffffffffff8111156140da576140d961319c565b5b6140e48254613651565b6140ef82828561402b565b600060209050601f8311600181146141225760008415614110578287015190505b61411a858261409c565b865550614182565b601f19841661413086613f0c565b60005b8281101561415857848901518255600182019150602085019450602081019050614133565b868310156141755784890151614171601f89168261407e565b8355505b6001600288020188555050505b505050505050565b7f486f706566756c6c792073656e64696e672074686520636f727265637420707260008201527f6963650000000000000000000000000000000000000000000000000000000000602082015250565b60006141e6602383612f43565b91506141f18261418a565b604082019050919050565b60006020820190508181036000830152614215816141d9565b9050919050565b7f4d616b652073757265207468652070726963652069736e2774206e656761746960008201527f7665000000000000000000000000000000000000000000000000000000000000602082015250565b6000614278602283612f43565b91506142838261421c565b604082019050919050565b600060208201905081810360008301526142a78161426b565b9050919050565b60006080820190506142c3600083018761307f565b6142d0602083018661307f565b6142dd6040830185613115565b6142ea6060830184612f0e565b95945050505050565b7f4552433732313a20617070726f766520746f2063616c6c657200000000000000600082015250565b6000614329601983612f43565b9150614334826142f3565b602082019050919050565b600060208201905081810360008301526143588161431c565b9050919050565b7f4552433732313a207472616e7366657220746f206e6f6e20455243373231526560008201527f63656976657220696d706c656d656e7465720000000000000000000000000000602082015250565b60006143bb603283612f43565b91506143c68261435f565b604082019050919050565b600060208201905081810360008301526143ea816143ae565b9050919050565b600081905092915050565b600061440782612f38565b61441181856143f1565b9350614421818560208601612f54565b80840191505092915050565b600061443982856143fc565b915061444582846143fc565b91508190509392505050565b600081519050919050565b600082825260208201905092915050565b600061447882614451565b614482818561445c565b9350614492818560208601612f54565b61449b81612f7e565b840191505092915050565b60006080820190506144bb600083018761307f565b6144c8602083018661307f565b6144d56040830185613115565b81810360608301526144e7818461446d565b905095945050505050565b60008151905061450181612ea9565b92915050565b60006020828403121561451d5761451c612e73565b5b600061452b848285016144f2565b91505092915050565b7f455243373231456e756d657261626c653a20636f6e736563757469766520747260008201527f616e7366657273206e6f7420737570706f727465640000000000000000000000602082015250565b6000614590603583612f43565b915061459b82614534565b604082019050919050565b600060208201905081810360008301526145bf81614583565b9050919050565b7f4552433732313a206d696e7420746f20746865207a65726f2061646472657373600082015250565b60006145fc602083612f43565b9150614607826145c6565b602082019050919050565b6000602082019050818103600083015261462b816145ef565b9050919050565b7f4552433732313a20746f6b656e20616c7265616479206d696e74656400000000600082015250565b6000614668601c83612f43565b915061467382614632565b602082019050919050565b600060208201905081810360008301526146978161465b565b9050919050565b7f4e487b7100000000000000000000000000000000000000000000000000000000600052601260045260246000fd5b60006146d882612fea565b91506146e383612fea565b92508282039050818111156146fb576146fa613c19565b5b92915050565b7f4e487b7100000000000000000000000000000000000000000000000000000000600052603160045260246000fdfea2646970667358221220391f70572035d2cc0f65d6228b2ff46f0867bc6e0617550a3ab86a344b4061ee64736f6c63430008110033",
  "linkReferences": {},
  "deployedLinkReferences": {}
}