{
  "_format": "hh-sol-artifact-1",
  "contractName": "NFTMarketplace",
  "sourceName": "contracts/NFTMarketplace.sol",
  "abi": [
    {
      "inputs": [],
      "stateMutability": "nonpayable",
      "type": "constructor"
    },
    {
      "anonymous": false,
      "inputs": [
        {
          "indexed": true,
          "internalType": "address",
          "name": "owner",
          "type": "address"
        },
        {
          "indexed": true,
          "internalType": "address",
          "name": "approved",
          "type": "address"
        },
        {
          "indexed": true,
          "internalType": "uint256",
          "name": "tokenId",
          "type": "uint256"
        }
      ],
      "name": "Approval",
      "type": "event"
    },
    {
      "anonymous": false,
      "inputs": [
        {
          "indexed": true,
          "internalType": "address",
          "name": "owner",
          "type": "address"
        },
        {
          "indexed": true,
          "internalType": "address",
          "name": "operator",
          "type": "address"
        },
        {
          "indexed": false,
          "internalType": "bool",
          "name": "approved",
          "type": "bool"
        }
      ],
      "name": "ApprovalForAll",
      "type": "event"
    },
    {
      "anonymous": false,
      "inputs": [
        {
          "indexed": true,
          "internalType": "uint256",
          "name": "tokenId",
          "type": "uint256"
        },
        {
          "indexed": false,
          "internalType": "address",
          "name": "seller",
          "type": "address"
        },
        {
          "indexed": false,
          "internalType": "uint256",
          "name": "price",
          "type": "uint256"
        },
        {
          "indexed": false,
          "internalType": "bool",
          "name": "forSale",
          "type": "bool"
        }
      ],
      "name": "NFTListedSuccess",
      "type": "event"
    },
    {
      "anonymous": false,
      "inputs": [
        {
          "indexed": true,
          "internalType": "address",
          "name": "from",
          "type": "address"
        },
        {
          "indexed": true,
          "internalType": "address",
          "name": "to",
          "type": "address"
        },
        {
          "indexed": true,
          "internalType": "uint256",
          "name": "tokenId",
          "type": "uint256"
        }
      ],
      "name": "Transfer",
      "type": "event"
    },
    {
      "inputs": [
        {
          "internalType": "address",
          "name": "to",
          "type": "address"
        },
        {
          "internalType": "uint256",
          "name": "tokenId",
          "type": "uint256"
        }
      ],
      "name": "approve",
      "outputs": [],
      "stateMutability": "nonpayable",
      "type": "function"
    },
    {
      "inputs": [
        {
          "internalType": "address",
          "name": "owner",
          "type": "address"
        }
      ],
      "name": "balanceOf",
      "outputs": [
        {
          "internalType": "uint256",
          "name": "",
          "type": "uint256"
        }
      ],
      "stateMutability": "view",
      "type": "function"
    },
    {
      "inputs": [
        {
          "internalType": "uint256",
          "name": "tokenId",
          "type": "uint256"
        }
      ],
      "name": "buyNFT",
      "outputs": [],
      "stateMutability": "payable",
      "type": "function"
    },
    {
      "inputs": [
        {
          "internalType": "uint256",
          "name": "tokenId",
          "type": "uint256"
        }
      ],
      "name": "cancel",
      "outputs": [],
      "stateMutability": "nonpayable",
      "type": "function"
    },
    {
      "inputs": [
        {
          "internalType": "string",
          "name": "NFTURI",
          "type": "string"
        },
        {
          "internalType": "uint256",
          "name": "price",
          "type": "uint256"
        }
      ],
      "name": "createNFT",
      "outputs": [
        {
          "internalType": "uint256",
          "name": "",
          "type": "uint256"
        }
      ],
      "stateMutability": "payable",
      "type": "function"
    },
    {
      "inputs": [
        {
          "internalType": "uint256",
          "name": "tokenId",
          "type": "uint256"
        }
      ],
      "name": "getApproved",
      "outputs": [
        {
          "internalType": "address",
          "name": "",
          "type": "address"
        }
      ],
      "stateMutability": "view",
      "type": "function"
    },
    {
      "inputs": [],
      "name": "getListPrice",
      "outputs": [
        {
          "internalType": "uint256",
          "name": "",
          "type": "uint256"
        }
      ],
      "stateMutability": "view",
      "type": "function"
    },
    {
      "inputs": [
        {
          "internalType": "address",
          "name": "_address",
          "type": "address"
        }
      ],
      "name": "getMyNFTCount",
      "outputs": [
        {
          "internalType": "uint256",
          "name": "",
          "type": "uint256"
        }
      ],
      "stateMutability": "view",
      "type": "function"
    },
    {
      "inputs": [
        {
          "internalType": "uint256",
          "name": "_index",
          "type": "uint256"
        },
        {
          "internalType": "address",
          "name": "_callerAddress",
          "type": "address"
        }
      ],
      "name": "getMyNFTs",
      "outputs": [
        {
          "internalType": "uint256",
          "name": "_NFTId",
          "type": "uint256"
        },
        {
          "internalType": "address",
          "name": "_seller",
          "type": "address"
        },
        {
          "internalType": "uint256",
          "name": "_price",
          "type": "uint256"
        },
        {
          "internalType": "bool",
          "name": "_forSale",
          "type": "bool"
        },
        {
          "internalType": "bool",
          "name": "_sold",
          "type": "bool"
        },
        {
          "internalType": "uint256",
          "name": "_sales",
          "type": "uint256"
        },
        {
          "internalType": "uint256",
          "name": "_earnings",
          "type": "uint256"
        }
      ],
      "stateMutability": "view",
      "type": "function"
    },
    {
      "inputs": [
        {
          "internalType": "uint256",
          "name": "NFTId",
          "type": "uint256"
        }
      ],
      "name": "getNFT",
      "outputs": [
        {
          "internalType": "uint256",
          "name": "_NFTId",
          "type": "uint256"
        },
        {
          "internalType": "address",
          "name": "_seller",
          "type": "address"
        },
        {
          "internalType": "uint256",
          "name": "_price",
          "type": "uint256"
        },
        {
          "internalType": "bool",
          "name": "_forSale",
          "type": "bool"
        },
        {
          "internalType": "uint256",
          "name": "_sales",
          "type": "uint256"
        },
        {
          "internalType": "uint256",
          "name": "_earnings",
          "type": "uint256"
        }
      ],
      "stateMutability": "view",
      "type": "function"
    },
    {
      "inputs": [],
      "name": "getNFTCount",
      "outputs": [
        {
          "internalType": "uint256",
          "name": "",
          "type": "uint256"
        }
      ],
      "stateMutability": "view",
      "type": "function"
    },
    {
      "inputs": [
        {
          "internalType": "address",
          "name": "owner",
          "type": "address"
        },
        {
          "internalType": "address",
          "name": "operator",
          "type": "address"
        }
      ],
      "name": "isApprovedForAll",
      "outputs": [
        {
          "internalType": "bool",
          "name": "",
          "type": "bool"
        }
      ],
      "stateMutability": "view",
      "type": "function"
    },
    {
      "inputs": [
        {
          "internalType": "address",
          "name": "",
          "type": "address"
        },
        {
          "internalType": "uint256",
          "name": "",
          "type": "uint256"
        }
      ],
      "name": "myNFTs",
      "outputs": [
        {
          "internalType": "uint256",
          "name": "NFTId",
          "type": "uint256"
        },
        {
          "internalType": "address payable",
          "name": "seller",
          "type": "address"
        },
        {
          "internalType": "uint256",
          "name": "price",
          "type": "uint256"
        },
        {
          "internalType": "bool",
          "name": "forSale",
          "type": "bool"
        },
        {
          "internalType": "bool",
          "name": "sold",
          "type": "bool"
        }
      ],
      "stateMutability": "view",
      "type": "function"
    },
    {
      "inputs": [],
      "name": "name",
      "outputs": [
        {
          "internalType": "string",
          "name": "",
          "type": "string"
        }
      ],
      "stateMutability": "view",
      "type": "function"
    },
    {
      "inputs": [
        {
          "internalType": "uint256",
          "name": "tokenId",
          "type": "uint256"
        }
      ],
      "name": "ownerOf",
      "outputs": [
        {
          "internalType": "address",
          "name": "",
          "type": "address"
        }
      ],
      "stateMutability": "view",
      "type": "function"
    },
    {
      "inputs": [
        {
          "internalType": "address",
          "name": "from",
          "type": "address"
        },
        {
          "internalType": "address",
          "name": "to",
          "type": "address"
        },
        {
          "internalType": "uint256",
          "name": "tokenId",
          "type": "uint256"
        }
      ],
      "name": "safeTransferFrom",
      "outputs": [],
      "stateMutability": "nonpayable",
      "type": "function"
    },
    {
      "inputs": [
        {
          "internalType": "address",
          "name": "from",
          "type": "address"
        },
        {
          "internalType": "address",
          "name": "to",
          "type": "address"
        },
        {
          "internalType": "uint256",
          "name": "tokenId",
          "type": "uint256"
        },
        {
          "internalType": "bytes",
          "name": "data",
          "type": "bytes"
        }
      ],
      "name": "safeTransferFrom",
      "outputs": [],
      "stateMutability": "nonpayable",
      "type": "function"
    },
    {
      "inputs": [
        {
          "internalType": "uint256",
          "name": "tokenId",
          "type": "uint256"
        }
      ],
      "name": "sellNFT",
      "outputs": [],
      "stateMutability": "payable",
      "type": "function"
    },
    {
      "inputs": [
        {
          "internalType": "address",
          "name": "",
          "type": "address"
        }
      ],
      "name": "sellerExist",
      "outputs": [
        {
          "internalType": "bool",
          "name": "",
          "type": "bool"
        }
      ],
      "stateMutability": "view",
      "type": "function"
    },
    {
      "inputs": [
        {
          "internalType": "address",
          "name": "operator",
          "type": "address"
        },
        {
          "internalType": "bool",
          "name": "approved",
          "type": "bool"
        }
      ],
      "name": "setApprovalForAll",
      "outputs": [],
      "stateMutability": "nonpayable",
      "type": "function"
    },
    {
      "inputs": [
        {
          "internalType": "bytes4",
          "name": "interfaceId",
          "type": "bytes4"
        }
      ],
      "name": "supportsInterface",
      "outputs": [
        {
          "internalType": "bool",
          "name": "",
          "type": "bool"
        }
      ],
      "stateMutability": "view",
      "type": "function"
    },
    {
      "inputs": [],
      "name": "symbol",
      "outputs": [
        {
          "internalType": "string",
          "name": "",
          "type": "string"
        }
      ],
      "stateMutability": "view",
      "type": "function"
    },
    {
      "inputs": [
        {
          "internalType": "uint256",
          "name": "index",
          "type": "uint256"
        }
      ],
      "name": "tokenByIndex",
      "outputs": [
        {
          "internalType": "uint256",
          "name": "",
          "type": "uint256"
        }
      ],
      "stateMutability": "view",
      "type": "function"
    },
    {
      "inputs": [
        {
          "internalType": "address",
          "name": "owner",
          "type": "address"
        },
        {
          "internalType": "uint256",
          "name": "index",
          "type": "uint256"
        }
      ],
      "name": "tokenOfOwnerByIndex",
      "outputs": [
        {
          "internalType": "uint256",
          "name": "",
          "type": "uint256"
        }
      ],
      "stateMutability": "view",
      "type": "function"
    },
    {
      "inputs": [
        {
          "internalType": "uint256",
          "name": "tokenId",
          "type": "uint256"
        }
      ],
      "name": "tokenURI",
      "outputs": [
        {
          "internalType": "string",
          "name": "",
          "type": "string"
        }
      ],
      "stateMutability": "view",
      "type": "function"
    },
    {
      "inputs": [],
      "name": "totalSupply",
      "outputs": [
        {
          "internalType": "uint256",
          "name": "",
          "type": "uint256"
        }
      ],
      "stateMutability": "view",
      "type": "function"
    },
    {
      "inputs": [
        {
          "internalType": "address",
          "name": "from",
          "type": "address"
        },
        {
          "internalType": "address",
          "name": "to",
          "type": "address"
        },
        {
          "internalType": "uint256",
          "name": "tokenId",
          "type": "uint256"
        }
      ],
      "name": "transferFrom",
      "outputs": [],
      "stateMutability": "nonpayable",
      "type": "function"
    },
    {
      "inputs": [
        {
          "internalType": "uint256",
          "name": "_listPrice",
          "type": "uint256"
        }
      ],
      "name": "updateListPrice",
      "outputs": [],
      "stateMutability": "payable",
      "type": "function"
    }
  ],
  "bytecode": "0x6080604052662386f26fc10000600e553480156200001c57600080fd5b506040518060400160405280601681526020017f4172746973616e734e46544d61726b6574706c616365000000000000000000008152506040518060400160405280600681526020017f414e544d4b54000000000000000000000000000000000000000000000000000081525081600090816200009a919062000370565b508060019081620000ac919062000370565b50505033600d60006101000a81548173ffffffffffffffffffffffffffffffffffffffff021916908373ffffffffffffffffffffffffffffffffffffffff16021790555062000457565b600081519050919050565b7f4e487b7100000000000000000000000000000000000000000000000000000000600052604160045260246000fd5b7f4e487b7100000000000000000000000000000000000000000000000000000000600052602260045260246000fd5b600060028204905060018216806200017857607f821691505b6020821081036200018e576200018d62000130565b5b50919050565b60008190508160005260206000209050919050565b60006020601f8301049050919050565b600082821b905092915050565b600060088302620001f87fffffffffffffffffffffffffffffffffffffffffffffffffffffffffffffffff82620001b9565b620002048683620001b9565b95508019841693508086168417925050509392505050565b6000819050919050565b6000819050919050565b6000620002516200024b62000245846200021c565b62000226565b6200021c565b9050919050565b6000819050919050565b6200026d8362000230565b620002856200027c8262000258565b848454620001c6565b825550505050565b600090565b6200029c6200028d565b620002a981848462000262565b505050565b5b81811015620002d157620002c560008262000292565b600181019050620002af565b5050565b601f8211156200032057620002ea8162000194565b620002f584620001a9565b8101602085101562000305578190505b6200031d6200031485620001a9565b830182620002ae565b50505b505050565b600082821c905092915050565b6000620003456000198460080262000325565b1980831691505092915050565b600062000360838362000332565b9150826002028217905092915050565b6200037b82620000f6565b67ffffffffffffffff81111562000397576200039662000101565b5b620003a382546200015f565b620003b0828285620002d5565b600060209050601f831160018114620003e85760008415620003d3578287015190505b620003df858262000352565b8655506200044f565b601f198416620003f88662000194565b60005b828110156200042257848901518255600182019150602085019450602081019050620003fb565b868310156200044257848901516200043e601f89168262000332565b8355505b6001600288020188555050505b505050505050565b614e2580620004676000396000f3fe6080604052600436106101b75760003560e01c80636352211e116100ec578063b88d4fde1161008a578063cf39023211610064578063cf3902321461065c578063e222d6d61461069f578063e985e9c5146106dc578063ee9cdfb314610719576101b7565b8063b88d4fde146105da578063c322579c14610603578063c87b56dd1461061f576101b7565b806386001cd1116100c657806386001cd11461050857806395d89b4114610549578063a22cb46514610574578063a55ed1731461059d576101b7565b80636352211e1461046357806368f1945f146104a057806370a08231146104cb576101b7565b80632f745c59116101595780634f6ccce7116101335780634f6ccce71461039d57806351ed8288146103da57806354279637146103f6578063576f7ea714610421576101b7565b80632f745c591461030e57806340e58ee51461034b57806342842e0e14610374576101b7565b8063095ea7b311610195578063095ea7b31461026157806318160ddd1461028a57806323b872dd146102b557806326829155146102de576101b7565b806301ffc9a7146101bc57806306fdde03146101f9578063081812fc14610224575b600080fd5b3480156101c857600080fd5b506101e360048036038101906101de91906134b4565b610735565b6040516101f091906134fc565b60405180910390f35b34801561020557600080fd5b5061020e610747565b60405161021b91906135a7565b60405180910390f35b34801561023057600080fd5b5061024b600480360381019061024691906135ff565b6107d9565b604051610258919061366d565b60405180910390f35b34801561026d57600080fd5b50610288600480360381019061028391906136b4565b61081f565b005b34801561029657600080fd5b5061029f610936565b6040516102ac9190613703565b60405180910390f35b3480156102c157600080fd5b506102dc60048036038101906102d7919061371e565b610943565b005b6102f860048036038101906102f391906138a6565b6109a3565b6040516103059190613703565b60405180910390f35b34801561031a57600080fd5b50610335600480360381019061033091906136b4565b610c35565b6040516103429190613703565b60405180910390f35b34801561035757600080fd5b50610372600480360381019061036d91906135ff565b610cda565b005b34801561038057600080fd5b5061039b6004803603810190610396919061371e565b610e79565b005b3480156103a957600080fd5b506103c460048036038101906103bf91906135ff565b610e99565b6040516103d19190613703565b60405180910390f35b6103f460048036038101906103ef91906135ff565b610f0a565b005b34801561040257600080fd5b5061040b6113a8565b6040516104189190613703565b60405180910390f35b34801561042d57600080fd5b50610448600480360381019061044391906135ff565b6113b9565b60405161045a96959493929190613902565b60405180910390f35b34801561046f57600080fd5b5061048a600480360381019061048591906135ff565b61150e565b604051610497919061366d565b60405180910390f35b3480156104ac57600080fd5b506104b5611594565b6040516104c29190613703565b60405180910390f35b3480156104d757600080fd5b506104f260048036038101906104ed9190613963565b61159e565b6040516104ff9190613703565b60405180910390f35b34801561051457600080fd5b5061052f600480360381019061052a91906136b4565b611655565b6040516105409594939291906139b1565b60405180910390f35b34801561055557600080fd5b5061055e6116d2565b60405161056b91906135a7565b60405180910390f35b34801561058057600080fd5b5061059b60048036038101906105969190613a30565b611764565b005b3480156105a957600080fd5b506105c460048036038101906105bf9190613963565b61177a565b6040516105d191906134fc565b60405180910390f35b3480156105e657600080fd5b5061060160048036038101906105fc9190613b11565b61179a565b005b61061d600480360381019061061891906135ff565b6117fc565b005b34801561062b57600080fd5b50610646600480360381019061064191906135ff565b611896565b60405161065391906135a7565b60405180910390f35b34801561066857600080fd5b50610683600480360381019061067e9190613b94565b6118a8565b6040516106969796959493929190613bd4565b60405180910390f35b3480156106ab57600080fd5b506106c660048036038101906106c19190613963565b6119c2565b6040516106d39190613703565b60405180910390f35b3480156106e857600080fd5b5061070360048036038101906106fe9190613c43565b611a13565b60405161071091906134fc565b60405180910390f35b610733600480360381019061072e91906135ff565b611aa7565b005b600061074082611d7d565b9050919050565b60606000805461075690613cb2565b80601f016020809104026020016040519081016040528092919081815260200182805461078290613cb2565b80156107cf5780601f106107a4576101008083540402835291602001916107cf565b820191906000526020600020905b8154815290600101906020018083116107b257829003601f168201915b5050505050905090565b60006107e482611df7565b6004600083815260200190815260200160002060009054906101000a900473ffffffffffffffffffffffffffffffffffffffff169050919050565b600061082a8261150e565b90508073ffffffffffffffffffffffffffffffffffffffff168373ffffffffffffffffffffffffffffffffffffffff160361089a576040517f08c379a000000000000000000000000000000000000000000000000000000000815260040161089190613d55565b60405180910390fd5b8073ffffffffffffffffffffffffffffffffffffffff166108b9611e42565b73ffffffffffffffffffffffffffffffffffffffff1614806108e857506108e7816108e2611e42565b611a13565b5b610927576040517f08c379a000000000000000000000000000000000000000000000000000000000815260040161091e90613de7565b60405180910390fd5b6109318383611e4a565b505050565b6000600880549050905090565b61095461094e611e42565b82611f03565b610993576040517f08c379a000000000000000000000000000000000000000000000000000000000815260040161098a90613e79565b60405180910390fd5b61099e838383611f98565b505050565b60006109af600b612291565b60006109bb600b6122a7565b90506109c733826122b5565b6109d181856122d3565b60405180608001604052808281526020013373ffffffffffffffffffffffffffffffffffffffff16815260200184815260200160001515815250600f60008381526020019081526020016000206000820151816000015560208201518160010160006101000a81548173ffffffffffffffffffffffffffffffffffffffff021916908373ffffffffffffffffffffffffffffffffffffffff1602179055506040820151816002015560608201518160030160006101000a81548160ff0219169083151502179055509050506040518060a001604052808281526020013373ffffffffffffffffffffffffffffffffffffffff16815260200184815260200160001515815260200160001515815250601060003373ffffffffffffffffffffffffffffffffffffffff1673ffffffffffffffffffffffffffffffffffffffff16815260200190815260200160002060008381526020019081526020016000206000820151816000015560208201518160010160006101000a81548173ffffffffffffffffffffffffffffffffffffffff021916908373ffffffffffffffffffffffffffffffffffffffff1602179055506040820151816002015560608201518160030160006101000a81548160ff02191690831515021790555060808201518160030160016101000a81548160ff0219169083151502179055509050506000601160003373ffffffffffffffffffffffffffffffffffffffff1673ffffffffffffffffffffffffffffffffffffffff1681526020019081526020016000209050806002016000815480929190610c2590613ec8565b9190505550819250505092915050565b6000610c408361159e565b8210610c81576040517f08c379a0000000000000000000000000000000000000000000000000000000008152600401610c7890613f82565b60405180910390fd5b600660008473ffffffffffffffffffffffffffffffffffffffff1673ffffffffffffffffffffffffffffffffffffffff168152602001908152602001600020600083815260200190815260200160002054905092915050565b6000600f600083815260200190815260200160002090503373ffffffffffffffffffffffffffffffffffffffff168160010160009054906101000a900473ffffffffffffffffffffffffffffffffffffffff1673ffffffffffffffffffffffffffffffffffffffff1614610d83576040517f08c379a0000000000000000000000000000000000000000000000000000000008152600401610d7a90614014565b60405180910390fd5b600115158160030160009054906101000a900460ff16151514610ddb576040517f08c379a0000000000000000000000000000000000000000000000000000000008152600401610dd290614080565b60405180910390fd5b6000601060003373ffffffffffffffffffffffffffffffffffffffff1673ffffffffffffffffffffffffffffffffffffffff16815260200190815260200160002060008481526020019081526020016000209050610e3a303385611f98565b60008260030160006101000a81548160ff02191690831515021790555060008160030160006101000a81548160ff021916908315150217905550505050565b610e948383836040518060200160405280600081525061179a565b505050565b6000610ea3610936565b8210610ee4576040517f08c379a0000000000000000000000000000000000000000000000000000000008152600401610edb90614112565b60405180910390fd5b60088281548110610ef857610ef7614132565b5b90600052602060002001549050919050565b6000600f600083815260200190815260200160002090506000600f600084815260200190815260200160002060010160009054906101000a900473ffffffffffffffffffffffffffffffffffffffff16905081600201543414610fa2576040517f08c379a0000000000000000000000000000000000000000000000000000000008152600401610f99906141d3565b60405180910390fd5b60008260030160006101000a81548160ff021916908315150217905550338260010160006101000a81548173ffffffffffffffffffffffffffffffffffffffff021916908373ffffffffffffffffffffffffffffffffffffffff16021790555061100c600c612291565b611017303385611f98565b8073ffffffffffffffffffffffffffffffffffffffff166108fc349081150290604051600060405180830381858888f1935050505015801561105d573d6000803e3d6000fd5b506040518060a001604052808481526020013373ffffffffffffffffffffffffffffffffffffffff1681526020018360020154815260200160001515815260200160001515815250601060003373ffffffffffffffffffffffffffffffffffffffff1673ffffffffffffffffffffffffffffffffffffffff16815260200190815260200160002060008581526020019081526020016000206000820151816000015560208201518160010160006101000a81548173ffffffffffffffffffffffffffffffffffffffff021916908373ffffffffffffffffffffffffffffffffffffffff1602179055506040820151816002015560608201518160030160006101000a81548160ff02191690831515021790555060808201518160030160016101000a81548160ff0219169083151502179055509050506040518060a001604052808481526020018273ffffffffffffffffffffffffffffffffffffffff1681526020018360020154815260200160001515815260200160011515815250601060008373ffffffffffffffffffffffffffffffffffffffff1673ffffffffffffffffffffffffffffffffffffffff16815260200190815260200160002060008581526020019081526020016000206000820151816000015560208201518160010160006101000a81548173ffffffffffffffffffffffffffffffffffffffff021916908373ffffffffffffffffffffffffffffffffffffffff1602179055506040820151816002015560608201518160030160006101000a81548160ff02191690831515021790555060808201518160030160016101000a81548160ff0219169083151502179055509050506000601160008373ffffffffffffffffffffffffffffffffffffffff1673ffffffffffffffffffffffffffffffffffffffff16815260200190815260200160002090506000601160003373ffffffffffffffffffffffffffffffffffffffff1673ffffffffffffffffffffffffffffffffffffffff168152602001908152602001600020905081600001600081548092919061136390613ec8565b9190505550836002015482600101600082825461138091906141f3565b9250508190555080600201600081548092919061139c90613ec8565b91905055505050505050565b60006113b4600b6122a7565b905090565b6000806000806000806000600f6000898152602001908152602001600020604051806080016040529081600082015481526020016001820160009054906101000a900473ffffffffffffffffffffffffffffffffffffffff1673ffffffffffffffffffffffffffffffffffffffff1673ffffffffffffffffffffffffffffffffffffffff168152602001600282015481526020016003820160009054906101000a900460ff1615151515815250509050600060116000836020015173ffffffffffffffffffffffffffffffffffffffff1673ffffffffffffffffffffffffffffffffffffffff16815260200190815260200160002060405180606001604052908160008201548152602001600182015481526020016002820154815250509050816000015182602001518360400151846060015184600001518560200151975097509750975097509750505091939550919395565b60008061151a83612340565b9050600073ffffffffffffffffffffffffffffffffffffffff168173ffffffffffffffffffffffffffffffffffffffff160361158b576040517f08c379a000000000000000000000000000000000000000000000000000000000815260040161158290614273565b60405180910390fd5b80915050919050565b6000600e54905090565b60008073ffffffffffffffffffffffffffffffffffffffff168273ffffffffffffffffffffffffffffffffffffffff160361160e576040517f08c379a000000000000000000000000000000000000000000000000000000000815260040161160590614305565b60405180910390fd5b600360008373ffffffffffffffffffffffffffffffffffffffff1673ffffffffffffffffffffffffffffffffffffffff168152602001908152602001600020549050919050565b6010602052816000526040600020602052806000526040600020600091509150508060000154908060010160009054906101000a900473ffffffffffffffffffffffffffffffffffffffff16908060020154908060030160009054906101000a900460ff16908060030160019054906101000a900460ff16905085565b6060600180546116e190613cb2565b80601f016020809104026020016040519081016040528092919081815260200182805461170d90613cb2565b801561175a5780601f1061172f5761010080835404028352916020019161175a565b820191906000526020600020905b81548152906001019060200180831161173d57829003601f168201915b5050505050905090565b61177661176f611e42565b838361237d565b5050565b60126020528060005260406000206000915054906101000a900460ff1681565b6117ab6117a5611e42565b83611f03565b6117ea576040517f08c379a00000000000000000000000000000000000000000000000000000000081526004016117e190613e79565b60405180910390fd5b6117f6848484846124e9565b50505050565b3373ffffffffffffffffffffffffffffffffffffffff16600d60009054906101000a900473ffffffffffffffffffffffffffffffffffffffff1673ffffffffffffffffffffffffffffffffffffffff161461188c576040517f08c379a000000000000000000000000000000000000000000000000000000000815260040161188390614397565b60405180910390fd5b80600e8190555050565b60606118a182612545565b9050919050565b600080600080600080600080601160008a73ffffffffffffffffffffffffffffffffffffffff1673ffffffffffffffffffffffffffffffffffffffff16815260200190815260200160002090506000601060008b73ffffffffffffffffffffffffffffffffffffffff1673ffffffffffffffffffffffffffffffffffffffff16815260200190815260200160002060008c8152602001908152602001600020905080600001548160010160009054906101000a900473ffffffffffffffffffffffffffffffffffffffff1682600201548360030160009054906101000a900460ff168460030160019054906101000a900460ff16866000015487600101549850985098509850985098509850505092959891949750929550565b600080601160008473ffffffffffffffffffffffffffffffffffffffff1673ffffffffffffffffffffffffffffffffffffffff16815260200190815260200160002090508060020154915050919050565b6000600560008473ffffffffffffffffffffffffffffffffffffffff1673ffffffffffffffffffffffffffffffffffffffff16815260200190815260200160002060008373ffffffffffffffffffffffffffffffffffffffff1673ffffffffffffffffffffffffffffffffffffffff16815260200190815260200160002060009054906101000a900460ff16905092915050565b6000600f600083815260200190815260200160002090506000816002015411611b05576040517f08c379a0000000000000000000000000000000000000000000000000000000008152600401611afc90614429565b60405180910390fd5b600e543414611b49576040517f08c379a0000000000000000000000000000000000000000000000000000000008152600401611b40906144bb565b60405180910390fd5b3373ffffffffffffffffffffffffffffffffffffffff168160010160009054906101000a900473ffffffffffffffffffffffffffffffffffffffff1673ffffffffffffffffffffffffffffffffffffffff1614611bdb576040517f08c379a0000000000000000000000000000000000000000000000000000000008152600401611bd290614014565b60405180910390fd5b600015158160030160009054906101000a900460ff16151514611c33576040517f08c379a0000000000000000000000000000000000000000000000000000000008152600401611c2a90614527565b60405180910390fd5b6000601060003373ffffffffffffffffffffffffffffffffffffffff1673ffffffffffffffffffffffffffffffffffffffff16815260200190815260200160002060008481526020019081526020016000209050600d60009054906101000a900473ffffffffffffffffffffffffffffffffffffffff1673ffffffffffffffffffffffffffffffffffffffff166108fc600e549081150290604051600060405180830381858888f19350505050158015611cf1573d6000803e3d6000fd5b50611cfd333085611f98565b60018260030160006101000a81548160ff02191690831515021790555060018160030160006101000a81548160ff021916908315150217905550827ff227ab9acf6995a490e2e05cb846b1598ea2eeedcdcf5d7aa02ba0e15f67ace43384600201546001604051611d7093929190614547565b60405180910390a2505050565b60007f780e9d63000000000000000000000000000000000000000000000000000000007bffffffffffffffffffffffffffffffffffffffffffffffffffffffff1916827bffffffffffffffffffffffffffffffffffffffffffffffffffffffff19161480611df05750611def82612657565b5b9050919050565b611e0081612739565b611e3f576040517f08c379a0000000000000000000000000000000000000000000000000000000008152600401611e3690614273565b60405180910390fd5b50565b600033905090565b816004600083815260200190815260200160002060006101000a81548173ffffffffffffffffffffffffffffffffffffffff021916908373ffffffffffffffffffffffffffffffffffffffff160217905550808273ffffffffffffffffffffffffffffffffffffffff16611ebd8361150e565b73ffffffffffffffffffffffffffffffffffffffff167f8c5be1e5ebec7d5bd14f71427d1e84f3dd0314c0f7b2291e5b200ac8c7c3b92560405160405180910390a45050565b600080611f0f8361150e565b90508073ffffffffffffffffffffffffffffffffffffffff168473ffffffffffffffffffffffffffffffffffffffff161480611f515750611f508185611a13565b5b80611f8f57508373ffffffffffffffffffffffffffffffffffffffff16611f77846107d9565b73ffffffffffffffffffffffffffffffffffffffff16145b91505092915050565b8273ffffffffffffffffffffffffffffffffffffffff16611fb88261150e565b73ffffffffffffffffffffffffffffffffffffffff161461200e576040517f08c379a0000000000000000000000000000000000000000000000000000000008152600401612005906145f0565b60405180910390fd5b600073ffffffffffffffffffffffffffffffffffffffff168273ffffffffffffffffffffffffffffffffffffffff160361207d576040517f08c379a000000000000000000000000000000000000000000000000000000000815260040161207490614682565b60405180910390fd5b61208a838383600161277a565b8273ffffffffffffffffffffffffffffffffffffffff166120aa8261150e565b73ffffffffffffffffffffffffffffffffffffffff1614612100576040517f08c379a00000000000000000000000000000000000000000000000000000000081526004016120f7906145f0565b60405180910390fd5b6004600082815260200190815260200160002060006101000a81549073ffffffffffffffffffffffffffffffffffffffff02191690556001600360008573ffffffffffffffffffffffffffffffffffffffff1673ffffffffffffffffffffffffffffffffffffffff168152602001908152602001600020600082825403925050819055506001600360008473ffffffffffffffffffffffffffffffffffffffff1673ffffffffffffffffffffffffffffffffffffffff16815260200190815260200160002060008282540192505081905550816002600083815260200190815260200160002060006101000a81548173ffffffffffffffffffffffffffffffffffffffff021916908373ffffffffffffffffffffffffffffffffffffffff160217905550808273ffffffffffffffffffffffffffffffffffffffff168473ffffffffffffffffffffffffffffffffffffffff167fddf252ad1be2c89b69c2b068fc378daa952ba7f163c4a11628f55a4df523b3ef60405160405180910390a461228c838383600161278c565b505050565b6001816000016000828254019250508190555050565b600081600001549050919050565b6122cf828260405180602001604052806000815250612792565b5050565b6122dc82612739565b61231b576040517f08c379a000000000000000000000000000000000000000000000000000000000815260040161231290614714565b60405180910390fd5b80600a6000848152602001908152602001600020908161233b91906148e0565b505050565b60006002600083815260200190815260200160002060009054906101000a900473ffffffffffffffffffffffffffffffffffffffff169050919050565b8173ffffffffffffffffffffffffffffffffffffffff168373ffffffffffffffffffffffffffffffffffffffff16036123eb576040517f08c379a00000000000000000000000000000000000000000000000000000000081526004016123e2906149fe565b60405180910390fd5b80600560008573ffffffffffffffffffffffffffffffffffffffff1673ffffffffffffffffffffffffffffffffffffffff16815260200190815260200160002060008473ffffffffffffffffffffffffffffffffffffffff1673ffffffffffffffffffffffffffffffffffffffff16815260200190815260200160002060006101000a81548160ff0219169083151502179055508173ffffffffffffffffffffffffffffffffffffffff168373ffffffffffffffffffffffffffffffffffffffff167f17307eab39ab6107e8899845ad3d59bd9653f200f220920489ca2b5937696c31836040516124dc91906134fc565b60405180910390a3505050565b6124f4848484611f98565b612500848484846127ed565b61253f576040517f08c379a000000000000000000000000000000000000000000000000000000000815260040161253690614a90565b60405180910390fd5b50505050565b606061255082611df7565b6000600a6000848152602001908152602001600020805461257090613cb2565b80601f016020809104026020016040519081016040528092919081815260200182805461259c90613cb2565b80156125e95780601f106125be576101008083540402835291602001916125e9565b820191906000526020600020905b8154815290600101906020018083116125cc57829003601f168201915b5050505050905060006125fa612974565b9050600081510361260f578192505050612652565b60008251111561264457808260405160200161262c929190614aec565b60405160208183030381529060405292505050612652565b61264d8461298b565b925050505b919050565b60007f80ac58cd000000000000000000000000000000000000000000000000000000007bffffffffffffffffffffffffffffffffffffffffffffffffffffffff1916827bffffffffffffffffffffffffffffffffffffffffffffffffffffffff1916148061272257507f5b5e139f000000000000000000000000000000000000000000000000000000007bffffffffffffffffffffffffffffffffffffffffffffffffffffffff1916827bffffffffffffffffffffffffffffffffffffffffffffffffffffffff1916145b806127325750612731826129f3565b5b9050919050565b60008073ffffffffffffffffffffffffffffffffffffffff1661275b83612340565b73ffffffffffffffffffffffffffffffffffffffff1614159050919050565b61278684848484612a5d565b50505050565b50505050565b61279c8383612bbb565b6127a960008484846127ed565b6127e8576040517f08c379a00000000000000000000000000000000000000000000000000000000081526004016127df90614a90565b60405180910390fd5b505050565b600061280e8473ffffffffffffffffffffffffffffffffffffffff16612dd8565b15612967578373ffffffffffffffffffffffffffffffffffffffff1663150b7a02612837611e42565b8786866040518563ffffffff1660e01b81526004016128599493929190614b65565b6020604051808303816000875af192505050801561289557506040513d601f19601f820116820180604052508101906128929190614bc6565b60015b612917573d80600081146128c5576040519150601f19603f3d011682016040523d82523d6000602084013e6128ca565b606091505b50600081510361290f576040517f08c379a000000000000000000000000000000000000000000000000000000000815260040161290690614a90565b60405180910390fd5b805181602001fd5b63150b7a0260e01b7bffffffffffffffffffffffffffffffffffffffffffffffffffffffff1916817bffffffffffffffffffffffffffffffffffffffffffffffffffffffff19161491505061296c565b600190505b949350505050565b606060405180602001604052806000815250905090565b606061299682611df7565b60006129a0612974565b905060008151116129c057604051806020016040528060008152506129eb565b806129ca84612dfb565b6040516020016129db929190614aec565b6040516020818303038152906040525b915050919050565b60007f01ffc9a7000000000000000000000000000000000000000000000000000000007bffffffffffffffffffffffffffffffffffffffffffffffffffffffff1916827bffffffffffffffffffffffffffffffffffffffffffffffffffffffff1916149050919050565b612a6984848484612ec9565b6001811115612aad576040517f08c379a0000000000000000000000000000000000000000000000000000000008152600401612aa490614c65565b60405180910390fd5b6000829050600073ffffffffffffffffffffffffffffffffffffffff168573ffffffffffffffffffffffffffffffffffffffff1603612af457612aef81612fef565b612b33565b8373ffffffffffffffffffffffffffffffffffffffff168573ffffffffffffffffffffffffffffffffffffffff1614612b3257612b318582613038565b5b5b600073ffffffffffffffffffffffffffffffffffffffff168473ffffffffffffffffffffffffffffffffffffffff1603612b7557612b70816131a5565b612bb4565b8473ffffffffffffffffffffffffffffffffffffffff168473ffffffffffffffffffffffffffffffffffffffff1614612bb357612bb28482613276565b5b5b5050505050565b600073ffffffffffffffffffffffffffffffffffffffff168273ffffffffffffffffffffffffffffffffffffffff1603612c2a576040517f08c379a0000000000000000000000000000000000000000000000000000000008152600401612c2190614cd1565b60405180910390fd5b612c3381612739565b15612c73576040517f08c379a0000000000000000000000000000000000000000000000000000000008152600401612c6a90614d3d565b60405180910390fd5b612c8160008383600161277a565b612c8a81612739565b15612cca576040517f08c379a0000000000000000000000000000000000000000000000000000000008152600401612cc190614d3d565b60405180910390fd5b6001600360008473ffffffffffffffffffffffffffffffffffffffff1673ffffffffffffffffffffffffffffffffffffffff16815260200190815260200160002060008282540192505081905550816002600083815260200190815260200160002060006101000a81548173ffffffffffffffffffffffffffffffffffffffff021916908373ffffffffffffffffffffffffffffffffffffffff160217905550808273ffffffffffffffffffffffffffffffffffffffff16600073ffffffffffffffffffffffffffffffffffffffff167fddf252ad1be2c89b69c2b068fc378daa952ba7f163c4a11628f55a4df523b3ef60405160405180910390a4612dd460008383600161278c565b5050565b6000808273ffffffffffffffffffffffffffffffffffffffff163b119050919050565b606060006001612e0a846132f5565b01905060008167ffffffffffffffff811115612e2957612e2861377b565b5b6040519080825280601f01601f191660200182016040528015612e5b5781602001600182028036833780820191505090505b509050600082602001820190505b600115612ebe578080600190039150507f3031323334353637383961626364656600000000000000000000000000000000600a86061a8153600a8581612eb257612eb1614d5d565b5b04945060008503612e69575b819350505050919050565b6001811115612fe957600073ffffffffffffffffffffffffffffffffffffffff168473ffffffffffffffffffffffffffffffffffffffff1614612f5d5780600360008673ffffffffffffffffffffffffffffffffffffffff1673ffffffffffffffffffffffffffffffffffffffff1681526020019081526020016000206000828254612f559190614d8c565b925050819055505b600073ffffffffffffffffffffffffffffffffffffffff168373ffffffffffffffffffffffffffffffffffffffff1614612fe85780600360008573ffffffffffffffffffffffffffffffffffffffff1673ffffffffffffffffffffffffffffffffffffffff1681526020019081526020016000206000828254612fe091906141f3565b925050819055505b5b50505050565b6008805490506009600083815260200190815260200160002081905550600881908060018154018082558091505060019003906000526020600020016000909190919091505550565b600060016130458461159e565b61304f9190614d8c565b9050600060076000848152602001908152602001600020549050818114613134576000600660008673ffffffffffffffffffffffffffffffffffffffff1673ffffffffffffffffffffffffffffffffffffffff168152602001908152602001600020600084815260200190815260200160002054905080600660008773ffffffffffffffffffffffffffffffffffffffff1673ffffffffffffffffffffffffffffffffffffffff168152602001908152602001600020600084815260200190815260200160002081905550816007600083815260200190815260200160002081905550505b6007600084815260200190815260200160002060009055600660008573ffffffffffffffffffffffffffffffffffffffff1673ffffffffffffffffffffffffffffffffffffffff16815260200190815260200160002060008381526020019081526020016000206000905550505050565b600060016008805490506131b99190614d8c565b90506000600960008481526020019081526020016000205490506000600883815481106131e9576131e8614132565b5b90600052602060002001549050806008838154811061320b5761320a614132565b5b90600052602060002001819055508160096000838152602001908152602001600020819055506009600085815260200190815260200160002060009055600880548061325a57613259614dc0565b5b6001900381819060005260206000200160009055905550505050565b60006132818361159e565b905081600660008573ffffffffffffffffffffffffffffffffffffffff1673ffffffffffffffffffffffffffffffffffffffff168152602001908152602001600020600083815260200190815260200160002081905550806007600084815260200190815260200160002081905550505050565b600080600090507a184f03e93ff9f4daa797ed6e38ed64bf6a1f0100000000000000008310613353577a184f03e93ff9f4daa797ed6e38ed64bf6a1f010000000000000000838161334957613348614d5d565b5b0492506040810190505b6d04ee2d6d415b85acef81000000008310613390576d04ee2d6d415b85acef8100000000838161338657613385614d5d565b5b0492506020810190505b662386f26fc1000083106133bf57662386f26fc1000083816133b5576133b4614d5d565b5b0492506010810190505b6305f5e10083106133e8576305f5e10083816133de576133dd614d5d565b5b0492506008810190505b612710831061340d57612710838161340357613402614d5d565b5b0492506004810190505b60648310613430576064838161342657613425614d5d565b5b0492506002810190505b600a831061343f576001810190505b80915050919050565b6000604051905090565b600080fd5b600080fd5b60007fffffffff0000000000000000000000000000000000000000000000000000000082169050919050565b6134918161345c565b811461349c57600080fd5b50565b6000813590506134ae81613488565b92915050565b6000602082840312156134ca576134c9613452565b5b60006134d88482850161349f565b91505092915050565b60008115159050919050565b6134f6816134e1565b82525050565b600060208201905061351160008301846134ed565b92915050565b600081519050919050565b600082825260208201905092915050565b60005b83811015613551578082015181840152602081019050613536565b60008484015250505050565b6000601f19601f8301169050919050565b600061357982613517565b6135838185613522565b9350613593818560208601613533565b61359c8161355d565b840191505092915050565b600060208201905081810360008301526135c1818461356e565b905092915050565b6000819050919050565b6135dc816135c9565b81146135e757600080fd5b50565b6000813590506135f9816135d3565b92915050565b60006020828403121561361557613614613452565b5b6000613623848285016135ea565b91505092915050565b600073ffffffffffffffffffffffffffffffffffffffff82169050919050565b60006136578261362c565b9050919050565b6136678161364c565b82525050565b6000602082019050613682600083018461365e565b92915050565b6136918161364c565b811461369c57600080fd5b50565b6000813590506136ae81613688565b92915050565b600080604083850312156136cb576136ca613452565b5b60006136d98582860161369f565b92505060206136ea858286016135ea565b9150509250929050565b6136fd816135c9565b82525050565b600060208201905061371860008301846136f4565b92915050565b60008060006060848603121561373757613736613452565b5b60006137458682870161369f565b93505060206137568682870161369f565b9250506040613767868287016135ea565b9150509250925092565b600080fd5b600080fd5b7f4e487b7100000000000000000000000000000000000000000000000000000000600052604160045260246000fd5b6137b38261355d565b810181811067ffffffffffffffff821117156137d2576137d161377b565b5b80604052505050565b60006137e5613448565b90506137f182826137aa565b919050565b600067ffffffffffffffff8211156138115761381061377b565b5b61381a8261355d565b9050602081019050919050565b82818337600083830152505050565b6000613849613844846137f6565b6137db565b90508281526020810184848401111561386557613864613776565b5b613870848285613827565b509392505050565b600082601f83011261388d5761388c613771565b5b813561389d848260208601613836565b91505092915050565b600080604083850312156138bd576138bc613452565b5b600083013567ffffffffffffffff8111156138db576138da613457565b5b6138e785828601613878565b92505060206138f8858286016135ea565b9150509250929050565b600060c08201905061391760008301896136f4565b613924602083018861365e565b61393160408301876136f4565b61393e60608301866134ed565b61394b60808301856136f4565b61395860a08301846136f4565b979650505050505050565b60006020828403121561397957613978613452565b5b60006139878482850161369f565b91505092915050565b600061399b8261362c565b9050919050565b6139ab81613990565b82525050565b600060a0820190506139c660008301886136f4565b6139d360208301876139a2565b6139e060408301866136f4565b6139ed60608301856134ed565b6139fa60808301846134ed565b9695505050505050565b613a0d816134e1565b8114613a1857600080fd5b50565b600081359050613a2a81613a04565b92915050565b60008060408385031215613a4757613a46613452565b5b6000613a558582860161369f565b9250506020613a6685828601613a1b565b9150509250929050565b600067ffffffffffffffff821115613a8b57613a8a61377b565b5b613a948261355d565b9050602081019050919050565b6000613ab4613aaf84613a70565b6137db565b905082815260208101848484011115613ad057613acf613776565b5b613adb848285613827565b509392505050565b600082601f830112613af857613af7613771565b5b8135613b08848260208601613aa1565b91505092915050565b60008060008060808587031215613b2b57613b2a613452565b5b6000613b398782880161369f565b9450506020613b4a8782880161369f565b9350506040613b5b878288016135ea565b925050606085013567ffffffffffffffff811115613b7c57613b7b613457565b5b613b8887828801613ae3565b91505092959194509250565b60008060408385031215613bab57613baa613452565b5b6000613bb9858286016135ea565b9250506020613bca8582860161369f565b9150509250929050565b600060e082019050613be9600083018a6136f4565b613bf6602083018961365e565b613c0360408301886136f4565b613c1060608301876134ed565b613c1d60808301866134ed565b613c2a60a08301856136f4565b613c3760c08301846136f4565b98975050505050505050565b60008060408385031215613c5a57613c59613452565b5b6000613c688582860161369f565b9250506020613c798582860161369f565b9150509250929050565b7f4e487b7100000000000000000000000000000000000000000000000000000000600052602260045260246000fd5b60006002820490506001821680613cca57607f821691505b602082108103613cdd57613cdc613c83565b5b50919050565b7f4552433732313a20617070726f76616c20746f2063757272656e74206f776e6560008201527f7200000000000000000000000000000000000000000000000000000000000000602082015250565b6000613d3f602183613522565b9150613d4a82613ce3565b604082019050919050565b60006020820190508181036000830152613d6e81613d32565b9050919050565b7f4552433732313a20617070726f76652063616c6c6572206973206e6f7420746f60008201527f6b656e206f776e6572206f7220617070726f76656420666f7220616c6c000000602082015250565b6000613dd1603d83613522565b9150613ddc82613d75565b604082019050919050565b60006020820190508181036000830152613e0081613dc4565b9050919050565b7f4552433732313a2063616c6c6572206973206e6f7420746f6b656e206f776e6560008201527f72206f7220617070726f76656400000000000000000000000000000000000000602082015250565b6000613e63602d83613522565b9150613e6e82613e07565b604082019050919050565b60006020820190508181036000830152613e9281613e56565b9050919050565b7f4e487b7100000000000000000000000000000000000000000000000000000000600052601160045260246000fd5b6000613ed3826135c9565b91507fffffffffffffffffffffffffffffffffffffffffffffffffffffffffffffffff8203613f0557613f04613e99565b5b600182019050919050565b7f455243373231456e756d657261626c653a206f776e657220696e646578206f7560008201527f74206f6620626f756e6473000000000000000000000000000000000000000000602082015250565b6000613f6c602b83613522565b9150613f7782613f10565b604082019050919050565b60006020820190508181036000830152613f9b81613f5f565b9050919050565b7f4f6e6c79204e4654206f776e6572732063616e20706572666f726d207468697360008201527f206f7065726174696f6e00000000000000000000000000000000000000000000602082015250565b6000613ffe602a83613522565b915061400982613fa2565b604082019050919050565b6000602082019050818103600083015261402d81613ff1565b9050919050565b7f4974656d206e6f74206c697374656420666f722073616c650000000000000000600082015250565b600061406a601883613522565b915061407582614034565b602082019050919050565b600060208201905081810360008301526140998161405d565b9050919050565b7f455243373231456e756d657261626c653a20676c6f62616c20696e646578206f60008201527f7574206f6620626f756e64730000000000000000000000000000000000000000602082015250565b60006140fc602c83613522565b9150614107826140a0565b604082019050919050565b6000602082019050818103600083015261412b816140ef565b9050919050565b7f4e487b7100000000000000000000000000000000000000000000000000000000600052603260045260246000fd5b7f506c65617365207375626d6974207468652061736b696e67207072696365206960008201527f6e206f7264657220746f20636f6d706c65746520746865207075726368617365602082015250565b60006141bd604083613522565b91506141c882614161565b604082019050919050565b600060208201905081810360008301526141ec816141b0565b9050919050565b60006141fe826135c9565b9150614209836135c9565b925082820190508082111561422157614220613e99565b5b92915050565b7f4552433732313a20696e76616c696420746f6b656e2049440000000000000000600082015250565b600061425d601883613522565b915061426882614227565b602082019050919050565b6000602082019050818103600083015261428c81614250565b9050919050565b7f4552433732313a2061646472657373207a65726f206973206e6f74206120766160008201527f6c6964206f776e65720000000000000000000000000000000000000000000000602082015250565b60006142ef602983613522565b91506142fa82614293565b604082019050919050565b6000602082019050818103600083015261431e816142e2565b9050919050565b7f4f6e6c79206f776e65722063616e20757064617465206c697374696e6720707260008201527f6963650000000000000000000000000000000000000000000000000000000000602082015250565b6000614381602383613522565b915061438c82614325565b604082019050919050565b600060208201905081810360008301526143b081614374565b9050919050565b7f4d616b652073757265207468652070726963652069736e2774206e656761746960008201527f7665000000000000000000000000000000000000000000000000000000000000602082015250565b6000614413602283613522565b915061441e826143b7565b604082019050919050565b6000602082019050818103600083015261444281614406565b9050919050565b7f486f706566756c6c792073656e64696e672074686520636f727265637420707260008201527f6963650000000000000000000000000000000000000000000000000000000000602082015250565b60006144a5602383613522565b91506144b082614449565b604082019050919050565b600060208201905081810360008301526144d481614498565b9050919050565b7f4974656d20616c7265616479206c697374656420666f722073616c6500000000600082015250565b6000614511601c83613522565b915061451c826144db565b602082019050919050565b6000602082019050818103600083015261454081614504565b9050919050565b600060608201905061455c600083018661365e565b61456960208301856136f4565b61457660408301846134ed565b949350505050565b7f4552433732313a207472616e736665722066726f6d20696e636f72726563742060008201527f6f776e6572000000000000000000000000000000000000000000000000000000602082015250565b60006145da602583613522565b91506145e58261457e565b604082019050919050565b60006020820190508181036000830152614609816145cd565b9050919050565b7f4552433732313a207472616e7366657220746f20746865207a65726f2061646460008201527f7265737300000000000000000000000000000000000000000000000000000000602082015250565b600061466c602483613522565b915061467782614610565b604082019050919050565b6000602082019050818103600083015261469b8161465f565b9050919050565b7f45524337323155524953746f726167653a2055524920736574206f66206e6f6e60008201527f6578697374656e7420746f6b656e000000000000000000000000000000000000602082015250565b60006146fe602e83613522565b9150614709826146a2565b604082019050919050565b6000602082019050818103600083015261472d816146f1565b9050919050565b60008190508160005260206000209050919050565b60006020601f8301049050919050565b600082821b905092915050565b6000600883026147967fffffffffffffffffffffffffffffffffffffffffffffffffffffffffffffffff82614759565b6147a08683614759565b95508019841693508086168417925050509392505050565b6000819050919050565b60006147dd6147d86147d3846135c9565b6147b8565b6135c9565b9050919050565b6000819050919050565b6147f7836147c2565b61480b614803826147e4565b848454614766565b825550505050565b600090565b614820614813565b61482b8184846147ee565b505050565b5b8181101561484f57614844600082614818565b600181019050614831565b5050565b601f8211156148945761486581614734565b61486e84614749565b8101602085101561487d578190505b61489161488985614749565b830182614830565b50505b505050565b600082821c905092915050565b60006148b760001984600802614899565b1980831691505092915050565b60006148d083836148a6565b9150826002028217905092915050565b6148e982613517565b67ffffffffffffffff8111156149025761490161377b565b5b61490c8254613cb2565b614917828285614853565b600060209050601f83116001811461494a5760008415614938578287015190505b61494285826148c4565b8655506149aa565b601f19841661495886614734565b60005b828110156149805784890151825560018201915060208501945060208101905061495b565b8683101561499d5784890151614999601f8916826148a6565b8355505b6001600288020188555050505b505050505050565b7f4552433732313a20617070726f766520746f2063616c6c657200000000000000600082015250565b60006149e8601983613522565b91506149f3826149b2565b602082019050919050565b60006020820190508181036000830152614a17816149db565b9050919050565b7f4552433732313a207472616e7366657220746f206e6f6e20455243373231526560008201527f63656976657220696d706c656d656e7465720000000000000000000000000000602082015250565b6000614a7a603283613522565b9150614a8582614a1e565b604082019050919050565b60006020820190508181036000830152614aa981614a6d565b9050919050565b600081905092915050565b6000614ac682613517565b614ad08185614ab0565b9350614ae0818560208601613533565b80840191505092915050565b6000614af88285614abb565b9150614b048284614abb565b91508190509392505050565b600081519050919050565b600082825260208201905092915050565b6000614b3782614b10565b614b418185614b1b565b9350614b51818560208601613533565b614b5a8161355d565b840191505092915050565b6000608082019050614b7a600083018761365e565b614b87602083018661365e565b614b9460408301856136f4565b8181036060830152614ba68184614b2c565b905095945050505050565b600081519050614bc081613488565b92915050565b600060208284031215614bdc57614bdb613452565b5b6000614bea84828501614bb1565b91505092915050565b7f455243373231456e756d657261626c653a20636f6e736563757469766520747260008201527f616e7366657273206e6f7420737570706f727465640000000000000000000000602082015250565b6000614c4f603583613522565b9150614c5a82614bf3565b604082019050919050565b60006020820190508181036000830152614c7e81614c42565b9050919050565b7f4552433732313a206d696e7420746f20746865207a65726f2061646472657373600082015250565b6000614cbb602083613522565b9150614cc682614c85565b602082019050919050565b60006020820190508181036000830152614cea81614cae565b9050919050565b7f4552433732313a20746f6b656e20616c7265616479206d696e74656400000000600082015250565b6000614d27601c83613522565b9150614d3282614cf1565b602082019050919050565b60006020820190508181036000830152614d5681614d1a565b9050919050565b7f4e487b7100000000000000000000000000000000000000000000000000000000600052601260045260246000fd5b6000614d97826135c9565b9150614da2836135c9565b9250828203905081811115614dba57614db9613e99565b5b92915050565b7f4e487b7100000000000000000000000000000000000000000000000000000000600052603160045260246000fdfea2646970667358221220899eb56e4b766e28f52d8054be146b566d3e2ec61693c456027646dcce35c94964736f6c63430008110033",
  "linkReferences": {},
  "deployedLinkReferences": {}
}