{
  "_format": "hh-sol-artifact-1",
  "contractName": "NFTMarketplace",
  "sourceName": "contracts/NFTMarketplace.sol",
  "abi": [
    {
      "inputs": [],
      "stateMutability": "nonpayable",
      "type": "constructor"
    },
    {
      "anonymous": false,
      "inputs": [
        {
          "indexed": true,
          "internalType": "address",
          "name": "owner",
          "type": "address"
        },
        {
          "indexed": true,
          "internalType": "address",
          "name": "approved",
          "type": "address"
        },
        {
          "indexed": true,
          "internalType": "uint256",
          "name": "tokenId",
          "type": "uint256"
        }
      ],
      "name": "Approval",
      "type": "event"
    },
    {
      "anonymous": false,
      "inputs": [
        {
          "indexed": true,
          "internalType": "address",
          "name": "owner",
          "type": "address"
        },
        {
          "indexed": true,
          "internalType": "address",
          "name": "operator",
          "type": "address"
        },
        {
          "indexed": false,
          "internalType": "bool",
          "name": "approved",
          "type": "bool"
        }
      ],
      "name": "ApprovalForAll",
      "type": "event"
    },
    {
      "anonymous": false,
      "inputs": [
        {
          "indexed": true,
          "internalType": "uint256",
          "name": "tokenId",
          "type": "uint256"
        },
        {
          "indexed": false,
          "internalType": "address",
          "name": "owner",
          "type": "address"
        },
        {
          "indexed": false,
          "internalType": "address",
          "name": "seller",
          "type": "address"
        },
        {
          "indexed": false,
          "internalType": "uint256",
          "name": "price",
          "type": "uint256"
        },
        {
          "indexed": false,
          "internalType": "bool",
          "name": "currentlyListed",
          "type": "bool"
        }
      ],
      "name": "NFTListedSuccess",
      "type": "event"
    },
    {
      "anonymous": false,
      "inputs": [
        {
          "indexed": true,
          "internalType": "address",
          "name": "from",
          "type": "address"
        },
        {
          "indexed": true,
          "internalType": "address",
          "name": "to",
          "type": "address"
        },
        {
          "indexed": true,
          "internalType": "uint256",
          "name": "tokenId",
          "type": "uint256"
        }
      ],
      "name": "Transfer",
      "type": "event"
    },
    {
      "inputs": [
        {
          "internalType": "address",
          "name": "to",
          "type": "address"
        },
        {
          "internalType": "uint256",
          "name": "tokenId",
          "type": "uint256"
        }
      ],
      "name": "approve",
      "outputs": [],
      "stateMutability": "nonpayable",
      "type": "function"
    },
    {
      "inputs": [
        {
          "internalType": "address",
          "name": "owner",
          "type": "address"
        }
      ],
      "name": "balanceOf",
      "outputs": [
        {
          "internalType": "uint256",
          "name": "",
          "type": "uint256"
        }
      ],
      "stateMutability": "view",
      "type": "function"
    },
    {
      "inputs": [
        {
          "internalType": "string",
          "name": "NFTURI",
          "type": "string"
        },
        {
          "internalType": "uint256",
          "name": "price",
          "type": "uint256"
        }
      ],
      "name": "createNFT",
      "outputs": [
        {
          "internalType": "uint256",
          "name": "",
          "type": "uint256"
        }
      ],
      "stateMutability": "payable",
      "type": "function"
    },
    {
      "inputs": [
        {
          "internalType": "uint256",
          "name": "tokenId",
          "type": "uint256"
        }
      ],
      "name": "getApproved",
      "outputs": [
        {
          "internalType": "address",
          "name": "",
          "type": "address"
        }
      ],
      "stateMutability": "view",
      "type": "function"
    },
    {
      "inputs": [],
      "name": "getLatestIdToListedNFT",
      "outputs": [
        {
          "components": [
            {
              "internalType": "uint256",
              "name": "NFTId",
              "type": "uint256"
            },
            {
              "internalType": "address payable",
              "name": "owner",
              "type": "address"
            },
            {
              "internalType": "address payable",
              "name": "seller",
              "type": "address"
            },
            {
              "internalType": "uint256",
              "name": "price",
              "type": "uint256"
            },
            {
              "internalType": "bool",
              "name": "currentlyListed",
              "type": "bool"
            }
          ],
          "internalType": "struct NFTMarketplace.ListedNFT",
          "name": "",
          "type": "tuple"
        }
      ],
      "stateMutability": "view",
      "type": "function"
    },
    {
      "inputs": [],
      "name": "getListPrice",
      "outputs": [
        {
          "internalType": "uint256",
          "name": "",
          "type": "uint256"
        }
      ],
      "stateMutability": "view",
      "type": "function"
    },
    {
      "inputs": [
        {
          "internalType": "uint256",
          "name": "_index",
          "type": "uint256"
        },
        {
          "internalType": "address",
          "name": "_callerAddress",
          "type": "address"
        }
      ],
      "name": "getMyNFTs",
      "outputs": [
        {
          "internalType": "uint256",
          "name": "_NFTId",
          "type": "uint256"
        },
        {
          "internalType": "address",
          "name": "_owner",
          "type": "address"
        },
        {
          "internalType": "address",
          "name": "_seller",
          "type": "address"
        },
        {
          "internalType": "uint256",
          "name": "_price",
          "type": "uint256"
        },
        {
          "internalType": "bool",
          "name": "_currentlyListed",
          "type": "bool"
        }
      ],
      "stateMutability": "view",
      "type": "function"
    },
    {
      "inputs": [
        {
          "internalType": "uint256",
          "name": "NFTId",
          "type": "uint256"
        }
      ],
      "name": "getNFT",
      "outputs": [
        {
          "components": [
            {
              "internalType": "uint256",
              "name": "NFTId",
              "type": "uint256"
            },
            {
              "internalType": "address payable",
              "name": "owner",
              "type": "address"
            },
            {
              "internalType": "address payable",
              "name": "seller",
              "type": "address"
            },
            {
              "internalType": "uint256",
              "name": "price",
              "type": "uint256"
            },
            {
              "internalType": "bool",
              "name": "currentlyListed",
              "type": "bool"
            }
          ],
          "internalType": "struct NFTMarketplace.ListedNFT",
          "name": "",
          "type": "tuple"
        }
      ],
      "stateMutability": "view",
      "type": "function"
    },
    {
      "inputs": [],
      "name": "getNFTCount",
      "outputs": [
        {
          "internalType": "uint256",
          "name": "",
          "type": "uint256"
        }
      ],
      "stateMutability": "view",
      "type": "function"
    },
    {
      "inputs": [
        {
          "internalType": "address",
          "name": "owner",
          "type": "address"
        },
        {
          "internalType": "address",
          "name": "operator",
          "type": "address"
        }
      ],
      "name": "isApprovedForAll",
      "outputs": [
        {
          "internalType": "bool",
          "name": "",
          "type": "bool"
        }
      ],
      "stateMutability": "view",
      "type": "function"
    },
    {
      "inputs": [],
      "name": "name",
      "outputs": [
        {
          "internalType": "string",
          "name": "",
          "type": "string"
        }
      ],
      "stateMutability": "view",
      "type": "function"
    },
    {
      "inputs": [
        {
          "internalType": "uint256",
          "name": "tokenId",
          "type": "uint256"
        }
      ],
      "name": "ownerOf",
      "outputs": [
        {
          "internalType": "address",
          "name": "",
          "type": "address"
        }
      ],
      "stateMutability": "view",
      "type": "function"
    },
    {
      "inputs": [
        {
          "internalType": "address",
          "name": "from",
          "type": "address"
        },
        {
          "internalType": "address",
          "name": "to",
          "type": "address"
        },
        {
          "internalType": "uint256",
          "name": "tokenId",
          "type": "uint256"
        }
      ],
      "name": "safeTransferFrom",
      "outputs": [],
      "stateMutability": "nonpayable",
      "type": "function"
    },
    {
      "inputs": [
        {
          "internalType": "address",
          "name": "from",
          "type": "address"
        },
        {
          "internalType": "address",
          "name": "to",
          "type": "address"
        },
        {
          "internalType": "uint256",
          "name": "tokenId",
          "type": "uint256"
        },
        {
          "internalType": "bytes",
          "name": "data",
          "type": "bytes"
        }
      ],
      "name": "safeTransferFrom",
      "outputs": [],
      "stateMutability": "nonpayable",
      "type": "function"
    },
    {
      "inputs": [
        {
          "internalType": "address",
          "name": "operator",
          "type": "address"
        },
        {
          "internalType": "bool",
          "name": "approved",
          "type": "bool"
        }
      ],
      "name": "setApprovalForAll",
      "outputs": [],
      "stateMutability": "nonpayable",
      "type": "function"
    },
    {
      "inputs": [
        {
          "internalType": "bytes4",
          "name": "interfaceId",
          "type": "bytes4"
        }
      ],
      "name": "supportsInterface",
      "outputs": [
        {
          "internalType": "bool",
          "name": "",
          "type": "bool"
        }
      ],
      "stateMutability": "view",
      "type": "function"
    },
    {
      "inputs": [],
      "name": "symbol",
      "outputs": [
        {
          "internalType": "string",
          "name": "",
          "type": "string"
        }
      ],
      "stateMutability": "view",
      "type": "function"
    },
    {
      "inputs": [
        {
          "internalType": "uint256",
          "name": "tokenId",
          "type": "uint256"
        }
      ],
      "name": "tokenURI",
      "outputs": [
        {
          "internalType": "string",
          "name": "",
          "type": "string"
        }
      ],
      "stateMutability": "view",
      "type": "function"
    },
    {
      "inputs": [
        {
          "internalType": "address",
          "name": "from",
          "type": "address"
        },
        {
          "internalType": "address",
          "name": "to",
          "type": "address"
        },
        {
          "internalType": "uint256",
          "name": "tokenId",
          "type": "uint256"
        }
      ],
      "name": "transferFrom",
      "outputs": [],
      "stateMutability": "nonpayable",
      "type": "function"
    },
    {
      "inputs": [
        {
          "internalType": "uint256",
          "name": "_listPrice",
          "type": "uint256"
        }
      ],
      "name": "updateListPrice",
      "outputs": [],
      "stateMutability": "payable",
      "type": "function"
    }
  ],
  "bytecode": "0x6080604052662386f26fc10000600a553480156200001c57600080fd5b506040518060400160405280601681526020017f4172746973616e734e46544d61726b6574706c616365000000000000000000008152506040518060400160405280600681526020017f414e544d4b54000000000000000000000000000000000000000000000000000081525081600090816200009a919062000370565b508060019081620000ac919062000370565b50505033600960006101000a81548173ffffffffffffffffffffffffffffffffffffffff021916908373ffffffffffffffffffffffffffffffffffffffff16021790555062000457565b600081519050919050565b7f4e487b7100000000000000000000000000000000000000000000000000000000600052604160045260246000fd5b7f4e487b7100000000000000000000000000000000000000000000000000000000600052602260045260246000fd5b600060028204905060018216806200017857607f821691505b6020821081036200018e576200018d62000130565b5b50919050565b60008190508160005260206000209050919050565b60006020601f8301049050919050565b600082821b905092915050565b600060088302620001f87fffffffffffffffffffffffffffffffffffffffffffffffffffffffffffffffff82620001b9565b620002048683620001b9565b95508019841693508086168417925050509392505050565b6000819050919050565b6000819050919050565b6000620002516200024b62000245846200021c565b62000226565b6200021c565b9050919050565b6000819050919050565b6200026d8362000230565b620002856200027c8262000258565b848454620001c6565b825550505050565b600090565b6200029c6200028d565b620002a981848462000262565b505050565b5b81811015620002d157620002c560008262000292565b600181019050620002af565b5050565b601f8211156200032057620002ea8162000194565b620002f584620001a9565b8101602085101562000305578190505b6200031d6200031485620001a9565b830182620002ae565b50505b505050565b600082821c905092915050565b6000620003456000198460080262000325565b1980831691505092915050565b600062000360838362000332565b9150826002028217905092915050565b6200037b82620000f6565b67ffffffffffffffff81111562000397576200039662000101565b5b620003a382546200015f565b620003b0828285620002d5565b600060209050601f831160018114620003e85760008415620003d3578287015190505b620003df858262000352565b8655506200044f565b601f198416620003f88662000194565b60005b828110156200042257848901518255600182019150602085019450602081019050620003fb565b868310156200044257848901516200043e601f89168262000332565b8355505b6001600288020188555050505b505050505050565b61399380620004676000396000f3fe60806040526004361061011f5760003560e01c806368f1945f116100a0578063b88d4fde11610064578063b88d4fde14610400578063c322579c14610429578063c87b56dd14610445578063cf39023214610482578063e985e9c5146104c35761011f565b806368f1945f1461031957806370a08231146103445780637a1a52d71461038157806395d89b41146103ac578063a22cb465146103d75761011f565b806326829155116100e7578063268291551461021b57806342842e0e1461024b5780635427963714610274578063576f7ea71461029f5780636352211e146102dc5761011f565b806301ffc9a71461012457806306fdde0314610161578063081812fc1461018c578063095ea7b3146101c957806323b872dd146101f2575b600080fd5b34801561013057600080fd5b5061014b6004803603810190610146919061246c565b610500565b60405161015891906124b4565b60405180910390f35b34801561016d57600080fd5b506101766105e2565b604051610183919061255f565b60405180910390f35b34801561019857600080fd5b506101b360048036038101906101ae91906125b7565b610674565b6040516101c09190612625565b60405180910390f35b3480156101d557600080fd5b506101f060048036038101906101eb919061266c565b6106ba565b005b3480156101fe57600080fd5b50610219600480360381019061021491906126ac565b6107d1565b005b61023560048036038101906102309190612834565b610831565b604051610242919061289f565b60405180910390f35b34801561025757600080fd5b50610272600480360381019061026d91906126ac565b6109f5565b005b34801561028057600080fd5b50610289610a15565b604051610296919061289f565b60405180910390f35b3480156102ab57600080fd5b506102c660048036038101906102c191906125b7565b610a26565b6040516102d39190612961565b60405180910390f35b3480156102e857600080fd5b5061030360048036038101906102fe91906125b7565b610b2e565b6040516103109190612625565b60405180910390f35b34801561032557600080fd5b5061032e610bb4565b60405161033b919061289f565b60405180910390f35b34801561035057600080fd5b5061036b6004803603810190610366919061297c565b610bbe565b604051610378919061289f565b60405180910390f35b34801561038d57600080fd5b50610396610c75565b6040516103a39190612961565b60405180910390f35b3480156103b857600080fd5b506103c1610d8a565b6040516103ce919061255f565b60405180910390f35b3480156103e357600080fd5b506103fe60048036038101906103f991906129d5565b610e1c565b005b34801561040c57600080fd5b5061042760048036038101906104229190612ab6565b610e32565b005b610443600480360381019061043e91906125b7565b610e94565b005b34801561045157600080fd5b5061046c600480360381019061046791906125b7565b610f2e565b604051610479919061255f565b60405180910390f35b34801561048e57600080fd5b506104a960048036038101906104a49190612b39565b611040565b6040516104ba959493929190612b79565b60405180910390f35b3480156104cf57600080fd5b506104ea60048036038101906104e59190612bcc565b611125565b6040516104f791906124b4565b60405180910390f35b60007f80ac58cd000000000000000000000000000000000000000000000000000000007bffffffffffffffffffffffffffffffffffffffffffffffffffffffff1916827bffffffffffffffffffffffffffffffffffffffffffffffffffffffff191614806105cb57507f5b5e139f000000000000000000000000000000000000000000000000000000007bffffffffffffffffffffffffffffffffffffffffffffffffffffffff1916827bffffffffffffffffffffffffffffffffffffffffffffffffffffffff1916145b806105db57506105da826111b9565b5b9050919050565b6060600080546105f190612c3b565b80601f016020809104026020016040519081016040528092919081815260200182805461061d90612c3b565b801561066a5780601f1061063f5761010080835404028352916020019161066a565b820191906000526020600020905b81548152906001019060200180831161064d57829003601f168201915b5050505050905090565b600061067f82611223565b6004600083815260200190815260200160002060009054906101000a900473ffffffffffffffffffffffffffffffffffffffff169050919050565b60006106c582610b2e565b90508073ffffffffffffffffffffffffffffffffffffffff168373ffffffffffffffffffffffffffffffffffffffff1603610735576040517f08c379a000000000000000000000000000000000000000000000000000000000815260040161072c90612cde565b60405180910390fd5b8073ffffffffffffffffffffffffffffffffffffffff1661075461126e565b73ffffffffffffffffffffffffffffffffffffffff16148061078357506107828161077d61126e565b611125565b5b6107c2576040517f08c379a00000000000000000000000000000000000000000000000000000000081526004016107b990612d70565b60405180910390fd5b6107cc8383611276565b505050565b6107e26107dc61126e565b8261132f565b610821576040517f08c379a000000000000000000000000000000000000000000000000000000000815260040161081890612e02565b60405180910390fd5b61082c8383836113c4565b505050565b600061083d60076116bd565b600061084960076116d3565b905061085533826116e1565b61085f81856116ff565b610869818461176c565b600c60003373ffffffffffffffffffffffffffffffffffffffff1673ffffffffffffffffffffffffffffffffffffffff1681526020019081526020016000206040518060a001604052808381526020013073ffffffffffffffffffffffffffffffffffffffff1681526020013373ffffffffffffffffffffffffffffffffffffffff1681526020018581526020016000151581525090806001815401808255809150506001900390600052602060002090600502016000909190919091506000820151816000015560208201518160010160006101000a81548173ffffffffffffffffffffffffffffffffffffffff021916908373ffffffffffffffffffffffffffffffffffffffff16021790555060408201518160020160006101000a81548173ffffffffffffffffffffffffffffffffffffffff021916908373ffffffffffffffffffffffffffffffffffffffff1602179055506060820151816003015560808201518160040160006101000a81548160ff02191690831515021790555050508091505092915050565b610a1083838360405180602001604052806000815250610e32565b505050565b6000610a2160076116d3565b905090565b610a2e6123a3565b600b60008381526020019081526020016000206040518060a0016040529081600082015481526020016001820160009054906101000a900473ffffffffffffffffffffffffffffffffffffffff1673ffffffffffffffffffffffffffffffffffffffff1673ffffffffffffffffffffffffffffffffffffffff1681526020016002820160009054906101000a900473ffffffffffffffffffffffffffffffffffffffff1673ffffffffffffffffffffffffffffffffffffffff1673ffffffffffffffffffffffffffffffffffffffff168152602001600382015481526020016004820160009054906101000a900460ff1615151515815250509050919050565b600080610b3a8361196f565b9050600073ffffffffffffffffffffffffffffffffffffffff168173ffffffffffffffffffffffffffffffffffffffff1603610bab576040517f08c379a0000000000000000000000000000000000000000000000000000000008152600401610ba290612e6e565b60405180910390fd5b80915050919050565b6000600a54905090565b60008073ffffffffffffffffffffffffffffffffffffffff168273ffffffffffffffffffffffffffffffffffffffff1603610c2e576040517f08c379a0000000000000000000000000000000000000000000000000000000008152600401610c2590612f00565b60405180910390fd5b600360008373ffffffffffffffffffffffffffffffffffffffff1673ffffffffffffffffffffffffffffffffffffffff168152602001908152602001600020549050919050565b610c7d6123a3565b6000610c8960076116d3565b9050600b60008281526020019081526020016000206040518060a0016040529081600082015481526020016001820160009054906101000a900473ffffffffffffffffffffffffffffffffffffffff1673ffffffffffffffffffffffffffffffffffffffff1673ffffffffffffffffffffffffffffffffffffffff1681526020016002820160009054906101000a900473ffffffffffffffffffffffffffffffffffffffff1673ffffffffffffffffffffffffffffffffffffffff1673ffffffffffffffffffffffffffffffffffffffff168152602001600382015481526020016004820160009054906101000a900460ff16151515158152505091505090565b606060018054610d9990612c3b565b80601f0160208091040260200160405190810160405280929190818152602001828054610dc590612c3b565b8015610e125780601f10610de757610100808354040283529160200191610e12565b820191906000526020600020905b815481529060010190602001808311610df557829003601f168201915b5050505050905090565b610e2e610e2761126e565b83836119ac565b5050565b610e43610e3d61126e565b8361132f565b610e82576040517f08c379a0000000000000000000000000000000000000000000000000000000008152600401610e7990612e02565b60405180910390fd5b610e8e84848484611b18565b50505050565b3373ffffffffffffffffffffffffffffffffffffffff16600960009054906101000a900473ffffffffffffffffffffffffffffffffffffffff1673ffffffffffffffffffffffffffffffffffffffff1614610f24576040517f08c379a0000000000000000000000000000000000000000000000000000000008152600401610f1b90612f92565b60405180910390fd5b80600a8190555050565b6060610f3982611223565b6000600660008481526020019081526020016000208054610f5990612c3b565b80601f0160208091040260200160405190810160405280929190818152602001828054610f8590612c3b565b8015610fd25780601f10610fa757610100808354040283529160200191610fd2565b820191906000526020600020905b815481529060010190602001808311610fb557829003601f168201915b505050505090506000610fe3611b74565b90506000815103610ff857819250505061103b565b60008251111561102d578082604051602001611015929190612fee565b6040516020818303038152906040529250505061103b565b61103684611b8b565b925050505b919050565b600080600080600080600c60008873ffffffffffffffffffffffffffffffffffffffff1673ffffffffffffffffffffffffffffffffffffffff168152602001908152602001600020888154811061109a57611099613012565b5b9060005260206000209060050201905080600001548160010160009054906101000a900473ffffffffffffffffffffffffffffffffffffffff168260020160009054906101000a900473ffffffffffffffffffffffffffffffffffffffff1683600301548460040160009054906101000a900460ff1695509550955095509550509295509295909350565b6000600560008473ffffffffffffffffffffffffffffffffffffffff1673ffffffffffffffffffffffffffffffffffffffff16815260200190815260200160002060008373ffffffffffffffffffffffffffffffffffffffff1673ffffffffffffffffffffffffffffffffffffffff16815260200190815260200160002060009054906101000a900460ff16905092915050565b60007f01ffc9a7000000000000000000000000000000000000000000000000000000007bffffffffffffffffffffffffffffffffffffffffffffffffffffffff1916827bffffffffffffffffffffffffffffffffffffffffffffffffffffffff1916149050919050565b61122c81611bf3565b61126b576040517f08c379a000000000000000000000000000000000000000000000000000000000815260040161126290612e6e565b60405180910390fd5b50565b600033905090565b816004600083815260200190815260200160002060006101000a81548173ffffffffffffffffffffffffffffffffffffffff021916908373ffffffffffffffffffffffffffffffffffffffff160217905550808273ffffffffffffffffffffffffffffffffffffffff166112e983610b2e565b73ffffffffffffffffffffffffffffffffffffffff167f8c5be1e5ebec7d5bd14f71427d1e84f3dd0314c0f7b2291e5b200ac8c7c3b92560405160405180910390a45050565b60008061133b83610b2e565b90508073ffffffffffffffffffffffffffffffffffffffff168473ffffffffffffffffffffffffffffffffffffffff16148061137d575061137c8185611125565b5b806113bb57508373ffffffffffffffffffffffffffffffffffffffff166113a384610674565b73ffffffffffffffffffffffffffffffffffffffff16145b91505092915050565b8273ffffffffffffffffffffffffffffffffffffffff166113e482610b2e565b73ffffffffffffffffffffffffffffffffffffffff161461143a576040517f08c379a0000000000000000000000000000000000000000000000000000000008152600401611431906130b3565b60405180910390fd5b600073ffffffffffffffffffffffffffffffffffffffff168273ffffffffffffffffffffffffffffffffffffffff16036114a9576040517f08c379a00000000000000000000000000000000000000000000000000000000081526004016114a090613145565b60405180910390fd5b6114b68383836001611c34565b8273ffffffffffffffffffffffffffffffffffffffff166114d682610b2e565b73ffffffffffffffffffffffffffffffffffffffff161461152c576040517f08c379a0000000000000000000000000000000000000000000000000000000008152600401611523906130b3565b60405180910390fd5b6004600082815260200190815260200160002060006101000a81549073ffffffffffffffffffffffffffffffffffffffff02191690556001600360008573ffffffffffffffffffffffffffffffffffffffff1673ffffffffffffffffffffffffffffffffffffffff168152602001908152602001600020600082825403925050819055506001600360008473ffffffffffffffffffffffffffffffffffffffff1673ffffffffffffffffffffffffffffffffffffffff16815260200190815260200160002060008282540192505081905550816002600083815260200190815260200160002060006101000a81548173ffffffffffffffffffffffffffffffffffffffff021916908373ffffffffffffffffffffffffffffffffffffffff160217905550808273ffffffffffffffffffffffffffffffffffffffff168473ffffffffffffffffffffffffffffffffffffffff167fddf252ad1be2c89b69c2b068fc378daa952ba7f163c4a11628f55a4df523b3ef60405160405180910390a46116b88383836001611d5a565b505050565b6001816000016000828254019250508190555050565b600081600001549050919050565b6116fb828260405180602001604052806000815250611d60565b5050565b61170882611bf3565b611747576040517f08c379a000000000000000000000000000000000000000000000000000000000815260040161173e906131d7565b60405180910390fd5b8060066000848152602001908152602001600020908161176791906133a3565b505050565b600a5434146117b0576040517f08c379a00000000000000000000000000000000000000000000000000000000081526004016117a7906134e7565b60405180910390fd5b600081116117f3576040517f08c379a00000000000000000000000000000000000000000000000000000000081526004016117ea90613579565b60405180910390fd5b6040518060a001604052808381526020013073ffffffffffffffffffffffffffffffffffffffff1681526020013373ffffffffffffffffffffffffffffffffffffffff16815260200182815260200160011515815250600b60008481526020019081526020016000206000820151816000015560208201518160010160006101000a81548173ffffffffffffffffffffffffffffffffffffffff021916908373ffffffffffffffffffffffffffffffffffffffff16021790555060408201518160020160006101000a81548173ffffffffffffffffffffffffffffffffffffffff021916908373ffffffffffffffffffffffffffffffffffffffff1602179055506060820151816003015560808201518160040160006101000a81548160ff02191690831515021790555090505061192c3330846113c4565b817faf3679aa048f33d719e7f919c27adf518151bd48166ce2531710cfe40bc7bb8630338460016040516119639493929190613599565b60405180910390a25050565b60006002600083815260200190815260200160002060009054906101000a900473ffffffffffffffffffffffffffffffffffffffff169050919050565b8173ffffffffffffffffffffffffffffffffffffffff168373ffffffffffffffffffffffffffffffffffffffff1603611a1a576040517f08c379a0000000000000000000000000000000000000000000000000000000008152600401611a119061362a565b60405180910390fd5b80600560008573ffffffffffffffffffffffffffffffffffffffff1673ffffffffffffffffffffffffffffffffffffffff16815260200190815260200160002060008473ffffffffffffffffffffffffffffffffffffffff1673ffffffffffffffffffffffffffffffffffffffff16815260200190815260200160002060006101000a81548160ff0219169083151502179055508173ffffffffffffffffffffffffffffffffffffffff168373ffffffffffffffffffffffffffffffffffffffff167f17307eab39ab6107e8899845ad3d59bd9653f200f220920489ca2b5937696c3183604051611b0b91906124b4565b60405180910390a3505050565b611b238484846113c4565b611b2f84848484611dbb565b611b6e576040517f08c379a0000000000000000000000000000000000000000000000000000000008152600401611b65906136bc565b60405180910390fd5b50505050565b606060405180602001604052806000815250905090565b6060611b9682611223565b6000611ba0611b74565b90506000815111611bc05760405180602001604052806000815250611beb565b80611bca84611f42565b604051602001611bdb929190612fee565b6040516020818303038152906040525b915050919050565b60008073ffffffffffffffffffffffffffffffffffffffff16611c158361196f565b73ffffffffffffffffffffffffffffffffffffffff1614159050919050565b6001811115611d5457600073ffffffffffffffffffffffffffffffffffffffff168473ffffffffffffffffffffffffffffffffffffffff1614611cc85780600360008673ffffffffffffffffffffffffffffffffffffffff1673ffffffffffffffffffffffffffffffffffffffff1681526020019081526020016000206000828254611cc0919061370b565b925050819055505b600073ffffffffffffffffffffffffffffffffffffffff168373ffffffffffffffffffffffffffffffffffffffff1614611d535780600360008573ffffffffffffffffffffffffffffffffffffffff1673ffffffffffffffffffffffffffffffffffffffff1681526020019081526020016000206000828254611d4b919061373f565b925050819055505b5b50505050565b50505050565b611d6a8383612010565b611d776000848484611dbb565b611db6576040517f08c379a0000000000000000000000000000000000000000000000000000000008152600401611dad906136bc565b60405180910390fd5b505050565b6000611ddc8473ffffffffffffffffffffffffffffffffffffffff1661222d565b15611f35578373ffffffffffffffffffffffffffffffffffffffff1663150b7a02611e0561126e565b8786866040518563ffffffff1660e01b8152600401611e2794939291906137c8565b6020604051808303816000875af1925050508015611e6357506040513d601f19601f82011682018060405250810190611e609190613829565b60015b611ee5573d8060008114611e93576040519150601f19603f3d011682016040523d82523d6000602084013e611e98565b606091505b506000815103611edd576040517f08c379a0000000000000000000000000000000000000000000000000000000008152600401611ed4906136bc565b60405180910390fd5b805181602001fd5b63150b7a0260e01b7bffffffffffffffffffffffffffffffffffffffffffffffffffffffff1916817bffffffffffffffffffffffffffffffffffffffffffffffffffffffff191614915050611f3a565b600190505b949350505050565b606060006001611f5184612250565b01905060008167ffffffffffffffff811115611f7057611f6f612709565b5b6040519080825280601f01601f191660200182016040528015611fa25781602001600182028036833780820191505090505b509050600082602001820190505b600115612005578080600190039150507f3031323334353637383961626364656600000000000000000000000000000000600a86061a8153600a8581611ff957611ff8613856565b5b04945060008503611fb0575b819350505050919050565b600073ffffffffffffffffffffffffffffffffffffffff168273ffffffffffffffffffffffffffffffffffffffff160361207f576040517f08c379a0000000000000000000000000000000000000000000000000000000008152600401612076906138d1565b60405180910390fd5b61208881611bf3565b156120c8576040517f08c379a00000000000000000000000000000000000000000000000000000000081526004016120bf9061393d565b60405180910390fd5b6120d6600083836001611c34565b6120df81611bf3565b1561211f576040517f08c379a00000000000000000000000000000000000000000000000000000000081526004016121169061393d565b60405180910390fd5b6001600360008473ffffffffffffffffffffffffffffffffffffffff1673ffffffffffffffffffffffffffffffffffffffff16815260200190815260200160002060008282540192505081905550816002600083815260200190815260200160002060006101000a81548173ffffffffffffffffffffffffffffffffffffffff021916908373ffffffffffffffffffffffffffffffffffffffff160217905550808273ffffffffffffffffffffffffffffffffffffffff16600073ffffffffffffffffffffffffffffffffffffffff167fddf252ad1be2c89b69c2b068fc378daa952ba7f163c4a11628f55a4df523b3ef60405160405180910390a4612229600083836001611d5a565b5050565b6000808273ffffffffffffffffffffffffffffffffffffffff163b119050919050565b600080600090507a184f03e93ff9f4daa797ed6e38ed64bf6a1f01000000000000000083106122ae577a184f03e93ff9f4daa797ed6e38ed64bf6a1f01000000000000000083816122a4576122a3613856565b5b0492506040810190505b6d04ee2d6d415b85acef810000000083106122eb576d04ee2d6d415b85acef810000000083816122e1576122e0613856565b5b0492506020810190505b662386f26fc10000831061231a57662386f26fc1000083816123105761230f613856565b5b0492506010810190505b6305f5e1008310612343576305f5e100838161233957612338613856565b5b0492506008810190505b612710831061236857612710838161235e5761235d613856565b5b0492506004810190505b6064831061238b576064838161238157612380613856565b5b0492506002810190505b600a831061239a576001810190505b80915050919050565b6040518060a0016040528060008152602001600073ffffffffffffffffffffffffffffffffffffffff168152602001600073ffffffffffffffffffffffffffffffffffffffff168152602001600081526020016000151581525090565b6000604051905090565b600080fd5b600080fd5b60007fffffffff0000000000000000000000000000000000000000000000000000000082169050919050565b61244981612414565b811461245457600080fd5b50565b60008135905061246681612440565b92915050565b6000602082840312156124825761248161240a565b5b600061249084828501612457565b91505092915050565b60008115159050919050565b6124ae81612499565b82525050565b60006020820190506124c960008301846124a5565b92915050565b600081519050919050565b600082825260208201905092915050565b60005b838110156125095780820151818401526020810190506124ee565b60008484015250505050565b6000601f19601f8301169050919050565b6000612531826124cf565b61253b81856124da565b935061254b8185602086016124eb565b61255481612515565b840191505092915050565b600060208201905081810360008301526125798184612526565b905092915050565b6000819050919050565b61259481612581565b811461259f57600080fd5b50565b6000813590506125b18161258b565b92915050565b6000602082840312156125cd576125cc61240a565b5b60006125db848285016125a2565b91505092915050565b600073ffffffffffffffffffffffffffffffffffffffff82169050919050565b600061260f826125e4565b9050919050565b61261f81612604565b82525050565b600060208201905061263a6000830184612616565b92915050565b61264981612604565b811461265457600080fd5b50565b60008135905061266681612640565b92915050565b600080604083850312156126835761268261240a565b5b600061269185828601612657565b92505060206126a2858286016125a2565b9150509250929050565b6000806000606084860312156126c5576126c461240a565b5b60006126d386828701612657565b93505060206126e486828701612657565b92505060406126f5868287016125a2565b9150509250925092565b600080fd5b600080fd5b7f4e487b7100000000000000000000000000000000000000000000000000000000600052604160045260246000fd5b61274182612515565b810181811067ffffffffffffffff821117156127605761275f612709565b5b80604052505050565b6000612773612400565b905061277f8282612738565b919050565b600067ffffffffffffffff82111561279f5761279e612709565b5b6127a882612515565b9050602081019050919050565b82818337600083830152505050565b60006127d76127d284612784565b612769565b9050828152602081018484840111156127f3576127f2612704565b5b6127fe8482856127b5565b509392505050565b600082601f83011261281b5761281a6126ff565b5b813561282b8482602086016127c4565b91505092915050565b6000806040838503121561284b5761284a61240a565b5b600083013567ffffffffffffffff8111156128695761286861240f565b5b61287585828601612806565b9250506020612886858286016125a2565b9150509250929050565b61289981612581565b82525050565b60006020820190506128b46000830184612890565b92915050565b6128c381612581565b82525050565b60006128d4826125e4565b9050919050565b6128e4816128c9565b82525050565b6128f381612499565b82525050565b60a08201600082015161290f60008501826128ba565b50602082015161292260208501826128db565b50604082015161293560408501826128db565b50606082015161294860608501826128ba565b50608082015161295b60808501826128ea565b50505050565b600060a08201905061297660008301846128f9565b92915050565b6000602082840312156129925761299161240a565b5b60006129a084828501612657565b91505092915050565b6129b281612499565b81146129bd57600080fd5b50565b6000813590506129cf816129a9565b92915050565b600080604083850312156129ec576129eb61240a565b5b60006129fa85828601612657565b9250506020612a0b858286016129c0565b9150509250929050565b600067ffffffffffffffff821115612a3057612a2f612709565b5b612a3982612515565b9050602081019050919050565b6000612a59612a5484612a15565b612769565b905082815260208101848484011115612a7557612a74612704565b5b612a808482856127b5565b509392505050565b600082601f830112612a9d57612a9c6126ff565b5b8135612aad848260208601612a46565b91505092915050565b60008060008060808587031215612ad057612acf61240a565b5b6000612ade87828801612657565b9450506020612aef87828801612657565b9350506040612b00878288016125a2565b925050606085013567ffffffffffffffff811115612b2157612b2061240f565b5b612b2d87828801612a88565b91505092959194509250565b60008060408385031215612b5057612b4f61240a565b5b6000612b5e858286016125a2565b9250506020612b6f85828601612657565b9150509250929050565b600060a082019050612b8e6000830188612890565b612b9b6020830187612616565b612ba86040830186612616565b612bb56060830185612890565b612bc260808301846124a5565b9695505050505050565b60008060408385031215612be357612be261240a565b5b6000612bf185828601612657565b9250506020612c0285828601612657565b9150509250929050565b7f4e487b7100000000000000000000000000000000000000000000000000000000600052602260045260246000fd5b60006002820490506001821680612c5357607f821691505b602082108103612c6657612c65612c0c565b5b50919050565b7f4552433732313a20617070726f76616c20746f2063757272656e74206f776e6560008201527f7200000000000000000000000000000000000000000000000000000000000000602082015250565b6000612cc86021836124da565b9150612cd382612c6c565b604082019050919050565b60006020820190508181036000830152612cf781612cbb565b9050919050565b7f4552433732313a20617070726f76652063616c6c6572206973206e6f7420746f60008201527f6b656e206f776e6572206f7220617070726f76656420666f7220616c6c000000602082015250565b6000612d5a603d836124da565b9150612d6582612cfe565b604082019050919050565b60006020820190508181036000830152612d8981612d4d565b9050919050565b7f4552433732313a2063616c6c6572206973206e6f7420746f6b656e206f776e6560008201527f72206f7220617070726f76656400000000000000000000000000000000000000602082015250565b6000612dec602d836124da565b9150612df782612d90565b604082019050919050565b60006020820190508181036000830152612e1b81612ddf565b9050919050565b7f4552433732313a20696e76616c696420746f6b656e2049440000000000000000600082015250565b6000612e586018836124da565b9150612e6382612e22565b602082019050919050565b60006020820190508181036000830152612e8781612e4b565b9050919050565b7f4552433732313a2061646472657373207a65726f206973206e6f74206120766160008201527f6c6964206f776e65720000000000000000000000000000000000000000000000602082015250565b6000612eea6029836124da565b9150612ef582612e8e565b604082019050919050565b60006020820190508181036000830152612f1981612edd565b9050919050565b7f4f6e6c79206f776e65722063616e20757064617465206c697374696e6720707260008201527f6963650000000000000000000000000000000000000000000000000000000000602082015250565b6000612f7c6023836124da565b9150612f8782612f20565b604082019050919050565b60006020820190508181036000830152612fab81612f6f565b9050919050565b600081905092915050565b6000612fc8826124cf565b612fd28185612fb2565b9350612fe28185602086016124eb565b80840191505092915050565b6000612ffa8285612fbd565b91506130068284612fbd565b91508190509392505050565b7f4e487b7100000000000000000000000000000000000000000000000000000000600052603260045260246000fd5b7f4552433732313a207472616e736665722066726f6d20696e636f72726563742060008201527f6f776e6572000000000000000000000000000000000000000000000000000000602082015250565b600061309d6025836124da565b91506130a882613041565b604082019050919050565b600060208201905081810360008301526130cc81613090565b9050919050565b7f4552433732313a207472616e7366657220746f20746865207a65726f2061646460008201527f7265737300000000000000000000000000000000000000000000000000000000602082015250565b600061312f6024836124da565b915061313a826130d3565b604082019050919050565b6000602082019050818103600083015261315e81613122565b9050919050565b7f45524337323155524953746f726167653a2055524920736574206f66206e6f6e60008201527f6578697374656e7420746f6b656e000000000000000000000000000000000000602082015250565b60006131c1602e836124da565b91506131cc82613165565b604082019050919050565b600060208201905081810360008301526131f0816131b4565b9050919050565b60008190508160005260206000209050919050565b60006020601f8301049050919050565b600082821b905092915050565b6000600883026132597fffffffffffffffffffffffffffffffffffffffffffffffffffffffffffffffff8261321c565b613263868361321c565b95508019841693508086168417925050509392505050565b6000819050919050565b60006132a061329b61329684612581565b61327b565b612581565b9050919050565b6000819050919050565b6132ba83613285565b6132ce6132c6826132a7565b848454613229565b825550505050565b600090565b6132e36132d6565b6132ee8184846132b1565b505050565b5b81811015613312576133076000826132db565b6001810190506132f4565b5050565b601f82111561335757613328816131f7565b6133318461320c565b81016020851015613340578190505b61335461334c8561320c565b8301826132f3565b50505b505050565b600082821c905092915050565b600061337a6000198460080261335c565b1980831691505092915050565b60006133938383613369565b9150826002028217905092915050565b6133ac826124cf565b67ffffffffffffffff8111156133c5576133c4612709565b5b6133cf8254612c3b565b6133da828285613316565b600060209050601f83116001811461340d57600084156133fb578287015190505b6134058582613387565b86555061346d565b601f19841661341b866131f7565b60005b828110156134435784890151825560018201915060208501945060208101905061341e565b86831015613460578489015161345c601f891682613369565b8355505b6001600288020188555050505b505050505050565b7f486f706566756c6c792073656e64696e672074686520636f727265637420707260008201527f6963650000000000000000000000000000000000000000000000000000000000602082015250565b60006134d16023836124da565b91506134dc82613475565b604082019050919050565b60006020820190508181036000830152613500816134c4565b9050919050565b7f4d616b652073757265207468652070726963652069736e2774206e656761746960008201527f7665000000000000000000000000000000000000000000000000000000000000602082015250565b60006135636022836124da565b915061356e82613507565b604082019050919050565b6000602082019050818103600083015261359281613556565b9050919050565b60006080820190506135ae6000830187612616565b6135bb6020830186612616565b6135c86040830185612890565b6135d560608301846124a5565b95945050505050565b7f4552433732313a20617070726f766520746f2063616c6c657200000000000000600082015250565b60006136146019836124da565b915061361f826135de565b602082019050919050565b6000602082019050818103600083015261364381613607565b9050919050565b7f4552433732313a207472616e7366657220746f206e6f6e20455243373231526560008201527f63656976657220696d706c656d656e7465720000000000000000000000000000602082015250565b60006136a66032836124da565b91506136b18261364a565b604082019050919050565b600060208201905081810360008301526136d581613699565b9050919050565b7f4e487b7100000000000000000000000000000000000000000000000000000000600052601160045260246000fd5b600061371682612581565b915061372183612581565b9250828203905081811115613739576137386136dc565b5b92915050565b600061374a82612581565b915061375583612581565b925082820190508082111561376d5761376c6136dc565b5b92915050565b600081519050919050565b600082825260208201905092915050565b600061379a82613773565b6137a4818561377e565b93506137b48185602086016124eb565b6137bd81612515565b840191505092915050565b60006080820190506137dd6000830187612616565b6137ea6020830186612616565b6137f76040830185612890565b8181036060830152613809818461378f565b905095945050505050565b60008151905061382381612440565b92915050565b60006020828403121561383f5761383e61240a565b5b600061384d84828501613814565b91505092915050565b7f4e487b7100000000000000000000000000000000000000000000000000000000600052601260045260246000fd5b7f4552433732313a206d696e7420746f20746865207a65726f2061646472657373600082015250565b60006138bb6020836124da565b91506138c682613885565b602082019050919050565b600060208201905081810360008301526138ea816138ae565b9050919050565b7f4552433732313a20746f6b656e20616c7265616479206d696e74656400000000600082015250565b6000613927601c836124da565b9150613932826138f1565b602082019050919050565b600060208201905081810360008301526139568161391a565b905091905056fea26469706673582212204549b1995be1db4f5a1b44c6135a0d966d441fd7d1870fb099ad5017cef7f30364736f6c63430008110033",
  "linkReferences": {},
  "deployedLinkReferences": {}
}